:020000040800F2
:1000000000500020911200083D120008451200081F
:100010004D120008551200085D1200080000000093
:10002000000000000000000000000000B15B0008BC
:100030006512000800000000015D0008495D00082D
:10004000D9120008D9120008D9120008D9120008E4
:10005000D9120008D9120008D9120008D9120008D4
:10006000D9120008D9120008D9120008D9120008C4
:10007000D9120008D9120008D9120008D9120008B4
:10008000D9120008D9120008D9120008D9120008A4
:10009000D9120008D9120008D9120008D912000894
:1000A000D9120008D9120008D9120008D912000884
:1000B000D9120008D912000871120008D9120008DC
:1000C000D9120008D9120008D9120008D912000864
:1000D000D9120008D9120008D9120008D912000854
:1000E000D9120008D9120008D91200080000000037
:1000F0000000000000000000000000000000000000
:0C01000000000000000000005FF808F1A3
:1001100010B5054C237833B9044B13B10448AFF341
:1001200000800123237010BD840000200000000027
:10013000AC63000808B5034B1BB103490348AFF398
:10014000008008BD0000000088000020AC630008AB
:1001500080B500AF00220F21114801F090FB102163
:100160000F4801F075FB0346002B14D020210C48EA
:1001700001F06EFB0346002B0DD04021084801F032
:1001800067FB0346002B06D08021054801F060FB89
:100190000346002B01D1012300E00023184680BD57
:1001A0000008014080B582B000AF00237B600023CF
:1001B0003B6000237B6059E001220F21324801F0AF
:1001C0005EFB01227B6802FA03F39BB20022194610
:1001D0002D4801F054FB10212B4801F039FB034658
:1001E000002B0AD100233B6000BF1021264801F0FC
:1001F0002FFB0346002BF8D03BE02021224801F0E2
:1002000027FB0346002B0AD101233B6000BF2021BE
:100210001D4801F01DFB0346002BF8D029E04021CA
:10022000194801F015FB0346002B0AD102233B605D
:1002300000BF4021144801F00BFB0346002BF8D00F
:1002400017E08021104801F003FB0346002B0AD180
:1002500003233B6000BF80210B4801F0F9FA0346FD
:10026000002BF8D005E07B6801337B607B68032BB3
:10027000A2DD064A7B689B001A443B6813441B7846
:1002800018460837BD4680BD000801400000002028
:1002900080B582B000AF0023FB710023FB710BE03F
:1002A000FB79124AD35C184600F024F8052001F0CF
:1002B00047F8FB790133FB71FB79032BF0D900235D
:1002C000FB710BE0FB790A4AD35C184600F068F832
:1002D000052001F035F8FB790133FB71FB79052B23
:1002E000F0D900BF00BF0837BD4680BD1000002018
:1002F0001800002080B586B002AF0346FB71FB7981
:1003000023F00F03FB730823BB7304237B730223C7
:100310003B730123FB72FA7BBB7B1343DAB27B7B1B
:100320001343DBB25AB2397BFB7A0B43DBB25BB2CD
:10033000DB435BB213405BB2DBB2BB7207F10A0274
:100340000A23009301234E21144801F0F5FB0120FC
:1003500000F0F6FFFA7BBB7B1343DBB25AB2797B2A
:100360003B7B0B43D9B2FB7A0B43DBB25BB2DB4383
:100370005BB213405BB2DBB2BB7207F10A020A2325
:10038000009301234E21054801F0D6FB052000F023
:10039000D7FF00BF1037BD4680BD00BFA0000020C2
:1003A00080B586B002AF0346FB71FB7923F00F03E3
:1003B000FB73FB791B01BB7308237B7304233B7323
:1003C0000223FB720123BB72FA7B7B7B1343DAB2FD
:1003D0003B7B1343DBB25AB2F97ABB7A0B43DBB2F5
:1003E0005BB2DB435BB213405BB2DBB27B7207F103
:1003F00009020A23009301234E21334801F09CFB9C
:10040000022000F09DFFFA7B7B7B1343DBB25AB2E4
:10041000397BFB7A0B43D9B2BB7A0B43DBB25BB2BD
:10042000DB435BB213405BB2DBB27B7207F10902C4
:100430000A23009301234E21234801F07DFB022073
:1004400000F07EFFBA7B7B7B1343DAB23B7B134326
:10045000DBB25AB2F97ABB7A0B43DBB25BB2DB4355
:100460005BB213405BB2DBB23B7207F108020A23B6
:10047000009301234E21144801F05EFB022000F09E
:100480005FFFBA7B7B7B1343DBB25AB2397BFB7ACB
:100490000B43D9B2BB7A0B43DBB25BB2DB435BB23B
:1004A00013405BB2DBB23B7207F108020A230093F0
:1004B00001234E21044801F03FFB022000F040FFE1
:1004C00000BF1037BD4680BDA000002080B586B0BB
:1004D00002AF0346FB71FB7923F00F03FB73FB793B
:1004E0001B01BB7308237B7304233B730223FB7242
:1004F0000123BB72FA7B7B7B1343DAB23B7B134352
:10050000DAB2BB7A1343DBB25AB297F90B30DB4352
:100510005BB213405BB2DBB27B7207F109020A23C4
:10052000009301234E21334801F006FB022000F026
:1005300007FFFA7B7B7B1343DAB2BB7A1343DBB250
:100540005AB2397BFB7A0B43DBB25BB2DB435BB263
:1005500013405BB2DBB27B7207F109020A230093FE
:1005600001234E21234801F0E7FA022000F0E8FEC3
:10057000BA7B7B7B1343DAB23B7B1343DAB2BB7AA1
:100580001343DBB25AB297F90B30DB435BB2134033
:100590005BB2DBB23B7207F108020A23009301232E
:1005A0004E21144801F0C8FA022000F0C9FEBA7BBF
:1005B0007B7B1343DAB2BB7A1343DBB25AB2397B8B
:1005C000FB7A0B43DBB25BB2DB435BB213405BB243
:1005D000DBB23B7207F108020A23009301234E218C
:1005E000044801F0A9FA022000F0AAFE00BF10376B
:1005F000BD4680BDA000002080B588B002AF00F0ED
:100600006DFE00F0CBF800F0D3F900F0A7F900F090
:1006100001F900F02DF901224FF400514D4801F08D
:100620002EF90C214C4802F019FB4C4B00221A64A5
:10063000FFF72EFE3020FFF749FF3020FFF746FF7F
:100640003020FFF743FF8020FFF7AAFE444B0193C1
:100650000423009300234FF496724249424804F069
:100660006AF978617B69012B0BD04FF0500383F35B
:100670001188BFF36F8FBFF34F8F3B6100BF00BF87
:10068000FDE73A4B0193032300930023C822384926
:10069000384804F050F978617B69012B0BD04FF09A
:1006A000500383F31188BFF36F8FBFF34F8FFB604D
:1006B00000BF00BFFDE7304B0193022300930023EE
:1006C000C8222E492E4804F036F978617B69012B47
:1006D0000BD04FF0500383F31188BFF36F8FBFF33C
:1006E0004F8FBB6000BF00BFFDE7264B0193012386
:1006F00000930023C8222449244804F01CF978619F
:100700007B69012B0BD04FF0500383F31188BFF3AB
:100710006F8FBFF34F8F7B6000BF00BFFDE70022EC
:100720000121012003F038FC0346194A136003221B
:100730000021012003F030FC0346164A136001201B
:1007400003F0C5FC0346144A136004F07BFA00BFB3
:10075000FDE700BF00100140F4000020000400404D
:1007600084010020C4630008890A00088801002071
:10077000D0630008390D00088C010020DC630008FC
:10078000690D000890010020E8630008050E0008CC
:1007900094010020980100209C01002080B590B0B9
:1007A00000AF07F1180328220021184605F010FDBC
:1007B0003B1D00221A605A609A60DA601A610223B7
:1007C000BB610123BB621023FB6200237B6307F143
:1007D0001803184601F008FD0346002B01D000F075
:1007E0009DFB0F237B600023BB600023FB60002385
:1007F0003B6100237B613B1D0021184601F076FF21
:100800000346002B01D000F089FB00BF4037BD46F6
:1008100080BD000080B500AF124B134A1A60114B27
:10082000124A5A600F4B00229A600E4B0022DA6087
:100830000C4B4FF480421A610A4B00225A61094B5B
:1008400000229A61074B0022DA61064B00221A62ED
:10085000044801F02DF80346002B01D000F05EFBA8
:1008600000BF80BDA000002000540040A086010011
:1008700080B58EB000AF07F1280300221A605A60DD
:100880009A60DA6007F1200300221A605A603B1D6B
:1008900000221A605A609A60DA601A615A619A619D
:1008A0002C4B2D4A1A602B4B07225A60294B0022F1
:1008B0009A60284B6322DA60264B00221A61254B8E
:1008C00000229A61234802F0CFF80346002B01D0A2
:1008D00000F024FB4FF48053BB6207F12803194654
:1008E0001C4802F00FFC0346002B01D000F016FB61
:1008F000184802F05BF90346002B01D000F00EFB14
:1009000000233B6200237B6207F120031946114854
:1009100002F094FF0346002B01D000F0FFFA6023A1
:100920007B600023BB600023FB6000237B613B1DD9
:100930000C221946074802F023FB0346002B01D086
:1009400000F0ECFA034800F07DFB00BF3837BD46ED
:1009500080BD00BFF40000200004004080B500AF5F
:10096000114B124A1A60104B4FF4E1325A600E4B91
:1009700000229A600C4B0022DA600B4B00221A61B5
:10098000094B0C225A61084B00229A61064B002247
:10099000DA61054802F0C2FF0346002B01D000F0E7
:1009A000BDFA00BF80BD00BF3C01002000380140FF
:1009B00080B588B000AF07F1100300221A605A60BA
:1009C0009A60DA602D4B9B692C4A43F010039361C7
:1009D0002A4B9B6903F01003FB60FB68274B9B6964
:1009E000264A43F004039361244B9B6903F00403FC
:1009F000BB60BB68214B9B69204A43F008039361AD
:100A00001E4B9B6903F008037B607B6800224FF458
:100A100000511B4800F033FF00220F21194800F05D
:100A20002EFF4FF400533B6101237B610023BB6128
:100A30000223FB6107F110031946114800F084FD01
:100A40000F233B6101237B610023BB610223FB6118
:100A500007F1100319460B4800F076FDF0233B61C7
:100A600000237B610023BB6107F110031946054891
:100A700000F06AFD00BF2037BD4680BD0010024077
:100A8000001001400008014080B586B002AF7860D8
:100A900080237B720023FB720023FB60FFF758FB6F
:100AA0000346012B40F0328100224FF40051994857
:100AB00000F0E5FEFFF776FB0346BB72BB7A442BE2
:100AC00000F08680442B00F3DB80232B41D02A2BBF
:100AD00040F0D680FB68002B40F31381FB68012BAC
:100AE00018D180237B728C4B186807F10901002311
:100AF000002203F005FB894B00221A70884B18680E
:100B0000864B1B781A46002300930323002104F030
:100B1000A7FE1AE0FB68022B17D181237B727E4B64
:100B2000186807F109010023002203F0E9FA7B4B62
:100B300000221A707A4B1868784B1B781A460023EB
:100B400000930323002104F08BFEFB68013BFB6054
:100B5000D7E0FB68012B00F3D680FB68012B18D18E
:100B600082237B726C4B186807F109010023002275
:100B700003F0C6FA694B00221A70694B1868674B7C
:100B80001B781A46002300930323002104F068FE1B
:100B90001AE0FB68002B17D181237B725E4B18682B
:100BA00007F109010023002203F0AAFA5B4B00229F
:100BB0001A705B4B1868594B1B781A460023009338
:100BC0000323002104F04CFEFB680133FB609AE034
:100BD000544B1B78303B642202FB03F1514B5B7892
:100BE000A3F1300213469B0013445B00CA184D4B1F
:100BF0009B78303B13444C4A13604B4B1B68642B6F
:100C000029DD4A4B1B684FF0FF31184603F05CFCAE
:100C1000444B31221A70434B30225A70414B3022E0
:100C20009A70424B186800230022002103F068FAF2
:100C30003D4B64221A600023FB60384B01221A707E
:100C4000374B1868354B1B781A4600230093032353
:100C5000002104F005FE364B1868002300930023A2
:100C60000022002104F0FCFD0123FB72314B1868C7
:100C7000FA7A002300930323002104F0F1FD45E0FC
:100C8000BB7A2F2B41D9BB7A392B3ED8274B1B6817
:100C90004FF0FF31184603F017FC224AFB6813445B
:100CA000BA7A1A70214B186800230022002103F041
:100CB00027FA204B18681B4AFB6813441B781A4616
:100CC000002300930323002104F0CAFD124B18688F
:100CD000FB68144A99180023002203F011FAFB68FC
:100CE000DBB20233DAB20D4B1A700D4B18680B4BA6
:100CF0001B781A46002300930323002104F0B0FD63
:100D000003E000BF02E000BF00E000BF322003F0BC
:100D100063FFC3E60010014094010020A4010020FD
:100D20009001002020000020A00100209C01002054
:100D3000880100208C01002080B584B002AF78606B
:100D40004FF0FF330093002300220021002004F025
:100D500007FD034B1A68034B1A6400BFF0E700BF9E
:100D6000A00100200004004080B586B002AF78608A
:100D700007F10C034FF0FF32009200220021002007
:100D800004F0EEFCFB68012B1CD11A4B1B684FF0E2
:100D9000FF31184603F098FB4FF47A73032216498B
:100DA000164802F00BFE134B1868002300220021A6
:100DB00003F0A6F94FF47A73022211490F4802F0AA
:100DC000FDFDD5E70B4B1B684FF0FF31184603F0D4
:100DD0007BFB07F10C014FF47A730122074802F004
:100DE000EDFD044B186800230022002103F088F970
:100DF000BEE700BF9C010020200000203C01002035
:100E0000F463000880B586B002AF786007F10C0388
:100E10004FF0FF32009200220021002004F0A0FCDD
:100E200007F10C014FF47A730122314802F0C6FD3C
:100E3000FB68022B10D12F4B1B6807F10B014FF001
:100E4000FF32184603F05EFAFB7A1846FFF73EFBC6
:100E50008020FFF7A5FAD9E7FB68032B10D1254BBB
:100E60001B6807F10B014FF0FF32184603F04AFAF6
:100E7000FB7A1846FFF72AFB8120FFF791FAC5E7B6
:100E8000FB68042B10D11B4B1B6807F10B014FF0C3
:100E9000FF32184603F036FAFB7A1846FFF716FBC6
:100EA0008220FFF77DFAB1E7FB68002B0DD1114BD3
:100EB0001B6807F10B014FF0FF32184603F022FACE
:100EC000FB7A1846FFF76CFAA0E7FB68012B9DD16F
:100ED0008020FFF765FA3120FFF7F8FA3020FFF79E
:100EE000F5FA3020FFF7F2FA8020FFF759FA8DE784
:100EF0003C0100209401002080B582B000AF7860F2
:100F00007B681B68044A934201D100F0FDF900BFE1
:100F10000837BD4680BD00BF0008004080B400AF68
:100F200072B600BF00BFFDE780B485B000AF154BBF
:100F30009B69144A43F001039361124B9B6903F0D0
:100F40000103BB60BB680F4BDB690E4A43F0805363
:100F5000D3610C4BDB6903F080537B607B680A4BE9
:100F60005B68FB60FB6823F0E063FB60FB6843F0B9
:100F70008063FB60044AFB68536000BF1437BD46C2
:100F800080BC7047001002400000014080B588B06E
:100F900000AF786007F1100300221A605A609A606F
:100FA000DA607B681B68154A934223D1144B9B6916
:100FB000134A43F008039361114B9B6903F0080344
:100FC000FB60FB68C0233B6112237B610323FB6151
:100FD00007F1100319460B4800F0B6FA084BDB691D
:100FE000074A43F40013D361054BDB6903F4001394
:100FF000BB60BB6800BF2037BD4680BD00540040C9
:1010000000100240000C014080B485B000AF786051
:101010007B681B68094A93420BD1094BDB69084A7C
:1010200043F00203D361064BDB6903F00203FB606C
:10103000FB6800BF1437BD4680BC70470004004009
:101040000010024080B588B000AF786007F110034F
:1010500000221A605A609A60DA607B681B680F4A47
:10106000934217D10E4B9B690D4A43F008039361DD
:101070000B4B9B6903F00803FB60FB6802233B6199
:1010800002237B610223FB6107F110031946054827
:1010900000F05AFA00BF2037BD4680BD0004004072
:1010A00000100240000C014080B588B000AF7860AD
:1010B00007F1100300221A605A609A60DA607B68B8
:1010C0001B681C4A934231D11B4B9B691A4A43F45B
:1010D00080439361184B9B6903F48043FB60FB687A
:1010E000154B9B69144A43F004039361124B9B69AF
:1010F00003F00403BB60BB684FF400733B61022341
:101100007B610323FB6107F1100319460B4800F0D4
:101110001BFA4FF480633B6100237B610023BB61BA
:1011200007F110031946054800F00EFA00BF2037FA
:10113000BD4680BD0038014000100240000801405B
:1011400080B58EB000AF78600023FB620023BB62E5
:10115000002387F83330344BDB69334A43F0040310
:10116000D361314BDB6903F00403FB60FB6807F1DB
:10117000100207F114031146184601F027FC3B6AE0
:10118000FB62FB6A002B03D101F0F8FB786304E0FB
:1011900001F0F4FB03465B007B637B6B234AA2FBFD
:1011A00003239B0C013BBB62214B224A1A60204B5C
:1011B00040F2E732DA601E4ABB6A53601C4B0022E1
:1011C0001A611B4B00229A60194B00229A61184841
:1011D00001F04AFC034687F8333097F83330002B90
:1011E0001BD1134801F090FC034687F8333097F881
:1011F0003330002B11D11E2000F097F97B680F2BA4
:1012000008D8002279681E2000F073F90A4A7B682A
:10121000136002E0012387F8333097F83330184623
:101220003837BD4680BD00BF0010024083DE1B433F
:10123000A8010020000800402800002080B400AF72
:1012400000BFFDE780B400AF00BFFDE780B400AF92
:1012500000BFFDE780B400AF00BFFDE780B400AF82
:1012600000BFFDE780B400AF00BFBD4680BC704743
:1012700080B500AF024801F093FD00BF80BD00BF04
:10128000A801002080B400AF00BFBD4680BC7047FD
:10129000FFF7F8FF0B480C490C4A002302E0D45832
:1012A000C4500433C4188C42F9D3094A094C0023B2
:1012B00001E013600432A242FBD304F0EFFFFFF71A
:1012C0009BF970470000002084000020386400086B
:1012D00084000020802C0020FEE7000080B500AFD5
:1012E000084B1B68074A43F010031360032000F00B
:1012F000F5F80F20FFF724FFFFF716FE002318462E
:1013000080BD00BF0020024080B400AF054B1B78B9
:101310001A46054B1B681344034A136000BFBD46C1
:1013200080BC70472C000020F001002080B400AF8A
:10133000024B1B681846BD4680BC7047F001002078
:1013400080B584B000AF7860FFF7F0FFB8607B68CD
:10135000FB60FB68B3F1FF3F05D00A4B1B781A46D0
:10136000FB681344FB6000BFFFF7E0FF0246BB6869
:10137000D31AFA689A42F7D800BF00BF1037BD46AB
:1013800080BD00BF2C00002080B485B000AF786025
:101390007B6803F00703FB600C4BDB68BB60BA683B
:1013A0004FF6FF031340BB60FB681A02BB68134390
:1013B00043F0BF6343F40033BB60044ABB68D360AF
:1013C00000BF1437BD4680BC704700BF00ED00E091
:1013D00080B400AF044BDB681B0A03F00703184618
:1013E000BD4680BC704700BF00ED00E080B483B014
:1013F00000AF0346FB7197F90730002B0BDBFB793D
:1014000003F01F02064997F907305B09012000FA33
:1014100002F241F8232000BF0C37BD4680BC704764
:1014200000E100E080B483B000AF03463960FB7197
:1014300097F90730002B0ADB3B68DAB20C4997F9C1
:1014400007301201D2B20B4483F800230AE03B6854
:10145000DAB20849FB7903F00F03043B1201D2B260
:101460000B441A7600BF0C37BD4680BC704700BFE6
:1014700000E100E000ED00E080B489B000AFF8606A
:10148000B9607A60FB6803F00703FB61FB69C3F195
:101490000703042B28BF0423BB61FB690433062B1D
:1014A00002D9FB69033B00E000237B614FF0FF3270
:1014B000BB6902FA03F3DA43BB681A407B699A40BE
:1014C0004FF0FF317B6901FA03F3D9437B680B408E
:1014D000134318462437BD4680BC704780B582B0A0
:1014E00000AF78607868FFF74FFF00BF0837BD4650
:1014F00080BD80B586B000AF0346B9607A60FB73EB
:1015000000237B61FFF764FF78617A68B9687869C6
:10151000FFF7B2FF024697F90F3011461846FFF762
:1015200081FF00BF1837BD4680BD80B582B000AFD7
:101530000346FB7197F907301846FFF757FF00BFC6
:101540000837BD4680BD000080B48BB000AF786026
:10155000396000237B6200233B6269E101227B6AE0
:1015600002FA03F3FB613B681B68FA691340BB6135
:10157000BA69FB699A4240F058813B685B689A4AB5
:1015800093425ED0984A934275D8984A934258D075
:10159000964A93426FD8964A934252D0944A9342C5
:1015A00069D8944A93424CD0924A934263D8924A63
:1015B000934246D0904A93425DD8122B2AD8122BE0
:1015C00059D801A252F823F0431600081D1600084E
:1015D0002F16000871160008771600087716000805
:1015E00077160008771600087716000877160008A7
:1015F0007716000877160008771600087716000897
:1016000077160008771600087716000825160008D8
:1016100039160008794A934213D02CE03B68DB6806
:101620003B6229E03B68DB6804333B6224E03B68B3
:10163000DB6808333B621FE03B68DB680C333B62CE
:101640001AE03B689B68002B02D104233B6213E045
:101650003B689B68012B05D108233B627B68FA69D4
:101660001A6109E008233B627B68FA695A6103E06A
:1016700000233B6200E000BFBB69FF2B01D87B6801
:1016800001E07B6804337B61BB69FF2B02D87B6A76
:101690009B0002E07B6A083B9B003B617B691A6808
:1016A0000F213B6901FA03F3DB431A40396A3B69B6
:1016B00001FA03F31A437B691A603B685B6803F025
:1016C0008053002B00F0B1804D4B9B694C4A43F096
:1016D000010393614A4B9B6903F00103BB60BB6844
:1016E000484A7B6A9B08023352F82330FB607B6ACE
:1016F00003F003039B000F2202FA03F3DB43FA68B3
:101700001340FB607B68404A934213D07B683F4A9A
:1017100093420DD07B683E4A934207D07B683D4A96
:10172000934201D1032306E0042304E0022302E0F4
:10173000012300E000237A6A02F003029200934042
:10174000FA681343FB602F497B6A9B080233FA68EF
:1017500041F823203B685B6803F48013002B06D01C
:101760002D4B9A682C49BB6913438B6006E02A4BCA
:101770009A68BB69DB43284913408B603B685B6810
:1017800003F40013002B06D0234BDA682249BB690F
:101790001343CB6006E0204BDA68BB69DB431E498C
:1017A0001340CB603B685B6803F40033002B06D02A
:1017B000194B5A681849BB6913434B6006E0164B36
:1017C0005A68BB69DB43144913404B603B685B6854
:1017D00003F48033002B21D00F4B1A680E49BB69EC
:1017E00013430B6021E000BF0000321000003110F5
:1017F0000000221000002110000012100000111043
:10180000001002400000014000080140000C0140AF
:101810000010014000140140000401400B4B1A6805
:10182000BB69DB43094913400B607B6A01337B6270
:101830003B681A687B6A22FA03F3002B7FF48EAEB2
:1018400000BF00BF2C37BD4680BC7047000401407C
:1018500080B485B000AF78600B467B807B689A6867
:101860007B881340002B02D00123FB7301E000238F
:10187000FB73FB7B18461437BD4680BC704780B4B1
:1018800083B000AF78600B467B8013467B707B781B
:10189000002B03D07A887B681A6103E07B881A04E6
:1018A0007B681A6100BF0C37BD4680BC70470000E2
:1018B00080B584B000AF78607B68002B01D1012334
:1018C0002BE17B6893F83D30DBB2002B06D17B68BF
:1018D000002283F83C207868FFF758FB7B682422BD
:1018E00083F83D207B681B681A687B681B6822F0C0
:1018F00001021A607B681B681A687B681B6842F4E7
:1019000000421A607B681B681A687B681B6822F4B7
:1019100000421A6001F032F8F8607B685B68814A27
:10192000934207D8FB68804A934294BF0123002367
:10193000DBB206E0FB687D4A934294BF012300239B
:10194000DBB2002B01D00123E7E0FB68784AA2FB61
:1019500003239B0CBB607B681B685B6823F03F0123
:101960007B681B68BA680A435A607B681B681B6AFD
:1019700023F03F017B685B686A4A934202D8BB68E8
:10198000013309E0BB684FF4967202FB03F3694A26
:10199000A2FB03239B0901337A6812680B4313628D
:1019A0007B681B68DB6923F44F4222F0FF027B68EF
:1019B0005B685C498B4219D8FB68591E7B685B6881
:1019C0005B00B1FBF3F3591C40F6FC730B40002B9A
:1019D0000AD0FB68591E7B685B685B00B1FBF3F3C0
:1019E0000133C3F30B0351E004234FE07B689B6892
:1019F000002B11D1FB68581E7B6859680B465B00B1
:101A00000B44B0FBF3F30133C3F30B03002B0CBF08
:101A100001230023DBB212E0FB68581E7B68596883
:101A20000B469B000B4499000B44B0FBF3F30133CE
:101A3000C3F30B03002B0CBF01230023DBB2002BED
:101A400001D0012322E07B689B68002B0ED1FB684C
:101A5000581E7B6859680B465B000B44B0FBF3F3E0
:101A60000133C3F30B0343F400430FE0FB68581E3C
:101A70007B6859680B469B000B4499000B44B0FBF4
:101A8000F3F30133C3F30B0343F44043796809686C
:101A90001343CB617B681B681B6823F0C0017B6824
:101AA000DA697B681B6A1A437B681B680A431A6001
:101AB0007B681B689B6823F4034323F0FF037A6869
:101AC00011697A68D26811437A6812680B4393608F
:101AD0007B681B68DB6823F0FF017B685A697B68C1
:101AE0009B691A437B681B680A43DA607B681B6842
:101AF0001A687B681B6842F001021A607B6800224A
:101B00001A647B68202283F83D207B6800221A63D8
:101B10007B68002283F83E20002318461037BD461C
:101B200080BD00BFA08601007F841E00FF083D002D
:101B300083DE1B43D34D621080B588B002AFF860DE
:101B40007A601A460B467B8113463B81FFF7EEFB1A
:101B50007861FB6893F83D30DBB2202B40F0E080E9
:101B60007B690093192301227049F86800F064F939
:101B70000346002B01D00223D3E0FB6893F83C30EE
:101B8000012B01D10223CCE0FB68012283F83C2029
:101B9000FB681B681B6803F00103012B07D0FB687F
:101BA0001B681A68FB681B6842F001021A60FB6838
:101BB0001B681A68FB681B6822F400621A60FB68E5
:101BC000212283F83D20FB68102283F83E20FB6829
:101BD00000221A64FB687A685A62FB683A895A855F
:101BE000FB685B8D9AB2FB681A85FB68504ADA6223
:101BF00079897B693A6AF86800F09CF80346002B03
:101C000001D001238DE000233B61FB681B685B6909
:101C10003B61FB681B689B693B613B6966E07A69D5
:101C2000396AF86800F022FA0346002B0DD0FB68F1
:101C30001B6C042B07D1FB681B681A68FB681B68C8
:101C400042F400721A6001236BE0FB685B6A1A7849
:101C5000FB681B681A61FB685B6A5A1CFB685A6266
:101C6000FB685B8D9BB2013B9AB2FB685A85FB68AF
:101C70001B8D013B9AB2FB681A85FB681B685B6988
:101C800003F00403042B1BD1FB681B8D002B17D022
:101C9000FB685B6A1A78FB681B681A61FB685B6A01
:101CA0005A1CFB685A62FB685B8D9BB2013B9AB27F
:101CB000FB685A85FB681B8D013B9AB2FB681A854D
:101CC0007A69396AF86800F019FA0346002B0DD0DA
:101CD000FB681B6C042B07D1FB681B681A68FB6848
:101CE0001B6842F400721A6001231AE0FB681B8D26
:101CF000002B94D1FB681B681A68FB681B6842F4D0
:101D000000721A60FB68202283F83D20FB680022E5
:101D100083F83E20FB68002283F83C20002300E08B
:101D2000022318461837BD4680BD00BF02001000D0
:101D30000000FFFF80B588B002AFF8607A603B60BA
:101D40000B467B81FB68DB6A7B617B69082B06D0D5
:101D50007B69012B03D07B6913F5803F08D1FB68B9
:101D60001B681A68FB681B6842F480721A600BE0FB
:101D7000FB681B6B122B07D1FB681B681A68FB689A
:101D80001B6842F480721A603B6800937B680022F3
:101D90004FF00111F86800F04FF80346002B0DD00A
:101DA000FB681B681B6803F48073B3F5807F03D165
:101DB000FB684FF400721A64032335E0FB681B696B
:101DC000B3F5804F08D17B89DBB21A46FB681B68EC
:101DD00002F0FE021A611BE07B89DB11DBB203F02B
:101DE0000603DBB263F00F03DAB2FB681B681A610B
:101DF0003B687A680E49F86800F098F80346002BB3
:101E000001D0012310E07B89DAB2FB681B681A61FC
:101E10003B687A680749F86800F088F80346002BA9
:101E200001D0012300E0002318461837BD4680BDCD
:101E3000080001000200010080B584B000AFF86026
:101E4000B9603B601346FB7148E03B68B3F1FF3F6C
:101E500044D0FFF76BFA0246BB69D31A3A689A423C
:101E600002D33B68002B39D1BB681B0CDBB2012BC2
:101E70000DD1FB681B685B69DA43BB6813409BB2FA
:101E8000002B0CBF01230023DBB21A460CE0FB68D9
:101E90001B689B69DA43BB6813409BB2002B0CBFE5
:101EA00001230023DBB21A46FB799A4216D1FB6864
:101EB00000221A63FB68202283F83D20FB68002281
:101EC00083F83E20FB681B6C43F02002FB681A6419
:101ED000FB68002283F83C20012323E0BB681B0C35
:101EE000DBB2012B0DD1FB681B685B69DA43BB6871
:101EF00013409BB2002B0CBF01230023DBB21A4618
:101F00000CE0FB681B689B69DA43BB6813409BB21B
:101F1000002B0CBF01230023DBB21A46FB799A4247
:101F200093D0002318461037BD4680BD80B584B0DD
:101F300000AFF860B9607A603B6071E0FB681B68D5
:101F40005B6903F48063B3F5806F23D1FB681B6882
:101F50001A68FB681B6842F400721A60FB681B6811
:101F60006FF480625A61FB6800221A63FB682022CA
:101F700083F83D20FB68002283F83E20FB681B6C41
:101F800043F00402FB681A64FB68002283F83C20DB
:101F9000012367E07B68B3F1FF3F41D0FFF7C6F94B
:101FA00002463B68D31A7A689A4202D37B68002BB8
:101FB00036D1BB681B0CDBB2012B0CD1FB681B6854
:101FC0005B69DA43BB6813409BB2002B14BF01234B
:101FD0000023DBB20BE0FB681B689B69DA43BB683C
:101FE00013409BB2002B14BF01230023DBB2002B54
:101FF00016D0FB6800221A63FB68202283F83D207C
:10200000FB68002283F83E20FB681B6C43F0200233
:10201000FB681A64FB68002283F83C20012321E05E
:10202000BB681B0CDBB2012B0CD1FB681B685B6926
:10203000DA43BB6813409BB2002B14BF012300237B
:10204000DBB20BE0FB681B689B69DA43BB6813409B
:102050009BB2002B14BF01230023DBB2002B7FF4C3
:102060006DAF002318461037BD4680BD80B584B0E3
:1020700000AFF860B9607A6034E0F86800F086F884
:102080000346002B01D0012334E0BB68B3F1FF3FCE
:1020900028D0FFF74BF902467B68D31ABA689A42F8
:1020A00002D3BB68002B1DD1FB681B685B6903F082
:1020B0008003802B16D0FB6800221A63FB68202265
:1020C00083F83D20FB68002283F83E20FB681B6CF0
:1020D00043F02002FB681A64FB68002283F83C206E
:1020E000012307E0FB681B685B6903F08003802B1A
:1020F000C3D1002318461037BD4680BD80B584B0DB
:1021000000AFF860B9607A6034E0F86800F03EF83B
:102110000346002B01D0012334E0BB68B3F1FF3F3D
:1021200028D0FFF703F902467B68D31ABA689A42AF
:1021300002D3BB68002B1DD1FB681B685B6903F0F1
:102140000403042B16D0FB6800221A63FB682022CC
:1021500083F83D20FB68002283F83E20FB681B6C5F
:1021600043F02002FB681A64FB68002283F83C20DD
:10217000012307E0FB681B685B6903F00403042B81
:10218000C3D1002318461037BD4680BD80B483B04C
:1021900000AF78607B681B685B6903F48063B3F50C
:1021A000806F1BD17B681B686FF480625A617B680B
:1021B00000221A637B68202283F83D207B6800227E
:1021C00083F83E207B681B6C43F004027B681A6432
:1021D0007B68002283F83C20012300E0002318469E
:1021E0000C37BD4680BC704780B586B000AF7860C4
:1021F0007B68002B01D1012372E27B681B6803F02E
:102200000103002B00F08780924B5B6803F00C0306
:10221000042B0CD08F4B5B6803F00C03082B12D1FE
:102220008C4B5B6803F48033B3F5803F0BD1894B53
:102230001B6803F40033002B6CD07B685B68002BB9
:1022400068D101234CE27B685B68B3F5803F06D11F
:10225000804B1B687F4A43F4803313602EE07B6819
:102260005B68002B0CD17B4B1B687A4A23F48033CC
:102270001360784B1B68774A23F4802313601DE0BA
:102280007B685B68B3F5A02F0CD1724B1B68714A59
:1022900043F4802313606F4B1B686E4A43F4803312
:1022A00013600BE06B4B1B686A4A23F480331360A6
:1022B000684B1B68674A23F4802313607B685B6864
:1022C000002B13D0FFF732F8386108E0FFF72EF843
:1022D00002463B69D31A642B01D9032300E25D4B0C
:1022E0001B6803F40033002BF0D014E0FFF71EF856
:1022F000386108E0FFF71AF802463B69D31A642BED
:1023000001D90323ECE1534B1B6803F40033002B8A
:10231000F0D100E000BF7B681B6803F00203002BD4
:1023200063D04C4B5B6803F00C03002B0BD0494B84
:102330005B6803F00C03082B1CD1464B5B6803F46D
:102340008033002B16D1434B1B6803F00203002B94
:1023500005D07B681B69012B01D00123C0E13D4BF7
:102360001B6823F0F8027B685B69DB003949134383
:102370000B603AE07B681B69002B20D0364B0122B2
:102380001A60FEF7D3FF386108E0FEF7CFFF024680
:102390003B69D31A022B01D90323A1E12D4B1B6802
:1023A00003F00203002BF0D02A4B1B6823F0F80245
:1023B0007B685B69DB00274913430B6015E0264B04
:1023C00000221A60FEF7B2FF386108E0FEF7AEFFA8
:1023D00002463B69D31A022B01D9032380E11D4B2E
:1023E0001B6803F00203002BF0D17B681B6803F02D
:1023F0000803002B3AD07B689B69002B19D0174B40
:1024000001221A60FEF792FF386108E0FEF78EFFA6
:1024100002463B69D31A022B01D9032360E10D4B1D
:102420005B6A03F00203002BF0D0012000F0FEFAFB
:102430001CE00A4B00221A60FEF778FF38610FE0BB
:10244000FEF774FF02463B69D31A022B08D9032317
:1024500046E100BF001002400000424280044242B8
:10246000924B5B6A03F00203002BE9D17B681B6887
:1024700003F00403002B00F0A6800023FB758B4BB8
:10248000DB6903F08053002B0DD1884BDB69874A51
:1024900043F08053D361854BDB6903F08053BB600D
:1024A000BB680123FB75824B1B6803F48073002B10
:1024B00018D17F4B1B687E4A43F480731360FEF78C
:1024C00035FF386108E0FEF731FF02463B69D31A59
:1024D000642B01D9032303E1754B1B6803F480735C
:1024E000002BF0D07B68DB68012B06D16F4B1B6A99
:1024F0006E4A43F0010313622DE07B68DB68002B1A
:102500000CD16A4B1B6A694A23F001031362674BC3
:102510001B6A664A23F0040313621CE07B68DB68D5
:10252000052B0CD1614B1B6A604A43F00403136214
:102530005E4B1B6A5D4A43F0010313620BE05B4B89
:102540001B6A5A4A23F001031362584B1B6A574A0D
:1025500023F0040313627B68DB68002B15D0FEF7C1
:10256000E5FE38610AE0FEF7E1FE02463B69D31A58
:1025700041F28832934201D90323B1E04B4B1B6AED
:1025800003F00203002BEED014E0FEF7CFFE38611B
:102590000AE0FEF7CBFE02463B69D31A41F28832CD
:1025A000934201D903239BE0404B1B6A03F00203D3
:1025B000002BEED1FB7D012B05D13C4BDB693B4A67
:1025C00023F08053D3617B68DB69002B00F08780A8
:1025D000364B5B6803F00C03082B61D07B68DB692A
:1025E000022B46D1334B00221A60FEF79FFE386162
:1025F00008E0FEF79BFE02463B69D31A022B01D985
:1026000003236DE0294B1B6803F00073002BF0D10E
:102610007B681B6AB3F5803F08D1244B5B6823F4C9
:1026200000327B689B68214913434B601F4B5B68FA
:1026300023F474127B68196A7B685B6A0B431B493D
:1026400013434B601B4B01221A60FEF76FFE38618B
:1026500008E0FEF76BFE02463B69D31A022B01D954
:1026600003233DE0114B1B6803F00073002BF0D0F7
:1026700035E0104B00221A60FEF758FE386108E082
:10268000FEF754FE02463B69D31A022B01D90323FD
:1026900026E0064B1B6803F00073002BF0D11EE010
:1026A0007B68DB69012B07D1012319E00010024090
:1026B00000700040600042420B4B5B68FB60FB68AF
:1026C00003F480327B681B6A9A4206D1FB6803F4EC
:1026D00070127B685B6A9A4201D0012300E00023FC
:1026E00018461837BD4680BD0010024080B584B042
:1026F00000AF786039607B68002B01D10123D0E006
:102700006A4B1B6803F007033A689A4210D9674B7B
:102710001B6823F0070265493B6813430B60634B5A
:102720001B6803F007033A689A4201D00123B8E01E
:102730007B681B6803F00203002B20D07B681B68BA
:1027400003F00403002B05D0594B5B68584A43F44F
:10275000E06353607B681B6803F00803002B05D01F
:10276000534B5B68524A43F460535360504B5B6871
:1027700023F0F0027B689B684D4913434B607B68F4
:102780001B6803F00103002B40D07B685B68012BC2
:1027900007D1474B1B6803F40033002B15D10123ED
:1027A0007FE07B685B68022B07D1414B1B6803F01D
:1027B0000073002B09D1012373E03D4B1B6803F02C
:1027C0000203002B01D101236BE0394B5B6823F03E
:1027D00003027B685B68364913434B60FEF7A6FD36
:1027E000F8600AE0FEF7A2FD0246FB68D31A41F248
:1027F0008832934201D9032353E02D4B5B6803F0E9
:102800000C027B685B689B009A42EBD1274B1B68EC
:1028100003F007033A689A4210D2244B1B6823F056
:10282000070222493B6813430B60204B1B6803F0EF
:1028300007033A689A4201D0012332E07B681B68A3
:1028400003F00403002B08D0194B5B6823F4E0620B
:102850007B68DB68164913434B607B681B6803F099
:102860000803002B09D0124B5B6823F460527B688D
:102870001B69DB000E4913434B6000F021F8024650
:102880000B4B5B681B0903F00F030A49CB5C22FA70
:1028900003F3094A1360094B1B681846FEF750FC06
:1028A000002318461037BD4680BD00BF00200240FF
:1028B00000100240006400082400002028000020CE
:1028C00080B487B000AF0023FB600023BB6000230F
:1028D0007B6100237B6000233B611E4B5B68FB60D8
:1028E000FB6803F00C03042B02D0082B03D027E075
:1028F000194B3B6127E0FB689B0C03F00F03174A61
:10290000D35C7B60FB6803F48033002B10D0114B49
:102910005B685B0C03F00103114AD35CBB607B680E
:102920000D4A03FB02F2BB68B2FBF3F37B6104E0E8
:102930007B680C4A02FB03F37B617B693B6102E02D
:10294000054B3B6100BF3B6918461C37BD4680BC48
:10295000704700BF0010024000127A00186400089F
:102960002864000800093D0080B400AF024B1B68DA
:102970001846BD4680BC70472400002080B500AFDB
:10298000FFF7F2FF0246054B5B681B0A03F00703E3
:102990000349CB5C22FA03F3184680BD00100240C5
:1029A0001064000880B500AFFFF7DEFF0246054B5C
:1029B0005B68DB0A03F007030349CB5C22FA03F3ED
:1029C000184680BD001002401064000880B483B037
:1029D00000AF786039607B680F221A60114B5B682A
:1029E00003F003027B685A600E4B5B6803F0F00251
:1029F0007B689A600B4B5B6803F4E0627B68DA608B
:102A0000084B5B68DB0803F4E0627B681A61064BE5
:102A10001B6803F007023B681A6000BF0C37BD4615
:102A200080BC7047001002400020024080B485B096
:102A300000AF78600A4B1B680A4AA2FB03235B0ABB
:102A40007A6802FB03F3FB6000BFFB685A1EFA6062
:102A5000002BF9D100BF00BF1437BD4680BC7047C2
:102A600024000020D34D621080B582B000AF7860A2
:102A70007B68002B01D1012341E07B6893F83D3056
:102A8000DBB2002B06D17B68002283F83C207868FB
:102A9000FEF7BAFA7B68022283F83D207B681A6849
:102AA0007B6804331946104600F018FC7B6801224D
:102AB00083F846207B68012283F83E207B68012250
:102AC00083F83F207B68012283F840207B68012245
:102AD00083F841207B68012283F842207B68012231
:102AE00083F843207B68012283F844207B6801221D
:102AF00083F845207B68012283F83D200023184697
:102B00000837BD4680BD000080B485B000AF786056
:102B10007B6893F83D30DBB2012B01D001233AE012
:102B20007B68022283F83D207B681B68DA687B683B
:102B30001B6842F00102DA607B681B68184A934206
:102B40000ED07B681B68B3F1804F09D07B681B688F
:102B5000144A934204D07B681B68134A934211D1F4
:102B60007B681B689B6803F00703FB60FB68062B10
:102B700010D07B681B681A687B681B6842F00102F2
:102B80001A6007E07B681B681A687B681B6842F064
:102B900001021A60002318461437BD4680BC7047F6
:102BA000002C0140000400400008004080B582B0C5
:102BB00000AF78607B68002B01D1012341E07B6886
:102BC00093F83D30DBB2002B06D17B68002283F8FE
:102BD0003C20786800F039F87B68022283F83D20B9
:102BE0007B681A687B6804331946104600F076FB50
:102BF0007B68012283F846207B68012283F83E200F
:102C00007B68012283F83F207B68012283F8402003
:102C10007B68012283F841207B68012283F84220EF
:102C20007B68012283F843207B68012283F84420DB
:102C30007B68012283F845207B68012283F83D20D0
:102C4000002318460837BD4680BD80B483B000AF6E
:102C5000786000BF0C37BD4680BC704780B584B03B
:102C600000AF786039603B68002B09D17B6893F82E
:102C70003E30DBB2012B14BF01230023DBB222E084
:102C80003B68042B09D17B6893F83F30DBB2012B02
:102C900014BF01230023DBB215E03B68082B09D1E8
:102CA0007B6893F84030DBB2012B14BF0123002373
:102CB000DBB208E07B6893F84130DBB2012B14BF34
:102CC00001230023DBB2002B01D001235EE03B682F
:102CD000002B04D17B68022283F83E2013E03B687E
:102CE000042B04D17B68022283F83F200BE03B6871
:102CF000082B04D17B68022283F8402003E07B6824
:102D0000022283F841207B681B680122396818463B
:102D100000F070FD7B681B681E4A934207D17B68F8
:102D20001B685A6C7B681B6842F400425A647B68DB
:102D30001B68184A93420ED07B681B68B3F1804F22
:102D400009D07B681B68144A934204D07B681B68D7
:102D5000124A934211D17B681B689B6803F00703FA
:102D6000FB60FB68062B10D07B681B681A687B68C9
:102D70001B6842F001021A6007E07B681B681A6852
:102D80007B681B6842F001021A6000231846103766
:102D9000BD4680BD002C01400004004000080040FA
:102DA00080B584B000AF78607B681B68DB68FB602F
:102DB0007B681B681B69BB60BB6803F00203002BC8
:102DC00020D0FB6803F00203002B1BD07B681B683C
:102DD0006FF002021A617B6801221A777B681B6818
:102DE0009B6903F00303002B03D0786800F05AFAC4
:102DF00005E0786800F04DFA786800F05CFA7B68CE
:102E000000221A77BB6803F00403002B20D0FB6874
:102E100003F00403002B1BD07B681B686FF00402D7
:102E20001A617B6802221A777B681B689B6903F42E
:102E30004073002B03D0786800F034FA05E078681E
:102E400000F027FA786800F036FA7B6800221A77DB
:102E5000BB6803F00803002B20D0FB6803F00803D5
:102E6000002B1BD07B681B686FF008021A617B681F
:102E700004221A777B681B68DB6903F00303002BCD
:102E800003D0786800F00EFA05E0786800F001FAE7
:102E9000786800F010FA7B6800221A77BB6803F0AC
:102EA0001003002B20D0FB6803F01003002B1BD075
:102EB0007B681B686FF010021A617B6808221A7722
:102EC0007B681B68DB6903F44073002B03D07868D0
:102ED00000F0E8F905E0786800F0DBF9786800F0C8
:102EE000EAF97B6800221A77BB6803F00103002B24
:102EF0000CD0FB6803F00103002B07D07B681B6834
:102F00006FF001021A617868FDF7F6FFBB6803F005
:102F10008003002B0CD0FB6803F08003002B07D04C
:102F20007B681B686FF080021A61786800F0EDFC26
:102F3000BB6803F04003002B0CD0FB6803F0400398
:102F4000002B07D07B681B686FF040021A6178681D
:102F500000F0BAF9BB6803F02003002B0CD0FB682B
:102F600003F02003002B07D07B681B686FF0200262
:102F70001A61786800F0C0FC00BF1037BD4680BD04
:102F800080B586B000AFF860B9607A600023FB7549
:102F9000FB6893F83C30012B01D10223AEE0FB68C3
:102FA000012283F83C207B680C2B00F29F8001A259
:102FB00052F823F0E92F0008ED300008ED3000084A
:102FC000ED30000829300008ED300008ED30000831
:102FD000ED3000086B300008ED300008ED300008DF
:102FE000ED300008AB300008FB681B68B968184674
:102FF00000F0E2F9FB681B689A69FB681B6842F005
:1030000008029A61FB681B689A69FB681B6822F0DA
:1030100004029A61FB681B689969BB681A69FB68BE
:103020001B680A439A6164E0FB681B68B96818462C
:1030300000F028FAFB681B689A69FB681B6842F479
:1030400000629A61FB681B689A69FB681B6822F43E
:1030500080629A61FB681B689969BB681B691A02E8
:10306000FB681B680A439A6143E0FB681B68B96808
:10307000184600F071FAFB681B68DA69FB681B6888
:1030800042F00802DA61FB681B68DA69FB681B68BA
:1030900022F00402DA61FB681B68D969BB681A690F
:1030A000FB681B680A43DA6123E0FB681B68B968A8
:1030B000184600F0BBFAFB681B68DA69FB681B68FE
:1030C00042F40062DA61FB681B68DA69FB681B681E
:1030D00022F48062DA61FB681B68D969BB681B69EE
:1030E0001A02FB681B680A43DA6102E00123FB75E0
:1030F00000BFFB68002283F83C20FB7D1846183790
:10310000BD4680BD80B584B000AF786039600023D3
:10311000FB737B6893F83C30012B01D10223B4E0B0
:103120007B68012283F83C207B68022283F83D20E3
:103130007B681B689B68BB60BB6823F07703BB6040
:10314000BB6823F47F43BB607B681B68BA689A60E6
:103150003B681B68B3F5005F3ED0B3F5005F00F23B
:103160008780B3F5805F00F08680B3F5805F7FD8FD
:10317000702B1AD0702B7BD8602B50D0602B77D857
:10318000502B3CD0502B73D8402B58D0402B6FD8AD
:10319000302B64D0302B6BD8202B60D0202B67D8FD
:1031A000002B5CD0102B5AD062E07B6818683B681B
:1031B00099683B685A683B68DB6800F0FCFA7B68FA
:1031C0001B689B68BB60BB6843F07703BB607B6890
:1031D0001B68BA689A604FE07B6818683B6899681A
:1031E0003B685A683B68DB6800F0E5FA7B681B685F
:1031F0009A687B681B6842F480429A603CE07B6876
:1032000018683B6859683B68DB681A4600F05CFA4E
:103210007B681B685021184600F0B3FA2CE07B68ED
:1032200018683B6859683B68DB681A4600F07AFA10
:103230007B681B686021184600F0A3FA1CE07B68DD
:1032400018683B6859683B68DB681A4600F03CFA2E
:103250007B681B684021184600F093FA0CE07B68FD
:103260001A683B681B681946104600F08AFA03E0AA
:103270000123FB7300E000BF7B68012283F83D203F
:103280007B68002283F83C20FB7B18461037BD4644
:1032900080BD80B483B000AF786000BF0C37BD46FE
:1032A00080BC704780B483B000AF786000BF0C373B
:1032B000BD4680BC704780B483B000AF786000BF6B
:1032C0000C37BD4680BC704780B483B000AF7860D7
:1032D00000BF0C37BD4680BC7047000080B485B08D
:1032E00000AF786039607B681B68FB607B682F4AA1
:1032F00093420BD07B68B3F1804F07D07B682C4A98
:10330000934203D07B682B4A934208D1FB6823F099
:103310007003FB603B685B68FA681343FB607B6883
:10332000224A93420BD07B68B3F1804F07D07B6871
:103330001F4A934203D07B681E4A934208D1FB6820
:1033400023F44073FB603B68DB68FA681343FB605F
:10335000FB6823F080023B685B691343FB607B687A
:10336000FA681A603B689A687B68DA623B681A6898
:103370007B689A627B680D4A934203D13B681A6965
:103380007B681A637B6801225A617B681B6903F0C2
:103390000103002B05D07B681B6923F001027B68C9
:1033A0001A6100BF1437BD4680BC7047002C014035
:1033B000000400400008004080B487B000AF78608F
:1033C00039607B681B6A7B617B681B6A23F00102A2
:1033D0007B681A627B685B683B617B689B69FB600A
:1033E000FB6823F07003FB60FB6823F00303FB60C2
:1033F0003B681B68FA681343FB607B6923F0020398
:103400007B613B689B687A6913437B617B681C4ADC
:1034100093420CD17B6923F008037B613B68DB6836
:103420007A6913437B617B6923F004037B617B68CA
:10343000134A934211D13B6923F480733B613B698A
:1034400023F400733B613B685B693A6913433B615A
:103450003B689B693A6913433B617B683A695A60F0
:103460007B68FA689A613B685A687B685A637B6834
:103470007A691A6200BF1C37BD4680BC704700BF26
:10348000002C014080B487B000AF786039607B6861
:103490001B6A7B617B681B6A23F010027B681A62DF
:1034A0007B685B683B617B689B69FB60FB6823F41E
:1034B000E043FB60FB6823F44073FB603B681B68E0
:1034C0001B02FA681343FB607B6923F020037B61D6
:1034D0003B689B681B017A6913437B617B681D4ACB
:1034E00093420DD17B6923F080037B613B68DB68ED
:1034F0001B017A6913437B617B6923F040037B6185
:103500007B68144A934213D13B6923F480633B6187
:103510003B6923F400633B613B685B699B003A694C
:1035200013433B613B689B699B003A6913433B61D2
:103530007B683A695A607B68FA689A613B685A68A6
:103540007B689A637B687A691A6200BF1C37BD4644
:1035500080BC7047002C014080B487B000AF786019
:1035600039607B681B6A7B617B681B6A23F480720D
:103570007B681A627B685B683B617B68DB69FB6028
:10358000FB6823F07003FB60FB6823F00303FB6020
:103590003B681B68FA681343FB607B6923F4007384
:1035A0007B613B689B681B027A6913437B617B6884
:1035B0001D4A93420DD17B6923F400637B613B6814
:1035C000DB681B027A6913437B617B6923F48063A8
:1035D0007B617B68144A934213D13B6923F4805387
:1035E0003B613B6923F400533B613B685B691B0112
:1035F0003A6913433B613B689B691B013A6913437A
:103600003B617B683A695A607B68FA68DA613B68BB
:103610005A687B68DA637B687A691A6200BF1C3774
:10362000BD4680BC704700BF002C014080B487B00D
:1036300000AF786039607B681B6A3B617B681B6AFE
:1036400023F480527B681A627B685B687B617B68CD
:10365000DB69FB60FB6823F4E043FB60FB6823F459
:103660004073FB603B681B681B02FA681343FB60F6
:103670003B6923F400533B613B689B681B033A6939
:1036800013433B617B680F4A934209D17B6923F462
:1036900080437B613B685B699B017A6913437B6173
:1036A0007B687A695A607B68FA68DA613B685A68B5
:1036B0007B681A647B683A691A6200BF1C37BD4692
:1036C00080BC7047002C014080B487B000AFF86028
:1036D000B9607A60FB681B6A7B61FB681B6A23F038
:1036E0000102FB681A62FB689B693B613B6923F03E
:1036F000F0033B617B681B013A6913433B617B69C3
:1037000023F00A037B617A69BB6813437B61FB6822
:103710003A699A61FB687A691A6200BF1C37BD4634
:1037200080BC704780B487B000AFF860B9607A6041
:10373000FB681B6A7B61FB681B6A23F01002FB6855
:103740001A62FB689B693B613B6923F470433B61F0
:103750007B681B033A6913433B617B6923F0A00339
:103760007B61BB681B017A6913437B61FB683A6923
:103770009A61FB687A691A6200BF1C37BD4680BC3B
:10378000704780B485B000AF786039607B689B6813
:10379000FB60FB6823F07003FB603A68FB6813432F
:1037A00043F00703FB607B68FA689A6000BF143738
:1037B000BD4680BC704780B487B000AFF860B96088
:1037C0007A603B60FB689B687B617B6923F47F4385
:1037D0007B613B681A027B681A43BB6813437A69B2
:1037E00013437B61FB687A699A6000BF1C37BD4652
:1037F00080BC704780B487B000AFF860B9607A6071
:10380000BB6803F01F03012202FA03F37B61FB682C
:103810001A6A7B69DB431A40FB681A62FB681A6A02
:10382000BB6803F01F03796801FA03F31A43FB68CE
:103830001A6200BF1C37BD4680BC704780B485B09B
:1038400000AF786039607B6893F83C30012B01D180
:10385000022346E07B68012283F83C207B68022239
:1038600083F83D207B681B685B68FB607B681B6896
:103870009B68BB60FB6823F07003FB603B681B68C0
:10388000FA681343FB607B681B68FA685A607B68C0
:103890001B68164A93420ED07B681B68B3F1804FB9
:1038A00009D07B681B68124A934204D07B681B686E
:1038B000104A93420CD1BB6823F08003BB603B6885
:1038C0005B68BA681343BB607B681B68BA689A6020
:1038D0007B68012283F83D207B68002283F83C202E
:1038E000002318461437BD4680BC7047002C0140A9
:1038F000000400400008004080B483B000AF78604E
:1039000000BF0C37BD4680BC704780B483B000AFA9
:10391000786000BF0C37BD4680BC704780B582B070
:1039200000AF78607B68002B01D1012342E07B6807
:1039300093F84130DBB2002B06D17B68002283F87C
:1039400040207868FDF7B0FB7B68242283F8412093
:103950007B681B68DA687B681B6822F40052DA60B7
:10396000786800F071F97B681B681A697B681B68CE
:1039700022F490421A617B681B685A697B681B6855
:1039800022F02A025A617B681B68DA687B681B6830
:1039900042F40052DA607B6800225A647B6820227D
:1039A00083F841207B68202283F842207B68002234
:1039B0005A63002318460837BD4680BD80B58AB0DB
:1039C00002AFF860B9603B601346FB8000237B6167
:1039D000FB6893F84130DBB2202B75D1BB68002B1C
:1039E00002D0FB88002B01D101236EE0FB6800228E
:1039F0005A64FB68212283F84120FDF797FC786127
:103A0000FB68FA889A84FB68FA88DA84FB689B680A
:103A1000B3F5805F08D1FB681B69002B04D100233C
:103A2000FB61BB68BB6103E0BB68FB610023BB615A
:103A30002EE03B6800937B6900228021F86800F04B
:103A400048F80346002B05D0FB68202283F841206C
:103A500003233AE0FB69002B0BD1BB691B881A4694
:103A6000FB681B68C2F308025A60BB690233BB6182
:103A700007E0FB691A78FB681B685A60FB69013331
:103A8000FB61FB68DB8C9BB2013B9AB2FB68DA847A
:103A9000FB68DB8C9BB2002BCBD13B6800937B692E
:103AA00000224021F86800F014F80346002B05D0EE
:103AB000FB68202283F84120032306E0FB682022D4
:103AC00083F84120002300E0022318462037BD463A
:103AD00080BD80B586B000AFF860B9603B6013462A
:103AE000FB713BE03B6AB3F1FF3F37D0FDF71EFCB3
:103AF00002463B68D31A3A6A9A4202D33B6A002BC9
:103B000001D103233AE0FB681B68DB6803F0040380
:103B1000002B23D0BB68802B20D0BB68402B1DD04E
:103B2000FB681B681B6803F00803082B16D10023F1
:103B30007B61FB681B681B687B61FB681B685B68BB
:103B40007B617B69F86800F01DF8FB6808225A6405
:103B5000FB68002283F8402001230FE0FB681B680C
:103B60001A68BB681340BA689A420CBF012300234D
:103B7000DBB21A46FB799A42B4D0002318461837B4
:103B8000BD4680BD80B495B000AF78607B681B688F
:103B90000C337B637B6B53E8003F3B633B6B23F44D
:103BA0009073FB647B681B680C33FA6C3A64FB63AC
:103BB000F96B3A6C41E80023BB63BB6B002BE5D18A
:103BC0007B681B6814333B623B6A53E8003FFB6130
:103BD000FB6923F00103BB647B681B681433BA6C78
:103BE000FA62BB62B96AFA6A41E800237B627B6AC7
:103BF000002BE5D17B681B6B012B19D17B681B68FF
:103C00000C33FB60FB6853E8003FBB60BB6823F0EC
:103C100010037B647B681B680C337A6CBA617B6130
:103C20007969BA6941E800233B613B69002BE5D122
:103C30007B68202283F842207B6800221A6300BF41
:103C40005437BD4680BC704780B584B000AF786003
:103C50007B681B681B6923F440517B68DA687B68CA
:103C60001B680A431A617B689A687B681B691A4360
:103C70007B685B691343BB607B681B68DB6823F46C
:103C8000B05323F00C037A681268B9680B43D36011
:103C90007B681B685B6923F440717B689A697B6869
:103CA0001B680A435A617B681B682C4A934203D104
:103CB000FEF778FEF86002E0FEF760FEF860FA6852
:103CC00013469B0013449A001A447B685B689B0070
:103CD000B2FBF3F3224AA2FB03235B091901FA6842
:103CE00013469B0013449A001A447B685B689B0050
:103CF000B2FBF3F21A4BA3FB02035B09642000FB47
:103D000003F3D31A1B013233154AA2FB03235B09C9
:103D100003F0F0031944FA6813469B0013449A0019
:103D20001A447B685B689B00B2FBF3F20C4BA3FB6D
:103D300002035B09642000FB03F3D31A1B01323337
:103D4000074AA2FB03235B0903F00F027B681B6891
:103D50000A449A6000BF1037BD4680BD003801405C
:103D60001F85EB5180B483B000AF78607B6803F1AE
:103D700008027B685A607B684FF0FF329A607B686C
:103D800003F108027B68DA607B6803F108027B6854
:103D90001A617B6800221A6000BF0C37BD4680BCE8
:103DA000704780B483B000AF78607B6800221A61EE
:103DB00000BF0C37BD4680BC704780B485B000AFF3
:103DC000786039607B685B68FB603B68FA685A60C2
:103DD000FB689A683B689A60FB689B683A685A601F
:103DE000FB683A689A603B687A681A617B681B686E
:103DF0005A1C7B681A6000BF1437BD4680BC7047F0
:103E000080B485B000AF786039603B681B68BB60E8
:103E1000BB68B3F1FF3F03D17B681B69FB600CE01B
:103E20007B680833FB6002E0FB685B68FB60FB6853
:103E30005B681B68BA689A42F6D2FB685A683B68AE
:103E40005A603B685B683A689A603B68FA689A60B7
:103E5000FB683A685A603B687A681A617B681B683D
:103E60005A1C7B681A6000BF1437BD4680BC70477F
:103E700080B485B000AF78607B681B69FB607B68AD
:103E80005B687A6892689A607B689B687A68526817
:103E90005A60FB685B687A689A4203D17B689A68CB
:103EA000FB685A607B6800221A61FB681B685A1E17
:103EB000FB681A60FB681B6818461437BD4680BC57
:103EC0007047000080B584B000AF786039607B68CF
:103ED000FB60FB68002B0BD14FF0500383F311887C
:103EE000BFF36F8FBFF34F8FBB6000BF00BFFDE715
:103EF00001F0ACFEFB681A68FB68DB6BF968096CC3
:103F000001FB03F31A44FB689A60FB6800229A6382
:103F1000FB681A68FB685A60FB681A68FB68DB6B11
:103F2000013BF968096C01FB03F31A44FB68DA6092
:103F3000FB68FF2283F84420FB68FF2283F84520BA
:103F40003B68002B14D1FB681B69002B1AD0FB685F
:103F50001033184601F0ACF80346002B12D00D4B7D
:103F60004FF080521A60BFF34F8FBFF36F8F09E09D
:103F7000FB6810331846FFF7F5FEFB68243318463C
:103F8000FFF7F0FE01F092FE012318461037BD4600
:103F900080BD00BF04ED00E080B58CB002AFF860DA
:103FA000B9601346FB71FB68002B0BD14FF0500337
:103FB00083F31188BFF36F8FBFF34F8FBB6100BFD7
:103FC00000BFFDE7FB68BA6802FB03F37B62BB68D6
:103FD000002B06D07A6ABB68B2FBF3F3FA689A4208
:103FE00001D1012300E00023002B0BD14FF050033F
:103FF00083F31188BFF36F8FBFF34F8F7B6100BFD7
:1040000000BFFDE77B6A13F1490F0BD94FF0500356
:1040100083F31188BFF36F8FBFF34F8F3B6100BFF6
:1040200000BFFDE77B6A4833184601F0D1FE3862D5
:104030003B6A002B0DD03B6AFB61FB694833FB6197
:10404000FA793B6A00931346FA69B968F86800F098
:1040500005F83B6A18462837BD4680BD80B584B058
:1040600000AFF860B9607A60FB70BB68002B03D1C9
:10407000BB69BA691A6002E0BB697A681A60BB69F9
:10408000FA68DA63BB69BA681A640121B869FFF794
:1040900019FF00BF1037BD4680BD80B582B000AFAC
:1040A00078607B68002B0ED07B6800229A607B686A
:1040B00000221A607B680022DA60002300220021BF
:1040C000786800F01DF800BF0837BD4680BD80B598
:1040D00086B000AF0346FB7101237B6100233B6187
:1040E000FB791A4639697869FFF756FFF860F86876
:1040F000FFF7D3FFFB6818461837BD4680BD0000A8
:1041000080B58EB000AFF860B9607A603B60002384
:104110007B63FB683B633B6B002B0BD14FF0500381
:1041200083F31188BFF36F8FBFF34F8FBB6200BF64
:1041300000BFFDE7BB68002B03D13B6B1B6C002B62
:1041400001D1012300E00023002B0BD14FF05003DD
:1041500083F31188BFF36F8FBFF34F8F7B6200BF74
:1041600000BFFDE73B68022B03D13B6BDB6B012BF0
:1041700001D1012300E00023002B0BD14FF05003AD
:1041800083F31188BFF36F8FBFF34F8F3B6200BF84
:1041900000BFFDE701F030F90346002B02D17B6838
:1041A000002B01D1012300E00023002B0BD14FF0A5
:1041B000500383F31188BFF36F8FBFF34F8FFB6101
:1041C00000BF00BFFDE701F041FD3B6B9A6B3B6B0D
:1041D000DB6B9A4202D33B68022B29D13A68B9685B
:1041E000386B00F098FAF8623B6B5B6A002B10D0DA
:1041F0003B6B2433184600F05BFF0346002B13D0C3
:104200003F4B4FF080521A60BFF34F8FBFF36F8F59
:104210000AE0FB6A002B07D0394B4FF080521A603E
:10422000BFF34F8FBFF36F8F01F040FD012363E0B9
:104230007B68002B03D101F039FD00235CE07B6B30
:10424000002B06D107F11403184600F095FF012357
:104250007B6301F02BFD00F04BFD01F0F7FC3B6BA5
:1042600093F844305BB2B3F1FF3F03D13B6B0022C4
:1042700083F844203B6B93F845305BB2B3F1FF3FCA
:1042800003D13B6B002283F8452001F00FFD3A1D5E
:1042900007F114031146184600F084FF0346002B73
:1042A00024D1386B00F02FFB0346002B18D03B6B5A
:1042B00010337A681146184600F0D4FE386B00F0CF
:1042C000BAFA00F023FD0346002B7FF47CAF0C4BC1
:1042D0004FF080521A60BFF34F8FBFF36F8F72E7BA
:1042E000386B00F0A8FA00F011FD6CE7386B00F0B5
:1042F000A2FA00F00BFD002318463837BD4680BDFA
:1043000004ED00E080B58CB000AFF860B9607A6071
:104310000023FB62FB68BB62BB6A002B0BD14FF032
:10432000500383F31188BFF36F8FBFF34F8F3B624E
:1043300000BF00BFFDE7BB68002B03D1BB6A1B6C4D
:10434000002B01D1012300E00023002B0BD14FF003
:10435000500383F31188BFF36F8FBFF34F8FFB615F
:1043600000BF00BFFDE701F047F80346002B02D174
:104370007B68002B01D1012300E00023002B0BD12F
:104380004FF0500383F31188BFF36F8FBFF34F8F4C
:10439000BB6100BF00BFFDE701F058FCBB6A9B6B2F
:1043A0007B627B6A002B1FD0B968B86A00F01DFAE7
:1043B0007B6A5A1EBB6A9A63BB6A1B69002B0FD0CB
:1043C000BB6A1033184600F073FE0346002B07D07B
:1043D0003C4B4FF080521A60BFF34F8FBFF36F8F8B
:1043E00001F064FC012369E07B68002B03D101F03C
:1043F0005DFC002362E0FB6A002B06D107F110038D
:10440000184600F0B9FE0123FB6201F04FFC00F0FA
:104410006FFC01F01BFCBB6A93F844305BB2B3F154
:10442000FF3F03D1BB6A002283F84420BB6A93F8A4
:1044300045305BB2B3F1FF3F03D1BB6A002283F882
:10444000452001F033FC3A1D07F1100311461846D0
:1044500000F0A8FE0346002B23D1B86A00F03DFA15
:104460000346002B17D0BB6A24337A6811461846DE
:1044700000F0F8FDB86A00F0DEF900F047FC0346F2
:10448000002B89D10F4B4FF080521A60BFF34F8F32
:10449000BFF36F8F80E7B86A00F0CDF900F036FC0B
:1044A0007AE7B86A00F0C7F900F030FCB86A00F0AB
:1044B00014FA0346002B3FF46FAF00231846303741
:1044C000BD4680BD04ED00E080B58EB000AF7860E1
:1044D000396000237B637B68FB6200233B63FB6ADC
:1044E000002B0BD14FF0500383F31188BFF36F8F74
:1044F000BFF34F8F3B6200BF00BFFDE7FB6A1B6C41
:10450000002B0BD04FF0500383F31188BFF36F8F54
:10451000BFF34F8FFB6100BF00BFFDE700F06CFFF2
:104520000346002B02D13B68002B01D1012300E0A0
:104530000023002B0BD14FF0500383F31188BFF3FE
:104540006F8FBFF34F8FBB6100BF00BFFDE701F06E
:104550007DFBFB6A9B6BBB62BB6A002B24D0BB6AF2
:104560005A1EFB6A9A63FB6A1B68002B04D101F098
:10457000E3F80246FB6A9A60FB6A1B69002B0FD0C6
:10458000FB6A1033184600F093FD0346002B07D05A
:10459000544B4FF080521A60BFF34F8FBFF36F8FB1
:1045A00001F084FB012398E03B68002B12D13B6BA8
:1045B000002B0BD04FF0500383F31188BFF36F8FA4
:1045C000BFF34F8F7B6100BF00BFFDE701F06EFBC3
:1045D000002382E07B6B002B06D107F10C03184609
:1045E00000F0CAFD01237B6301F060FB00F080FB5B
:1045F00001F02CFBFB6A93F844305BB2B3F1FF3F50
:1046000003D1FB6A002283F84420FB6A93F845300B
:104610005BB2B3F1FF3F03D1FB6A002283F8452070
:1046200001F044FB3A4607F10C031146184600F02E
:10463000B9FD0346002B32D1F86A00F04EF903466B
:10464000002B26D0FB6A1B68002B09D101F0FEFA73
:10465000FB6A9B68184600F0EDFE386301F026FB0C
:10466000FB6A24333A681146184600F0FBFCF86AEE
:1046700000F0E1F800F04AFB0346002B7FF467AF3F
:10468000184B4FF080521A60BFF34F8FBFF36F8FFC
:104690005DE7F86A00F0CFF800F038FB57E7F86AFA
:1046A00000F0C9F800F032FBF86A00F016F9034692
:1046B000002B3FF44CAF3B6B002B0DD001F0C6FA42
:1046C000F86A00F011F87862FB6A9B68796A18460C
:1046D00000F0A2FF01F0EAFA002318463837BD4681
:1046E00080BD00BF04ED00E080B485B000AF78600D
:1046F0007B685B6A002B06D07B681B6B1B68C3F171
:104700000703FB6001E00023FB60FB6818461437D9
:10471000BD4680BC704780B586B000AFF860B96018
:104720007A6000237B61FB689B6B3B61FB681B6CC1
:10473000002B0DD1FB681B68002B4DD1FB689B68DB
:10474000184600F0EDFE7861FB6800229A6043E0B5
:104750007B68002B19D1FB685868FB681B6C1A46F4
:10476000B96801F0C1FDFB685A68FB681B6C1A440C
:10477000FB685A60FB685A68FB689B689A422BD3B7
:10478000FB681A68FB685A6026E0FB68D868FB681B
:104790001B6C1A46B96801F0A7FDFB68DA68FB6874
:1047A0001B6C5B421A44FB68DA60FB68DA68FB68E2
:1047B0001B689A4207D2FB689A68FB681B6C5B42D5
:1047C0001A44FB68DA607B68022B05D13B69002B39
:1047D00002D03B69013B3B613B695A1CFB689A6311
:1047E0007B6918461837BD4680BD80B582B000AFE2
:1047F000786039607B681B6C002B18D07B68DA68A6
:104800007B681B6C1A447B68DA607B68DA687B68BB
:104810009B689A4203D37B681A687B68DA607B687E
:10482000D9687B681B6C1A46386801F05DFD00BFD3
:104830000837BD4680BD80B584B000AF786001F018
:1048400005FA7B6893F84530FB7311E07B685B6A7F
:10485000002B12D07B682433184600F029FC034655
:10486000002B01D000F006FDFB7B013BDBB2FB73AC
:1048700097F90F30002BE9DC00E000BF7B68FF22D6
:1048800083F8452001F012FA01F0E0F97B6893F813
:104890004430BB7311E07B681B69002B12D07B682E
:1048A0001033184600F004FC0346002B01D000F042
:1048B000E1FCBB7B013BDBB2BB7397F90E30002BF5
:1048C000E9DC00E000BF7B68FF2283F8442001F0B0
:1048D000EDF900BF1037BD4680BD80B584B000AF94
:1048E000786001F0B3F97B689B6B002B02D1012348
:1048F000FB6001E00023FB6001F0D8F9FB6818467B
:104900001037BD4680BD80B584B000AF786001F03F
:104910009DF97B689A6B7B68DB6B9A4202D101231D
:10492000FB6001E00023FB6001F0C0F9FB68184662
:104930001037BD4680BD80B58CB004AFF860B9605B
:104940003B601346FB80FB889B00184601F040FA51
:1049500078617B69002B0ED0A02001F039FAF86154
:10496000FB69002B03D0FB697A691A6305E078695B
:1049700001F010FB01E00023FB61FB69002B13D069
:10498000FA8800230393FB690293FB6A0193BB6AD5
:1049900000933B68B968F86800F00EF8F86900F019
:1049A000B1F80123BB6102E04FF0FF33BB61BB698B
:1049B00018462037BD4680BD80B588B000AFF8608E
:1049C000B9607A603B603B6B1A6B7B6803F1804394
:1049D000013B9B001344BB61BB6923F00703BB6130
:1049E000BB6903F00703002B0BD04FF0500383F398
:1049F0001188BFF36F8FBFF34F8F7B6100BF00BF84
:104A0000FDE7BB68002B1FD00023FB6112E0BA68F2
:104A1000FB69134419783A6BFB69134434330A4633
:104A20001A70BA68FB6913441B78002B06D0FB6927
:104A30000133FB61FB690F2BE9D900E000BF3B6B41
:104A4000002283F8432003E03B6B002283F83420EC
:104A5000BB6A062B01D90623BB623B6BBA6ADA62DA
:104A60003B6BBA6A5A643B6B00229A643B6B04331B
:104A70001846FFF796F93B6B18331846FFF791F984
:104A80003B6B3A6B1A61BB6AC3F107023B6B9A61DD
:104A90003B6B3A6B5A623B6B9833042200211846F9
:104AA00001F096FB3B6B9C3301220021184601F07C
:104AB0008FFB3B6B4C334C220021184601F088FBE6
:104AC0003B6B0D4A1A653B6B0C4A5A653B6B0C4AB3
:104AD0009A653A68F968B86901F00CF802463B6BD0
:104AE0001A60FB6A002B02D0FB6A3A6B1A6000BFA7
:104AF0002037BD4680BD00BF402B0020A82B0020E2
:104B0000102C002080B582B000AF786001F09EF8D4
:104B10002A4B1B680133294A1360294B1B68002B61
:104B200009D1274A7B681360244B1B68012B10D1E5
:104B300000F0C4FB0DE0234B1B68002B09D1204B78
:104B40001B68DA6A7B68DB6A9A4202D81C4A7B6877
:104B500013601D4B1B6801331B4A13607B68DB6AC3
:104B600001229A40194B1B681343184A13607B6853
:104B7000DA6A13469B0013449B00154A1A447B686B
:104B8000043319461046FFF718F901F08FF80D4B62
:104B90001B68002B0ED00A4B1B68DA6A7B68DB6A45
:104BA0009A4207D20B4B4FF080521A60BFF34F8FDF
:104BB000BFF36F8F00BF0837BD4680BDF4020020F1
:104BC000F40100200003002010030020FC0200205C
:104BD000F801002004ED00E080B584B000AF7860FB
:104BE0000023FB607B68002B18D0144B1B68002B44
:104BF0000BD04FF0500383F31188BFF36F8FBFF3D7
:104C00004F8FBB6000BF00BFFDE700F071F80021CF
:104C1000786800F009FF00F079F8F860FB68002B75
:104C200007D1074B4FF080521A60BFF34F8FBFF38D
:104C30006F8F00BF1037BD4680BD00BF1C03002032
:104C400004ED00E080B586B002AF204B0193002355
:104C50000093002380221E491E48FFF76CFEF86077
:104C6000FB68012B1BD14FF0500383F31188BFF376
:104C70006F8FBFF34F8FBB6000BF174B1B684C3368
:104C8000164A1360164B4FF0FF321A60154B012283
:104C90001A60154B00221A6000F0B8FF0FE0FB68A5
:104CA000B3F1FF3F0BD14FF0500383F31188BFF3F3
:104CB0006F8FBFF34F8F7B6000BF00BFFDE70B4BD3
:104CC0001B6800BF1037BD4680BD00BF1803002021
:104CD000F86300088D520008F40100203400002021
:104CE0001403002000030020F80200202C640008B8
:104CF00080B400AF044B1B680133034A136000BF4C
:104D0000BD4680BC704700BF1C03002080B584B046
:104D100000AF0023FB600023BB60424B1B68002BED
:104D20000BD14FF0500383F31188BFF36F8FBFF3A4
:104D30004F8F3B6000BF00BFFDE700F087FF394B9E
:104D40001B68013B374A1360364B1B68002B61D14F
:104D5000354B1B68002B5DD02EE0344BDB68DB68E5
:104D6000FB60FB6818331846FFF782F8FB680433D2
:104D70001846FFF77DF8FB68DB6A01229A402C4B4E
:104D80001B6813432A4A1360FB68DA6A13469B00C8
:104D900013449B00274A1A44FB6804331946104603
:104DA000FFF70BF8FB68DA6A234B1B68DB6A9A4251
:104DB00002D3224B01221A601C4B1B68002BCCD162
:104DC000FB68002B01D000F0FDFA1D4B1B687B60D7
:104DD0007B68002B10D000F037F80346002B02D080
:104DE000164B01221A607B68013B7B607B68002BBD
:104DF000F1D1134B00221A60104B1B68002B09D015
:104E00000123BB600F4B4FF080521A60BFF34F8FEE
:104E1000BFF36F8F00F04AFFBB6818461037BD46DE
:104E200080BD00BF1C030020F4020020B40200205B
:104E3000FC020020F8010020F401002008030020FB
:104E40000403002004ED00E080B586B000AF00232D
:104E50007B61484B1B68002B40F08180464B1B68F0
:104E600001333B61444A3B6913603B69002B21D10C
:104E7000424B1B681B68002B0BD04FF0500383F391
:104E80001188BFF36F8FBFF34F8F3B6000BF00BF30
:104E9000FDE73A4B1B68FB60394B1B68374A1360D0
:104EA000374AFB681360374B1B680133354A136080
:104EB00000F088FA344B1B683A699A4248D32F4B6A
:104EC0001B681B68002B04D12F4B4FF0FF321A6078
:104ED0003EE02A4B1B68DB68DB68BB60BB685B6835
:104EE0007B603A697B689A4203D2274A7B681360E9
:104EF0002EE0BB6804331846FEF7BAFFBB689B6A16
:104F0000002B04D0BB6818331846FEF7B1FFBB680E
:104F1000DB6A01229A401D4B1B6813431B4A136036
:104F2000BB68DA6A13469B0013449B00184A1A4474
:104F3000BB68043319461046FEF73FFFBB68DA6AC8
:104F4000144B1B68DB6A9A42B9D301237B61B6E735
:104F5000114B1B68002B07D001237B6104E00F4B32
:104F60001B6801330D4A13607B6918461837BD462C
:104F700080BD00BF1C030020F8020020AC0200200E
:104F8000B00200200C03002014030020FC020020CB
:104F9000F8010020F4010020080300200403002091
:104FA00080B487B000AF294B1B68002B03D0284B7F
:104FB00001221A6045E0264B00221A60254B1B682F
:104FC000FB60FB68B3FA83F3FB72FB7AC3F11F0348
:104FD0007B6121497A6913469B0013449B000B4473
:104FE0001B68002B0BD14FF0500383F31188BFF3E4
:104FF0006F8FBFF34F8F7B6000BF00BFFDE77A6903
:1050000013469B0013449B00134A13443B613B69C6
:105010005B685A683B695A603B695A683B69083368
:105020009A4204D13B695B685A683B695A603B69A4
:105030005B68DB68094A1360084B1B684C33084AFD
:10504000136000BF1C37BD4680BC70471C030020A6
:1050500008030020FC020020F8010020F4010020D9
:105060003400002080B584B000AF786039607B6880
:10507000002B0BD14FF0500383F31188BFF36F8FD8
:10508000BFF34F8FFB6000BF00BFFDE7074B1B68FE
:10509000183319467868FEF7B3FE0121386800F02E
:1050A000C3FC00BF1037BD4680BD00BFF401002027
:1050B00080B586B000AF78607B68DB68DB683B61F9
:1050C0003B69002B0BD14FF0500383F31188BFF3E2
:1050D0006F8FBFF34F8FFB6000BF00BFFDE73B69E1
:1050E00018331846FEF7C4FE1D4B1B68002B1CD15D
:1050F0003B6904331846FEF7BBFE3B69DB6A0122BD
:105100009A40184B1B681343164A13603B69DA6ACE
:1051100013469B0013449B00134A1A443B69043313
:1051200019461046FEF749FE05E03B69183319465B
:105130000E48FEF742FE3B69DA6A0D4B1B68DB6ADC
:105140009A4205D901237B610A4B01221A6001E0D2
:1051500000237B617B6918461837BD4680BD00BFC0
:105160001C030020FC020020F8010020B4020020F3
:10517000F40100200803002080B483B000AF786001
:10518000064B1A687B681A60054B1A687B685A6080
:1051900000BF0C37BD4680BC704700BF0C03002029
:1051A000F802002080B588B000AF786039607B6875
:1051B000002B0BD14FF0500383F31188BFF36F8F97
:1051C000BFF34F8F3B6100BF00BFFDE73B68002B83
:1051D0000BD14FF0500383F31188BFF36F8FBFF3F0
:1051E0004F8FFB6000BF00BFFDE700F02FFD1F4B9E
:1051F0001B68BB617B685B68BA69D31A7B613B68DB
:105200001B68B3F1FF3F02D10023FB6126E07B68FE
:105210001A68174B1B689A420AD07B685B68BA69A8
:105220009A4205D30123FB613B6800221A6015E016
:105230003B681B687A699A420BD23B681A687B69A3
:10524000D21A3B681A607868FFF796FF0023FB616B
:1052500004E03B6800221A600123FB6100F026FD98
:10526000FB6918462037BD4680BD00BFF80200200C
:105270000C03002080B400AF034B01221A6000BF72
:10528000BD4680BC704700BF0803002080B582B0D7
:1052900000AF786000F052F8064B1B68012BF9D97B
:1052A000054B4FF080521A60BFF34F8FBFF36F8FE3
:1052B000F0E700BFF801002004ED00E080B582B007
:1052C00000AF00237B600CE07A6813469B00134418
:1052D0009B00124A13441846FEF744FD7B680133D5
:1052E0007B607B68062BEFD90D48FEF73BFD0D4830
:1052F000FEF738FD0C48FEF735FD0C48FEF732FD91
:105300000B48FEF72FFD0B4B054A1A600A4B054A66
:105310001A6000BF0837BD4680BD00BFF8010020FD
:105320008402002098020020B4020020C80200205D
:10533000E0020020AC020020B002002080B582B064
:1053400000AF19E000F082FC104BDB68DB687B608B
:105350007B6804331846FEF78BFD0D4B1B68013B41
:105360000B4A13600B4B1B68013B0A4A136000F0A9
:105370009DFC786800F010F8064B1B68002BE1D10B
:1053800000BF00BF0837BD4680BD00BFC802002077
:10539000F4020020DC02002080B582B000AF78600B
:1053A0007B684C33184600F01BFF7B681B6B18466C
:1053B00000F0F0FD786800F0EDFD00BF0837BD4655
:1053C00080BD000080B400AF094B1B681B68002B38
:1053D00004D1084B4FF0FF321A6005E0044B1B6804
:1053E000DB681B68034A136000BFBD4680BC704782
:1053F000AC0200201403002080B483B000AF0B4B3C
:105400001B68002B02D101237B6008E0084B1B685E
:10541000002B02D102237B6001E000237B607B68CC
:1054200018460C37BD4680BC704700BF0003002003
:105430001C03002080B584B000AF78607B68BB603F
:105440000023FB607B68002B5ED0BB68DA6A314BBF
:105450001B68DB6A9A424ED2BB689B69002B06DB55
:105460002C4B1B68DB6AC3F10702BB689A61BB68FF
:105470005969BB68DA6A13469B0013449B00264AAD
:10548000134499422FD1BB6804331846FEF7F0FC51
:105490000346002B0AD1BB68DB6A012202FA03F340
:1054A000DA431E4B1B6813401C4A1360194B1B68E0
:1054B000DA6ABB68DA62BB68DB6A01229A40174B82
:1054C0001B681343154A1360BB68DA6A13469B00D6
:1054D00013449B00104A1A44BB6804331946104613
:1054E000FEF76BFC04E00B4B1B68DA6ABB68DA6200
:1054F0000123FB6008E0BB685A6C064B1B68DB6A43
:105500009A4201D20123FB60FB6818461037BD4662
:1055100080BD00BFF4010020F8010020FC02002043
:1055200080B586B000AF78607B683B6100237B610B
:105530007B68002B65D0354B1B683A699A420BD0CB
:105540004FF0500383F31188BFF36F8FBFF34F8F7A
:10555000FB6000BF00BFFDE73B699B6C002B0BD1DC
:105560004FF0500383F31188BFF36F8FBFF34F8F5A
:10557000BB6000BF00BFFDE73B699B6C5A1E3B69E7
:105580009A643B69DA6A3B695B6C9A4239D03B6941
:105590009B6C002B35D13B6904331846FEF768FC41
:1055A0000346002B0AD13B69DB6A012202FA03F3AE
:1055B000DA43174B1B681340154A13603B695A6C5A
:1055C0003B69DA623B69DB6AC3F107023B699A61B6
:1055D0003B69DB6A01229A400D4B1B6813430C4A5E
:1055E00013603B69DA6A13469B0013449B00094A27
:1055F0001A443B69043319461046FEF7DEFB0123CB
:105600007B617B6918461837BD4680BDF4010020D8
:10561000FC020020F801002080B588B000AF78605F
:1056200039607B68BB6101237B617B68002B79D08B
:10563000BB699B6C002B0BD14FF0500383F3118897
:10564000BFF36F8FBFF34F8FFB6000BF00BFFDE75D
:10565000BB695B6C3A689A4202D93B68FB6102E025
:10566000BB695B6CFB61BB69DB6AFA699A4259D022
:10567000BB699B6C7A699A4254D12C4B1B68BA69FE
:105680009A420BD14FF0500383F31188BFF36F8F11
:10569000BFF34F8FBB6000BF00BFFDE7BB69DB6A94
:1056A0003B61BB69FA69DA62BB699B69002B04DB69
:1056B000FB69C3F10702BB699A61BB6959693A6921
:1056C00013469B0013449B00194A1344994229D165
:1056D000BB6904331846FEF7CBFB0346002B0AD107
:1056E000BB69DB6A012202FA03F3DA43114B1B6840
:1056F0001340104A1360BB69DB6A01229A400D4BCC
:105700001B6813430B4A1360BB69DA6A13469B009C
:1057100013449B00064A1A44BB69043319461046D9
:10572000FEF74BFB00BF2037BD4680BDF4010020D3
:10573000F8010020FC02002080B400AF074B1B687A
:10574000002B04D0054B1B689A6C01329A64034B02
:105750001B681846BD4680BC704700BFF40100209E
:1057600080B586B000AFF860B9607A603B60FB68D6
:10577000002B0BD04FF0500383F31188BFF36F8FD2
:10578000BFF34F8F3B6100BF00BFFDE700F05EFA43
:10579000314B1A68FB6813449C331B78DBB2022B35
:1057A00022D02D4B1B68FA68263253F82210BA68B3
:1057B000D2431140FA68263243F82210264B1A6869
:1057C000FB6813449C3301221A703B6A002B0BD0F8
:1057D0000121386A00F028F9204B4FF080521A60FE
:1057E000BFF34F8FBFF36F8F00F060FA00F02EFA17
:1057F0003B68002B07D0184B1B68FA68263253F819
:1058000022203B681A60144B1A68FB6813449C33CF
:105810001B78DBB2022B02D000237B610EE00E4B23
:105820001B68FA68263253F822107A68D243114076
:10583000FA68263243F8221001237B61064B1A686E
:10584000FB6813449C3300221A7000F02FFA7B6926
:1058500018461837BD4680BDF401002004ED00E075
:1058600080B58CB000AFF860B9607A60FB7001233E
:10587000FB62BB68002B0BD04FF0500383F3118801
:10588000BFF36F8FBFF34F8F3B6200BF00BFFDE7D9
:10589000FB68002B0BD14FF0500383F31188BFF34B
:1058A0006F8FBFF34F8FFB6100BF00BFFDE7FB6849
:1058B000BB6200F0CBF9BB6B002B06D0BB6ABA68A9
:1058C000263253F82220BB6B1A60BA6ABB681344B5
:1058D0009C331B7887F82730BA6ABB6813449C3323
:1058E00002221A70FB78042B3BD801A252F823F055
:1058F0008359000805590008215900083959000842
:1059000047590008BB6ABA68263253F822207B68E0
:1059100042EA0301BB6ABA68263243F8221033E038
:10592000BB6ABA68263253F82230591CBB6ABA687F
:10593000263243F8221027E0BB6ABA68263279681B
:1059400043F8221020E097F82730022B06D0BB6ADC
:10595000BA682632796843F8221015E00023FB620A
:1059600012E02C4B1B68002B0DD04FF0500383F33B
:105970001188BFF36F8FBFF34F8FBB6100BF00BFB4
:10598000FDE700BF00E000BF97F82730012B3AD1B8
:10599000BB6A04331846FEF76BFABB6ADB6A012266
:1059A0009A401D4B1B6813431B4A1360BB6ADA6A9B
:1059B00013469B0013449B00184A1A44BB6A0433E5
:1059C00019461046FEF7F9F9BB6A9B6A002B0BD00B
:1059D0004FF0500383F31188BFF36F8FBFF34F8FE6
:1059E0007B6100BF00BFFDE7BB6ADA6A0C4B1B6836
:1059F000DB6A9A4207D90B4B4FF080521A60BFF313
:105A00004F8FBFF36F8F00F051F9FB6A18463037A4
:105A1000BD4680BDF8020020FC020020F8010020F5
:105A2000F401002004ED00E080B584B000AF7860A0
:105A30003960294B1B68FB60284B1B6804331846F0
:105A4000FEF716FA0346002B0BD1244B1B68DB6ACA
:105A5000012202FA03F3DA43214B1B681340204A68
:105A600013607B68B3F1FF3F0AD13B68002B07D07E
:105A70001A4B1B68043319461A48FEF79EF926E0B4
:105A8000FA687B681344BB60144B1B68BA685A60A1
:105A9000BA68FB689A4209D2134B1A680F4B1B680D
:105AA000043319461046FEF7ABF910E00F4B1A68A5
:105AB0000A4B1B68043319461046FEF7A1F90C4B3C
:105AC0001B68BA689A4202D2094ABB68136000BFD9
:105AD0001037BD4680BD00BFF8020020F401002051
