:020000040800F2
:1000000000500020F90E0008510E0008590E00089B
:10001000610E0008690E0008710E00080000000063
:10002000000000000000000000000000410F000878
:10003000790E000800000000410F0008410F000881
:10004000410F0008410F0008410F0008410F000850
:10005000410F0008410F0008410F0008410F000840
:10006000410F0008410F0008850E0008410F0008ED
:10007000410F0008410F0008410F0008410F000820
:10008000410F0008410F0008410F0008410F000810
:10009000410F0008410F0008410F0008A90E000899
:1000A000410F0008410F0008410F0008410F0008F0
:1000B000410F0008410F0008D90E0008410F000849
:1000C000410F0008410F0008410F0008410F0008D0
:1000D000410F0008410F0008410F0008410F0008C0
:1000E000410F0008410F0008410F00080000000008
:1000F0000000000000000000000000000000000000
:0C01000000000000000000005FF808F1A3
:10010C0010B5054C237833B9044B13B10448AFF345
:10011C0000800123237010BD30000020000000007F
:10012C00703A000808B5034B1BB103490348AFF301
:10013C00008008BD0000000034000020703A000868
:10014C0080B582B000AF00237B6000233B600023AE
:10015C007B6059E001220F21354801F0CCF90122D6
:10016C007B6802FA03F39BB200221946304801F077
:10017C00C2F910212E4801F0A7F90346002B0AD131
:10018C0000233B6000BF1021294801F09DF9034674
:10019C00002BF8D03BE02021254801F095F90346CF
:1001AC00002B0AD101233B6000BF2021204801F025
:1001BC008BF90346002BF8D029E040211C4801F0B4
:1001CC0083F90346002B0AD102233B6000BF402178
:1001DC00174801F079F90346002BF8D017E080217D
:1001EC00134801F071F90346002B0AD103233B603D
:1001FC0000BF80210E4801F067F90346002BF8D0B0
:10020C0005E07B6801337B607B68032BA2DD002259
:10021C000F21074801F06FF9064A7B689B001A44CE
:10022C003B6813441B7818460837BD4680BD00BF99
:10023C00000801400000002080B582B000AF002310
:10024C00FB710023FB710BE0FB79124AD35C18465F
:10025C0000F024F80A2000F0A3F9FB790133FB71BC
:10026C00FB79032BF0D90023FB710BE0FB790A4AD5
:10027C00D35C184600F068F80A2000F091F9FB797D
:10028C000133FB71FB79052BF0D900BF00BF083798
:10029C00BD4680BD100000201800002080B586B03F
:1002AC0002AF0346FB71FB7923F00F03FB730823AA
:1002BC00BB7304237B7302233B730123FB72FA7B16
:1002CC00BB7B1343DAB27B7B1343DBB25AB2397B71
:1002DC00FB7A0B43DBB25BB2DB435BB213405BB22A
:1002EC00DBB2BB7207F10A020A23009301234E21F1
:1002FC00144801F075FA0A2000F052F9FA7BBB7B26
:10030C001343DBB25AB2797B3B7B0B43D9B2FB7AFA
:10031C000B43DBB25BB2DB435BB213405BB2DBB2D1
:10032C00BB7207F10A020A23009301234E210548F0
:10033C0001F056FA0A2000F033F900BF1037BD4621
:10034C0080BD00BF5800002080B586B002AF0346C8
:10035C00FB71FB7923F00F03FB73FB791B01BB7360
:10036C0008237B7304233B730223FB720123BB72B0
:10037C00FA7B7B7B1343DAB23B7B1343DBB25AB27F
:10038C00F97ABB7A0B43DBB25BB2DB435BB2134053
:10039C005BB2DBB27B7207F109020A2300930123E3
:1003AC004E21334801F01CFA0A2000F0F9F8FA7BD0
:1003BC007B7B1343DBB25AB2397BFB7A0B43D9B24A
:1003CC00BB7A0B43DBB25BB2DB435BB213405BB279
:1003DC00DBB27B7207F109020A23009301234E2141
:1003EC00234801F0FDF90A2000F0DAF8BA7B7B7B98
:1003FC001343DAB23B7B1343DBB25AB2F97ABB7AC2
:10040C000B43DBB25BB2DB435BB213405BB2DBB2E0
:10041C003B7207F108020A23009301234E21144872
:10042C0001F0DEF90A2000F0BBF8BA7B7B7B1343AA
:10043C00DBB25AB2397BFB7A0B43D9B2BB7A0B4392
:10044C00DBB25BB2DB435BB213405BB2DBB23B7241
:10045C0007F108020A23009301234E21044801F0FE
:10046C00BFF90A2000F09CF800BF1037BD4680BDD4
:10047C005800002080B586B002AF0346FB71FB79B3
:10048C0023F00F03FB73FB791B01BB7308237B73F6
:10049C0004233B730223FB720123BB72FA7B7B7B2D
:1004AC001343DAB23B7B1343DAB2BB7A1343DBB2AE
:1004BC005AB297F90B30DB435BB213405BB2DBB241
:1004CC007B7207F109020A23009301234E21334862
:1004DC0001F086F90A2000F063F8FA7B7B7B13436A
:1004EC00DAB2BB7A1343DBB25AB2397BFB7A0B43D9
:1004FC00DBB25BB2DB435BB213405BB2DBB27B7251
:10050C0007F109020A23009301234E21234801F02D
:10051C0067F90A2000F044F8BA7B7B7B1343DAB20C
:10052C003B7B1343DAB2BB7A1343DBB25AB297F973
:10053C000B30DB435BB213405BB2DBB23B7207F1B7
:10054C0008020A23009301234E21144801F048F9B4
:10055C000A2000F025F8BA7B7B7B1343DAB2BB7A16
:10056C001343DBB25AB2397BFB7A0B43DBB25BB27F
:10057C00DB435BB213405BB2DBB23B7207F10802A8
:10058C000A23009301234E21044801F029F90A2083
:10059C0000F006F800BF1037BD4680BD58000020A3
:1005AC0080B485B000AF78600023FB600CE00023C2
:1005BC00BB6002E0BB680133BB60BB68B3F57A7FFC
:1005CC00F8DBFB680133FB60FA687B689A42EEDB70
:1005DC0000BF00BF1437BD4680BC704780B500AF6C
:1005EC0000F0AAFC00F02CF800F034F900F008F947
:1005FC0000F062F800F08EF801224FF400510D4823
:10060C0000F079FF0C210C4802F07CF90B4B002216
:10061C001A64FFF711FE3020FFF72CFF3020FFF794
:10062C0029FF3020FFF726FF8020FFF78DFE00BF4B
:10063C00FDE700BF00100140AC00002000040040AA
:10064C0080B590B000AF07F118032822002118469E
:10065C0003F0DCF93B1D00221A605A609A60DA60E4
:10066C001A610223BB610123BB621023FB620023CE
:10067C007B6307F11803184601F00AFC0346002BB4
:10068C0001D000F04FFA0F237B600023BB600023E6
:10069C00FB6000233B6100237B613B1D002118465E
:1006AC0001F078FE0346002B01D000F03BFA00BFAE
:1006BC004037BD4680BD000080B500AF124B134AD9
:1006CC001A60114B124A5A600F4B00229A600E4B63
:1006DC000022DA600C4B4FF480421A610A4B002264
:1006EC005A61094B00229A61074B0022DA61064BD2
:1006FC0000221A62044800F02FFF0346002B01D0A1
:10070C0000F010FA00BF80BD5800002000540040DB
:10071C00A086010080B58EB000AF07F1280300223F
:10072C001A605A609A60DA6007F1200300221A609E
:10073C005A603B1D00221A605A609A60DA601A6196
:10074C005A619A612C4B2D4A1A602B4B07225A6026
:10075C00294B00229A60284B6322DA60264B002238
:10076C001A61254B00229A61234801F0D1FF034600
:10077C00002B01D000F0D6F94FF48053BB6207F187
:10078C00280319461C4802F011FB0346002B01D02C
:10079C0000F0C8F9184802F05DF80346002B01D0B0
:1007AC0000F0C0F900233B6200237B6207F12003B9
:1007BC001946114802F096FE0346002B01D000F0BA
:1007CC00B1F960237B600023BB600023FB60002336
:1007DC007B613B1D0C221946074802F025FA0346A3
:1007EC00002B01D000F09EF9034800F02FFA00BF57
:1007FC003837BD4680BD00BFAC000020000400406F
:10080C0080B500AF114B124A1A60104B4FF4E13215
:10081C005A600E4B00229A600C4B0022DA600B4B94
:10082C0000221A61094B0C225A61084B00229A6172
:10083C00064B0022DA61054802F0C4FE0346002B89
:10084C0001D000F06FF900BF80BD00BFF4000020A4
:10085C000038014080B588B000AF07F110030022CA
:10086C001A605A609A60DA60354B9B69344A43F0DF
:10087C0010039361324B9B6903F01003FB60FB6820
:10088C002F4B9B692E4A43F0040393612C4B9B69BD
:10089C0003F00403BB60BB68294B9B69284A43F0F7
:1008AC0008039361264B9B6903F008037B607B680C
:1008BC0000224FF40051234800F01DFE00220F21AE
:1008CC00214800F018FE4FF400533B6101237B617B
:1008DC000023BB610223FB6107F110031946194881
:1008EC0000F06EFC0F233B6101237B610023BB6195
:1008FC000223FB6107F110031946134800F060FC5A
:10090C00F0233B61114B7B610123BB6107F11003A9
:10091C0019460D4800F054FC002200210A2000F07A
:10092C0016FC0A2000F02FFC00220021172000F0FA
:10093C000EFC172000F027FC00BF2037BD4680BD01
:10094C00001002400010014000080140000021107E
:10095C0080B582B000AF0346FB800A2000F021FC7A
:10096C00172000F01EFC00224FF400515C4800F0F0
:10097C00C2FDFFF7E5FB03461A465A4B1A700A20D4
:10098C0000F001FC172000F0FEFB564B1B78442BAB
:10099C0038D0442B7DDC232B1BD02A2B79D1524B06
:1009AC001B68002B40F395804F4B1B68012B03D128
:1009BC008020FFF7C9FC06E04B4B1B68022B02D1D1
:1009CC008120FFF7C1FC484B1B68013B464A136072
:1009DC007FE0454B1B68012B7DDC434B1B68012BD7
:1009EC0003D18220FFF7B0FC06E03F4B1B68002BC5
:1009FC0002D18120FFF7A8FC3B4B1B6801333A4A1C
:100A0C00136068E0394B1B78303B642202FB03F126
:100A1C00364B5B78A3F1300213469B0013445B000A
:100A2C00CA18324B9B78303B1344314A1360304B1D
:100A3C001B68642B1ADD2D4B31221A702B4B302284
:100A4C005A702A4B30229A70294B64221A608020EB
:100A5C00FFF77AFC3120FFF70DFD3020FFF70AFD80
:100A6C003020FFF707FD8020FFF76EFC204B1A6843
:100A7C00204B1A644FF47A7303221C491E4802F06F
:100A8C00F1FD4FF47A7302221C491B4802F0EAFD77
:100A9C0022E0144B1B782F2B1ED9124B1B78392BB1
:100AAC001AD8114B1B680F4A1178104AD1540E4BAF
:100ABC001B680E4AD35C1846FFF7DCFC0A4B1B681C
:100ACC005BB263F07F035BB2DBB21846FFF73CFC12
:100ADC0002E000BF00E000BF00BF0837BD4680BD8C
:100AEC00001001404C00002050000020200000208D
:100AFC005400002000040040F4000020883A000854
:100B0C0080B582B000AF78607B681B68044A934262
:100B1C0001D100F027FA00BF0837BD4680BD00BFE9
:100B2C000008004080B400AF72B600BF00BFFDE704
:100B3C0080B485B000AF154B9B69144A43F0010398
:100B4C009361124B9B6903F00103BB60BB680F4BB5
:100B5C00DB690E4A43F08053D3610C4BDB6903F025
:100B6C0080537B607B680A4B5B68FB60FB6823F0FF
:100B7C00E063FB60FB6843F08063FB60044AFB6846
:100B8C00536000BF1437BD4680BC70470010024054
:100B9C000000014080B588B000AF786007F1100309
:100BAC0000221A605A609A60DA607B681B68154AEA
:100BBC00934223D1144B9B69134A43F0080393616E
:100BCC00114B9B6903F00803FB60FB68C0233B617E
:100BDC0012237B610323FB6107F1100319460B48B9
:100BEC0000F0EEFA084BDB69074A43F40013D361BB
:100BFC00054BDB6903F40013BB60BB6800BF2037F7
:100C0C00BD4680BD0054004000100240000C014065
:100C1C0080B485B000AF78607B681B68094A93424A
:100C2C000BD1094BDB69084A43F00203D361064B35
:100C3C00DB6903F00203FB60FB6800BF1437BD46A1
:100C4C0080BC7047000400400010024080B588B0A2
:100C5C0000AF786007F1100300221A605A609A60A6
:100C6C00DA607B681B680F4A934217D10E4B9B6965
:100C7C000D4A43F0080393610B4B9B6903F0080387
:100C8C00FB60FB6802233B6102237B610223FB6157
:100C9C0007F110031946054800F092FA00BF2037FF
:100CAC00BD4680BD0004004000100240000C014015
:100CBC0080B588B000AF786007F1100300221A608D
:100CCC005A609A60DA607B681B681C4A934231D187
:100CDC001B4B9B691A4A43F480439361184B9B69E5
:100CEC0003F48043FB60FB68154B9B69144A43F08B
:100CFC0004039361124B9B6903F00403BB60BB6854
:100D0C004FF400733B6102237B610323FB6107F10A
:100D1C00100319460B4800F053FA4FF480633B6103
:100D2C0000237B610023BB6107F1100319460548C2
:100D3C0000F046FA00BF2037BD4680BD00380140A8
:100D4C00001002400008014080B58EB000AF786002
:100D5C000023FB620023BB62002387F83330344B43
:100D6C00DB69334A43F00403D361314BDB6903F095
:100D7C000403FB60FB6807F1100207F11403114632
:100D8C00184601F077FC3B6AFB62FB6A002B03D12F
:100D9C0001F048FC786304E001F044FC03465B007E
:100DAC007B637B6B234AA2FB03239B0C013BBB6243
:100DBC00214B224A1A60204B40F2E732DA601E4A7D
:100DCC00BB6A53601C4B00221A611B4B00229A60B9
:100DDC00194B00229A61184801F09AFC034687F8D7
:100DEC00333097F83330002B1BD1134801F0E0FC63
:100DFC00034687F8333097F83330002B11D11E207F
:100E0C0000F0C1F97B680F2B08D8002279681E20EE
:100E1C0000F09DF90A4A7B68136002E0012387F811
:100E2C00333097F8333018463837BD4680BD00BF95
:100E3C000010024083DE1B433C01002000080040F0
:100E4C002800002080B400AF00BFFDE780B400AFE5
:100E5C0000BFFDE780B400AF00BFFDE780B400AF7A
:100E6C0000BFFDE780B400AF00BFFDE780B400AF6A
:100E7C0000BFBD4680BC704780B500AF4FF47A739D
:100E8C0004220449044802F0EDFB102000F04CFB56
:100E9C0000BF80BD8C3A0008F400002080B500AF84
:100EAC004FF47A7304220749074802F0DBFB202039
:100EBC0000F03AFB402000F037FB802000F034FBC0
:100ECC0000BF80BD943A0008F400002080B500AF4C
:100EDC00024801F0B9FD00BF80BD00BF3C010020FD
:100EEC0080B400AF00BFBD4680BC7047FFF7F8FF71
:100EFC000B480C490C4A002302E0D458C45004336C
:100F0C00C4188C42F9D3094A094C002301E0136040
:100F1C000432A242FBD302F081FDFFF75FFB704766
:100F2C000000002030000020D03A000830000020E3
:100F3C0088010020FEE7000080B500AF084B1B685D
:100F4C00074A43F010031360032000F0F5F80F205C
:100F5C00FFF7FAFEFFF7ECFD0023184680BD00BF3B
:100F6C000020024080B400AF054B1B781A46054B9D
:100F7C001B681344034A136000BFBD4680BC704716
:100F8C002C0000208401002080B400AF024B1B68B1
:100F9C001846BD4680BC70478401002080B485B0E3
:100FAC0000AF78607B6803F00703FB600C4BDB68D9
:100FBC00BB60BA684FF6FF031340BB60FB681A02B4
:100FCC00BB68134343F0BF6343F40033BB60044A74
:100FDC00BB68D36000BF1437BD4680BC704700BFF0
:100FEC0000ED00E080B400AF044BDB681B0A03F09B
:100FFC0007031846BD4680BC704700BF00ED00E0FB
:10100C0080B483B000AF0346FB7197F90730002B17
:10101C000BDBFB7903F01F02064997F907305B09DC
:10102C00012000FA02F241F8232000BF0C37BD4624
:10103C0080BC704700E100E080B483B000AF034691
:10104C00FB7197F90730002B12DBFB7903F01F02C1
:10105C000A4997F907305B09012000FA02F22033A4
:10106C0041F82320BFF34F8F00BFBFF36F8F00BF3A
:10107C0000BF0C37BD4680BC704700BF00E100E0EC
:10108C0080B483B000AF03463960FB7197F9073029
:10109C00002B0ADB3B68DAB20C4997F907301201D6
:1010AC00D2B20B4483F800230AE03B68DAB2084959
:1010BC00FB7903F00F03043B1201D2B20B441A76F6
:1010CC0000BF0C37BD4680BC704700BF00E100E09C
:1010DC0000ED00E080B489B000AFF860B9607A60D0
:1010EC00FB6803F00703FB61FB69C3F10703042BE7
:1010FC0028BF0423BB61FB690433062B02D9FB69AF
:10110C00033B00E000237B614FF0FF32BB6902FA26
:10111C0003F3DA43BB681A407B699A404FF0FF3106
:10112C007B6901FA03F3D9437B680B4013431846E0
:10113C002437BD4680BC704780B582B000AF786064
:10114C007868FFF72BFF00BF0837BD4680BD80B520
:10115C0086B000AF0346B9607A60FB7300237B61F5
:10116C00FFF740FF78617A68B9687869FFF7B2FFDA
:10117C00024697F90F3011461846FFF781FF00BF62
:10118C001837BD4680BD80B582B000AF0346FB71F9
:10119C0097F907301846FFF733FF00BF0837BD46F5
:1011AC0080BD80B582B000AF0346FB7197F9073064
:1011BC001846FFF741FF00BF0837BD4680BD000051
:1011CC0080B48BB000AF7860396000237B62002361
:1011DC003B6269E101227B6A02FA03F3FB613B6823
:1011EC001B68FA691340BB61BA69FB699A4240F00B
:1011FC0058813B685B689A4A93425ED0984A934206
:10120C0075D8984A934258D0964A93426FD8964ACA
:10121C00934252D0944A934269D8944A93424CD008
:10122C00924A934263D8924A934246D0904A934250
:10123C005DD8122B2AD8122B59D801A252F823F0C0
:10124C00C7120008A1120008B3120008F51200081A
:10125C00FB120008FB120008FB120008FB1200082E
:10126C00FB120008FB120008FB120008FB1200081E
:10127C00FB120008FB120008FB120008FB1200080E
:10128C00FB120008A9120008BD120008794A93420B
:10129C0013D02CE03B68DB683B6229E03B68DB68E1
:1012AC0004333B6224E03B68DB6808333B621FE09D
:1012BC003B68DB680C333B621AE03B689B68002B95
:1012CC0002D104233B6213E03B689B68012B05D1E0
:1012DC0008233B627B68FA691A6109E008233B62C8
:1012EC007B68FA695A6103E000233B6200E000BFAF
:1012FC00BB69FF2B01D87B6801E07B6804337B6101
:10130C00BB69FF2B02D87B6A9B0002E07B6A083B1F
:10131C009B003B617B691A680F213B6901FA03F35F
:10132C00DB431A40396A3B6901FA03F31A437B69C0
:10133C001A603B685B6803F08053002B00F0B180AF
:10134C004D4B9B694C4A43F0010393614A4B9B699B
:10135C0003F00103BB60BB68484A7B6A9B080233FD
:10136C0052F82330FB607B6A03F003039B000F22CF
:10137C0002FA03F3DB43FA681340FB607B68404AD4
:10138C00934213D07B683F4A93420DD07B683E4A10
:10139C00934207D07B683D4A934201D1032306E078
:1013AC00042304E0022302E0012300E000237A6A14
:1013BC0002F0030292009340FA681343FB602F493A
:1013CC007B6A9B080233FA6841F823203B685B6810
:1013DC0003F48013002B06D02D4B9A682C49BB6963
:1013EC0013438B6006E02A4B9A68BB69DB432849A0
:1013FC0013408B603B685B6803F40013002B06D032
:10140C00234BDA682249BB691343CB6006E0204BBF
:10141C00DA68BB69DB431E491340CB603B685B68F1
:10142C0003F40033002B06D0194B5A681849BB69DA
:10143C0013434B6006E0164B5A68BB69DB431449F7
:10144C0013404B603B685B6803F48033002B21D066
:10145C000F4B1A680E49BB6913430B6021E000BFA8
:10146C00000032100000311000002210000021108A
:10147C00000012100000111000100240000001408A
:10148C0000080140000C0140001001400014014014
:10149C00000401400B4B1A68BB69DB43094913403C
:1014AC000B607B6A01337B623B681A687B6A22FAA9
:1014BC0003F3002B7FF48EAE00BF00BF2C37BD466C
:1014CC0080BC70470004014080B485B000AF7860E8
:1014DC000B467B807B689A687B881340002B02D07C
:1014EC000123FB7301E00023FB73FB7B18461437CD
:1014FC00BD4680BC704780B483B000AF78600B46AB
:10150C007B8013467B707B78002B03D07A887B68BA
:10151C001A6103E07B881A047B681A6100BF0C37E0
:10152C00BD4680BC7047000080B582B000AF03465A
:10153C00FB80084B5A69FB881340002B06D0054AE8
:10154C00FB885361FB881846FFF702FA00BF083787
:10155C00BD4680BD0004014080B584B000AF78600A
:10156C007B68002B01D101232BE17B6893F83D3084
:10157C00DBB2002B06D17B68002283F83C20786814
:10158C00FFF708FB7B68242283F83D207B681B68EF
:10159C001A687B681B6822F001021A607B681B6862
:1015AC001A687B681B6842F400421A607B681B68EF
:1015BC001A687B681B6822F400421A6001F032F84A
:1015CC00F8607B685B68814A934207D8FB68804A65
:1015DC00934294BF01230023DBB206E0FB687D4AF3
:1015EC00934294BF01230023DBB2002B01D00123D3
:1015FC00E7E0FB68784AA2FB03239B0CBB607B688B
:10160C001B685B6823F03F017B681B68BA680A4360
:10161C005A607B681B681B6A23F03F017B685B6820
:10162C006A4A934202D8BB68013309E0BB684FF4A5
:10163C00967202FB03F3694AA2FB03239B09013355
:10164C007A6812680B4313627B681B68DB6923F4AE
:10165C004F4222F0FF027B685B685C498B4219D8D1
:10166C00FB68591E7B685B685B00B1FBF3F3591C8C
:10167C0040F6FC730B40002B0AD0FB68591E7B68AC
:10168C005B685B00B1FBF3F30133C3F30B0351E075
:10169C0004234FE07B689B68002B11D1FB68581E1C
:1016AC007B6859680B465B000B44B0FBF3F30133CA
:1016BC00C3F30B03002B0CBF01230023DBB212E09E
:1016CC00FB68581E7B6859680B469B000B449900BD
:1016DC000B44B0FBF3F30133C3F30B03002B0CBF30
:1016EC0001230023DBB2002B01D0012322E07B6815
:1016FC009B68002B0ED1FB68581E7B6859680B4603
:10170C005B000B44B0FBF3F30133C3F30B0343F463
:10171C0000430FE0FB68581E7B6859680B469B0022
:10172C000B4499000B44B0FBF3F30133C3F30B03ED
:10173C0043F44043796809681343CB617B681B68A9
:10174C001B6823F0C0017B68DA697B681B6A1A434B
:10175C007B681B680A431A607B681B689B6823F4D0
:10176C00034323F0FF037A6811697A68D268114346
:10177C007A6812680B4393607B681B68DB6823F004
:10178C00FF017B685A697B689B691A437B681B68FD
:10179C000A43DA607B681B681A687B681B6842F036
:1017AC0001021A607B6800221A647B68202283F88D
:1017BC003D207B6800221A637B68002283F83E2060
:1017CC00002318461037BD4680BD00BFA08601001F
:1017DC007F841E00FF083D0083DE1B43D34D621047
:1017EC0080B588B002AFF8607A601A460B467B81F0
:1017FC0013463B81FFF7C8FB7861FB6893F83D30DB
:10180C00DBB2202B40F0E0807B690093192301228E
:10181C007049F86800F064F90346002B01D00223EC
:10182C00D3E0FB6893F83C30012B01D10223CCE0D0
:10183C00FB68012283F83C20FB681B681B6803F0E3
:10184C000103012B07D0FB681B681A68FB681B6837
:10185C0042F001021A60FB681B681A68FB681B687F
:10186C0022F400621A60FB68212283F83D20FB6899
:10187C00102283F83E20FB6800221A64FB687A6809
:10188C005A62FB683A895A85FB685B8D9AB2FB6891
:10189C001A85FB68504ADA6279897B693A6AF8687A
:1018AC0000F09CF80346002B01D001238DE00023AF
:1018BC003B61FB681B685B693B61FB681B689B6950
:1018CC003B613B6966E07A69396AF86800F022FA94
:1018DC000346002B0DD0FB681B6C042B07D1FB6857
:1018EC001B681A68FB681B6842F400721A600123BB
:1018FC006BE0FB685B6A1A78FB681B681A61FB6813
:10190C005B6A5A1CFB685A62FB685B8D9BB2013B9D
:10191C009AB2FB685A85FB681B8D013B9AB2FB6837
:10192C001A85FB681B685B6903F00403042B1BD14D
:10193C00FB681B8D002B17D0FB685B6A1A78FB6861
:10194C001B681A61FB685B6A5A1CFB685A62FB686D
:10195C005B8D9BB2013B9AB2FB685A85FB681B8D71
:10196C00013B9AB2FB681A857A69396AF86800F00B
:10197C0019FA0346002B0DD0FB681B6C042B07D106
:10198C00FB681B681A68FB681B6842F400721A60DB
:10199C0001231AE0FB681B8D002B94D1FB681B689C
:1019AC001A68FB681B6842F400721A60FB682022FC
:1019BC0083F83D20FB68002283F83E20FB68002260
:1019CC0083F83C20002300E0022318461837BD465C
:1019DC0080BD00BF020010000000FFFF80B588B082
:1019EC0002AFF8607A603B600B467B81FB68DB6A78
:1019FC007B617B69082B06D07B69012B03D07B694B
:101A0C0013F5803F08D1FB681B681A68FB681B68DC
:101A1C0042F480721A600BE0FB681B6B122B07D12F
:101A2C00FB681B681A68FB681B6842F480721A60BA
:101A3C003B6800937B6800224FF00111F86800F0BE
:101A4C004FF80346002B0DD0FB681B681B6803F492
:101A5C008073B3F5807F03D1FB684FF400721A6476
:101A6C00032335E0FB681B69B3F5804F08D17B89F4
:101A7C00DBB21A46FB681B6802F0FE021A611BE01F
:101A8C007B89DB11DBB203F00603DBB263F00F03DF
:101A9C00DAB2FB681B681A613B687A680E49F86811
:101AAC0000F098F80346002B01D0012310E07B894D
:101ABC00DAB2FB681B681A613B687A680749F868F8
:101ACC0000F088F80346002B01D0012300E000232E
:101ADC0018461837BD4680BD080001000200010001
:101AEC0080B584B000AFF860B9603B601346FB7101
:101AFC0048E03B68B3F1FF3F44D0FFF745FA02469C
:101B0C00BB69D31A3A689A4202D33B68002B39D18D
:101B1C00BB681B0CDBB2012B0DD1FB681B685B692E
:101B2C00DA43BB6813409BB2002B0CBF012300238C
:101B3C00DBB21A460CE0FB681B689B69DA43BB6896
:101B4C0013409BB2002B0CBF01230023DBB21A46BF
:101B5C00FB799A4216D1FB6800221A63FB6820229B
:101B6C0083F83D20FB68002283F83E20FB681B6C49
:101B7C0043F02002FB681A64FB68002283F83C20C7
:101B8C00012323E0BB681B0CDBB2012B0DD1FB68DE
:101B9C001B685B69DA43BB6813409BB2002B0CBF1C
:101BAC0001230023DBB21A460CE0FB681B689B691F
:101BBC00DA43BB6813409BB2002B0CBF01230023FC
:101BCC00DBB21A46FB799A4293D0002318461037A1
:101BDC00BD4680BD80B584B000AFF860B9607A6056
:101BEC003B6071E0FB681B685B6903F48063B3F5D1
:101BFC00806F23D1FB681B681A68FB681B6842F472
:101C0C0000721A60FB681B686FF480625A61FB6893
:101C1C0000221A63FB68202283F83D20FB68002217
:101C2C0083F83E20FB681B6C43F00402FB681A64CB
:101C3C00FB68002283F83C20012367E07B68B3F14A
:101C4C00FF3F41D0FFF7A0F902463B68D31A7A68F0
:101C5C009A4202D37B68002B36D1BB681B0CDBB2DB
:101C6C00012B0CD1FB681B685B69DA43BB68134022
:101C7C009BB2002B14BF01230023DBB20BE0FB68EB
:101C8C001B689B69DA43BB6813409BB2002B14BFE3
:101C9C0001230023DBB2002B16D0FB6800221A6351
:101CAC00FB68202283F83D20FB68002283F83E204D
:101CBC00FB681B6C43F02002FB681A64FB68002273
:101CCC0083F83C20012321E0BB681B0CDBB2012B09
:101CDC000CD1FB681B685B69DA43BB6813409BB291
:101CEC00002B14BF01230023DBB20BE0FB681B6845
:101CFC009B69DA43BB6813409BB2002B14BF0123D2
:101D0C000023DBB2002B7FF46DAF00231846103795
:101D1C00BD4680BD80B584B000AFF860B9607A6014
:101D2C0034E0F86800F086F80346002B01D001235C
:101D3C0034E0BB68B3F1FF3F28D0FFF725F902462A
:101D4C007B68D31ABA689A4202D3BB68002B1DD1A8
:101D5C00FB681B685B6903F08003802B16D0FB6863
:101D6C0000221A63FB68202283F83D20FB680022C6
:101D7C0083F83E20FB681B6C43F02002FB681A645E
:101D8C00FB68002283F83C20012307E0FB681B68FA
:101D9C005B6903F08003802BC3D1002318461037F6
:101DAC00BD4680BD80B584B000AFF860B9607A6084
:101DBC0034E0F86800F03EF80346002B01D0012314
:101DCC0034E0BB68B3F1FF3F28D0FFF7DDF80246E3
:101DDC007B68D31ABA689A4202D3BB68002B1DD118
:101DEC00FB681B685B6903F00403042B16D0FB68CB
:101DFC0000221A63FB68202283F83D20FB68002236
:101E0C0083F83E20FB681B6C43F02002FB681A64CD
:101E1C00FB68002283F83C20012307E0FB681B6869
:101E2C005B6903F00403042BC3D10023184610375D
:101E3C00BD4680BD80B483B000AF78607B681B6802
:101E4C005B6903F48063B3F5806F1BD17B681B68FF
:101E5C006FF480625A617B6800221A637B682022CF
:101E6C0083F83D207B68002283F83E207B681B6C46
:101E7C0043F004027B681A647B68002283F83C20E0
:101E8C00012300E0002318460C37BD4680BC704788
:101E9C0080B586B000AF78607B68002B01D1012340
:101EAC0072E27B681B6803F00103002B00F0878053
:101EBC00924B5B6803F00C03042B0CD08F4B5B68CC
:101ECC0003F00C03082B12D18C4B5B6803F48033AA
:101EDC00B3F5803F0BD1894B1B6803F40033002B07
:101EEC006CD07B685B68002B68D101234CE27B686B
:101EFC005B68B3F5803F06D1804B1B687F4A43F487
:101F0C00803313602EE07B685B68002B0CD17B4B1D
:101F1C001B687A4A23F480331360784B1B68774A2A
:101F2C0023F4802313601DE07B685B68B3F5A02F5E
:101F3C000CD1724B1B68714A43F4802313606F4BB6
:101F4C001B686E4A43F4803313600BE06B4B1B68C9
:101F5C006A4A23F480331360684B1B68674A23F486
:101F6C00802313607B685B68002B13D0FFF70CF8A1
:101F7C00386108E0FFF708F802463B69D31A642B76
:101F8C0001D9032300E25D4B1B6803F40033002BE3
:101F9C00F0D014E0FEF7F8FF386108E0FEF7F4FF2C
:101FAC0002463B69D31A642B01D90323ECE1534B52
:101FBC001B6803F40033002BF0D100E000BF7B68FA
:101FCC001B6803F00203002B63D04C4B5B6803F0DF
:101FDC000C03002B0BD0494B5B6803F00C03082B54
:101FEC001CD1464B5B6803F48033002B16D1434B5A
:101FFC001B6803F00203002B05D07B681B69012BC7
:10200C0001D00123C0E13D4B1B6823F0F8027B6833
:10201C005B69DB00394913430B603AE07B681B6951
:10202C00002B20D0364B01221A60FEF7ADFF386131
:10203C0008E0FEF7A9FF02463B69D31A022B01D92F
:10204C000323A1E12D4B1B6803F00203002BF0D0FE
:10205C002A4B1B6823F0F8027B685B69DB0027497D
:10206C0013430B6015E0264B00221A60FEF78CFF21
:10207C00386108E0FEF788FF02463B69D31A022B51
:10208C0001D9032380E11D4B1B6803F00203002BD5
:10209C00F0D17B681B6803F00803002B3AD07B68F7
:1020AC009B69002B19D0174B01221A60FEF76CFFAD
:1020BC00386108E0FEF768FF02463B69D31A022B31
:1020CC0001D9032360E10D4B5B6A03F00203002B83
:1020DC00F0D0012000F0FEFA1CE00A4B00221A603E
:1020EC00FEF752FF38610FE0FEF74EFF02463B69E8
:1020FC00D31A022B08D9032346E100BF001002407B
:10210C000000424280044242924B5B6A03F002039D
:10211C00002BE9D17B681B6803F00403002B00F053
:10212C00A6800023FB758B4BDB6903F08053002BDF
:10213C000DD1884BDB69874A43F08053D361854BC3
:10214C00DB6903F08053BB60BB680123FB75824BDA
:10215C001B6803F48073002B18D17F4B1B687E4ADD
:10216C0043F480731360FEF70FFF386108E0FEF74D
:10217C000BFF02463B69D31A642B01D9032303E1FD
:10218C00754B1B6803F48073002BF0D07B68DB6805
:10219C00012B06D16F4B1B6A6E4A43F0010313628D
:1021AC002DE07B68DB68002B0CD16A4B1B6A694AFB
:1021BC0023F001031362674B1B6A664A23F0040386
:1021CC0013621CE07B68DB68052B0CD1614B1B6A2E
:1021DC00604A43F0040313625E4B1B6A5D4A43F092
:1021EC00010313620BE05B4B1B6A5A4A23F0010399
:1021FC001362584B1B6A574A23F0040313627B6823
:10220C00DB68002B15D0FEF7BFFE38610AE0FEF745
:10221C00BBFE02463B69D31A41F28832934201D984
:10222C000323B1E04B4B1B6A03F00203002BEED0EF
:10223C0014E0FEF7A9FE38610AE0FEF7A5FE02469F
:10224C003B69D31A41F28832934201D903239BE0B4
:10225C00404B1B6A03F00203002BEED1FB7D012BDC
:10226C0005D13C4BDB693B4A23F08053D3617B683F
:10227C00DB69002B00F08780364B5B6803F00C03A6
:10228C00082B61D07B68DB69022B46D1334B0022D3
:10229C001A60FEF779FE386108E0FEF775FE02461B
:1022AC003B69D31A022B01D903236DE0294B1B6820
:1022BC0003F00073002BF0D17B681B6AB3F5803FF1
:1022CC0008D1244B5B6823F400327B689B6821495E
:1022DC0013434B601F4B5B6823F474127B68196AC1
:1022EC007B685B6A0B431B4913434B601B4B0122FE
:1022FC001A60FEF749FE386108E0FEF745FE02461B
:10230C003B69D31A022B01D903233DE0114B1B6807
:10231C0003F00073002BF0D035E0104B00221A6054
:10232C00FEF732FE386108E0FEF72EFE02463B69EE
:10233C00D31A022B01D9032326E0064B1B6803F0AA
:10234C000073002BF0D11EE07B68DB69012B07D1F9
:10235C00012319E00010024000700040600042426E
:10236C000B4B5B68FB60FB6803F480327B681B6A79
:10237C009A4206D1FB6803F470127B685B6A9A423E
:10238C0001D0012300E0002318461837BD4680BD5C
:10239C000010024080B584B000AF786039607B6873
:1023AC00002B01D10123D0E06A4B1B6803F007031B
:1023BC003A689A4210D9674B1B6823F007026549AB
:1023CC003B6813430B60634B1B6803F007033A68CD
:1023DC009A4201D00123B8E07B681B6803F002032A
:1023EC00002B20D07B681B6803F00403002B05D066
:1023FC00594B5B68584A43F4E06353607B681B6835
:10240C0003F00803002B05D0534B5B68524A43F48E
:10241C0060535360504B5B6823F0F0027B689B6801
:10242C004D4913434B607B681B6803F00103002B81
:10243C0040D07B685B68012B07D1474B1B6803F4CA
:10244C000033002B15D101237FE07B685B68022BE6
:10245C0007D1414B1B6803F00073002B09D10123FA
:10246C0073E03D4B1B6803F00203002B01D10123E9
:10247C006BE0394B5B6823F003027B685B68364981
:10248C0013434B60FEF780FDF8600AE0FEF77CFD1D
:10249C000246FB68D31A41F28832934201D90323D6
:1024AC0053E02D4B5B6803F00C027B685B689B0070
:1024BC009A42EBD1274B1B6803F007033A689A4208
:1024CC0010D2244B1B6823F0070222493B681343AC
:1024DC000B60204B1B6803F007033A689A4201D04B
:1024EC00012332E07B681B6803F00403002B08D047
:1024FC00194B5B6823F4E0627B68DB681649134375
:10250C004B607B681B6803F00803002B09D0124B4F
:10251C005B6823F460527B681B69DB000E49134334
:10252C004B6000F021F802460B4B5B681B0903F073
:10253C000F030A49CB5C22FA03F3094A1360094BD7
:10254C001B681846FEF700FC002318461037BD46E2
:10255C0080BD00BF00200240001002409C3A0008E1
:10256C00240000202800002080B487B000AF002396
:10257C00FB600023BB6000237B6100237B60002396
:10258C003B611E4B5B68FB60FB6803F00C03042B88
:10259C0002D0082B03D027E0194B3B6127E0FB68E6
:1025AC009B0C03F00F03174AD35C7B60FB6803F4AE
:1025BC008033002B10D0114B5B685B0C03F00103D4
:1025CC00114AD35CBB607B680D4A03FB02F2BB680B
:1025DC00B2FBF3F37B6104E07B680C4A02FB03F370
:1025EC007B617B693B6102E0054B3B6100BF3B6952
:1025FC0018461C37BD4680BC704700BF0010024017
:10260C0000127A00B43A0008C43A000800093D00F0
:10261C0080B400AF024B1B681846BD4680BC7047A7
:10262C002400002080B500AFFFF7F2FF0246054BF7
:10263C005B681B0A03F007030349CB5C22FA03F324
:10264C00184680BD00100240AC3A000880B500AFBF
:10265C00FFF7DEFF0246054B5B68DB0A03F007035E
:10266C000349CB5C22FA03F3184680BD00100240EC
:10267C00AC3A000880B483B000AF786039607B68F6
:10268C000F221A60114B5B6803F003027B685A60DF
:10269C000E4B5B6803F0F0027B689A600B4B5B6837
:1026AC0003F4E0627B68DA60084B5B68DB0803F4D8
:1026BC00E0627B681A61064B1B6803F007023B68FB
:1026CC001A6000BF0C37BD4680BC7047001002403A
:1026DC000020024080B485B000AF78600A4B1B68C4
:1026EC000A4AA2FB03235B0A7A6802FB03F3FB6032
:1026FC0000BFFB685A1EFA60002BF9D100BF00BF67
:10270C001437BD4680BC704724000020D34D6210A6
:10271C0080B582B000AF78607B68002B01D10123BB
:10272C0041E07B6893F83D30DBB2002B06D17B682F
:10273C00002283F83C207868FEF76AFA7B68022254
:10274C0083F83D207B681A687B6804331946104671
:10275C0000F018FC7B68012283F846207B6801227C
:10276C0083F83E207B68012283F83F207B6801229E
:10277C0083F840207B68012283F841207B6801228A
:10278C0083F842207B68012283F843207B68012276
:10279C0083F844207B68012283F845207B68012262
:1027AC0083F83D20002318460837BD4680BD000045
:1027BC0080B485B000AF78607B6893F83D30DBB2B5
:1027CC00012B01D001233AE07B68022283F83D20E3
:1027DC007B681B68DA687B681B6842F00102DA6070
:1027EC007B681B68184A93420ED07B681B68B3F158
:1027FC00804F09D07B681B68144A934204D07B68D5
:10280C001B68134A934211D17B681B689B6803F0C9
:10281C000703FB60FB68062B10D07B681B681A68EB
:10282C007B681B6842F001021A6007E07B681B683A
:10283C001A687B681B6842F001021A600023184674
:10284C001437BD4680BC7047002C0140000400408A
:10285C000008004080B582B000AF78607B68002B28
:10286C0001D1012341E07B6893F83D30DBB2002BB2
:10287C0006D17B68002283F83C20786800F039F898
:10288C007B68022283F83D207B681A687B680433DE
:10289C001946104600F076FB7B68012283F846202F
:1028AC007B68012283F83E207B68012283F83F205D
:1028BC007B68012283F840207B68012283F8412049
:1028CC007B68012283F842207B68012283F8432035
:1028DC007B68012283F844207B68012283F8452021
:1028EC007B68012283F83D20002318460837BD463B
:1028FC0080BD80B483B000AF786000BF0C37BD469C
:10290C0080BC704780B584B000AF786039603B689C
:10291C00002B09D17B6893F83E30DBB2012B14BF3E
:10292C0001230023DBB222E03B68042B09D17B6836
:10293C0093F83F30DBB2012B14BF01230023DBB231
:10294C0015E03B68082B09D17B6893F84030DBB26B
:10295C00012B14BF01230023DBB208E07B6893F842
:10296C004130DBB2012B14BF01230023DBB2002B5F
:10297C0001D001235EE03B68002B04D17B6802226E
:10298C0083F83E2013E03B68042B04D17B680222C1
:10299C0083F83F200BE03B68082B04D17B680222B4
:1029AC0083F8402003E07B68022283F841207B6897
:1029BC001B6801223968184600F070FD7B681B68A3
:1029CC001E4A934207D17B681B685A6C7B681B6854
:1029DC0042F400425A647B681B68184A93420ED03A
:1029EC007B681B68B3F1804F09D07B681B68144A65
:1029FC00934204D07B681B68124A934211D17B68C6
:102A0C001B689B6803F00703FB60FB68062B10D068
:102A1C007B681B681A687B681B6842F001021A60AD
:102A2C0007E07B681B681A687B681B6842F0010230
:102A3C001A60002318461037BD4680BD002C01409B
:102A4C00000400400008004080B584B000AF7860FE
:102A5C007B681B68DB68FB607B681B681B69BB6061
:102A6C00BB6803F00203002B20D0FB6803F00203C9
:102A7C00002B1BD07B681B686FF002021A617B680D
:102A8C0001221A777B681B689B6903F00303002BF8
:102A9C0003D0786800F05AFA05E0786800F04DFA37
:102AAC00786800F05CFA7B6800221A77BB6803F048
:102ABC000403002B20D0FB6803F00403002B1BD075
:102ACC007B681B686FF004021A617B6802221A771C
:102ADC007B681B689B6903F44073002B03D07868F8
:102AEC0000F034FA05E0786800F027FA786800F016
:102AFC0036FA7B6800221A77BB6803F00803002BB8
:102B0C0020D0FB6803F00803002B1BD07B681B68EC
:102B1C006FF008021A617B6804221A777B681B68C5
:102B2C00DB6903F00303002B03D0786800F00EFA86
:102B3C0005E0786800F001FA786800F010FA7B681C
:102B4C0000221A77BB6803F01003002B20D0FB681F
:102B5C0003F01003002B1BD07B681B686FF0100276
:102B6C001A617B6808221A777B681B68DB6903F49F
:102B7C004073002B03D0786800F0E8F905E0786822
:102B8C0000F0DBF9786800F0EAF97B6800221A772C
:102B9C00BB6803F00103002B0CD0FB6803F00103AE
:102BAC00002B07D07B681B686FF001021A617868F4
:102BBC00FDF7A6FFBB6803F08003002B0CD0FB686D
:102BCC0003F08003002B07D07B681B686FF080023A
:102BDC001A61786800F0EDFCBB6803F04003002B31
:102BEC000CD0FB6803F04003002B07D07B681B68FC
:102BFC006FF040021A61786800F0BAF9BB6803F014
:102C0C002003002B0CD0FB6803F02003002B07D013
:102C1C007B681B686FF020021A61786800F0C0FCBA
:102C2C0000BF1037BD4680BD80B586B000AFF860E0
:102C3C00B9607A600023FB75FB6893F83C30012B7C
:102C4C0001D10223AEE0FB68012283F83C207B68B3
:102C5C000C2B00F29F8001A252F823F09D2C00084F
:102C6C00A12D0008A12D0008A12D0008DD2C0008C5
:102C7C00A12D0008A12D0008A12D00081F2D000872
:102C8C00A12D0008A12D0008A12D00085F2D000822
:102C9C00FB681B68B968184600F0E2F9FB681B6812
:102CAC009A69FB681B6842F008029A61FB681B6812
:102CBC009A69FB681B6822F004029A61FB681B6826
:102CCC009969BB681A69FB681B680A439A6164E0DE
:102CDC00FB681B68B968184600F028FAFB681B688B
:102CEC009A69FB681B6842F400629A61FB681B6876
:102CFC009A69FB681B6822F480629A61FB681B6806
:102D0C009969BB681B691A02FB681B680A439A61C4
:102D1C0043E0FB681B68B968184600F071FAFB6861
:102D2C001B68DA69FB681B6842F00802DA61FB6811
:102D3C001B68DA69FB681B6822F00402DA61FB6825
:102D4C001B68D969BB681A69FB681B680A43DA619E
:102D5C0023E0FB681B68B968184600F0BBFAFB68F7
:102D6C001B68DA69FB681B6842F40062DA61FB6875
:102D7C001B68DA69FB681B6822F48062DA61FB6805
:102D8C001B68D969BB681B691A02FB681B680A437C
:102D9C00DA6102E00123FB7500BFFB68002283F8B7
:102DAC003C20FB7D18461837BD4680BD80B584B0ED
:102DBC0000AF786039600023FB737B6893F83C307C
:102DCC00012B01D10223B4E07B68012283F83C2063
:102DDC007B68022283F83D207B681B689B68BB6084
:102DEC00BB6823F07703BB60BB6823F47F43BB60F5
:102DFC007B681B68BA689A603B681B68B3F5005F18
:102E0C003ED0B3F5005F00F28780B3F5805F00F031
:102E1C008680B3F5805F7FD8702B1AD0702B7BD84F
:102E2C00602B50D0602B77D8502B3CD0502B73D8C4
:102E3C00402B58D0402B6FD8302B64D0302B6BD814
:102E4C00202B60D0202B67D8002B5CD0102B5AD0B5
:102E5C0062E07B6818683B6899683B685A683B6815
:102E6C00DB6800F0FCFA7B681B689B68BB60BB6886
:102E7C0043F07703BB607B681B68BA689A604FE0CD
:102E8C007B6818683B6899683B685A683B68DB68E4
:102E9C0000F0E5FA7B681B689A687B681B6842F453
:102EAC0080429A603CE07B6818683B6859683B68D4
:102EBC00DB681A4600F05CFA7B681B6850211846E8
:102ECC0000F0B3FA2CE07B6818683B6859683B68E3
:102EDC00DB681A4600F07AFA7B681B68602118469A
:102EEC0000F0A3FA1CE07B6818683B6859683B68E3
:102EFC00DB681A4600F03CFA7B681B6840211846D8
:102F0C0000F093FA0CE07B681A683B681B68194662
:102F1C00104600F08AFA03E00123FB7300E000BFC7
:102F2C007B68012283F83D207B68002283F83C20DB
:102F3C00FB7B18461037BD4680BD80B483B000AF14
:102F4C00786000BF0C37BD4680BC704780B483B03E
:102F5C0000AF786000BF0C37BD4680BC704780B4B2
:102F6C0083B000AF786000BF0C37BD4680BC7047A3
:102F7C0080B483B000AF786000BF0C37BD4680BC16
:102F8C007047000080B485B000AF786039607B6812
:102F9C001B68FB607B682F4A93420BD07B68B3F1B4
:102FAC00804F07D07B682C4A934203D07B682B4A16
:102FBC00934208D1FB6823F07003FB603B685B68AD
:102FCC00FA681343FB607B68224A93420BD07B6800
:102FDC00B3F1804F07D07B681F4A934203D07B68C4
:102FEC001E4A934208D1FB6823F44073FB603B6894
:102FFC00DB68FA681343FB60FB6823F080023B68D4
:10300C005B691343FB607B68FA681A603B689A68DB
:10301C007B68DA623B681A687B689A627B680D4A47
:10302C00934203D13B681A697B681A637B6801225F
:10303C005A617B681B6903F00103002B05D07B6888
:10304C001B6923F001027B681A6100BF1437BD466F
:10305C0080BC7047002C0140000400400008004078
:10306C0080B487B000AF786039607B681B6A7B6185
:10307C007B681B6A23F001027B681A627B685B68C1
:10308C003B617B689B69FB60FB6823F07003FB6012
:10309C00FB6823F00303FB603B681B68FA6813436F
:1030AC00FB607B6923F002037B613B689B687A6958
:1030BC0013437B617B681C4A93420CD17B6923F0E0
:1030CC0008037B613B68DB687A6913437B617B692E
:1030DC0023F004037B617B68134A934211D13B6953
:1030EC0023F480733B613B6923F400733B613B68C1
:1030FC005B693A6913433B613B689B693A691343CB
:10310C003B617B683A695A607B68FA689A613B68F4
:10311C005A687B685A637B687A691A6200BF1C37ED
:10312C00BD4680BC704700BF002C014080B487B006
:10313C0000AF786039607B681B6A7B617B681B6AB7
:10314C0023F010027B681A627B685B683B617B68CA
:10315C009B69FB60FB6823F4E043FB60FB6823F492
:10316C004073FB603B681B681B02FA681343FB60EF
:10317C007B6923F020037B613B689B681B017A69A8
:10318C0013437B617B681D4A93420DD17B6923F00D
:10319C0080037B613B68DB681B017A6913437B61AD
:1031AC007B6923F040037B617B68144A934213D103
:1031BC003B6923F480633B613B6923F400633B610F
:1031CC003B685B699B003A6913433B613B689B69B5
:1031DC009B003A6913433B617B683A695A607B6890
:1031EC00FA689A613B685A687B689A637B687A696B
:1031FC001A6200BF1C37BD4680BC7047002C0140D2
:10320C0080B487B000AF786039607B681B6A7B61E3
:10321C007B681B6A23F480727B681A627B685B682C
:10322C003B617B68DB69FB60FB6823F07003FB6030
:10323C00FB6823F00303FB603B681B68FA681343CD
:10324C00FB607B6923F400737B613B689B681B020A
:10325C007A6913437B617B681D4A93420DD17B696C
:10326C0023F400637B613B68DB681B027A691343C0
:10327C007B617B6923F480637B617B68144A934296
:10328C0013D13B6923F480533B613B6923F4005316
:10329C003B613B685B691B013A6913433B613B68CB
:1032AC009B691B013A6913433B617B683A695A601D
:1032BC007B68FA68DA613B685A687B68DA637B681A
:1032CC007A691A6200BF1C37BD4680BC704700BFCC
:1032DC00002C014080B487B000AF786039607B6807
:1032EC001B6A3B617B681B6A23F480527B681A6201
:1032FC007B685B687B617B68DB69FB60FB6823F444
:10330C00E043FB60FB6823F44073FB603B681B6885
:10331C001B02FA681343FB603B6923F400533B61C7
:10332C003B689B681B033A6913433B617B680F4AFC
:10333C00934209D17B6923F480437B613B685B69D1
:10334C009B017A6913437B617B687A695A607B685D
:10335C00FA68DA613B685A687B681A647B683A6978
:10336C001A6200BF1C37BD4680BC7047002C014060
:10337C0080B487B000AFF860B9607A60FB681B6AF4
:10338C007B61FB681B6A23F00102FB681A62FB6815
:10339C009B693B613B6923F0F0033B617B681B013C
:1033AC003A6913433B617B6923F00A037B617A69B9
:1033BC00BB6813437B61FB683A699A61FB687A6965
:1033CC001A6200BF1C37BD4680BC704780B487B002
:1033DC0000AFF860B9607A60FB681B6A7B61FB68C0
:1033EC001B6A23F01002FB681A62FB689B693B6145
:1033FC003B6923F470433B617B681B033A691343BD
:10340C003B617B6923F0A0037B61BB681B017A697C
:10341C0013437B61FB683A699A61FB687A691A62AB
:10342C0000BF1C37BD4680BC704780B485B000AF70
:10343C00786039607B689B68FB60FB6823F07003E5
:10344C00FB603A68FB68134343F00703FB607B683F
:10345C00FA689A6000BF1437BD4680BC704780B4D0
:10346C0087B000AFF860B9607A603B60FB689B681E
:10347C007B617B6923F47F437B613B681A027B6829
:10348C001A43BB6813437A6913437B61FB687A69FF
:10349C009A6000BF1C37BD4680BC704780B487B0B3
:1034AC0000AFF860B9607A60BB6803F01F030122BB
:1034BC0002FA03F37B61FB681A6A7B69DB431A40EF
:1034CC00FB681A62FB681A6ABB6803F01F03796811
:1034DC0001FA03F31A43FB681A6200BF1C37BD469E
:1034EC0080BC704780B485B000AF786039607B6871
:1034FC0093F83C30012B01D1022346E07B6801227A
:10350C0083F83C207B68022283F83D207B681B6893
:10351C005B68FB607B681B689B68BB60FB6823F087
:10352C007003FB603B681B68FA681343FB607B68A5
:10353C001B68FA685A607B681B68164A93420ED067
:10354C007B681B68B3F1804F09D07B681B68124AFB
:10355C00934204D07B681B68104A93420CD1BB6821
:10356C0023F08003BB603B685B68BA681343BB60A5
:10357C007B681B68BA689A607B68012283F83D20DF
:10358C007B68002283F83C20002318461437BD4684
:10359C0080BC7047002C0140000400400008004033
:1035AC0080B483B000AF786000BF0C37BD4680BCE0
:1035BC00704780B483B000AF786000BF0C37BD4655
:1035CC0080BC704780B582B000AF78607B68002B00
:1035DC0001D1012342E07B6893F84130DBB2002B30
:1035EC0006D17B68002283F840207868FDF760FBE9
:1035FC007B68242283F841207B681B68DA687B682F
:10360C001B6822F40052DA60786800F071F97B686C
:10361C001B681A697B681B6822F490421A617B68EC
:10362C001B685A697B681B6822F02A025A617B6806
:10363C001B68DA687B681B6842F40052DA607B68AE
:10364C0000225A647B68202283F841207B68202268
:10365C0083F842207B6800225A63002318460837FF
:10366C00BD4680BD80B58AB002AFF860B9603B60E2
:10367C001346FB8000237B61FB6893F84130DBB27F
:10368C00202B75D1BB68002B02D0FB88002B01D1FD
:10369C0001236EE0FB6800225A64FB68212283F848
:1036AC004120FDF771FC7861FB68FA889A84FB680D
:1036BC00FA88DA84FB689B68B3F5805F08D1FB68F5
:1036CC001B69002B04D10023FB61BB68BB6103E0C9
:1036DC00BB68FB610023BB612EE03B6800937B69F8
:1036EC0000228021F86800F048F80346002B05D032
:1036FC00FB68202283F8412003233AE0FB69002B6E
:10370C000BD1BB691B881A46FB681B68C2F3080205
:10371C005A60BB690233BB6107E0FB691A78FB682E
:10372C001B685A60FB690133FB61FB68DB8C9BB245
:10373C00013B9AB2FB68DA84FB68DB8C9BB2002BF2
:10374C00CBD13B6800937B6900224021F86800F0E4
:10375C0014F80346002B05D0FB68202283F8412087
:10376C00032306E0FB68202283F84120002300E0BD
:10377C00022318462037BD4680BD80B586B000AF09
:10378C00F860B9603B601346FB713BE03B6AB3F1F8
:10379C00FF3F37D0FDF7F8FB02463B68D31A3A6A75
:1037AC009A4202D33B6A002B01D103233AE0FB6817
:1037BC001B68DB6803F00403002B23D0BB68802B51
:1037CC0020D0BB68402B1DD0FB681B681B6803F026
:1037DC000803082B16D100237B61FB681B681B6850
:1037EC007B61FB681B685B687B617B69F86800F038
:1037FC001DF8FB6808225A64FB68002283F84020FD
:10380C0001230FE0FB681B681A68BB681340BA6899
:10381C009A420CBF01230023DBB21A46FB799A4271
:10382C00B4D0002318461837BD4680BD80B495B07F
:10383C0000AF78607B681B680C337B637B6B53E851
:10384C00003F3B633B6B23F49073FB647B681B680A
:10385C000C33FA6C3A64FB63F96B3A6C41E8002365
:10386C00BB63BB6B002BE5D17B681B6814333B62DD
:10387C003B6A53E8003FFB61FB6923F00103BB6427
:10388C007B681B681433BA6CFA62BB62B96AFA6A59
:10389C0041E800237B627B6A002BE5D17B681B6BC4
:1038AC00012B19D17B681B680C33FB60FB6853E858
:1038BC00003FBB60BB6823F010037B647B681B6814
:1038CC000C337A6CBA617B617969BA6941E800237F
:1038DC003B613B69002BE5D17B68202283F84220B9
:1038EC007B6800221A6300BF5437BD4680BC70470A
:1038FC0080B584B000AF78607B681B681B6923F4CB
:10390C0040517B68DA687B681B680A431A617B68E4
:10391C009A687B681B691A437B685B691343BB60BD
:10392C007B681B68DB6823F4B05323F00C037A68C4
:10393C001268B9680B43D3607B681B685B6923F41E
:10394C0040717B689A697B681B680A435A617B6883
:10395C001B682C4A934203D1FEF778FEF86002E014
:10396C00FEF760FEF860FA6813469B0013449A0059
:10397C001A447B685B689B00B2FBF3F3224AA2FB00
:10398C0003235B091901FA6813469B0013449A0040
:10399C001A447B685B689B00B2FBF3F21A4BA3FBE7
:1039AC0002035B09642000FB03F3D31A1B013233BF
:1039BC00154AA2FB03235B0903F0F0031944FA68D0
:1039CC0013469B0013449A001A447B685B689B0067
:1039DC00B2FBF3F20C4BA3FB02035B09642000FB6C
:1039EC0003F3D31A1B013233074AA2FB03235B09EF
:1039FC0003F00F027B681B680A449A6000BF103703
:103A0C00BD4680BD003801401F85EB510346024482
:103A1C00934200D1704703F8011BF9E770B50026FB
:103A2C000C4D0D4C641BA410A64209D100F01AF8E1
:103A3C0000260A4D0A4C641BA410A64205D170BD89
:103A4C0055F8043B98470136EEE755F8043B984788
:103A5C000136F2E7C83A0008C83A0008C83A00082C
:103A6C00CC3A0008F8B500BFF8BC08BC9E467047BD
:0C3A7C00F8B500BFF8BC08BC9E467047BF
:103A88000A0D00006279650A00000000686969692A
:103A98000A0000000000000000000000010203040A
:103AA80006070809000000000102030402030405D8
:103AB800060708090A0B0C0D0E0F10100102000072
:043AC80031010008C0
:043ACC000D010008E0
:103AD0003132334134353642373839432A30234482
:103AE0003030302000000000280E01068000000069
:103AF0003030300000127A00100000000100000099
:0400000508000EF9E8
:00000001FF
