:020000040800F2
:100000000050002025070008AD060008B5060008CE
:10001000BD060008C5060008CD0600080000000067
:10002000000000000000000000000000C13E0008C9
:10003000D506000800000000014000084940000803
:100040006D0700086D0700086D0700086D070008C0
:100050006D0700086D0700086D0700086D070008B0
:100060006D0700086D070008E10600086D0700082D
:100070006D0700086D0700086D0700086D07000890
:100080006D0700086D0700086D0700086D07000880
:100090006D0700086D0700086D0700086D07000870
:1000A0006D0700086D0700086D0700086D07000860
:1000B0006D0700086D070008F10600086D070008CD
:1000C0006D0700086D0700086D0700086D07000840
:1000D0006D070008050700086D0700086D07000898
:1000E0006D0700086D0700086D070008000000009C
:1000F0000000000000000000000000000000000000
:0C01000000000000000000005FF808F1A3
:1001100010B5054C237833B9044B13B10448AFF341
:1001200000800123237010BD60000020000000004B
:100130009046000808B5034B1BB103490348AFF3D1
:10014000008008BD00000000640000209046000808
:1001500080B586B002AF00F00BFB00F05FF800F056
:10016000C3F800F097F801224FF40051244800F042
:1001700047FE002206210A2000F0E1FB214B0193FB
:10018000022300930023C8221F49204802F032FFB7
:10019000F860FB68012B0BD04FF0500383F31188FC
:1001A000BFF36F8FBFF34F8FBB6000BF00BFFDE792
:1001B0000021092002F09DFC0346154A1360144BF0
:1001C0001B68002B0BD14FF0500383F31188BFF352
:1001D0006F8FBFF34F8F7B6000BF00BFFDE74FF411
:1001E0007A730B220B490C4801F022FD00224FF4D8
:1001F0000051034800F004FE03F084F800BFFDE75F
:1002000000100140C4000020A846000815040008A2
:10021000C8000020B44600087C00002080B590B0E3
:1002200000AF07F1180328220021184604F050F906
:100230003B1D00221A605A609A60DA601A6102233C
:10024000BB610123BB621023FB6200237B6307F1C8
:100250001803184600F01EFE0346002B01D000F0E4
:100260001BF90F237B600023BB600023FB6000238E
:100270003B6100237B613B1D0021184601F08CF897
:100280000346002B01D000F007F900BF4037BD4600
:1002900080BD000080B500AF114B124A1A60104BB0
:1002A0004FF4E1325A600E4B00229A600C4B002250
:1002B000DA600B4B00221A61094B0C225A61084B81
:1002C00000229A61064B0022DA61054801F060FCC9
:1002D0000346002B01D000F0DFF800BF80BD00BF57
:1002E0007C0000200038014080B586B000AF07F1E7
:1002F000080300221A605A609A60DA602E4B9B69EC
:100300002D4A43F0100393612B4B9B6903F01003BC
:100310007B607B68284B9B69274A43F00403936109
:10032000254B9B6903F004033B603B6800220721D7
:10033000224800F065FD4FF40053BB600123FB60D1
:1003400000233B6102237B6107F1080319461C4827
:1003500000F0D2FB0723BB600123FB6000233B615D
:1003600002237B6107F108031946144800F0C4FB1F
:100370000823BB600023FB6000233B6107F10803F7
:1003800019460E4800F0B8FB1023BB600D4BFB6014
:1003900000233B6107F108031946084800F0ACFB55
:1003A000002206210A2000F0CAFA0A2000F0E3FA2F
:1003B00000BF1837BD4680BD001002400008014054
:1003C000001001400000111080B584B000AF03465A
:1003D000FB800023FB60FB88102B12D10B4B1B68AA
:1003E00007F10C021146184602F0B8FBFB68002B1F
:1003F00007D0074B4FF080521A60BFF34F8FBFF307
:100400006F8F00BF1037BD4680BD00BFC800002001
:1004100004ED00E080B584B000AF78600023FB609D
:10042000114B1B684FF0FF31184602F035FC0E4BA4
:100430001B68184602F040FD0346FB60FB68303342
:10044000FB6007F10C014FF47A730122074801F0B9
:10045000EFFB0121064800F0EBFC4FF47A7002F04C
:100460001BFF00BFDCE700BFC80000207C000020AD
:100470000008014080B582B000AF78607B681B68DF
:10048000044A934201D100F089F900BF0837BD4604
:1004900080BD00BF0008004080B400AF72B600BF4E
:1004A00000BFFDE780B485B000AF154B9B69144ACF
:1004B00043F001039361124B9B6903F00103BB609E
:1004C000BB680F4BDB690E4A43F08053D3610C4B82
:1004D000DB6903F080537B607B680A4B5B68FB60E1
:1004E000FB6823F0E063FB60FB6843F08063FB6024
:1004F000044AFB68536000BF1437BD4680BC704798
:10050000001002400000014080B588B000AF786064
:1005100007F1100300221A605A609A60DA607B6863
:100520001B68204A934239D11F4B9B691E4A43F4F2
:10053000804393611C4B9B6903F48043FB60FB6821
:10054000194B9B69184A43F004039361164B9B694E
:1005500003F00403BB60BB684FF400733B610223EC
:100560007B610323FB6107F1100319460F4800F07C
:10057000C3FA4FF480633B6100237B610023BB61BE
:1005800007F110031946094800F0B6FA00220621C7
:10059000252000F0D4F9252000F0EDF900BF203728
:1005A000BD4680BD003801400010024000080140F7
:1005B00080B58EB000AF78600023FB620023BB6281
:1005C000002387F83330344BDB69334A43F00403AC
:1005D000D361314BDB6903F00403FB60FB6807F177
:1005E000100207F114031146184601F045F83B6A62
:1005F000FB62FB6A002B03D101F016F8786304E07C
:1006000001F012F803465B007B637B6B234AA2FB7D
:1006100003239B0C013BBB62214B224A1A60204BF7
:1006200040F2E732DA601E4ABB6A53601C4B00227C
:100630001A611B4B00229A60194B00229A611848DC
:1006400001F068F8034687F8333097F83330002B11
:100650001BD1134801F0B6F8034687F8333097F8FA
:100660003330002B11D11E2000F085F97B680F2B51
:1006700008D8002279681E2000F061F90A4A7B68D8
:10068000136002E0012387F8333097F833301846BF
:100690003837BD4680BD00BF0010024083DE1B43DB
:1006A000CC000020000800400400002080B400AF0F
:1006B00000BFFDE780B400AF00BFFDE780B400AF2E
:1006C00000BFFDE780B400AF00BFFDE780B400AF1E
:1006D00000BFFDE780B400AF00BFBD4680BC7047DF
:1006E00080B500AF102000F0BDFB00BF80BD000052
:1006F00080B500AF024801F0B7F800BF80BD00BF71
:10070000CC00002080B500AF024801F01DFB00BF07
:1007100080BD00BF7C00002080B400AF00BFBD469C
:1007200080BC7047FFF7F8FF0B480C490C4A0023C8
:1007300002E0D458C4500433C4188C42F9D3094A97
:10074000094C002301E013600432A242FBD303F002
:1007500025FFFFF7FDFC704700000020600000202F
:100760000047000860000020A4230020FEE70000EE
:1007700080B500AF084B1B68074A43F010031360B5
:10078000032000F0D1F80F20FFF712FFFFF78AFED9
:100790000023184680BD00BF0020024080B400AF97
:1007A000054B1B781A46054B1B681344034A13601C
:1007B00000BFBD4680BC7047080000201401002027
:1007C00080B400AF024B1B681846BD4680BC704722
:1007D0001401002080B485B000AF78607B6803F01E
:1007E0000703FB600C4BDB68BB60BA684FF6FF0386
:1007F0001340BB60FB681A02BB68134343F0BF633E
:1008000043F40033BB60044ABB68D36000BF1437B5
:10081000BD4680BC704700BF00ED00E080B400AF73
:10082000044BDB681B0A03F007031846BD4680BC77
:10083000704700BF00ED00E080B483B000AF034616
:10084000FB7197F90730002B0BDBFB7903F01F02DC
:10085000064997F907305B09012000FA02F241F8D6
:10086000232000BF0C37BD4680BC704700E100E08C
:1008700080B483B000AF03463960FB7197F907304D
:10088000002B0ADB3B68DAB20C4997F907301201FA
:10089000D2B20B4483F800230AE03B68DAB208497D
:1008A000FB7903F00F03043B1201D2B20B441A761A
:1008B00000BF0C37BD4680BC704700BF00E100E0C0
:1008C00000ED00E080B489B000AFF860B9607A60F4
:1008D000FB6803F00703FB61FB69C3F10703042B0B
:1008E00028BF0423BB61FB690433062B02D9FB69D3
:1008F000033B00E000237B614FF0FF32BB6902FA4B
:1009000003F3DA43BB681A407B699A404FF0FF312A
:100910007B6901FA03F3D9437B680B401343184604
:100920002437BD4680BC704780B582B000AF786088
:100930007868FFF74FFF00BF0837BD4680BD80B520
:1009400086B000AF0346B9607A60FB7300237B6119
:10095000FFF764FF78617A68B9687869FFF7B2FFDA
:10096000024697F90F3011461846FFF781FF00BF86
:100970001837BD4680BD80B582B000AF0346FB711D
:1009800097F907301846FFF757FF00BF0837BD46F5
:1009900080BD80B485B000AF78600023FB737B68B6
:1009A00093F82130DBB2022B08D07B6804229A63D3
:1009B0007B68002283F82020012320E07B681B68ED
:1009C0001A687B681B6822F00E021A607B681B683D
:1009D0001A687B681B6822F001021A607B681A6C37
:1009E0007B68DB6B012101FA02F25A607B6801220D
:1009F00083F821207B68002283F82020FB7B1846A7
:100A00001437BD4680BC704780B584B000AF7860B5
:100A10000023FB737B6893F82130DBB2022B05D0F7
:100A20007B6804229A630123FB7351E07B681B6897
:100A30001A687B681B6822F00E021A607B681B68CC
:100A40001A687B681B6822F001021A607B681B68C9
:100A5000224A934229D07B681B68214A934222D0C4
:100A60007B681B681F4A93421AD07B681B681E4A2A
:100A7000934212D07B681B681C4A93420AD07B6861
:100A80001B681B4A934202D14FF480130EE04FF0D3
:100A900080730BE04FF4803308E04FF4805305E09F
:100AA0004FF4807302E0102300E00123114A5360E9
:100AB0007B68012283F821207B68002283F82020B4
:100AC0007B685B6B002B03D07B685B6B7868984717
:100AD000FB7B18461037BD4680BD00BF08000240B2
:100AE0001C00024030000240440002405800024016
:100AF0006C0002400000024080B48BB000AF786010
:100B0000396000237B6200233B6269E101227B6A3A
:100B100002FA03F3FB613B681B68FA691340BB618F
:100B2000BA69FB699A4240F058813B685B689A4A0F
:100B300093425ED0984A934275D8984A934258D0CF
:100B4000964A93426FD8964A934252D0944A93421F
:100B500069D8944A93424CD0924A934263D8924ABD
:100B6000934246D0904A93425DD8122B2AD8122B3A
:100B700059D801A252F823F0F30B0008CD0B00085E
:100B8000DF0B0008210C0008270C0008270C0008C8
:100B9000270C0008270C0008270C0008270C000869
:100BA000270C0008270C0008270C0008270C000859
:100BB000270C0008270C0008270C0008D50B00089C
:100BC000E90B0008794A934213D02CE03B68DB68BC
:100BD0003B6229E03B68DB6804333B6224E03B680E
:100BE000DB6808333B621FE03B68DB680C333B6229
:100BF0001AE03B689B68002B02D104233B6213E0A0
:100C00003B689B68012B05D108233B627B68FA692E
:100C10001A6109E008233B627B68FA695A6103E0C4
:100C200000233B6200E000BFBB69FF2B01D87B685B
:100C300001E07B6804337B61BB69FF2B02D87B6AD0
:100C40009B0002E07B6A083B9B003B617B691A6862
:100C50000F213B6901FA03F3DB431A40396A3B6910
:100C600001FA03F31A437B691A603B685B6803F07F
:100C70008053002B00F0B1804D4B9B694C4A43F0F0
:100C8000010393614A4B9B6903F00103BB60BB689E
:100C9000484A7B6A9B08023352F82330FB607B6A28
:100CA00003F003039B000F2202FA03F3DB43FA680D
:100CB0001340FB607B68404A934213D07B683F4AF5
:100CC00093420DD07B683E4A934207D07B683D4AF1
:100CD000934201D1032306E0042304E0022302E04F
:100CE000012300E000237A6A02F00302920093409D
:100CF000FA681343FB602F497B6A9B080233FA684A
:100D000041F823203B685B6803F48013002B06D076
:100D10002D4B9A682C49BB6913438B6006E02A4B24
:100D20009A68BB69DB43284913408B603B685B686A
:100D300003F40013002B06D0234BDA682249BB6969
:100D40001343CB6006E0204BDA68BB69DB431E49E6
:100D50001340CB603B685B6803F40033002B06D084
:100D6000194B5A681849BB6913434B6006E0164B90
:100D70005A68BB69DB43144913404B603B685B68AE
:100D800003F48033002B21D00F4B1A680E49BB6946
:100D900013430B6021E000BF00003210000031104F
:100DA000000022100000211000001210000011109D
:100DB000001002400000014000080140000C01400A
:100DC0000010014000140140000401400B4B1A6860
:100DD000BB69DB43094913400B607B6A01337B62CB
:100DE0003B681A687B6A22FA03F3002B7FF48EAE0D
:100DF00000BF00BF2C37BD4680BC704700040140D7
:100E000080B483B000AF78600B467B8013467B7064
:100E10007B78002B03D07A887B681A6103E07B889B
:100E20001A047B681A6100BF0C37BD4680BC70474E
:100E300080B485B000AF78600B467B807B68DB6850
:100E4000FB607A88FB6813401A04FB68D9437B88EF
:100E50000B401A437B681A6100BF1437BD4680BC43
:100E60007047000080B582B000AF0346FB80084B9E
:100E70005A69FB881340002B06D0054AFB88536152
:100E8000FB881846FFF7A0FA00BF0837BD4680BDB3
:100E90000004014080B586B000AF78607B68002B0D
:100EA00001D1012372E27B681B6803F00103002B70
:100EB00000F08780924B5B6803F00C03042B0CD08E
:100EC0008F4B5B6803F00C03082B12D18C4B5B68D3
:100ED00003F48033B3F5803F0BD1894B1B6803F4D7
:100EE0000033002B6CD07B685B68002B68D101233A
:100EF0004CE27B685B68B3F5803F06D1804B1B6892
:100F00007F4A43F4803313602EE07B685B68002BDC
:100F10000CD17B4B1B687A4A23F480331360784BE7
:100F20001B68774A23F4802313601DE07B685B68AD
:100F3000B3F5A02F0CD1724B1B68714A43F4802388
:100F400013606F4B1B686E4A43F4803313600BE0F1
:100F50006B4B1B686A4A23F480331360684B1B6831
:100F6000674A23F4802313607B685B68002B13D0EF
:100F7000FFF726FC386108E0FFF722FC02463B69D8
:100F8000D31A642B01D9032300E25D4B1B6803F4E1
:100F90000033002BF0D014E0FFF712FC386108E0BA
:100FA000FFF70EFC02463B69D31A642B01D90323D9
:100FB000ECE1534B1B6803F40033002BF0D100E04D
:100FC00000BF7B681B6803F00203002B63D04C4B0F
:100FD0005B6803F00C03002B0BD0494B5B6803F0FC
:100FE0000C03082B1CD1464B5B6803F48033002BA9
:100FF00016D1434B1B6803F00203002B05D07B681E
:101000001B69012B01D00123C0E13D4B1B6823F07C
:10101000F8027B685B69DB00394913430B603AE0F7
:101020007B681B69002B20D0364B01221A60FFF72A
:10103000C7FB386108E0FFF7C3FB02463B69D31AE0
:10104000022B01D90323A1E12D4B1B6803F00203FE
:10105000002BF0D02A4B1B6823F0F8027B685B69F9
:10106000DB00274913430B6015E0264B00221A6072
:10107000FFF7A6FB386108E0FFF7A2FB02463B69D9
:10108000D31A022B01D9032380E11D4B1B6803F007
:101090000203002BF0D17B681B6803F00803002BD0
:1010A0003AD07B689B69002B19D0174B01221A603C
:1010B000FFF786FB386108E0FFF782FB02463B69D9
:1010C000D31A022B01D9032360E10D4B5B6A03F0B5
:1010D0000203002BF0D0012000F0FEFA1CE00A4BC6
:1010E00000221A60FFF76CFB38610FE0FFF768FB26
:1010F00002463B69D31A022B08D9032346E100BFFD
:10110000001002400000424280044242924B5B6A5F
:1011100003F00203002BE9D17B681B6803F0040392
:10112000002B00F0A6800023FB758B4BDB6903F0DE
:101130008053002B0DD1884BDB69874A43F08053E5
:10114000D361854BDB6903F08053BB60BB6801232F
:10115000FB75824B1B6803F48073002B18D17F4B07
:101160001B687E4A43F480731360FFF729FB3861E4
:1011700008E0FFF725FB02463B69D31A642B01D92F
:10118000032303E1754B1B6803F48073002BF0D03D
:101190007B68DB68012B06D16F4B1B6A6E4A43F0FC
:1011A000010313622DE07B68DB68002B0CD16A4BD6
:1011B0001B6A694A23F001031362674B1B6A664A84
:1011C00023F0040313621CE07B68DB68052B0CD161
:1011D000614B1B6A604A43F0040313625E4B1B6A57
:1011E0005D4A43F0010313620BE05B4B1B6A5A4AF2
:1011F00023F001031362584B1B6A574A23F0040380
:1012000013627B68DB68002B15D0FFF7D9FA3861D1
:101210000AE0FFF7D5FA02463B69D31A41F2883259
:10122000934201D90323B1E04B4B1B6A03F0020345
:10123000002BEED014E0FFF7C3FA38610AE0FFF7A5
:10124000BFFA02463B69D31A41F28832934201D970
:1012500003239BE0404B1B6A03F00203002BEED1FB
:10126000FB7D012B05D13C4BDB693B4A23F08053CE
:10127000D3617B68DB69002B00F08780364B5B68AD
:1012800003F00C03082B61D07B68DB69022B46D18D
:10129000334B00221A60FFF793FA386108E0FFF73A
:1012A0008FFA02463B69D31A022B01D903236DE062
:1012B000294B1B6803F00073002BF0D17B681B6A7D
:1012C000B3F5803F08D1244B5B6823F400327B6880
:1012D0009B68214913434B601F4B5B6823F47412D6
:1012E0007B68196A7B685B6A0B431B4913434B603D
:1012F0001B4B01221A60FFF763FA386108E0FFF721
:101300005FFA02463B69D31A022B01D903233DE061
:10131000114B1B6803F00073002BF0D035E0104B2D
:1013200000221A60FFF74CFA386108E0FFF748FA2C
:1013300002463B69D31A022B01D9032326E0064B50
:101340001B6803F00073002BF0D11EE07B68DB69A3
:10135000012B07D1012319E000100240007000406A
:10136000600042420B4B5B68FB60FB6803F4803219
:101370007B681B6A9A4206D1FB6803F470127B6893
:101380005B6A9A4201D0012300E000231846183717
:10139000BD4680BD0010024080B584B000AF7860CB
:1013A00039607B68002B01D10123D0E06A4B1B68B8
:1013B00003F007033A689A4210D9674B1B6823F081
:1013C000070265493B6813430B60634B1B6803F0DE
:1013D00007033A689A4201D00123B8E07B681B6892
:1013E00003F00203002B20D07B681B6803F004038A
:1013F000002B05D0594B5B68584A43F4E0635360B7
:101400007B681B6803F00803002B05D0534B5B6817
:10141000524A43F460535360504B5B6823F0F00230
:101420007B689B684D4913434B607B681B6803F0E6
:101430000103002B40D07B685B68012B07D1474B31
:101440001B6803F40033002B15D101237FE07B6878
:101450005B68022B07D1414B1B6803F00073002B24
:1014600009D1012373E03D4B1B6803F00203002BFD
:1014700001D101236BE0394B5B6823F003027B68E9
:101480005B68364913434B60FFF79AF9F8600AE04E
:10149000FFF796F90246FB68D31A41F2883293426D
:1014A00001D9032353E02D4B5B6803F00C027B68EA
:1014B0005B689B009A42EBD1274B1B6803F0070344
:1014C0003A689A4210D2244B1B6823F00702224943
:1014D0003B6813430B60204B1B6803F007033A681B
:1014E0009A4201D0012332E07B681B6803F00403B9
:1014F000002B08D0194B5B6823F4E0627B68DB6843
:10150000164913434B607B681B6803F00803002BEC
:1015100009D0124B5B6823F460527B681B69DB00C7
:101520000E4913434B6000F021F802460B4B5B68F9
:101530001B0903F00F030A49CB5C22FA03F3094AA3
:101540001360094B1B681846FFF732F80023184652
:101550001037BD4680BD00BF002002400010024091
:10156000C8460008000000200400002080B487B0B6
:1015700000AF0023FB600023BB6000237B610023DE
:101580007B6000233B611E4B5B68FB60FB6803F0E4
:101590000C03042B02D0082B03D027E0194B3B612E
:1015A00027E0FB689B0C03F00F03174AD35C7B60BA
:1015B000FB6803F48033002B10D0114B5B685B0C8D
:1015C00003F00103114AD35CBB607B680D4A03FB47
:1015D00002F2BB68B2FBF3F37B6104E07B680C4A68
:1015E00002FB03F37B617B693B6102E0054B3B61DE
:1015F00000BF3B6918461C37BD4680BC704700BF22
:101600000010024000127A00E0460008F046000890
:1016100000093D0080B400AF024B1B681846BD4670
:1016200080BC70470000002080B500AFFFF7F2FFDC
:101630000246054B5B681B0A03F007030349CB5CBA
:1016400022FA03F3184680BD00100240D846000875
:1016500080B500AFFFF7DEFF0246054B5B68DB0A93
:1016600003F007030349CB5C22FA03F3184680BD5D
:1016700000100240D846000880B483B000AF786004
:1016800039607B680F221A60114B5B6803F003021C
:101690007B685A600E4B5B6803F0F0027B689A60CF
:1016A0000B4B5B6803F4E0627B68DA60084B5B68B5
:1016B000DB0803F4E0627B681A61064B1B6803F0E9
:1016C00007023B681A6000BF0C37BD4680BC7047FC
:1016D000001002400020024080B485B000AF786066
:1016E0000A4B1B680A4AA2FB03235B0A7A6802FBC7
:1016F00003F3FB6000BFFB685A1EFA60002BF9D1B0
:1017000000BF00BF1437BD4680BC704700000020FA
:10171000D34D621080B582B000AF78607B68002B3B
:1017200001D1012341E07B6893F83D30DBB2002B0F
:1017300006D17B68002283F83C20786800F039F8F5
:101740007B68022283F83D207B681A687B6804333B
:101750001946104600F09CF97B68012283F8462068
:101760007B68012283F83E207B68012283F83F20BA
:101770007B68012283F840207B68012283F84120A6
:101780007B68012283F842207B68012283F8432092
:101790007B68012283F844207B68012283F845207E
:1017A0007B68012283F83D20002318460837BD4698
:1017B00080BD80B483B000AF786000BF0C37BD46F9
:1017C00080BC704780B485B000AF78607B6893F8C8
:1017D0003D30DBB2012B01D001233AE07B680222CD
:1017E00083F83D207B681B68DA687B681B6842F0E1
:1017F0000102DA607B681B68184A93420ED07B684E
:101800001B68B3F1804F09D07B681B68144A934270
:1018100004D07B681B68134A934211D17B681B6814
:101820009B6803F00703FB60FB68062B10D07B6806
:101830001B681A687B681B6842F001021A6007E0A7
:101840007B681B681A687B681B6842F001021A609B
:10185000002318461437BD4680BC7047002C014059
:10186000000400400008004080B584B000AF7860FC
:101870007B681B68DB68FB607B681B681B69BB605F
:10188000BB6803F00203002B20D0FB6803F00203C7
:10189000002B1BD07B681B686FF002021A617B680B
:1018A00001221A777B681B689B6903F00303002BF6
:1018B00003D0786800F0D1F805E0786800F0C4F84B
:1018C000786800F0D3F87B6800221A77BB6803F0D1
:1018D0000403002B20D0FB6803F00403002B1BD073
:1018E0007B681B686FF004021A617B6802221A771A
:1018F0007B681B689B6903F44073002B03D07868F6
:1019000000F0ABF805E0786800F09EF8786800F029
:10191000ADF87B6800221A77BB6803F00803002B40
:1019200020D0FB6803F00803002B1BD07B681B68EA
:101930006FF008021A617B6804221A777B681B68C3
:10194000DB6903F00303002B03D0786800F085F80F
:1019500005E0786800F078F8786800F087F87B6830
:1019600000221A77BB6803F01003002B20D0FB681D
:1019700003F01003002B1BD07B681B686FF0100274
:101980001A617B6808221A777B681B68DB6903F49D
:101990004073002B03D0786800F05FF805E07868AA
:1019A00000F052F8786800F061F87B6800221A773E
:1019B000BB6803F00103002B0CD0FB6803F00103AC
:1019C000002B07D07B681B686FF001021A617868F2
:1019D000FEF750FDBB6803F08003002B0CD0FB68C2
:1019E00003F08003002B07D07B681B686FF0800238
:1019F0001A61786800F0C3F8BB6803F04003002B5D
:101A00000CD0FB6803F04003002B07D07B681B68F9
:101A10006FF040021A61786800F031F8BB6803F09B
:101A20002003002B0CD0FB6803F02003002B07D011
:101A30007B681B686FF020021A61786800F096F8E6
:101A400000BF1037BD4680BD80B483B000AF786062
:101A500000BF0C37BD4680BC704780B483B000AF78
:101A6000786000BF0C37BD4680BC704780B483B03F
:101A700000AF786000BF0C37BD4680BC704780B4B3
:101A800083B000AF786000BF0C37BD4680BC7047A4
:101A900080B485B000AF786039607B681B68FB60FC
:101AA0007B682F4A93420BD07B68B3F1804F07D0FD
:101AB0007B682C4A934203D07B682B4A934208D11F
:101AC000FB6823F07003FB603B685B68FA681343B4
:101AD000FB607B68224A93420BD07B68B3F1804F56
:101AE00007D07B681F4A934203D07B681E4A93420B
:101AF00008D1FB6823F44073FB603B68DB68FA683D
:101B00001343FB60FB6823F080023B685B6913436F
:101B1000FB607B68FA681A603B689A687B68DA62E7
:101B20003B681A687B689A627B680D4A934203D1CE
:101B30003B681A697B681A637B6801225A617B687B
:101B40001B6903F00103002B05D07B681B6923F0A0
:101B500001027B681A6100BF1437BD4680BC704724
:101B6000002C0140000400400008004080B483B015
:101B700000AF786000BF0C37BD4680BC704780B4B2
:101B800083B000AF786000BF0C37BD4680BC7047A3
:101B900080B582B000AF78607B68002B01D1012353
:101BA00042E07B6893F84130DBB2002B06D17B68C2
:101BB000002283F840207868FEF7A6FC7B68242288
:101BC00083F841207B681B68DA687B681B6822F415
:101BD0000052DA60786800F063FD7B681B681A6960
:101BE0007B681B6822F490421A617B681B685A6903
:101BF0007B681B6822F02A025A617B681B68DA68DE
:101C00007B681B6842F40052DA607B6800225A64E9
:101C10007B68202283F841207B68202283F84220C1
:101C20007B6800225A63002318460837BD4680BDF2
:101C300080B58AB002AFF860B9603B601346FB80A4
:101C400000237B61FB6893F84130DBB2202B75D118
:101C5000BB68002B02D0FB88002B01D101236EE072
:101C6000FB6800225A64FB68212283F84120FEF7BA
:101C7000A7FD7861FB68FA889A84FB68FA88DA84A1
:101C8000FB689B68B3F5805F08D1FB681B69002B7C
:101C900004D10023FB61BB68BB6103E0BB68FB614F
:101CA0000023BB612EE03B6800937B69002280210A
:101CB000F86800F001FB0346002B05D0FB682022EA
:101CC00083F8412003233AE0FB69002B0BD1BB6969
:101CD0001B881A46FB681B68C2F308025A60BB697E
:101CE0000233BB6107E0FB691A78FB681B685A6026
:101CF000FB690133FB61FB68DB8C9BB2013B9AB251
:101D0000FB68DA84FB68DB8C9BB2002BCBD13B6891
:101D100000937B6900224021F86800F0CDFA034669
:101D2000002B05D0FB68202283F84120032306E026
:101D3000FB68202283F84120002300E0022318469C
:101D40002037BD4680BD000080B5BAB000AF7860D6
:101D50007B681B681B68C7F8E4307B681B68DB681E
:101D6000C7F8E0307B681B685B69C7F8DC3000238C
:101D7000C7F8D8300023C7F8D430D7F8E43003F0E0
:101D80000F03C7F8D830D7F8D830002B0FD1D7F8C9
:101D9000E43003F02003002B09D0D7F8E03003F043
:101DA0002003002B03D0786800F0BCFB5BE2D7F87F
:101DB000D830002B00F0DE80D7F8DC3003F00103D0
:101DC000002B06D1D7F8E03003F49073002B00F01D
:101DD000D180D7F8E43003F00103002B0BD0D7F803
:101DE000E03003F48073002B05D07B685B6C43F01C
:101DF00001027B685A64D7F8E43003F00403002B37
:101E00000BD0D7F8DC3003F00103002B05D07B6842
:101E10005B6C43F002027B685A64D7F8E43003F04D
:101E20000203002B0BD0D7F8DC3003F00103002BAA
:101E300005D07B685B6C43F004027B685A64D7F87A
:101E4000E43003F00803002B11D0D7F8E03003F0A2
:101E50002003002B05D1D7F8DC3003F00103002B61
:101E600005D07B685B6C43F008027B685A647B6832
:101E70005B6C002B00F0F281D7F8E43003F0200314
:101E8000002B08D0D7F8E03003F02003002B02D05D
:101E9000786800F047FB7B681B685B6903F04003D0
:101EA000002B14BF01230023DBB2C7F8D4307B68BA
:101EB0005B6C03F00803002B03D1D7F8D430002B60
:101EC0004FD0786800F051FA7B681B685B6903F0BB
:101ED0004003002B41D07B681B681433C7F89C304B
:101EE000D7F89C3053E8003FC7F89830D7F89830BF
:101EF00023F04003C7F8D0307B681B681433D7F851
:101F0000D020C7F8A820C7F8A430D7F8A410D7F875
:101F1000A82041E80023C7F8A030D7F8A030002B54
:101F2000D9D17B68DB6B002B13D07B68DB6B7E4ADF
:101F30005A637B68DB6B1846FEF766FD0346002B91
:101F400016D07B68DB6B5B6B7A68D26B1046984768
:101F50000EE0786800F09CF90AE0786800F098F9E3
:101F600006E0786800F094F97B6800225A6475E115
:101F700000BF73E17B681B6B012B40F04F81D7F8EA
:101F8000E43003F01003002B00F04881D7F8E03074
:101F900003F01003002B00F041810023BB607B683D
:101FA0001B681B68BB607B681B685B68BB60BB68A9
:101FB0007B681B685B6903F04003002B00F0B68070
:101FC0007B68DB6B1B685B68A7F8BE30B7F8BE3078
:101FD000002B00F045817B689B8DB7F8BE209A42AC
:101FE00080F03E817B68B7F8BE20DA857B68DB6BCA
:101FF0009B69202B00F088807B681B680C33C7F836
:102000008830D7F8883053E8003FC7F88430D7F8D5
:10201000843023F48073C7F8B8307B681B680C33B6
:10202000D7F8B820C7F89420C7F89030D7F89010A8
:10203000D7F8942041E80023C7F88C30D7F88C30CB
:10204000002BD9D17B681B6814337B677B6F53E807
:10205000003F3B673B6F23F00103C7F8B4307B6858
:102060001B681433D7F8B420C7F88020FB67F96FDA
:10207000D7F8802041E80023BB67BB6F002BE1D17C
:102080007B681B6814333B663B6E53E8003FFB657F
:10209000FB6D23F04003C7F8B0307B681B68143336
:1020A000D7F8B020FA66BB66B96EFA6E41E8002335
:1020B0007B667B6E002BE3D17B68202283F8422075
:1020C0007B6800221A637B681B680C33FB64FB6C23
:1020D00053E8003FBB64BB6C23F01003C7F8AC307F
:1020E0007B681B680C33D7F8AC20BA657B65796DCB
:1020F000BA6D41E800233B653B6D002BE3D17B6863
:10210000DB6B1846FEF745FC7B6802225A637B684E
:102110009A8D7B68DB8D9BB2D31A9BB21946786887
:1021200000F0BFF89CE000BF2F2400087B689A8D68
:102130007B68DB8D9BB2D31AA7F8CE307B68DB8D32
:102140009BB2002B00F08E80B7F8CE30002B00F051
:1021500089807B681B680C33BB63BB6B53E8003F13
:102160007B637B6B23F49073C7F8C8307B681B6874
:102170000C33D7F8C8207A643B64396C7A6C41E838
:102180000023FB63FB6B002BE3D17B681B681433DC
:102190007B627B6A53E8003F3B623B6A23F00103AA
:1021A000C7F8C4307B681B681433D7F8C4203A637F
:1021B000FB62F96A3A6B41E80023BB62BB6A002B01
:1021C000E3D17B68202283F842207B6800221A63D7
:1021D0007B681B680C333B613B6953E8003FFB6045
:1021E000FB6823F01003C7F8C0307B681B680C3312
:1021F000D7F8C020FA61BB61B969FA6941E80023E8
:102200007B617B69002BE3D17B6802225A63B7F8BC
:10221000CE301946786800F044F823E0D7F8E4306F
:1022200003F08003002B09D0D7F8E03003F08003DF
:10223000002B03D0786800F00EF914E0D7F8E430F2
:1022400003F04003002B0ED0D7F8E03003F040033A
:10225000002B08D0786800F04DF904E000BF02E0E0
:1022600000BF00E000BFE837BD4680BD80B483B04A
:1022700000AF786000BF0C37BD4680BC704780B4AB
:1022800083B000AF786000BF0C37BD4680BC70479C
:1022900080B483B000AF786000BF0C37BD4680BC0F
:1022A000704780B483B000AF78600B467B8000BF7E
:1022B0000C37BD4680BC704780B586B000AFF86073
:1022C000B9603B601346FB713BE03B6AB3F1FF3FF3
:1022D00037D0FEF775FA02463B68D31A3A6A9A423B
:1022E00002D33B6A002B01D103233AE0FB681B6851
:1022F000DB6803F00403002B23D0BB68802B20D0C5
:10230000BB68402B1DD0FB681B681B6803F00803EB
:10231000082B16D100237B61FB681B681B687B615F
:10232000FB681B685B687B617B69F86800F01DF8DF
:10233000FB6808225A64FB68002283F840200123CE
:102340000FE0FB681B681A68BB681340BA689A42C2
:102350000CBF01230023DBB21A46FB799A42B4D0AA
:10236000002318461837BD4680BD80B495B000AF35
:1023700078607B681B680C337B637B6B53E8003FA2
:102380003B633B6B23F49073FB647B681B680C33EB
:10239000FA6C3A64FB63F96B3A6C41E80023BB6367
:1023A000BB6B002BE5D17B681B6814333B623B6A37
:1023B00053E8003FFB61FB6923F00103BB647B68CA
:1023C0001B681433BA6CFA62BB62B96AFA6A41E8F4
:1023D00000237B627B6A002BE5D17B681B6B012BA2
:1023E00019D17B681B680C33FB60FB6853E8003F26
:1023F000BB60BB6823F010037B647B681B680C33F5
:102400007A6CBA617B617969BA6941E800233B6102
:102410003B69002BE5D17B68202283F842207B6852
:1024200000221A6300BF5437BD4680BC704780B598
:1024300084B000AF78607B685B6AFB60FB68002259
:10244000DA85FB680022DA84F868FFF721FF00BF15
:102450001037BD4680BD80B485B000AF78607B6822
:1024600093F84130DBB2212B3ED17B689B68B3F5FA
:10247000805F14D17B681B69002B10D17B681B6ABD
:10248000FB60FB681B881A467B681B68C2F3080266
:102490005A607B681B6A9A1C7B681A6208E07B683A
:1024A0001B6A591C7A6811621A787B681B685A602B
:1024B0007B68DB8C9BB2013B9BB27A681946D18466
:1024C000002B0FD17B681B68DA687B681B6822F0E1
:1024D0008002DA607B681B68DA687B681B6842F000
:1024E0004002DA60002300E0022318461437BD469C
:1024F00080BC704780B582B000AF78607B681B6895
:10250000DA687B681B6822F04002DA607B68202270
:1025100083F841207868FFF7A9FE002318460837A2
:10252000BD4680BD80B58CB000AF78607B6893F805
:102530004230DBB2222B40F0AE807B689B68B3F563
:10254000805F17D17B681B69002B13D10023FB62CE
:102550007B689B6ABB627B681B685B689BB2C3F34A
:1025600008039AB2BB6A1A807B689B6A9A1C7B68D4
:102570009A6226E07B689B6AFB620023BB627B68F1
:102580009B68B3F5805F07D07B689B68002B0AD1FE
:102590007B681B69002B06D17B681B685B68DAB21D
:1025A000FB6A1A7008E07B681B685B68DBB203F0AB
:1025B0007F03DAB2FB6A1A707B689B6A5A1C7B68DD
:1025C0009A627B68DB8D9BB2013B9BB27A681946AD
:1025D000D185002B5DD17B681B68DA687B681B683E
:1025E00022F02002DA607B681B68DA687B681B686F
:1025F00022F48072DA607B681B685A697B681B680A
:1026000022F001025A617B68202283F842207B6815
:1026100000225A637B681B6B012B35D17B6800223B
:102620001A637B681B680C337B617B6953E8003F4E
:102630003B613B6923F010037B627B681B680C33B2
:102640007A6A3A62FB61F9693A6A41E80023BB6140
:10265000BB69002BE5D17B681B681B6803F0100386
:10266000102B0AD10023FB607B681B681B68FB6092
:102670007B681B685B68FB60FB687B689B8D194609
:102680007868FFF70EFE02E07868FFF7F8FD002398
:1026900002E0002300E0022318463037BD4680BD2B
:1026A00080B584B000AF78607B681B681B6923F439
:1026B00040517B68DA687B681B680A431A617B6853
:1026C0009A687B681B691A437B685B691343BB602C
:1026D0007B681B68DB6823F4B05323F00C037A6833
:1026E0001268B9680B43D3607B681B685B6923F48D
:1026F00040717B689A697B681B680A435A617B68F2
:102700001B682C4A934203D1FEF7A2FFF86002E057
:10271000FEF78AFFF860FA6813469B0013449A009C
:102720001A447B685B689B00B2FBF3F3224AA2FB6E
:1027300003235B091901FA6813469B0013449A00AE
:102740001A447B685B689B00B2FBF3F21A4BA3FB55
:1027500002035B09642000FB03F3D31A1B0132332D
:10276000154AA2FB03235B0903F0F0031944FA683E
:1027700013469B0013449A001A447B685B689B00D5
:10278000B2FBF3F20C4BA3FB02035B09642000FBDA
:1027900003F3D31A1B013233074AA2FB03235B095D
:1027A00003F00F027B681B680A449A6000BF103771
:1027B000BD4680BD003801401F85EB5180B483B019
:1027C00000AF78607B6803F108027B685A607B6821
:1027D0004FF0FF329A607B6803F108027B68DA6091
:1027E0007B6803F108027B681A617B6800221A602B
:1027F00000BF0C37BD4680BC704780B483B000AFCB
:1028000078607B6800221A6100BF0C37BD4680BC2F
:10281000704780B485B000AF786039607B685B68D2
:10282000FB603B68FA685A60FB689A683B689A608C
:10283000FB689B683A685A60FB683A689A603B6834
:102840007A681A617B681B685A1C7B681A6000BF33
:102850001437BD4680BC704780B485B000AF786047
:1028600039603B681B68BB60BB68B3F1FF3F03D1B5
:102870007B681B69FB600CE07B680833FB6002E04F
:10288000FB685B68FB60FB685B681B68BA689A4220
:10289000F6D2FB685A683B685A603B685B683A68E6
:1028A0009A603B68FA689A60FB683A685A603B68CD
:1028B0007A681A617B681B685A1C7B681A6000BFC3
:1028C0001437BD4680BC704780B485B000AF7860D7
:1028D0007B681B69FB607B685B687A6892689A60BA
:1028E0007B689B687A6852685A60FB685B687A68A4
:1028F0009A4203D17B689A68FB685A607B68002221
:102900001A61FB681B685A1EFB681A60FB681B682B
:1029100018461437BD4680BC7047000080B584B0AF
:1029200000AF786039607B68FB60FB68002B0BD1DF
:102930004FF0500383F31188BFF36F8FBFF34F8FB6
:10294000BB6000BF00BFFDE701F000FBFB681A6839
:10295000FB68DB6BF968096C01FB03F31A44FB6845
:102960009A60FB6800229A63FB681A68FB685A60E9
:10297000FB681A68FB68DB6B013BF968096C01FBBB
:1029800003F31A44FB68DA60FB68FF2283F84420F3
:10299000FB68FF2283F845203B68002B14D1FB68BD
:1029A0001B69002B1AD0FB681033184600F0EEFEAE
:1029B0000346002B12D00D4B4FF080521A60BFF32C
:1029C0004F8FBFF36F8F09E0FB6810331846FFF796
:1029D000F5FEFB6824331846FFF7F0FE01F0E6FA37
:1029E000012318461037BD4680BD00BF04ED00E04E
:1029F00080B58CB002AFF860B9601346FB71FB681C
:102A0000002B0BD14FF0500383F31188BFF36F8F6E
:102A1000BFF34F8FBB6100BF00BFFDE7FB68BA6823
:102A200002FB03F37B62BB68002B06D07A6ABB68AB
:102A3000B2FBF3F3FA689A4201D1012300E00023CC
:102A4000002B0BD14FF0500383F31188BFF36F8F2E
:102A5000BFF34F8F7B6100BF00BFFDE77B6A13F1BF
:102A6000490F0BD94FF0500383F31188BFF36F8FD9
:102A7000BFF34F8F3B6100BF00BFFDE77B6A483368
:102A8000184601F025FB38623B6A002B0DD03B6AEB
:102A9000FB61FB694833FB61FA793B6A009313469B
:102AA000FA69B968F86800F005F83B6A18462837F3
:102AB000BD4680BD80B584B000AFF860B9607A6073
:102AC000FB70BB68002B03D1BB69BA691A6002E0D6
:102AD000BB697A681A60BB69FA68DA63BB69BA686D
:102AE0001A640121B869FFF719FF00BF1037BD460E
:102AF00080BD80B586B000AF786039607B68002B00
:102B00000BD14FF0500383F31188BFF36F8FBFF3E6
:102B10004F8F3B6100BF00BFFDE73A687B689A4278
:102B20000BD94FF0500383F31188BFF36F8FBFF3BE
:102B30004F8FFB6000BF00BFFDE7022200217868D5
:102B4000FFF756FF78617B69002B02D07B693A68FA
:102B50009A637B6918461837BD4680BD80B58EB034
:102B600000AF786039607B683B633B6B002B0BD117
:102B70004FF0500383F31188BFF36F8FBFF34F8F74
:102B80003B6200BF00BFFDE73B6B1B6C002B0BD013
:102B90004FF0500383F31188BFF36F8FBFF34F8F54
:102BA000FB6100BF00BFFDE73B6B1B68002B03D13F
:102BB0003B6B9B68002B01D1012300E00023002B1D
:102BC0000BD14FF0500383F31188BFF36F8FBFF326
:102BD0004F8FBB6100BF00BFFDE7EFF311824FF0E5
:102BE000500383F31188BFF36F8FBFF34F8F7A6168
:102BF0003B617B69FB623B6B9B6BBB623B6BDB6B43
:102C0000BA6A9A423BD23B6B93F8453087F827303B
:102C1000BB6A5A1C3B6B9A6397F92730B3F1FF3FAD
:102C200012D13B6B5B6A002B26D03B6B24331846DA
:102C300000F0ACFD0346002B1ED03B68002B1BD0E0
:102C40003B6801221A6017E097F927307F2B0BD1E0
:102C50004FF0500383F31188BFF36F8FBFF34F8F93
:102C6000FB6000BF00BFFDE797F827300133DBB200
:102C70005AB23B6B83F8452001237B6301E00023BC
:102C80007B63FB6ABB60BB6883F3118800BF7B6B0F
:102C900018463837BD4680BD80B58EB000AF78602D
:102CA000396000237B637B68FB6200233B63FB6A24
:102CB000002B0BD14FF0500383F31188BFF36F8FBC
:102CC000BFF34F8F3B6200BF00BFFDE7FB6A1B6C89
:102CD000002B0BD04FF0500383F31188BFF36F8F9D
:102CE000BFF34F8FFB6100BF00BFFDE700F0F2FEB6
:102CF0000346002B02D13B68002B01D1012300E0E9
:102D00000023002B0BD14FF0500383F31188BFF346
:102D10006F8FBFF34F8FBB6100BF00BFFDE701F0B6
:102D200015F9FB6A9B6BBB62BB6A002B24D0BB6AA4
:102D30005A1EFB6A9A63FB6A1B68002B04D100F0E1
:102D4000EDFF0246FB6A9A60FB6A1B69002B0FD0FD
:102D5000FB6A1033184600F019FD0346002B07D01C
:102D6000544B4FF080521A60BFF34F8FBFF36F8FF9
:102D700001F01CF9012398E03B68002B12D13B6B5A
:102D8000002B0BD04FF0500383F31188BFF36F8FEC
:102D9000BFF34F8F7B6100BF00BFFDE701F006F975
:102DA000002382E07B6B002B06D107F10C03184651
:102DB00000F050FD01237B6301F0F8F800F0F8FA11
:102DC00001F0C4F8FB6A93F844305BB2B3F1FF3F03
:102DD00003D1FB6A002283F84420FB6A93F8453054
:102DE0005BB2B3F1FF3F03D1FB6A002283F84520B9
:102DF00001F0DCF83A4607F10C031146184600F0E2
:102E00003FFD0346002B32D1F86A00F0DDF803469F
:102E1000002B26D0FB6A1B68002B09D101F096F825
:102E2000FB6A9B68184600F073FE386301F0BEF839
:102E3000FB6A24333A681146184600F081FCF86AB0
:102E400000F070F800F0C2FA0346002B7FF467AF81
:102E5000184B4FF080521A60BFF34F8FBFF36F8F44
:102E60005DE7F86A00F05EF800F0B0FA57E7F86A3C
:102E700000F058F800F0AAFAF86A00F0A5F8034646
:102E8000002B3FF44CAF3B6B002B0DD001F05EF8F4
:102E9000F86A00F030F87862FB6A9B68796A184635
:102EA00000F0ACFE01F082F8002318463837BD462A
:102EB00080BD00BF04ED00E080B584B000AF786055
:102EC0007B68002B0BD14FF0500383F31188BFF3C5
:102ED0006F8FBFF34F8FBB6000BF00BFFDE701F0F6
:102EE00035F87B689B6BFB6001F060F8FB68184667
:102EF0001037BD4680BD80B485B000AF78607B6878
:102F00005B6A002B06D07B681B6B1B68C3F1070351
:102F1000FB6001E00023FB60FB6818461437BD46E8
:102F200080BC704780B584B000AF786001F00EF8C7
:102F30007B6893F84530FB7311E07B685B6A002B7C
:102F400012D07B682433184600F020FC0346002B87
:102F500001D000F0FDFCFB7B013BDBB2FB7397F97A
:102F60000F30002BE9DC00E000BF7B68FF2283F814
:102F7000452001F01BF800F0E9FF7B6893F844302E
:102F8000BB7311E07B681B69002B12D07B68103388
:102F9000184600F0FBFB0346002B01D000F0D8FCE4
:102FA000BB7B013BDBB2BB7397F90E30002BE9DC36
:102FB00000E000BF7B68FF2283F8442000F0F6FFAA
:102FC00000BF1037BD4680BD80B584B000AF7860CB
:102FD00000F0BCFF7B689B6B002B02D10123FB60E0
:102FE00001E00023FB6000F0E1FFFB6818461037AA
:102FF000BD4680BD80B58CB004AFF860B9603B6061
:103000001346FB80FB889B00184601F061F878614D
:103010007B69002B0ED0A02001F05AF8F861FB6903
:10302000002B03D0FB697A691A6305E0786901F027
:1030300031F901E00023FB61FB69002B13D0FA8812
:1030400000230393FB690293FB6A0193BB6A00931D
:103050003B68B968F86800F00FF8F86900F0B2F85A
:103060000123BB6102E04FF0FF33BB61BB6918462F
:103070002037BD4680BD000080B588B000AFF86045
:10308000B9607A603B603B6B1A6B7B6803F18043ED
:10309000013B9B001344BB61BB6923F00703BB6189
:1030A000BB6903F00703002B0BD04FF0500383F3F1
:1030B0001188BFF36F8FBFF34F8F7B6100BF00BFDD
:1030C000FDE7BB68002B1FD00023FB6112E0BA684C
:1030D000FB69134419783A6BFB69134434330A468D
:1030E0001A70BA68FB6913441B78002B06D0FB6981
:1030F0000133FB61FB690F2BE9D900E000BF3B6B9B
:10310000002283F8432003E03B6B002283F8342045
:10311000BB6A062B01D90623BB623B6BBA6ADA6233
:103120003B6BBA6A5A643B6B00229A643B6B043374
:103130001846FFF762FB3B6B18331846FFF75DFB41
:103140003B6B3A6B1A61BB6AC3F107023B6B9A6136
:103150003B6B3A6B5A623B6B983304220021184652
:1031600001F0B6F93B6B9C3301220021184601F0B7
:10317000AFF93B6B4C334C220021184601F0A8F903
:103180003B6B0D4A1A653B6B0C4A5A653B6B0C4A0C
:103190009A653A68F968B86900F03AFE02463B6BF6
:1031A0001A60FB6A002B02D0FB6A3A6B1A6000BF00
:1031B0002037BD4680BD00BF64220020CC22002005
:1031C0003423002080B582B000AF786000F0BEFEEE
:1031D0002A4B1B680133294A1360294B1B68002BBB
:1031E00009D1274A7B681360244B1B68012B10D13F
:1031F00000F0D2FB0DE0234B1B68002B09D1204BC4
:103200001B68DA6A7B68DB6A9A4202D81C4A7B68D0
:1032100013601D4B1B6801331B4A13607B68DB6A1C
:1032200001229A40194B1B681343184A13607B68AC
:10323000DA6A13469B0013449B00154A1A447B68C4
:10324000043319461046FFF7E4FA00F0AFFE0D4BC9
:103250001B68002B0ED00A4B1B68DA6A7B68DB6A9E
:103260009A4207D20B4B4FF080521A60BFF34F8F38
:10327000BFF36F8F00BF0837BD4680BD1802002026
:103280001801002024020020340200202002002027
:103290001C01002004ED00E080B584B000AF786030
:1032A0000023FB607B68002B18D0144B1B68002B9D
:1032B0000BD04FF0500383F31188BFF36F8FBFF330
:1032C0004F8FBB6000BF00BFFDE700F071F8002129
:1032D000786800F037FD00F079F8F860FB68002BA3
:1032E00007D1074B4FF080521A60BFF34F8FBFF3E7
:1032F0006F8F00BF1037BD4680BD00BF4002002069
:1033000004ED00E080B586B002AF204B01930023AE
:103310000093002380221E491E48FFF76BFEF860D1
:10332000FB68012B1BD14FF0500383F31188BFF3CF
:103330006F8FBFF34F8FBB6000BF174B1B684C33C1
:10334000164A1360164B4FF0FF321A60154B0122DC
:103350001A60154B00221A6000F0D8FD0FE0FB68E0
:10336000B3F1FF3F0BD14FF0500383F31188BFF34C
:103370006F8FBFF34F8F7B6000BF00BFFDE70B4B2C
:103380001B6800BF1037BD4680BD00BF3C02002057
:10339000C04600086939000818010020100000200C
:1033A00038020020240200201C020020F4460008FD
:1033B00080B400AF044B1B680133034A136000BFA5
:1033C000BD4680BC704700BF4002002080B584B07D
:1033D00000AF0023FB600023BB60424B1B68002B47
:1033E0000BD14FF0500383F31188BFF36F8FBFF3FE
:1033F0004F8F3B6000BF00BFFDE700F0A7FD394BDA
:103400001B68013B374A1360364B1B68002B61D1A8
:10341000354B1B68002B5DD02EE0344BDB68DB683E
:10342000FB60FB6818331846FFF74EFAFB6804335D
:103430001846FFF749FAFB68DB6A01229A402C4BD9
:103440001B6813432A4A1360FB68DA6A13469B0021
:1034500013449B00274A1A44FB680433194610465C
:10346000FFF7D7F9FB68DA6A234B1B68DB6A9A42DD
:1034700002D3224B01221A601C4B1B68002BCCD1BB
:10348000FB68002B01D000F00BFB1D4B1B687B6021
:103490007B68002B10D000F037F80346002B02D0D9
:1034A000164B01221A607B68013B7B607B68002B16
:1034B000F1D1134B00221A60104B1B68002B09D06E
:1034C0000123BB600F4B4FF080521A60BFF34F8F48
:1034D000BFF36F8F00F06AFDBB6818461037BD461A
:1034E00080BD00BF4002002018020020D80100204B
:1034F000200200201C010020180100202C020020C6
:103500002802002004ED00E080B586B000AF002363
:103510007B614F4B1B68002B40F08F804D4B1B682D
:1035200001333B614B4A3B6913603B69002B21D15E
:10353000494B1B681B68002B0BD04FF0500383F3E3
:103540001188BFF36F8FBFF34F8F3B6000BF00BF89
:10355000FDE7414B1B68FB60404B1B683E4A136014
:103560003E4AFB6813603E4B1B6801333C4A1360C4
:1035700000F096FA3B4B1B683A699A4248D3364BA7
:103580001B681B68002B04D1364B4FF0FF321A60CA
:103590003EE0314B1B68DB68DB68BB60BB685B6887
:1035A0007B603A697B689A4203D22E4A7B6813603B
:1035B0002EE0BB6804331846FFF786F9BB689B6AA8
:1035C000002B04D0BB6818331846FFF77DF9BB68A1
:1035D000DB6A01229A40244B1B681343224A136082
:1035E000BB68DA6A13469B0013449B001F4A1A44C7
:1035F000BB68043319461046FFF70BF9BB68DA6A5B
:103600001B4B1B68DB6A9A42B9D301237B61B6E787
:10361000174B1B68DA6A154913469B0013449B003D
:103620000B441B68012B01D901237B61114B1B68E3
:10363000002B07D001237B6104E00F4B1B68013393
:103640000D4A13607B6918461837BD4680BD00BF20
:10365000400200201C020020D0010020D4010020E4
:103660003002002038020020200200201C0100202F
:10367000180100202C0200202802002080B487B00E
:1036800000AF294B1B68002B03D0284B01221A6086
:1036900045E0264B00221A60254B1B68FB60FB6847
:1036A000B3FA83F3FB72FB7AC3F11F037B612149F9
:1036B0007A6913469B0013449B000B441B68002B44
:1036C0000BD14FF0500383F31188BFF36F8FBFF31B
:1036D0004F8F7B6000BF00BFFDE77A6913469B00F8
:1036E00013449B00134A13443B613B695B685A686F
:1036F0003B695A603B695A683B6908339A4204D176
:103700003B695B685A683B695A603B695B68DB6888
:10371000094A1360084B1B684C33084A136000BF0A
:103720001C37BD4680BC7047400200202C020020A0
:10373000200200201C0100201801002010000020A1
:1037400080B584B000AF786039607B68002B0BD106
:103750004FF0500383F31188BFF36F8FBFF34F8F88
:10376000FB6000BF00BFFDE7074B1B68183319461D
:103770007868FFF771F80121386800F0E3FA00BFBC
:103780001037BD4680BD00BF1801002080B586B04F
:1037900000AF78607B68DB68DB683B613B69002BCE
:1037A0000BD14FF0500383F31188BFF36F8FBFF33A
:1037B0004F8FFB6000BF00BFFDE73B691833184621
:1037C000FFF782F81D4B1B68002B1CD13B690433AB
:1037D0001846FFF779F83B69DB6A01229A40184BDB
:1037E0001B681343164A13603B69DA6A13469B0051
:1037F00013449B00134A1A443B690433194610468C
:10380000FFF707F805E03B69183319460E48FFF744
:1038100000F83B69DA6A0D4B1B68DB6A9A4205D9EE
:1038200001237B610A4B01221A6001E000237B61C6
:103830007B6918461837BD4680BD00BF4002002096
:10384000200200201C010020D801002018010020C7
:103850002C02002080B483B000AF7860064B1A6859
:103860007B681A60054B1A687B685A6000BF0C378A
:10387000BD4680BC704700BF300200201C02002003
:1038800080B588B000AF786039607B68002B0BD1C1
:103890004FF0500383F31188BFF36F8FBFF34F8F47
:1038A0003B6100BF00BFFDE73B68002B0BD14FF031
:1038B000500383F31188BFF36F8FBFF34F8FFB600B
:1038C00000BF00BFFDE700F041FB1F4B1B68BB6161
:1038D0007B685B68BA69D31A7B613B681B68B3F18C
:1038E000FF3F02D10023FB6126E07B681A68174B7B
:1038F0001B689A420AD07B685B68BA699A4205D312
:103900000123FB613B6800221A6015E03B681B68DD
:103910007A699A420BD23B681A687B69D21A3B6873
:103920001A607868FFF796FF0023FB6104E03B68AC
:1039300000221A600123FB6100F038FBFB69184686
:103940002037BD4680BD00BF1C0200203002002091
:1039500080B400AF034B01221A6000BFBD4680BC9B
:10396000704700BF2C02002080B582B000AF7860A5
:1039700000F052F8064B1B68012BF9D9054B4FF0AC
:1039800080521A60BFF34F8FBFF36F8FF0E700BF15
:103990001C01002004ED00E080B582B000AF0023E0
:1039A0007B600CE07A6813469B0013449B00124A2C
:1039B00013441846FEF702FF7B6801337B607B6887
:1039C000062BEFD90D48FEF7F9FE0D48FEF7F6FE7F
:1039D0000C48FEF7F3FE0C48FEF7F0FE0B48FEF72E
:1039E000EDFE0B4B054A1A600A4B054A1A6000BFF0
:1039F0000837BD4680BD00BF1C010020A801002083
:103A0000BC010020D8010020EC01002004020020AD
:103A1000D0010020D401002080B582B000AF19E0B1
:103A200000F094FA104BDB68DB687B607B68043342
:103A30001846FEF749FF0D4B1B68013B0B4A13600C
:103A40000B4B1B68013B0A4A136000F0AFFA786821
:103A500000F010F8064B1B68002BE1D100BF00BF3F
:103A60000837BD4680BD00BFEC01002018020020D1
:103A70000002002080B582B000AF78607B684C33D4
:103A8000184600F02DFD7B681B6B184600F002FC09
:103A9000786800F0FFFB00BF0837BD4680BD00001E
:103AA00080B400AF094B1B681B68002B04D1084B86
:103AB0004FF0FF321A6005E0044B1B68DB681B689F
:103AC000034A136000BFBD4680BC7047D001002090
:103AD0003802002080B483B000AF0B4B1B68002B72
:103AE00002D101237B6008E0084B1B68002B02D148
:103AF00002237B6001E000237B607B6818460C3763
:103B0000BD4680BC704700BF240200204002002058
:103B100080B584B000AF78607B68BB600023FB6039
:103B20007B68002B5ED0BB68DA6A314B1B68DB6AAE
:103B30009A424ED2BB689B69002B06DB2C4B1B685C
:103B4000DB6AC3F10702BB689A61BB685969BB684D
:103B5000DA6A13469B0013449B00264A1344994299
:103B60002FD1BB6804331846FEF7AEFE0346002B88
:103B70000AD1BB68DB6A012202FA03F3DA431E4B67
:103B80001B6813401C4A1360194B1B68DA6ABB6838
:103B9000DA62BB68DB6A01229A40174B1B68134349
:103BA000154A1360BB68DA6A13469B0013449B00F6
:103BB000104A1A44BB68043319461046FEF729FE22
:103BC00004E00B4B1B68DA6ABB68DA620123FB6016
:103BD00008E0BB685A6C064B1B68DB6A9A4201D24C
:103BE0000123FB60FB6818461037BD4680BD00BF4F
:103BF000180100201C0100202002002080B588B0A0
:103C000000AF786039607B68BB6101237B617B68B2
:103C1000002B79D0BB699B6C002B0BD14FF050036C
:103C200083F31188BFF36F8FBFF34F8FFB6000BF2B
:103C300000BFFDE7BB695B6C3A689A4202D93B68FA
:103C4000FB6102E0BB695B6CFB61BB69DB6AFA6923
:103C50009A4259D0BB699B6C7A699A4254D12C4BD9
:103C60001B68BA699A420BD14FF0500383F3118855
:103C7000BFF36F8FBFF34F8FBB6000BF00BFFDE787
:103C8000BB69DB6A3B61BB69FA69DA62BB699B6944
:103C9000002B04DBFB69C3F10702BB699A61BB69B6
:103CA00059693A6913469B0013449B00194A13440F
:103CB000994229D1BB6904331846FEF705FE034635
:103CC000002B0AD1BB69DB6A012202FA03F3DA4353
:103CD000114B1B681340104A1360BB69DB6A012259
:103CE0009A400D4B1B6813430B4A1360BB69DA6A99
:103CF00013469B0013449B00064A1A44BB690433D5
:103D000019461046FEF785FD00BF2037BD4680BD31
:103D1000180100201C0100202002002080B400AF08
:103D2000074B1B68002B04D0054B1B689A6C0132B3
:103D30009A64034B1B681846BD4680BC704700BFA1
:103D40001801002080B584B000AF78603960294B3D
:103D50001B68FB60284B1B6804331846FEF7B4FD54
:103D60000346002B0BD1244B1B68DB6A012202FAAD
:103D700003F3DA43214B1B681340204A13607B682E
:103D8000B3F1FF3F0AD13B68002B07D01A4B1B68E9
:103D9000043319461A48FEF73CFD26E0FA687B68B2
:103DA0001344BB60144B1B68BA685A60BA68FB685E
:103DB0009A4209D2134B1A680F4B1B6804331946F9
:103DC0001046FEF749FD10E00F4B1A680A4B1B68BE
:103DD000043319461046FEF73FFD0C4B1B68BA68CA
:103DE0009A4202D2094ABB68136000BF1037BD4631
:103DF00080BD00BF1C02002018010020200200200E
:103E000004020020D4010020D0010020380200204C
:103E100080B485B000AFF860B9607A60FB68043B9D
:103E2000FB60FB684FF080721A60FB68043BFB602C
:103E3000BB6823F00102FB681A60FB68043BFB606F
:103E4000084AFB681A60FB68143BFB607A68FB68F1
:103E50001A60FB68203BFB60FB6818461437BD46C0
:103E600080BC7047693E000880B485B000AF002375
:103E70007B60124B1B68B3F1FF3F0BD04FF0500338
:103E800083F31188BFF36F8FBFF34F8FFB6000BFC9
:103E900000BFFDE74FF0500383F31188BFF36F8F2E
:103EA000BFF34F8FBB6000BF00BF7B68002BFCD00F
:103EB00000BF00BF1437BD4680BC70470C00002017
:103EC000074B19680868B0E8F00F80F30988BFF362
:103ED0006F8F4FF0000080F311884EF00D0E704789
:103EE0001801002000BF00BF06480068006880F38A
:103EF000088862B661B6BFF34F8FBFF36F8F00DFE4
:103F000000BF000008ED00E000BF00BF80B500AFBB
:103F10000C4B1B680B4A43F470031360094B1B687E
:103F2000084A43F07043136000F0B0F8064B0022DB
:103F30001A60FFF7D9FFFFF7A1FBFFF795FF0023FA
:103F4000184680BD20ED00E00C00002080B483B056
:103F500000AF4FF0500383F31188BFF36F8FBFF3AF
:103F60004F8F7B6000BF0F4B1B6801330D4A1360FE
:103F70000C4B1B68012B10D10B4B1B68DBB2002BC9
:103F80000BD04FF0500383F31188BFF36F8FBFF353
:103F90004F8F3B6000BF00BFFDE700BF0C37BD4641
:103FA00080BC70470C00002004ED00E080B483B0BA
:103FB00000AF124B1B68002B0BD14FF0500383F363
:103FC0001188BFF36F8FBFF34F8F7B6000BF00BFBF
:103FD000FDE70A4B1B68013B084A1360074B1B684F
:103FE000002B05D100233B603B6883F3118800BFA1
:103FF00000BF0C37BD4680BC704700BF0C000020DE
:10400000EFF30980BFF36F8F0D4B1A6820E9F00FB3
:1040100010602DE908404FF0500080F31188FFF741
:104020002DFB4FF0000080F31188BDE808401968AF
:104030000868B0E8F00F80F30988BFF36F8F70470E
:104040001801002000BF00BF80B582B000AF4FF064
:10405000500383F31188BFF36F8FBFF34F8F7B60E3
:1040600000BFFFF751FA0346002B03D0064B4FF079
:1040700080521A6000233B603B6883F3118800BFC5
:1040800000BF0837BD4680BD04ED00E080B400AF3E
:104090000A4B00221A600A4B00221A60094B1B6867
:1040A000094AA2FB03239B09084A013B1360034B07
:1040B00007221A6000BFBD4680BC704710E000E0D8
:1040C00018E000E000000020D34D621014E000E092
:1040D00080B58AB000AF78600023FB61FFF768F914
:1040E000664B1B68002B01D100F038F9644B1A684D
:1040F0007B681340002B40F0A9807B68002B2ED0FA
:1041000008227B6813447A689A4228D208227B6886
:1041100013447B607B6803F00703002B22D07B688D
:1041200023F0070308337A689A4215D27B6823F09C
:10413000070308337B607B6803F00703002B11D073
:104140004FF0500383F31188BFF36F8FBFF34F8F8E
:104150007B6100BF00BFFDE700237B6002E000231E
:104160007B6000E000BF7B68002B6FD0454B1B6875
:104170007A689A426AD8444B3B62434B1B687B6225
:1041800004E07B6A3B627B6A1B687B627B6A5B68DC
:104190007A689A4203D97B6A1B68002BF1D1374BAE
:1041A0001B687A6A9A4251D03B6A1B680822134402
:1041B000FB617B6A1A683B6A1A607B6A5A687B6893
:1041C000D21A08235B009A4220D97A6A7B6813448A
:1041D000BB61BB6903F00703002B0BD04FF050030A
:1041E00083F31188BFF36F8FBFF34F8F3B6100BF25
:1041F00000BFFDE77B6A5A687B68D21ABB695A60C8
:104200007B6A7A685A60B86900F00AF91D4B1A682F
:104210007B6A5B68D31A1B4A13601A4B1A681B4BE4
:104220001B689A4203D2174B1B68184A13607B6ABB
:104230005A68134B1B681A437B6A5A607B6A0022D8
:104240001A60134B1B680133114A1360FFF7BEF865
:10425000FB6903F00703002B0BD04FF0500383F3EF
:104260001188BFF36F8FBFF34F8FFB6000BF00BF9C
:10427000FDE7FB6918462837BD4680BD4C2200206B
:1042800060220020502200204422002054220020DE
:104290005822002080B586B000AF78607B687B61D3
:1042A0007B68002B4FD008235B427A6913447B6103
:1042B0007B693B613B695A68254B1B681340002BA7
:1042C0000BD14FF0500383F31188BFF36F8FBFF30F
:1042D0004F8FFB6000BF00BFFDE73B691B68002BF1
:1042E0000BD04FF0500383F31188BFF36F8FBFF3F0
:1042F0004F8FBB6000BF00BFFDE73B695A68144B9E
:104300001B681340002B1ED03B691B68002B1AD181
:104310003B695A680E4B1B68DB431A403B695A6085
:10432000FFF746F83B695A680A4B1B681344094A71
:104330001360386900F074F8074B1B680133064AB4
:104340001360FFF743F800BF1837BD4680BD00BFBC
:1043500060220020502200205C22002080B485B022
:1043600000AF4FF40053BB60274BFB60FB6803F0CA
:104370000703002B0CD0FB680733FB60FB6823F0BE
:104380000703FB60BA68FB68D31A1F4A1344BB607B
:10439000FB687B601D4A7B6813601C4B00225A60DF
:1043A0007B68BA681344FB600822FB689B1AFB60B9
:1043B000FB6823F00703FB60FB68154A1360144B8E
:1043C0001B6800225A60124B1B6800221A607B682F
:1043D0003B603B68FA68D21A3B685A600C4B1A681B
:1043E0003B681A603B685B680A4A13603B685B681D
:1043F000094A1360094B4FF000421A6000BF14379E
:10440000BD4680BC704700BF44020020442200200B
:104410004C22002054220020502200206022002044
:1044200080B485B000AF7860274BFB6002E0FB688A
:104430001B68FB60FB681B687A689A42F7D8FB68C8
:10444000BB60FB685B68BA6813447A689A4208D11B
:10445000FB685A687B685B681A44FB685A60FB68B3
:104460007B607B68BB607B685B68BA681A44FB68EA
:104470001B689A4218D1FB681A68144B1B689A4251
:104480000DD07B685A68FB681B685B681A447B68C0
:104490005A60FB681B681A687B681A6008E00B4B5F
:1044A0001A687B681A6003E0FB681A687B681A6008
:1044B000FA687B689A4202D0FB687A681A6000BF8B
:1044C0001437BD4680BC7047442200204C22002097
:1044D00003460244934200D1704703F8011BF9E7F9
:1044E0002D4B70B51B680446834253D0C3691BB380
:1044F000DB6863B10025E369DB685959B1B904355C
:10450000802DF8D1E3692046D96800F06DF8E369A1
:10451000196811B1204600F067F8E3699D685DB144
:10452000294620462D6800F05FF8F8E70E6820461F
:1045300000F05AF83146E1E7616911B1204600F018
:1045400053F8E16911B1204600F04EF8216B11B12A
:10455000204600F049F8616B11B1204600F044F8A4
:10456000A16B11B1204600F03FF8A16C11B12046BB
:1045700000F03AF8616C11B1204600F035F8E16ABC
:1045800011B1204600F030F8236A1BB12046BDE887
:104590007040184770BD00BF1000002070B50026A5
:1045A0000C4D0D4C641BA410A64209D100F070F80C
:1045B00000260A4D0A4C641BA410A64205D170BD0A
:1045C00055F8043B98470136EEE755F8043B984709
:1045D0000136F2E7F8460008F8460008F8460008F9
:1045E000FC4600087047704738B50546002940D0A2
:1045F00051F8043C0C1F002BB8BFE41800F03CF845
:104600001C4A136833B9636014602846BDE838401B
:1046100000F038B8A34208D9206821188B4201BFA6
:1046200019685B6809182160EDE71A465B680BB1F1
:10463000A342FAD911685018A0420BD12068014456
:10464000501883421160E0D118685B68084410601C
:104650005360DAE702D90C232B60D6E720682118D3
:104660008B4201BF19685B68091821606360546060
:10467000CBE738BDA02300200148FFF7B3BF00BF40
:104680009C2300200148FFF7AEBF00BF9C23002001
:10469000F8B500BFF8BC08BC9E467047F8B500BF2F
:0846A000F8BC08BC9E467047FF
:1046A8006C65645F7461736B000000005363686538
:1046B80064756C65640A0D0049444C4500000000AF
:1046C80000000000000000000102030406070809BA
:1046D800000000000102030402030405060708099C
:1046E8000A0B0C0D0E0F101001020000060000004E
:0446F8003501000880
:0446FC0011010008A0
:1047000000127A001000000001000000AAAAAAAA64
:10471000140000200000000064220020CC220020B1
:104720003423002000000000000000000000000012
:104730000000000000000000000000000000000079
:104740000000000000000000000000000000000069
:104750000000000000000000000000000000000059
:0400000508000725C3
:00000001FF
