:020000040800F2
:1000000000500020950A0008310A0008390A00084B
:10001000410A0008490A0008510A000800000000CF
:10002000000000000000000000000000590A000865
:10003000650A000800000000710A00087D0A000837
:10004000DD0A0008DD0A0008DD0A0008DD0A0008F4
:10005000DD0A0008DD0A0008DD0A0008DD0A0008E4
:10006000DD0A0008DD0A0008DD0A0008DD0A0008D4
:10007000DD0A0008DD0A0008DD0A0008DD0A0008C4
:10008000DD0A0008DD0A0008DD0A0008DD0A0008B4
:10009000DD0A0008DD0A0008DD0A0008DD0A0008A4
:1000A000DD0A0008DD0A0008DD0A0008DD0A000894
:1000B000DD0A0008DD0A0008DD0A0008DD0A000884
:1000C000DD0A0008DD0A0008DD0A0008DD0A000874
:1000D000DD0A0008DD0A0008DD0A0008DD0A000864
:1000E000DD0A0008DD0A0008DD0A00080000000043
:1000F0000000000000000000000000000000000000
:0C01000000000000000000005FF808F1A3
:10010C0010B5054C237833B9044B13B10448AFF345
:10011C0000800123237010BD1C0000200000000093
:10012C007C34000808B5034B1BB103490348AFF3FB
:10013C00008008BD00000000200000207C34000876
:10014C0080B582B000AF0023FB710023FB710BE084
:10015C00FB79124AD35C184600F024F8052000F015
:10016C001BFDFB790133FB71FB79032BF0D90023C9
:10017C00FB710BE0FB790A4AD35C184600F068F877
:10018C00052000F009FDFB790133FB71FB79052B90
:10019C00F0D900BF00BF0837BD4680BD000000206D
:1001AC000800002080B586B002AF0346FB71FB79D6
:1001BC0023F00F03FB730823BB7304237B7302230D
:1001CC003B730123FB72FA7BBB7B1343DAB27B7B61
:1001DC001343DBB25AB2397BFB7A0B43DBB25BB213
:1001EC00DB435BB213405BB2DBB2BB7207F10A02BA
:1001FC000A23009301234E21144801F0B5F8012085
:10020C0000F0CAFCFA7BBB7B1343DBB25AB2797B9E
:10021C003B7B0B43D9B2FB7A0B43DBB25BB2DB43C8
:10022C005BB213405BB2DBB2BB7207F10A020A236A
:10023C00009301234E21054801F096F8052000F0AB
:10024C00ABFC00BF1037BD4680BD00BF380000209E
:10025C0080B586B002AF0346FB71FB7923F00F0328
:10026C00FB73FB791B01BB7308237B7304233B7368
:10027C000223FB720123BB72FA7B7B7B1343DAB242
:10028C003B7B1343DBB25AB2F97ABB7A0B43DBB23A
:10029C005BB2DB435BB213405BB2DBB27B7207F148
:1002AC0009020A23009301234E21334801F05CF824
:1002BC00022000F071FCFA7B7B7B1343DBB25AB259
:1002CC00397BFB7A0B43D9B2BB7A0B43DBB25BB203
:1002DC00DB435BB213405BB2DBB27B7207F109020A
:1002EC000A23009301234E21234801F03DF80220FC
:1002FC0000F052FCBA7B7B7B1343DAB23B7B13439B
:10030C00DBB25AB2F97ABB7A0B43DBB25BB2DB439A
:10031C005BB213405BB2DBB23B7207F108020A23FB
:10032C00009301234E21144801F01EF8022000F026
:10033C0033FCBA7B7B7B1343DBB25AB2397BFB7A3F
:10034C000B43D9B2BB7A0B43DBB25BB2DB435BB280
:10035C0013405BB2DBB23B7207F108020A23009335
:10036C0001234E21044800F0FFFF022000F014FC92
:10037C0000BF1037BD4680BD3800002080B586B068
:10038C0002AF78608FE07B681B7823F00F03FB7360
:10039C007B681B781B01BB7308237B7304233B73A3
:1003AC000223FB720123BB72FA7B7B7B1343DAB211
:1003BC003B7B1343DAB2BB7A1343DBB25AB297F9E5
:1003CC000B30DB435BB213405BB2DBB27B7207F1E9
:1003DC0009020A23009301234E21384800F0C4FF80
:1003EC00022000F0D9FBFA7B7B7B1343DAB2BB7A99
:1003FC001343DBB25AB2397BFB7A0B43DBB25BB2F1
:10040C00DB435BB213405BB2DBB27B7207F10902D8
:10041C000A23009301234E21284800F0A5FF022057
:10042C0000F0BAFBBA7B7B7B1343DAB23B7B134302
:10043C00DAB2BB7A1343DBB25AB297F90B30DB4317
:10044C005BB213405BB2DBB23B7207F108020A23CA
:10045C00009301234E21194800F086FF022000F082
:10046C009BFBBA7B7B7B1343DAB2BB7A1343DBB2C5
:10047C005AB2397BFB7A0B43DBB25BB2DB435BB228
:10048C0013405BB2DBB23B7207F108020A23009304
:10049C0001234E21094800F067FF022000F07CFB8D
:1004AC007B6801337B607B681B78002B7FF46BAF20
:1004BC0000BF00BF1037BD4680BD00BF3800002014
:1004CC0080B584B000AF00F005FB00F063F800F0DD
:1004DC0057F900F0B3F800F0DFF800F027F9294ADB
:1004EC003B4607CA03C31A800233120C1A70FFF77B
:1004FC0027FE01222449254802F03AF9224B1B78A9
:10050C00FB73214B5B78BB731F4B9B787B73FB7B23
:10051C001B09DBB23033DBB23B70FB7B03F00F0308
:10052C00DBB23033DBB27B70BB7B1B09DBB230330D
:10053C00DBB2FB70BB7B03F00F03DBB23033DBB2FF
:10054C003B717B7B1B09DBB23033DBB2BB717B7B3A
:10055C0003F00F03DBB23033DBB2FB7139464FF4DF
:10056C007A730A220A4802F083FD8020FFF770FE9E
:10057C003B461846FFF702FF4FF47A7000F00CFB75
:10058C0000BFB6E794340008E80000208C0000207F
:10059C00A000002080B594B000AF07F128032822FA
:1005AC000021184602F038FF07F1140300221A60EC
:1005BC005A609A60DA601A613B1D00221A605A6018
:1005CC009A60DA600A23BB620123BB631023FB63CE
:1005DC0001233B6400237B6407F12803184601F0D8
:1005EC0027FA0346002B01D000F036F90F237B616C
:1005FC000023BB610023FB6100233B6200237B6271
:10060C0007F114030021184601F094FC0346002B5B
:10061C0001D000F021F901237B604FF40073BB6023
:10062C003B1D184601F014FE0346002B01D000F0D0
:10063C0013F900BF5037BD4680BD000080B500AF38
:10064C00124B134A1A60114B124A5A600F4B00227C
:10065C009A600E4B0022DA600C4B4FF480421A6108
:10066C000A4B00225A61094B00229A61074B002267
:10067C00DA61064B00221A62044800F031FD034691
:10068C00002B01D000F0E8F800BF80BD380000203E
:10069C0000540040A086010080B582B000AF3B1D25
:1006AC0000210A461A800A469A7000233B601D4BB3
:1006BC001D4A1A601B4B4FF0FF325A60194B4FF416
:1006CC0080729A60174801F02FFF0346002B01D06F
:1006DC0000F0C2F815233B7131237B710023BB71F1
:1006EC003B1D012219460F4801F0AAFF0346002BBF
:1006FC0001D000F0B1F805233B7011237B7001236E
:10070C00BB700023FB703B4601221946054802F0E2
:10071C0007F90346002B01D000F09EF800BF083704
:10072C00BD4680BD8C0000200028004080B500AF85
:10073C00114B124A1A60104B4FF4E1325A600E4BB7
:10074C0000229A600C4B0022DA600B4B00221A61DB
:10075C00094B0C225A61084B00229A61064B00226D
:10076C00DA61054802F034FC0346002B01D000F09E
:10077C0073F800BF80BD00BFA0000020003801400E
:10078C0080B588B000AF07F1100300221A605A60E0
:10079C009A60DA602D4B9B692C4A43F010039361ED
:1007AC002A4B9B6903F01003FB60FB68274B9B698A
:1007BC00264A43F004039361244B9B6903F0040322
:1007CC00BB60BB68214B9B69204A43F008039361D3
:1007DC001E4B9B6903F008037B607B6800224FF47F
:1007EC0000511B4800F064FC00220321194800F062
:1007FC005FFC4FF400533B6101237B610023BB6121
:10080C000223FB6107F110031946114800F0CCFAE2
:10081C0003233B6101237B610023BB610223FB614A
:10082C0007F1100319460B4800F0BEFA04233B6194
:10083C0000237B610023BB6107F1100319460548B7
:10084C0000F0B2FA00BF2037BD4680BD0010024058
:10085C00001001400008014080B400AF72B600BF28
:10086C0000BFFDE780B485B000AF154B9B69144AFF
:10087C0043F001039361124B9B6903F00103BB60CE
:10088C00BB680F4BDB690E4A43F08053D3610C4BB2
:10089C00DB6903F080537B607B680A4B5B68FB6011
:1008AC00FB6823F0E063FB60FB6843F08063FB6054
:1008BC00044AFB68536000BF1437BD4680BC7047C8
:1008CC00001002400000014080B588B000AF786095
:1008DC0007F1100300221A605A609A60DA607B6894
:1008EC001B68154A934223D1144B9B69134A43F05E
:1008FC0008039361114B9B6903F00803FB60FB68D1
:10090C00C0233B6112237B610323FB6107F11003BE
:10091C0019460B4800F048FA084BDB69074A43F4C8
:10092C000013D361054BDB6903F40013BB60BB6898
:10093C0000BF2037BD4680BD00540040001002406F
:10094C00000C014080B584B000AF78607B681B68F8
:10095C000B4A934210D101F05FF80A4BDB69094A4C
:10096C0043F00063D361074BDB6903F00063FB606A
:10097C00FB68054B01221A6000BF1037BD4680BDD5
:10098C0000280040001002403C04424280B588B070
:10099C0000AF786007F1100300221A605A609A6069
:1009AC00DA607B681B681C4A934231D11B4B9B69F4
:1009BC001A4A43F480439361184B9B6903F48043B8
:1009CC00FB60FB68154B9B69144A43F0040393616D
:1009DC00124B9B6903F00403BB60BB684FF40073BC
:1009EC003B6102237B610323FB6107F11003194672
:1009FC000B4800F0D9F94FF480633B6100237B6115
:100A0C000023BB6107F110031946054800F0CCF92F
:100A1C0000BF2037BD4680BD0038014000100240A9
:100A2C000008014080B400AF00BFFDE780B400AF08
:100A3C0000BFFDE780B400AF00BFFDE780B400AF9E
:100A4C0000BFFDE780B400AF00BFFDE780B400AF8E
:100A5C0000BFBD4680BC704780B400AF00BFBD4630
:100A6C0080BC704780B400AF00BFBD4680BC7047EF
:100A7C0080B500AF00F074F800BF80BD80B400AF4B
:100A8C0000BFBD4680BC7047FFF7F8FF0B480C4910
:100A9C000C4A002302E0D458C4500433C4188C42CE
:100AAC00F9D3094A094C002301E013600432A24235
:100ABC00FBD302F0B9FCFFF703FD704700000020E8
:100ACC001C000020E83400081C000020F00000206E
:100ADC00FEE7000080B500AF084B1B68074A43F0E7
:100AEC0010031360032000F02BF90F2000F008F81E
:100AFC00FFF7B8FE0023184680BD00BF002002405F
:100B0C0080B582B000AF7860124B1A68124B1B781C
:100B1C0019464FF47A73B3FBF1F3B2FBF3F31846B7
:100B2C0000F035F90346002B01D001230EE07B6861
:100B3C000F2B0AD8002279684FF0FF3000F00BF928
:100B4C00064A7B681360002300E00123184608372F
:100B5C00BD4680BD100000201800002014000020AD
:100B6C0080B400AF054B1B781A46054B1B68134429
:100B7C00034A136000BFBD4680BC704718000020BC
:100B8C00EC00002080B400AF024B1B681846BD4639
:100B9C0080BC7047EC00002080B584B000AF78605A
:100BAC00FFF7F0FFB8607B68FB60FB68B3F1FF3FB9
:100BBC0005D00A4B1B781A46FB681344FB6000BF38
:100BCC00FFF7E0FF0246BB68D31AFA689A42F7D8DF
:100BDC0000BF00BF1037BD4680BD00BF180000200D
:100BEC0080B485B000AF78607B6803F00703FB60CE
:100BFC000C4BDB68BB60BA684FF6FF031340BB605D
:100C0C00FB681A02BB68134343F0BF6343F4003321
:100C1C00BB60044ABB68D36000BF1437BD4680BCC0
:100C2C00704700BF00ED00E080B400AF044BDB6800
:100C3C001B0A03F007031846BD4680BC704700BF73
:100C4C0000ED00E080B483B000AF03463960FB7167
:100C5C0097F90730002B0ADB3B68DAB20C4997F99D
:100C6C0007301201D2B20B4483F800230AE03B6830
:100C7C00DAB20849FB7903F00F03043B1201D2B23C
:100C8C000B441A7600BF0C37BD4680BC704700BFC2
:100C9C0000E100E000ED00E080B489B000AFF86046
:100CAC00B9607A60FB6803F00703FB61FB69C3F171
:100CBC000703042B28BF0423BB61FB690433062BF9
:100CCC0002D9FB69033B00E000237B614FF0FF324C
:100CDC00BB6902FA03F3DA43BB681A407B699A409A
:100CEC004FF0FF317B6901FA03F3D9437B680B406A
:100CFC00134318462437BD4680BC704780B582B07C
:100D0C0000AF78607B68013BB3F1807F01D3012396
:100D1C000FE00A4A7B68013B53600F214FF0FF3014
:100D2C00FFF790FF054B00229A60044B07221A60D4
:100D3C00002318460837BD4680BD00BF10E000E018
:100D4C0080B582B000AF78607868FFF749FF00BFCC
:100D5C000837BD4680BD80B586B000AF0346B9608C
:100D6C007A60FB7300237B61FFF75EFF78617A6822
:100D7C00B9687869FFF790FF024697F90F30114672
:100D8C001846FFF75FFF00BF1837BD4680BD80B522
:100D9C0082B000AF78607868FFF7B0FF0346184662
:100DAC000837BD4680BD000080B48BB000AF7860C2
:100DBC00396000237B6200233B6269E101227B6A7C
:100DCC0002FA03F3FB613B681B68FA691340BB61D1
:100DDC00BA69FB699A4240F058813B685B689A4A51
:100DEC0093425ED0984A934275D8984A934258D011
:100DFC00964A93426FD8964A934252D0944A934261
:100E0C0069D8944A93424CD0924A934263D8924AFE
:100E1C00934246D0904A93425DD8122B2AD8122B7B
:100E2C0059D801A252F823F0AF0E0008890E000821
:100E3C009B0E0008DD0E0008E30E0008E30E000810
:100E4C00E30E0008E30E0008E30E0008E30E0008B2
:100E5C00E30E0008E30E0008E30E0008E30E0008A2
:100E6C00E30E0008E30E0008E30E0008910E0008E4
:100E7C00A50E0008794A934213D02CE03B68DB683E
:100E8C003B6229E03B68DB6804333B6224E03B684F
:100E9C00DB6808333B621FE03B68DB680C333B626A
:100EAC001AE03B689B68002B02D104233B6213E0E1
:100EBC003B689B68012B05D108233B627B68FA6970
:100ECC001A6109E008233B627B68FA695A6103E006
:100EDC0000233B6200E000BFBB69FF2B01D87B689D
:100EEC0001E07B6804337B61BB69FF2B02D87B6A12
:100EFC009B0002E07B6A083B9B003B617B691A68A4
:100F0C000F213B6901FA03F3DB431A40396A3B6951
:100F1C0001FA03F31A437B691A603B685B6803F0C0
:100F2C008053002B00F0B1804D4B9B694C4A43F031
:100F3C00010393614A4B9B6903F00103BB60BB68DF
:100F4C00484A7B6A9B08023352F82330FB607B6A69
:100F5C0003F003039B000F2202FA03F3DB43FA684E
:100F6C001340FB607B68404A934213D07B683F4A36
:100F7C0093420DD07B683E4A934207D07B683D4A32
:100F8C00934201D1032306E0042304E0022302E090
:100F9C00012300E000237A6A02F0030292009340DE
:100FAC00FA681343FB602F497B6A9B080233FA688B
:100FBC0041F823203B685B6803F48013002B06D0B8
:100FCC002D4B9A682C49BB6913438B6006E02A4B66
:100FDC009A68BB69DB43284913408B603B685B68AC
:100FEC0003F40013002B06D0234BDA682249BB69AB
:100FFC001343CB6006E0204BDA68BB69DB431E4928
:10100C001340CB603B685B6803F40033002B06D0C5
:10101C00194B5A681849BB6913434B6006E0164BD1
:10102C005A68BB69DB43144913404B603B685B68EF
:10103C0003F48033002B21D00F4B1A680E49BB6987
:10104C0013430B6021E000BF000032100000311090
:10105C0000002210000021100000121000001110DE
:10106C00001002400000014000080140000C01404B
:10107C000010014000140140000401400B4B1A68A1
:10108C00BB69DB43094913400B607B6A01337B620C
:10109C003B681A687B6A22FA03F3002B7FF48EAE4E
:1010AC0000BF00BF2C37BD4680BC70470004014018
:1010BC0080B483B000AF78600B467B8013467B70A6
:1010CC007B78002B03D07A887B681A6103E07B88DD
:1010DC001A047B681A6100BF0C37BD4680BC704790
:1010EC0080B584B000AF78607B68002B01D1012300
:1010FC002BE17B6893F83D30DBB2002B06D17B688B
:10110C00002283F83C207868FFF7DEFB7B68242202
:10111C0083F83D207B681B681A687B681B6822F08B
:10112C0001021A607B681B681A687B681B6842F4B2
:10113C0000421A607B681B681A687B681B6822F483
:10114C0000421A6001F03EF8F8607B685B68814AE7
:10115C00934207D8FB68804A934294BF0123002333
:10116C00DBB206E0FB687D4A934294BF0123002367
:10117C00DBB2002B01D00123E7E0FB68784AA2FB2D
:10118C0003239B0CBB607B681B685B6823F03F01EF
:10119C007B681B68BA680A435A607B681B681B6AC9
:1011AC0023F03F017B685B686A4A934202D8BB68B4
:1011BC00013309E0BB684FF4967202FB03F3694AF2
:1011CC00A2FB03239B0901337A6812680B43136259
:1011DC007B681B68DB6923F44F4222F0FF027B68BB
:1011EC005B685C498B4219D8FB68591E7B685B684D
:1011FC005B00B1FBF3F3591C40F6FC730B40002B66
:10120C000AD0FB68591E7B685B685B00B1FBF3F38B
:10121C000133C3F30B0351E004234FE07B689B685D
:10122C00002B11D1FB68581E7B6859680B465B007C
:10123C000B44B0FBF3F30133C3F30B03002B0CBFD4
:10124C0001230023DBB212E0FB68581E7B6859684F
:10125C000B469B000B4499000B44B0FBF3F301339A
:10126C00C3F30B03002B0CBF01230023DBB2002BB9
:10127C0001D0012322E07B689B68002B0ED1FB6818
:10128C00581E7B6859680B465B000B44B0FBF3F3AC
:10129C000133C3F30B0343F400430FE0FB68581E08
:1012AC007B6859680B469B000B4499000B44B0FBC0
:1012BC00F3F30133C3F30B0343F440437968096838
:1012CC001343CB617B681B681B6823F0C0017B68F0
:1012DC00DA697B681B6A1A437B681B680A431A60CD
:1012EC007B681B689B6823F4034323F0FF037A6835
:1012FC0011697A68D26811437A6812680B4393605B
:10130C007B681B68DB6823F0FF017B685A697B688C
:10131C009B691A437B681B680A43DA607B681B680D
:10132C001A687B681B6842F001021A607B68002215
:10133C001A647B68202283F83D207B6800221A63A4
:10134C007B68002283F83E20002318461037BD46E8
:10135C0080BD00BFA08601007F841E00FF083D00F9
:10136C0083DE1B43D34D621080B588B002AFF860AA
:10137C007A601A460B467B8113463B81FFF702FCD1
:10138C007861FB6893F83D30DBB2202B40F0E080B5
:10139C007B690093192301227049F86800F064F905
:1013AC000346002B01D00223D3E0FB6893F83C30BA
:1013BC00012B01D10223CCE0FB68012283F83C20F5
:1013CC00FB681B681B6803F00103012B07D0FB684B
:1013DC001B681A68FB681B6842F001021A60FB6804
:1013EC001B681A68FB681B6822F400621A60FB68B1
:1013FC00212283F83D20FB68102283F83E20FB68F5
:10140C0000221A64FB687A685A62FB683A895A852A
:10141C00FB685B8D9AB2FB681A85FB68504ADA62EE
:10142C0079897B693A6AF86800F09CF80346002BCE
:10143C0001D001238DE000233B61FB681B685B69D5
:10144C003B61FB681B689B693B613B6966E07A69A1
:10145C00396AF86800F022FA0346002B0DD0FB68BD
:10146C001B6C042B07D1FB681B681A68FB681B6894
:10147C0042F400721A6001236BE0FB685B6A1A7815
:10148C00FB681B681A61FB685B6A5A1CFB685A6232
:10149C00FB685B8D9BB2013B9AB2FB685A85FB687B
:1014AC001B8D013B9AB2FB681A85FB681B685B6954
:1014BC0003F00403042B1BD1FB681B8D002B17D0EE
:1014CC00FB685B6A1A78FB681B681A61FB685B6ACD
:1014DC005A1CFB685A62FB685B8D9BB2013B9AB24B
:1014EC00FB685A85FB681B8D013B9AB2FB681A8519
:1014FC007A69396AF86800F019FA0346002B0DD0A6
:10150C00FB681B6C042B07D1FB681B681A68FB6813
:10151C001B6842F400721A6001231AE0FB681B8DF1
:10152C00002B94D1FB681B681A68FB681B6842F49B
:10153C0000721A60FB68202283F83D20FB680022B1
:10154C0083F83E20FB68002283F83C20002300E057
:10155C00022318461837BD4680BD00BF020010009C
:10156C000000FFFF80B588B002AFF8607A603B6086
:10157C000B467B81FB68DB6A7B617B69082B06D0A1
:10158C007B69012B03D07B6913F5803F08D1FB6885
:10159C001B681A68FB681B6842F480721A600BE0C7
:1015AC00FB681B6B122B07D1FB681B681A68FB6866
:1015BC001B6842F480721A603B6800937B680022BF
:1015CC004FF00111F86800F04FF80346002B0DD0D6
:1015DC00FB681B681B6803F48073B3F5807F03D131
:1015EC00FB684FF400721A64032335E0FB681B6937
:1015FC00B3F5804F08D17B89DBB21A46FB681B68B8
:10160C0002F0FE021A611BE07B89DB11DBB203F0F6
:10161C000603DBB263F00F03DAB2FB681B681A61D6
:10162C003B687A680E49F86800F098F80346002B7E
:10163C0001D0012310E07B89DAB2FB681B681A61C8
:10164C003B687A680749F86800F088F80346002B75
:10165C0001D0012300E0002318461837BD4680BD99
:10166C00080001000200010080B584B000AFF860F2
:10167C00B9603B601346FB7148E03B68B3F1FF3F38
:10168C0044D0FFF77FFA0246BB69D31A3A689A42F4
:10169C0002D33B68002B39D1BB681B0CDBB2012B8E
:1016AC000DD1FB681B685B69DA43BB6813409BB2C6
:1016BC00002B0CBF01230023DBB21A460CE0FB68A5
:1016CC001B689B69DA43BB6813409BB2002B0CBFB1
:1016DC0001230023DBB21A46FB799A4216D1FB6830
:1016EC0000221A63FB68202283F83D20FB6800224D
:1016FC0083F83E20FB681B6C43F02002FB681A64E5
:10170C00FB68002283F83C20012323E0BB681B0C00
:10171C00DBB2012B0DD1FB681B685B69DA43BB683C
:10172C0013409BB2002B0CBF01230023DBB21A46E3
:10173C000CE0FB681B689B69DA43BB6813409BB2E7
:10174C00002B0CBF01230023DBB21A46FB799A4213
:10175C0093D0002318461037BD4680BD80B584B0A9
:10176C0000AFF860B9607A603B6071E0FB681B68A1
:10177C005B6903F48063B3F5806F23D1FB681B684E
:10178C001A68FB681B6842F400721A60FB681B68DD
:10179C006FF480625A61FB6800221A63FB68202296
:1017AC0083F83D20FB68002283F83E20FB681B6C0D
:1017BC0043F00402FB681A64FB68002283F83C20A7
:1017CC00012367E07B68B3F1FF3F41D0FFF7DAF903
:1017DC0002463B68D31A7A689A4202D37B68002B84
:1017EC0036D1BB681B0CDBB2012B0CD1FB681B6820
:1017FC005B69DA43BB6813409BB2002B14BF012317
:10180C000023DBB20BE0FB681B689B69DA43BB6807
:10181C0013409BB2002B14BF01230023DBB2002B1F
:10182C0016D0FB6800221A63FB68202283F83D2047
:10183C00FB68002283F83E20FB681B6C43F02002FF
:10184C00FB681A64FB68002283F83C20012321E02A
:10185C00BB681B0CDBB2012B0CD1FB681B685B69F2
:10186C00DA43BB6813409BB2002B14BF0123002347
:10187C00DBB20BE0FB681B689B69DA43BB68134067
:10188C009BB2002B14BF01230023DBB2002B7FF48F
:10189C006DAF002318461037BD4680BD80B584B0AF
:1018AC0000AFF860B9607A6034E0F86800F086F850
:1018BC000346002B01D0012334E0BB68B3F1FF3F9A
:1018CC0028D0FFF75FF902467B68D31ABA689A42B0
:1018DC0002D3BB68002B1DD1FB681B685B6903F04E
:1018EC008003802B16D0FB6800221A63FB68202231
:1018FC0083F83D20FB68002283F83E20FB681B6CBC
:10190C0043F02002FB681A64FB68002283F83C2039
:10191C00012307E0FB681B685B6903F08003802BE5
:10192C00C3D1002318461037BD4680BD80B584B0A6
:10193C0000AFF860B9607A6034E0F86800F03EF807
:10194C000346002B01D0012334E0BB68B3F1FF3F09
:10195C0028D0FFF717F902467B68D31ABA689A4267
:10196C0002D3BB68002B1DD1FB681B685B6903F0BD
:10197C000403042B16D0FB6800221A63FB68202298
:10198C0083F83D20FB68002283F83E20FB681B6C2B
:10199C0043F02002FB681A64FB68002283F83C20A9
:1019AC00012307E0FB681B685B6903F00403042B4D
:1019BC00C3D1002318461037BD4680BD80B483B018
:1019CC0000AF78607B681B685B6903F48063B3F5D8
:1019DC00806F1BD17B681B686FF480625A617B68D7
:1019EC0000221A637B68202283F83D207B6800224A
:1019FC0083F83E207B681B6C43F004027B681A64FE
:101A0C007B68002283F83C20012300E00023184669
:101A1C000C37BD4680BC704780B400AF034B01222D
:101A2C001A6000BFBD4680BC704700BF20000E424C
:101A3C0080B586B000AF78607B68002B01D10123A4
:101A4C0072E27B681B6803F00103002B00F08780B7
:101A5C00924B5B6803F00C03042B0CD08F4B5B6830
:101A6C0003F00C03082B12D18C4B5B6803F480330E
:101A7C00B3F5803F0BD1894B1B6803F40033002B6B
:101A8C006CD07B685B68002B68D101234CE27B68CF
:101A9C005B68B3F5803F06D1804B1B687F4A43F4EB
:101AAC00803313602EE07B685B68002B0CD17B4B82
:101ABC001B687A4A23F480331360784B1B68774A8F
:101ACC0023F4802313601DE07B685B68B3F5A02FC3
:101ADC000CD1724B1B68714A43F4802313606F4B1B
:101AEC001B686E4A43F4803313600BE06B4B1B682E
:101AFC006A4A23F480331360684B1B68674A23F4EB
:101B0C00802313607B685B68002B13D0FFF73AF8D7
:101B1C00386108E0FFF736F802463B69D31A642BAC
:101B2C0001D9032300E25D4B1B6803F40033002B47
:101B3C00F0D014E0FFF726F8386108E0FFF722F840
:101B4C0002463B69D31A642B01D90323ECE1534BB6
:101B5C001B6803F40033002BF0D100E000BF7B685E
:101B6C001B6803F00203002B63D04C4B5B6803F043
:101B7C000C03002B0BD0494B5B6803F00C03082BB8
:101B8C001CD1464B5B6803F48033002B16D1434BBE
:101B9C001B6803F00203002B05D07B681B69012B2B
:101BAC0001D00123C0E13D4B1B6823F0F8027B6898
:101BBC005B69DB00394913430B603AE07B681B69B6
:101BCC00002B20D0364B01221A60FEF7DBFF386168
:101BDC0008E0FEF7D7FF02463B69D31A022B01D966
:101BEC000323A1E12D4B1B6803F00203002BF0D063
:101BFC002A4B1B6823F0F8027B685B69DB002749E2
:101C0C0013430B6015E0264B00221A60FEF7BAFF57
:101C1C00386108E0FEF7B6FF02463B69D31A022B87
:101C2C0001D9032380E11D4B1B6803F00203002B39
:101C3C00F0D17B681B6803F00803002B3AD07B685B
:101C4C009B69002B19D0174B01221A60FEF79AFFE3
:101C5C00386108E0FEF796FF02463B69D31A022B67
:101C6C0001D9032360E10D4B5B6A03F00203002BE7
:101C7C00F0D0012000F0CEFA1CE00A4B00221A60D2
:101C8C00FEF780FF38610FE0FEF77CFF02463B69F0
:101C9C00D31A022B08D9032346E100BF00100240DF
:101CAC000000424280044242924B5B6A03F0020302
:101CBC00002BE9D17B681B6803F00403002B00F0B8
:101CCC00A6800023FB758B4BDB6903F08053002B44
:101CDC000DD1884BDB69874A43F08053D361854B28
:101CEC00DB6903F08053BB60BB680123FB75824B3F
:101CFC001B6803F48073002B18D17F4B1B687E4A42
:101D0C0043F480731360FEF73DFF386108E0FEF783
:101D1C0039FF02463B69D31A642B01D9032303E133
:101D2C00754B1B6803F48073002BF0D07B68DB6869
:101D3C00012B06D16F4B1B6A6E4A43F001031362F1
:101D4C002DE07B68DB68002B0CD16A4B1B6A694A5F
:101D5C0023F001031362674B1B6A664A23F00403EA
:101D6C0013621CE07B68DB68052B0CD1614B1B6A92
:101D7C00604A43F0040313625E4B1B6A5D4A43F0F6
:101D8C00010313620BE05B4B1B6A5A4A23F00103FD
:101D9C001362584B1B6A574A23F0040313627B6887
:101DAC00DB68002B15D0FEF7EDFE38610AE0FEF77C
:101DBC00E9FE02463B69D31A41F28832934201D9BB
:101DCC000323B1E04B4B1B6A03F00203002BEED054
:101DDC0014E0FEF7D7FE38610AE0FEF7D3FE0246A8
:101DEC003B69D31A41F28832934201D903239BE019
:101DFC00404B1B6A03F00203002BEED1FB7D012B41
:101E0C0005D13C4BDB693B4A23F08053D3617B68A3
:101E1C00DB69002B00F08780364B5B6803F00C030A
:101E2C00082B61D07B68DB69022B46D1334B002237
:101E3C001A60FEF7A7FE386108E0FEF7A3FE024623
:101E4C003B69D31A022B01D903236DE0294B1B6884
:101E5C0003F00073002BF0D17B681B6AB3F5803F55
:101E6C0008D1244B5B6823F400327B689B682149C2
:101E7C0013434B601F4B5B6823F474127B68196A25
:101E8C007B685B6A0B431B4913434B601B4B012262
:101E9C001A60FEF777FE386108E0FEF773FE024623
:101EAC003B69D31A022B01D903233DE0114B1B686C
:101EBC0003F00073002BF0D035E0104B00221A60B9
:101ECC00FEF760FE386108E0FEF75CFE02463B69F7
:101EDC00D31A022B01D9032326E0064B1B6803F00F
:101EEC000073002BF0D11EE07B68DB69012B07D15E
:101EFC00012319E0001002400070004060004242D3
:101F0C000B4B5B68FB60FB6803F480327B681B6ADD
:101F1C009A4206D1FB6803F470127B685B6A9A42A2
:101F2C0001D0012300E0002318461837BD4680BDC0
:101F3C000010024080B584B000AF786039607B68D7
:101F4C00002B01D10123D0E06A4B1B6803F007037F
:101F5C003A689A4210D9674B1B6823F0070265490F
:101F6C003B6813430B60634B1B6803F007033A6831
:101F7C009A4201D00123B8E07B681B6803F002038E
:101F8C00002B20D07B681B6803F00403002B05D0CA
:101F9C00594B5B68584A43F4E06353607B681B6899
:101FAC0003F00803002B05D0534B5B68524A43F4F3
:101FBC0060535360504B5B6823F0F0027B689B6866
:101FCC004D4913434B607B681B6803F00103002BE6
:101FDC0040D07B685B68012B07D1474B1B6803F42F
:101FEC000033002B15D101237FE07B685B68022B4B
:101FFC0007D1414B1B6803F00073002B09D101235F
:10200C0073E03D4B1B6803F00203002B01D101234D
:10201C006BE0394B5B6823F003027B685B683649E5
:10202C0013434B60FEF7AEFDF8600AE0FEF7AAFD25
:10203C000246FB68D31A41F28832934201D903233A
:10204C0053E02D4B5B6803F00C027B685B689B00D4
:10205C009A42EBD1274B1B6803F007033A689A426C
:10206C0010D2244B1B6823F0070222493B68134310
:10207C000B60204B1B6803F007033A689A4201D0AF
:10208C00012332E07B681B6803F00403002B08D0AB
:10209C00194B5B6823F4E0627B68DB6816491343D9
:1020AC004B607B681B6803F00803002B09D0124BB4
:1020BC005B6823F460527B681B69DB000E49134399
:1020CC004B6000F021F802460B4B5B681B0903F0D8
:1020DC000F030A49CB5C22FA03F3094A1360094B3C
:1020EC001B681846FEF70CFD002318461037BD463A
:1020FC0080BD00BF0020024000100240A034000848
:10210C00100000201400002080B487B000AF002322
:10211C00FB600023BB6000237B6100237B600023FA
:10212C003B611E4B5B68FB60FB6803F00C03042BEC
:10213C0002D0082B03D027E0194B3B6127E0FB684A
:10214C009B0C03F00F03174AD35C7B60FB6803F412
:10215C008033002B10D0114B5B685B0C03F0010338
:10216C00114AD35CBB607B680D4A03FB02F2BB686F
:10217C00B2FBF3F37B6104E07B680C4A02FB03F3D4
:10218C007B617B693B6102E0054B3B6100BF3B69B6
:10219C0018461C37BD4680BC704700BF001002407B
:1021AC0000127A00B8340008C834000800093D0059
:1021BC0080B400AF024B1B681846BD4680BC70470C
:1021CC001000002080B500AFFFF7F2FF0246054B70
:1021DC005B681B0A03F007030349CB5C22FA03F389
:1021EC00184680BD00100240B034000880B500AF26
:1021FC00FFF7DEFF0246054B5B68DB0A03F00703C3
:10220C000349CB5C22FA03F3184680BD0010024050
:10221C00B034000880B485B000AF78600A4B1B68FE
:10222C000A4AA2FB03235B0A7A6802FB03F3FB60F6
:10223C0000BFFB685A1EFA60002BF9D100BF00BF2B
:10224C001437BD4680BC704710000020D34D62107F
:10225C0080B586B000AF786000233B610023FB6043
:10226C007B681B6803F00103002B7DD00023FB75FA
:10227C004F4BDB6903F08053002B0DD14C4BDB69CA
:10228C004B4A43F08053D361494BDB6903F08053D5
:10229C00BB60BB680123FB75464B1B6803F4807362
:1022AC00002B18D1434B1B68424A43F480731360D4
:1022BC00FEF768FC386108E0FEF764FC02463B69F7
:1022CC00D31A642B01D903236DE03A4B1B6803F43A
:1022DC008073002BF0D0364B1B6A03F44073FB6009
:1022EC00FB68002B2ED07B685B6803F44073FA68A4
:1022FC009A4227D02E4B1B6A23F44073FB602E4B63
:10230C0001221A602C4B00221A60294AFB681362C6
:10231C00FB6803F00103002B14D0FEF733FC38618B
:10232C000AE0FEF72FFC02463B69D31A41F28832D1
:10233C00934201D9032336E01D4B1B6A03F00203C1
:10234C00002BEED01A4B1B6A23F440727B685B683F
:10235C00174913430B62FB7D012B05D1144BDB6931
:10236C00134A23F08053D3617B681B6803F002038C
:10237C00002B08D00E4B5B6823F440427B689B68B3
:10238C000B4913434B607B681B6803F01003002B55
:10239C0008D0074B5B6823F480027B68DB68044938
:1023AC0013434B60002318461837BD4680BD00BF51
:1023BC0000100240007000404004424280B588B0DA
:1023CC0000AF786000237B610023FB6100233B613D
:1023DC000023FB600023BB617B68102B0AD07B6859
:1023EC00102B00F28A807B68012B45D07B68022B76
:1023FC0075D082E0464B5B68FB60454B1B6803F075
:10240C008073002B7BD0FB689B0C03F00F03414ABD
:10241C00D35C3B61FB6803F48033002B15D03C4B41
:10242C005B685B0C03F001033B4AD35C7B61FB688C
:10243C0003F48033002B0DD0384A7B69B2FBF3F2E6
:10244C003B6902FB03F3FB6104E03B69344A02FB8A
:10245C0003F3FB612E4B5B6803F48003B3F5800F31
:10246C0002D1FB69BB614AE0FB695B002D4AA2FB10
:10247C0003235B08BB6142E0254B1B6AFB60FB68D6
:10248C0003F44073B3F5807F08D1FB6803F00203BB
:10249C00002B03D04FF40043BB611FE0FB6803F437
:1024AC004073B3F5007F09D1194B5B6A03F002034B
:1024BC00002B03D049F64043BB610FE0FB6803F4EB
:1024CC004073B3F5407F1CD1114B1B6803F40033F0
:1024DC00002B16D04FF22443BB6112E011E0FFF742
:1024EC0085FE02460A4B5B689B0B03F0030301332A
:1024FC005B00B2FBF3F3BB6104E000BF02E000BF82
:10250C0000E000BFBB6918462037BD4680BD00BF48
:10251C0000100240CC340008DC34000800127A00B1
:10252C0000093D00ABAAAAAA80B584B000AF7860C0
:10253C000023FB607B68002B01D101237AE07B68D0
:10254C005B7CDBB2002B05D17B6800221A747868A7
:10255C00FEF7F8F97B6802225A74786800F096FA54
:10256C000346002B04D07B6804225A74012361E0DB
:10257C00786800F04FFB0346002B04D07B680422E4
:10258C005A74012356E07B681B685A687B681B6889
:10259C0022F007025A607B689B68002B05D0274B02
:1025AC001B6B264A23F001031363244BDB6A23F4D1
:1025BC0060727B689B6821491343CB627B685B68C4
:1025CC00B3F1FF3F03D07B685B68FB600EE001203A
:1025DC00FFF7F4FEF860FB68002B04D17B68042243
:1025EC005A74012326E0FB68013BFB60FB681A0C64
:1025FC007B681B6802F00F029A607B681B68FA68A4
:10260C0092B2DA60786800F02DFB0346002B04D000
:10261C007B6804225A7401230CE07B680022DA7375
:10262C007B6801225A737B6801229A737B680122B2
:10263C005A74002318461037BD4680BD006C00400C
:10264C0090B587B000AFF860B9607A6000237B6109
:10265C0000233B61FB68002B02D0BB68002B01D12F
:10266C00012380E0FB681B7C012B01D102237AE063
:10267C00FB6801221A74FB6802225A747B68002BD7
:10268C0013D1BB681B781A464FF4616303FB02F24B
:10269C00BB685B7819460B461B015B1A9B00134405
:1026AC00BA68927813447B611EE0BB681B781846AD
:1026BC0000F01DFB03461A464FF4616303FB02F462
:1026CC00BB685B78184600F012FB03461A461346AB
:1026DC001B019B1A9B001C44BB689B78184600F09E
:1026EC0006FB034623447B617969F86800F02BFAFA
:1026FC000346002B07D0FB6804225A74FB680022A7
:10270C001A7401232FE0FB681B685A68FB681B686E
:10271C0022F005025A60F86800F03CFA38613B6917
:10272C00B3F1FF3F18D03A697B699A4214D23B69E6
:10273C0003F5A83303F5C0733B613969F86800F001
:10274C0042FA0346002B07D0FB6804225A74FB683C
:10275C0000221A74012306E0FB6801225A74FB68FC
:10276C0000221A74002318461C37BD4690BD000089
:10277C0080B588B000AFF860B9607A600023BB61A7
:10278C000023FB6100237B6100233B61FB68002B72
:10279C0002D0BB68002B01D10123B5E0FB681B689C
:1027AC005B6803F00403002B01D00123ACE0F86854
:1027BC0000F099F9B861BB69554AA2FB0323DB0A07
:1027CC003B61BA69524BA3FB0213DB0A4FF4616104
:1027DC0001FB03F3D31A4F4AA2FB03235B09DAB2C2
:1027EC00BB685A70BB694A4AA2FB0312D20A4FF467
:1027FC00616101FB02F29A1A464BA3FB02135909C1
:10280C000B461B015B1A9B00D11ACAB2BB689A70AB
:10281C003B69172B55D93B693F4AA2FB03231B0984
:10282C007B6139693C4BA3FB01231A0913465B00FE
:10283C001344DB00CA1AD2B2BB681A70F86800F0F5
:10284C00A9F9F861FB69B3F1FF3F08D0FA69BB69DC
:10285C009A4204D9FA69BB69D31AFB6102E04FF0C2
:10286C00FF33FB617B692D4A02FB03F3BA69D31A70
:10287C00BB61B969F86800F066F90346002B01D01A
:10288C00012341E0FB69B3F1FF3F0CD0FA69BB694E
:10289C001344FB61F969F86800F095F90346002BC5
:1028AC000AD0012330E0F969F86800F08CF903468E
:1028BC00002B01D0012327E07969F86800F034FA85
:1028CC0003E03B69DAB2BB681A707B68002B1AD044
:1028DC00BB681B78184600F0EDF903461A46BB6836
:1028EC001A70BB685B78184600F0E4F903461A4688
:1028FC00BB685A70BB689B78184600F0DBF903463E
:10290C001A46BB689A70002318462037BD4680BD16
:10291C00C5B3A29189888888ABAAAAAA8051010064
:10292C0080B588B000AFF860B9607A600023FB61B5
:10293C000023BB6100237B61FB68002B02D0BB68CA
:10294C00002B01D1012397E0FB681B7C012B01D1EB
:10295C00022391E0FB6801221A74FB6802225A746C
:10296C007B68002B0CD1BB68DA78FB68DA73BB6828
:10297C005A78FB685A73BB689A78FB689A731AE0AA
:10298C00BB68DB78184600F0B2F903461A46FB68C0
:10299C00DA73BB685B78184600F0A9F903461A464F
:1029AC00FB685A73BB689B78184600F0A0F9034685
:1029BC001A46FB689A73FB68DB7B1846FB68597BED
:1029CC00FB689B7B1A4600F08BFA03461A46FB68A1
:1029DC001A73FB681A7BBB681A70F86800F083F8EE
:1029EC00F861FB69264AA2FB0323DB0A7B617B6946
:1029FC00182B3AD97B69234AA2FB03231B09224AD1
:102A0C0002FB03F3FA69D31AFB61F969F86800F069
:102A1C009AF80346002B07D0FB6804225A74FB6813
:102A2C0000221A74012327E0F86800F0B3F8B861AB
:102A3C00BB69B3F1FF3F18D0BA69FB699A4214D253
:102A4C00BB6903F5A83303F5C073BB61B969F868BA
:102A5C0000F0B9F80346002B07D0FB6804225A7427
:102A6C00FB6800221A74012306E0FB6801225A74E9
:102A7C00FB6800221A74002318462037BD4680BD1F
:102A8C00C5B3A291ABAAAAAA8051010080B584B0AB
:102A9C0000AF78600023FB607B68002B01D1012321
:102AAC001DE07B681B685A687B681B6822F0080273
:102ABC005A60FEF767F8F86009E0FEF763F8024623
:102ACC00FB68D31AB3F57A7F01D9032307E07B683F
:102ADC001B685B6803F00803002BEED0002318463C
:102AEC001037BD4680BD80B487B000AF786000233E
:102AFC007B8200233B820023FB8100237B617B686C
:102B0C001B689B697B827B681B68DB69FB817B682C
:102B1C001B689B693B827A8A3B8A9A4208D03B8A23
:102B2C001A047B681B68DB699BB213437B6104E06E
:102B3C007B8A1A04FB8913437B617B6918461C371B
:102B4C00BD4680BC704780B584B000AF78603960FA
:102B5C000023FB73786800F05DF80346002B02D06D
:102B6C000123FB7311E07B681B683A68120C9A61B5
:102B7C007B681B683A6892B2DA61786800F072F888
:102B8C000346002B01D00123FB73FB7B1846103747
:102B9C00BD4680BD80B485B000AF78600023FB815A
:102BAC000023BB817B681B681B6AFB817B681B68ED
:102BBC005B6ABB81FB891A04BB8913431846143723
:102BCC00BD4680BC704780B584B000AF786039607A
:102BDC000023FB73786800F01DF80346002B02D02D
:102BEC000123FB7311E07B681B683A68120C1A62B4
:102BFC007B681B683A6892B25A62786800F032F8C7
:102C0C000346002B01D00123FB73FB7B18461037C6
:102C1C00BD4680BD80B584B000AF78600023FB60FA
:102C2C00FDF7B0FFF86009E0FDF7ACFF0246FB686A
:102C3C00D31AB3F57A7F01D903230FE07B681B68A5
:102C4C005B6803F02003002BEED07B681B685A688E
:102C5C007B681B6842F010025A600023184610373C
:102C6C00BD4680BD80B584B000AF78600023FB60AA
:102C7C007B681B685A687B681B6822F010025A60DC
:102C8C00FDF780FFF86009E0FDF77CFF0246FB686A
:102C9C00D31AB3F57A7F01D9032307E07B681B684D
:102CAC005B6803F02003002BEED00023184610378E
:102CBC00BD4680BD80B485B000AF0346FB710023D8
:102CCC00FB6005E0FB680133FB60FB790A3BFB71A1
:102CDC00FB79092BF6D8FB68DBB21B01DAB2FB7966
:102CEC001343DBB218461437BD4680BC704780B422
:102CFC0085B000AF0346FB710023FB60FB791B0919
:102D0C00DBB21A4613469B0013445B00FB60FB7955
:102D1C0003F00F03DAB2FB68DBB21344DBB21846E4
:102D2C001437BD4680BC704780B586B000AF786064
:102D3C00396000237B6100233B610023FB6000238F
:102D4C00BB607B68DB7B7B617B685B7B3B617B680F
:102D5C009B7BFB600023BB606FE03B69012B11D0B8
:102D6C003B69032B0ED03B69052B0BD03B69072B22
:102D7C0008D03B69082B05D03B690A2B02D03B6974
:102D8C000C2B17D1FB681E2B03D8FB680133FB609F
:102D9C0050E03B690C2B05D03B6901333B610123AF
:102DAC00FB6047E001233B610123FB607B6901333E
:102DBC007B613FE03B69042B08D03B69062B05D0B7
:102DCC003B69092B02D03B690B2B0CD1FB681D2BEB
:102DDC0003D8FB680133FB602CE03B6901333B619A
:102DEC000123FB6026E03B69022B23D1FB681B2BE4
:102DFC0003D8FB680133FB601CE0FB681C2B11D172
:102E0C007B699BB2184600F039F80346002B03D0BF
:102E1C00FB680133FB600DE03B6901333B6101232F
:102E2C00FB6007E0FB681D2B04D13B6901333B6160
:102E3C000123FB60BB680133BB60BA683B689A42F4
:102E4C008BD37B69DAB27B68DA733B69DAB27B6865
:102E5C005A73FB68DAB27B689A733B69DBB2FA6827
:102E6C00D2B21946786900F03BF803461A467B68E3
:102E7C001A7300BF1837BD4680BD000080B483B004
:102E8C0000AF0346FB80FB8803F003039BB2002BCF
:102E9C0001D000231DE0FB88104AA2FB031252094B
:102EAC00642101FB02F29B1A9BB2002B01D001237F
:102EBC000FE0FB88094AA2FB0312D2094FF4C87138
:102ECC0001FB02F29B1A9BB2002B01D1012300E003
:102EDC00002318460C37BD4680BC70471F85EB514C
:102EEC0080B485B000AF78600B46FB701346BB70A6
:102EFC000023BB600023FB607B6803F5FA63BB60B7
:102F0C00FB78022B2DD8FA7813465B001344DB00B8
:102F1C009B1A2C4AA2FB03235A08BB781A44BB68A1
:102F2C001A44BB68013B9B081A44BB68013B264909
:102F3C00A1FB03135B09D21ABB68013B2249A1FB1D
:102F4C000313DB0913441A1D204BA3FB0213D11AE4
:102F5C0049080B4499080B46DB005B1AD31AFB603B
:102F6C0029E0FA7813465B001344DB009B1A154AE0
:102F7C00A2FB03235A08BB781A44BB681A44BB68EB
:102F8C009B081A44BB681049A1FB03135B09D21AB6
:102F9C00BB680D49A1FB0313DB0913449A1C0B4BB3
:102FAC00A3FB0213D11A49080B4499080B46DB000A
:102FBC005B1AD31AFB60FB68DBB218461437BD46AC
:102FCC0080BC7047398EE3381F85EB51254992241C
:102FDC0080B582B000AF78607B68002B01D10123F3
:102FEC0042E07B6893F84130DBB2002B06D17B6862
:102FFC00002283F840207868FDF7C8FC7B68242207
:10300C0083F841207B681B68DA687B681B6822F4B4
:10301C000052DA60786800F071F97B681B681A69F5
:10302C007B681B6822F490421A617B681B685A69A2
:10303C007B681B6822F02A025A617B681B68DA687D
:10304C007B681B6842F40052DA607B6800225A6489
:10305C007B68202283F841207B68202283F8422061
:10306C007B6800225A63002318460837BD4680BD92
:10307C0080B58AB002AFF860B9603B601346FB8044
:10308C0000237B61FB6893F84130DBB2202B75D1B8
:10309C00BB68002B02D0FB88002B01D101236EE012
:1030AC00FB6800225A64FB68212283F84120FDF75B
:1030BC0069FD7861FB68FA889A84FB68FA88DA847F
:1030CC00FB689B68B3F5805F08D1FB681B69002B1C
:1030DC0004D10023FB61BB68BB6103E0BB68FB61EF
:1030EC000023BB612EE03B6800937B6900228021AA
:1030FC00F86800F048F80346002B05D0FB68202246
:10310C0083F8412003233AE0FB69002B0BD1BB6908
:10311C001B881A46FB681B68C2F308025A60BB691D
:10312C000233BB6107E0FB691A78FB681B685A60C5
:10313C00FB690133FB61FB68DB8C9BB2013B9AB2F0
:10314C00FB68DA84FB68DB8C9BB2002BCBD13B6831
:10315C0000937B6900224021F86800F014F80346C4
:10316C00002B05D0FB68202283F84120032306E0C6
:10317C00FB68202283F84120002300E0022318463C
:10318C002037BD4680BD80B586B000AFF860B96011
:10319C003B601346FB713BE03B6AB3F1FF3F37D01A
:1031AC00FDF7F0FC02463B68D31A3A6A9A4202D306
:1031BC003B6A002B01D103233AE0FB681B68DB68F8
:1031CC0003F00403002B23D0BB68802B20D0BB68FA
:1031DC00402B1DD0FB681B681B6803F00803082BF1
:1031EC0016D100237B61FB681B681B687B61FB6845
:1031FC001B685B687B617B69F86800F01DF8FB68F5
:10320C0008225A64FB68002283F8402001230FE057
:10321C00FB681B681A68BB681340BA689A420CBFFB
:10322C0001230023DBB21A46FB799A42B4D0002367
:10323C0018461837BD4680BD80B495B000AF786095
:10324C007B681B680C337B637B6B53E8003F3B63F1
:10325C003B6B23F49073FB647B681B680C33FA6C38
:10326C003A64FB63F96B3A6C41E80023BB63BB6BBC
:10327C00002BE5D17B681B6814333B623B6A53E837
:10328C00003FFB61FB6923F00103BB647B681B6897
:10329C001433BA6CFA62BB62B96AFA6A41E8002369
:1032AC007B627B6A002BE5D17B681B6B012B19D1F0
:1032BC007B681B680C33FB60FB6853E8003FBB600A
:1032CC00BB6823F010037B647B681B680C337A6C3F
:1032DC00BA617B617969BA6941E800233B613B695A
:1032EC00002BE5D17B68202283F842207B680022EA
:1032FC001A6300BF5437BD4680BC704780B584B09C
:10330C0000AF78607B681B681B6923F440517B68B5
:10331C00DA687B681B680A431A617B689A687B6869
:10332C001B691A437B685B691343BB607B681B6832
:10333C00DB6823F4B05323F00C037A681268B96885
:10334C000B43D3607B681B685B6923F440717B681B
:10335C009A697B681B680A435A617B681B682C4A14
:10336C00934203D1FEF742FFF86002E0FEF72AFF1A
:10337C00F860FA6813469B0013449A001A447B6861
:10338C005B689B00B2FBF3F3224AA2FB03235B09AD
:10339C001901FA6813469B0013449A001A447B687F
:1033AC005B689B00B2FBF3F21A4BA3FB02035B09B5
:1033BC00642000FB03F3D31A1B013233154AA2FB22
:1033CC0003235B0903F0F0031944FA6813469B00CE
:1033DC0013449A001A447B685B689B00B2FBF3F2BF
:1033EC000C4BA3FB02035B09642000FB03F3D31A11
:1033FC001B013233074AA2FB03235B0903F00F02C4
:10340C007B681B680A449A6000BF1037BD4680BDBC
:10341C00003801401F85EB5103460244934200D112
:10342C00704703F8011BF9E770B500260C4D0D4CE5
:10343C00641BA410A64209D100F01AF800260A4D0C
:10344C000A4C641BA410A64205D170BD55F8043B70
:10345C0098470136EEE755F8043B98470136F2E7FA
:10346C00E0340008E0340008E0340008E4340008DC
:10347C00F8B500BFF8BC08BC9E467047F8B500BF55
:08348C00F8BC08BC9E46704725
:1034940030303A30303A3030000A0D00000000007D
:1034A40000000000010203040607080900000000F0
:1034B4000102030402030405060708090A0B0C0DA4
:1034C4000E0F10100102000002030405060708098C
:0C34D4000A0B0C0D0E0F1010010200007E
:0434E00031010008AE
:0434E4000D010008CE
:1034E8003030302000000000280E01068000000067
:0C34F80000127A0010000000010000002B
:0400000508000A9550
:00000001FF
