:020000040800F2
:1000000000500020F9060008910600089906000833
:10001000A1060008A9060008B106000800000000BB
:10002000000000000000000000000000B1400008D7
:10003000B906000800000000F1410008394200083C
:100040004107000841070008410700084107000870
:100050004107000841070008410700084107000860
:100060004107000841070008410700084107000850
:100070004107000841070008410700084107000840
:100080004107000841070008410700084107000830
:100090004107000841070008410700084107000820
:1000A0004107000841070008410700084107000810
:1000B0004107000841070008C5060008410700087D
:1000C00041070008410700084107000841070008F0
:1000D00041070008D9060008410700084107000849
:1000E0004107000841070008410700080000000020
:1000F0000000000000000000000000000000000000
:0C01000000000000000000005FF808F1A3
:1001100010B5054C237833B9044B13B10448AFF341
:1001200000800123237010BD640000200000000047
:100130009C48000808B5034B1BB103490348AFF3C3
:10014000008008BD00000000680000209C480008F6
:1001500080B586B002AF00F0F5FA00F065F800F067
:10016000C9F800F09DF8284B019302230093274B18
:10017000C8222749274802F069FFF860FB68012B75
:100180000BD04FF0500383F31188BFF36F8FBFF391
:100190004F8FBB6000BF00BFFDE71F4B01930223E1
:1001A00000930023C8221D491D4802F04FFFF8604C
:1001B000FB68012B0BD04FF0500383F31188BFF382
:1001C0006F8FBFF34F8F7B6000BF00BFFDE7002242
:1001D0000121322002F0C4FB0346124A1360114B86
:1001E0001B68002B0BD14FF0500383F31188BFF332
:1001F0006F8FBFF34F8F3B6000BF00BFFDE703F081
:10020000ADF800BFFDE700BFC800002000000020DF
:10021000B44800089D030008CC000020C048000836
:1002200005040008D000002080B590B000AF07F1B1
:10023000180328220021184604F042FA3B1D002230
:100240001A605A609A60DA601A610223BB61012366
:10025000BB621023FB6200237B6307F1180318467F
:1002600000F0D0FD0346002B01D000F007F90F236A
:100270007B600023BB600023FB6000233B61002305
:100280007B613B1D0021184601F03EF80346002B20
:1002900001D000F0F3F800BF4037BD4680BD00003C
:1002A00080B500AF114B124A1A60104B4FF4E13287
:1002B0005A600E4B00229A600C4B0022DA600B4B06
:1002C00000221A61094B0C225A61084B00229A61E4
:1002D000064B0022DA61054801F012FC0346002BB0
:1002E00001D000F0CBF800BF80BD00BF800000202F
:1002F0000038014080B586B000AF07F10803002246
:100300001A605A609A60DA60214B9B69204A43F078
:10031000100393611E4B9B6903F010037B607B68A5
:100320001B4B9B691A4A43F004039361184B9B696A
:1003300003F004033B603B6800224FF40051154872
:1003400000F048FD00220721134800F043FD4FF460
:100350000053BB600123FB6000233B6102237B61F0
:1003600007F1080319460B4800F0B0FB0723BB60F8
:100370000123FB6000233B6102237B6107F108033B
:100380001946054800F0A2FB00BF1837BD4680BDE6
:1003900000100240001001400008014080B586B006
:1003A00002AF78607B68FB6009E0144B186800239B
:1003B0000022F96802F056FBFB680133FB60FB6822
:1003C0001B78002BF1D10023FB720C4B186807F14E
:1003D0000B010023002202F045FB7B68FB60084B09
:1003E00018680023009300230022002103F0B8FCCA
:1003F0004FF47A7002F07CFFD6E700BFD0000020F7
:10040000CC00002080B586B002AF78603023FB734B
:100410004FF0FF330093002300220021002003F05F
:100420001FFC0B4B1B6807F10F010022184602F05E
:100430001BFC07F10F014FF47A730122054801F00C
:10044000AFFBFB7B002BECD13023FB73E0E700BF5D
:10045000D00000208000002080B582B000AF78601E
:100460007B681B68044A934201D100F081F900BF08
:100470000837BD4680BD00BF0008004080B400AF13
:1004800072B600BF00BFFDE780B485B000AF154B6A
:100490009B69144A43F001039361124B9B6903F07B
:1004A0000103BB60BB680F4BDB690E4A43F080530E
:1004B000D3610C4BDB6903F080537B607B680A4B94
:1004C0005B68FB60FB6823F0E063FB60FB6843F064
:1004D0008063FB60044AFB68536000BF1437BD466D
:1004E00080BC7047001002400000014080B588B019
:1004F00000AF786007F1100300221A605A609A601A
:10050000DA607B681B68204A934239D11F4B9B6994
:100510001E4A43F4804393611C4B9B6903F4804360
:10052000FB60FB68194B9B69184A43F00403936115
:10053000164B9B6903F00403BB60BB684FF4007368
:100540003B6102237B610323FB6107F11003194622
:100550000F4800F0BBFA4FF480633B6100237B61DE
:100560000023BB6107F110031946094800F0AEFAF9
:1005700000220621252000F0CCF9252000F0E5F925
:1005800000BF2037BD4680BD00380140001002404A
:100590000008014080B58EB000AF78600023FB6298
:1005A0000023BB62002387F83330344BDB69334AC6
:1005B00043F00403D361314BDB6903F00403FB60B8
:1005C000FB6807F1100207F114031146184601F009
:1005D0000BF83B6AFB62FB6A002B03D100F0DCFFE7
:1005E000786304E000F0D8FF03465B007B637B6B1D
:1005F000234AA2FB03239B0C013BBB62214B224AF3
:100600001A60204B40F2E732DA601E4ABB6A536040
:100610001C4B00221A611B4B00229A60194B0022CE
:100620009A61184801F02EF8034687F8333097F89E
:100630003330002B1BD1134801F07CF8034687F8B8
:10064000333097F83330002B11D11E2000F07DF9A4
:100650007B680F2B08D8002279681E2000F059F91A
:100660000A4A7B68136002E0012387F8333097F869
:10067000333018463837BD4680BD00BF00100240F9
:1006800083DE1B43D4000020000800400800002047
:1006900080B400AF00BFFDE780B400AF00BFFDE74E
:1006A00080B400AF00BFFDE780B400AF00BFFDE73E
:1006B00080B400AF00BFFDE780B400AF00BFBD460F
:1006C00080BC704780B500AF024801F085F800BFDC
:1006D00080BD00BFD400002080B500AF024801F00B
:1006E000EBFA00BF80BD00BF8000002080B400AFE7
:1006F00000BFBD4680BC7047FFF7F8FF0B480C49B0
:100700000C4A002302E0D458C4500433C4188C426D
:10071000F9D3094A094C002301E013600432A242D4
:10072000FBD304F033F8FFF713FD704700000020FF
:10073000640000200849000864000020AC0F00207D
:10074000FEE7000080B500AF084B1B68074A43F086
:1007500010031360032000F0D1F80F20FFF71AFFF9
:10076000FFF792FE0023184680BD00BF0020024024
:1007700080B400AF054B1B781A46054B1B68134429
:10078000034A136000BFBD4680BC70470C000020C8
:100790001C01002080B400AF024B1B681846BD4608
:1007A00080BC70471C01002080B485B000AF786029
:1007B0007B6803F00703FB600C4BDB68BB60BA6827
:1007C0004FF6FF031340BB60FB681A02BB6813437C
:1007D00043F0BF6343F40033BB60044ABB68D3609B
:1007E00000BF1437BD4680BC704700BF00ED00E07D
:1007F00080B400AF044BDB681B0A03F00703184604
:10080000BD4680BC704700BF00ED00E080B483B0FF
:1008100000AF0346FB7197F90730002B0BDBFB7928
:1008200003F01F02064997F907305B09012000FA1F
:1008300002F241F8232000BF0C37BD4680BC704750
:1008400000E100E080B483B000AF03463960FB7183
:1008500097F90730002B0ADB3B68DAB20C4997F9AD
:1008600007301201D2B20B4483F800230AE03B6840
:10087000DAB20849FB7903F00F03043B1201D2B24C
:100880000B441A7600BF0C37BD4680BC704700BFD2
:1008900000E100E000ED00E080B489B000AFF86056
:1008A000B9607A60FB6803F00703FB61FB69C3F181
:1008B0000703042B28BF0423BB61FB690433062B09
:1008C00002D9FB69033B00E000237B614FF0FF325C
:1008D000BB6902FA03F3DA43BB681A407B699A40AA
:1008E0004FF0FF317B6901FA03F3D9437B680B407A
:1008F000134318462437BD4680BC704780B582B08C
:1009000000AF78607868FFF74FFF00BF0837BD463B
:1009100080BD80B586B000AF0346B9607A60FB73D6
:1009200000237B61FFF764FF78617A68B9687869B2
:10093000FFF7B2FF024697F90F3011461846FFF74E
:1009400081FF00BF1837BD4680BD80B582B000AFC3
:100950000346FB7197F907301846FFF757FF00BFB2
:100960000837BD4680BD80B485B000AF78600023F5
:10097000FB737B6893F82130DBB2022B08D07B68D5
:1009800004229A637B68002283F82020012320E060
:100990007B681B681A687B681B6822F00E021A606D
:1009A0007B681B681A687B681B6822F001021A606A
:1009B0007B681A6C7B68DB6B012101FA02F25A60DA
:1009C0007B68012283F821207B68002283F82020A5
:1009D000FB7B18461437BD4680BC704780B584B099
:1009E00000AF78600023FB737B6893F82130DBB2A3
:1009F000022B05D07B6804229A630123FB7351E02C
:100A00007B681B681A687B681B6822F00E021A60FC
:100A10007B681B681A687B681B6822F001021A60F9
:100A20007B681B68224A934229D07B681B68214A55
:100A3000934222D07B681B681F4A93421AD07B687E
:100A40001B681E4A934212D07B681B681C4A934263
:100A50000AD07B681B681B4A934202D14FF4801373
:100A60000EE04FF080730BE04FF4803308E04FF45A
:100A7000805305E04FF4807302E0102300E001236F
:100A8000114A53607B68012283F821207B68002291
:100A900083F820207B685B6B002B03D07B685B6B4B
:100AA00078689847FB7B18461037BD4680BD00BF6D
:100AB000080002401C000240300002404400024096
:100AC000580002406C0002400000024080B48BB02D
:100AD00000AF7860396000237B6200233B6269E1EC
:100AE00001227B6A02FA03F3FB613B681B68FA6927
:100AF0001340BB61BA69FB699A4240F058813B6878
:100B00005B689A4A93425ED0984A934275D8984A55
:100B1000934258D0964A93426FD8964A934252D005
:100B2000944A934269D8944A93424CD0924A934251
:100B300063D8924A934246D0904A93425DD8122B92
:100B40002AD8122B59D801A252F823F0C70B00085B
:100B5000A10B0008B30B0008F50B0008FB0B000805
:100B6000FB0B0008FB0B0008FB0B0008FB0B00084D
:100B7000FB0B0008FB0B0008FB0B0008FB0B00083D
:100B8000FB0B0008FB0B0008FB0B0008FB0B00082D
:100B9000A90B0008BD0B0008794A934213D02CE042
:100BA0003B68DB683B6229E03B68DB6804333B62FF
:100BB00024E03B68DB6808333B621FE03B68DB688E
:100BC0000C333B621AE03B689B68002B02D1042384
:100BD0003B6213E03B689B68012B05D108233B6215
:100BE0007B68FA691A6109E008233B627B68FA694D
:100BF0005A6103E000233B6200E000BFBB69FF2BAA
:100C000001D87B6801E07B6804337B61BB69FF2B03
:100C100002D87B6A9B0002E07B6A083B9B003B6139
:100C20007B691A680F213B6901FA03F3DB431A4021
:100C3000396A3B6901FA03F31A437B691A603B681E
:100C40005B6803F08053002B00F0B1804D4B9B6933
:100C50004C4A43F0010393614A4B9B6903F0010343
:100C6000BB60BB68484A7B6A9B08023352F823305A
:100C7000FB607B6A03F003039B000F2202FA03F37D
:100C8000DB43FA681340FB607B68404A934213D011
:100C90007B683F4A93420DD07B683E4A934207D01F
:100CA0007B683D4A934201D1032306E0042304E01C
:100CB000022302E0012300E000237A6A02F003022B
:100CC00092009340FA681343FB602F497B6A9B08AC
:100CD0000233FA6841F823203B685B6803F4801311
:100CE000002B06D02D4B9A682C49BB6913438B60AF
:100CF00006E02A4B9A68BB69DB43284913408B60A6
:100D00003B685B6803F40013002B06D0234BDA68C2
:100D10002249BB691343CB6006E0204BDA68BB690C
:100D2000DB431E491340CB603B685B6803F4003330
:100D3000002B06D0194B5A681849BB6913434B6006
:100D400006E0164B5A68BB69DB43144913404B60FD
:100D50003B685B6803F48033002B21D00F4B1A688B
:100D60000E49BB6913430B6021E000BF0000321045
:100D700000003110000022100000211000001210AD
:100D80000000111000100240000001400008014066
:100D9000000C01400010014000140140000401401B
:100DA0000B4B1A68BB69DB43094913400B607B6A34
:100DB00001337B623B681A687B6A22FA03F3002BDB
:100DC0007FF48EAE00BF00BF2C37BD4680BC70479D
:100DD0000004014080B483B000AF78600B467B8094
:100DE00013467B707B78002B03D07A887B681A616E
:100DF00003E07B881A047B681A6100BF0C37BD468C
:100E000080BC704780B586B000AF78607B68002BEF
:100E100001D1012372E27B681B6803F00103002B00
:100E200000F08780924B5B6803F00C03042B0CD01E
:100E30008F4B5B6803F00C03082B12D18C4B5B6863
:100E400003F48033B3F5803F0BD1894B1B6803F467
:100E50000033002B6CD07B685B68002B68D10123CA
:100E60004CE27B685B68B3F5803F06D1804B1B6822
:100E70007F4A43F4803313602EE07B685B68002B6D
:100E80000CD17B4B1B687A4A23F480331360784B78
:100E90001B68774A23F4802313601DE07B685B683E
:100EA000B3F5A02F0CD1724B1B68714A43F4802319
:100EB00013606F4B1B686E4A43F4803313600BE082
:100EC0006B4B1B686A4A23F480331360684B1B68C2
:100ED000674A23F4802313607B685B68002B13D080
:100EE000FFF758FC386108E0FFF754FC02463B6905
:100EF000D31A642B01D9032300E25D4B1B6803F472
:100F00000033002BF0D014E0FFF744FC386108E018
:100F1000FFF740FC02463B69D31A642B01D9032337
:100F2000ECE1534B1B6803F40033002BF0D100E0DD
:100F300000BF7B681B6803F00203002B63D04C4B9F
:100F40005B6803F00C03002B0BD0494B5B6803F08C
:100F50000C03082B1CD1464B5B6803F48033002B39
:100F600016D1434B1B6803F00203002B05D07B68AE
:100F70001B69012B01D00123C0E13D4B1B6823F00D
:100F8000F8027B685B69DB00394913430B603AE088
:100F90007B681B69002B20D0364B01221A60FFF7BB
:100FA000F9FB386108E0FFF7F5FB02463B69D31A0D
:100FB000022B01D90323A1E12D4B1B6803F002038F
:100FC000002BF0D02A4B1B6823F0F8027B685B698A
:100FD000DB00274913430B6015E0264B00221A6003
:100FE000FFF7D8FB386108E0FFF7D4FB02463B6906
:100FF000D31A022B01D9032380E11D4B1B6803F098
:101000000203002BF0D17B681B6803F00803002B60
:101010003AD07B689B69002B19D0174B01221A60CC
:10102000FFF7B8FB386108E0FFF7B4FB02463B6905
:10103000D31A022B01D9032360E10D4B5B6A03F045
:101040000203002BF0D0012000F0FEFA1CE00A4B56
:1010500000221A60FFF79EFB38610FE0FFF79AFB52
:1010600002463B69D31A022B08D9032346E100BF8D
:10107000001002400000424280044242924B5B6AF0
:1010800003F00203002BE9D17B681B6803F0040323
:10109000002B00F0A6800023FB758B4BDB6903F06F
:1010A0008053002B0DD1884BDB69874A43F0805376
:1010B000D361854BDB6903F08053BB60BB680123C0
:1010C000FB75824B1B6803F48073002B18D17F4B98
:1010D0001B687E4A43F480731360FFF75BFB386143
:1010E00008E0FFF757FB02463B69D31A642B01D98E
:1010F000032303E1754B1B6803F48073002BF0D0CE
:101100007B68DB68012B06D16F4B1B6A6E4A43F08C
:10111000010313622DE07B68DB68002B0CD16A4B66
:101120001B6A694A23F001031362674B1B6A664A14
:1011300023F0040313621CE07B68DB68052B0CD1F1
:10114000614B1B6A604A43F0040313625E4B1B6AE7
:101150005D4A43F0010313620BE05B4B1B6A5A4A82
:1011600023F001031362584B1B6A574A23F0040310
:1011700013627B68DB68002B15D0FFF70BFB38612F
:101180000AE0FFF707FB02463B69D31A41F28832B7
:10119000934201D90323B1E04B4B1B6A03F00203D6
:1011A000002BEED014E0FFF7F5FA38610AE0FFF704
:1011B000F1FA02463B69D31A41F28832934201D9CF
:1011C00003239BE0404B1B6A03F00203002BEED18C
:1011D000FB7D012B05D13C4BDB693B4A23F080535F
:1011E000D3617B68DB69002B00F08780364B5B683E
:1011F00003F00C03082B61D07B68DB69022B46D11E
:10120000334B00221A60FFF7C5FA386108E0FFF798
:10121000C1FA02463B69D31A022B01D903236DE0C0
:10122000294B1B6803F00073002BF0D17B681B6A0D
:10123000B3F5803F08D1244B5B6823F400327B6810
:101240009B68214913434B601F4B5B6823F4741266
:101250007B68196A7B685B6A0B431B4913434B60CD
:101260001B4B01221A60FFF795FA386108E0FFF77F
:1012700091FA02463B69D31A022B01D903233DE0C0
:10128000114B1B6803F00073002BF0D035E0104BBE
:1012900000221A60FFF77EFA386108E0FFF77AFA59
:1012A00002463B69D31A022B01D9032326E0064BE1
:1012B0001B6803F00073002BF0D11EE07B68DB6934
:1012C000012B07D1012319E00010024000700040FB
:1012D000600042420B4B5B68FB60FB6803F48032AA
:1012E0007B681B6A9A4206D1FB6803F470127B6824
:1012F0005B6A9A4201D0012300E0002318461837A8
:10130000BD4680BD0010024080B584B000AF78605B
:1013100039607B68002B01D10123D0E06A4B1B6848
:1013200003F007033A689A4210D9674B1B6823F011
:10133000070265493B6813430B60634B1B6803F06E
:1013400007033A689A4201D00123B8E07B681B6822
:1013500003F00203002B20D07B681B6803F004031A
:10136000002B05D0594B5B68584A43F4E063536047
:101370007B681B6803F00803002B05D0534B5B68A8
:10138000524A43F460535360504B5B6823F0F002C1
:101390007B689B684D4913434B607B681B6803F077
:1013A0000103002B40D07B685B68012B07D1474BC2
:1013B0001B6803F40033002B15D101237FE07B6809
:1013C0005B68022B07D1414B1B6803F00073002BB5
:1013D00009D1012373E03D4B1B6803F00203002B8E
:1013E00001D101236BE0394B5B6823F003027B687A
:1013F0005B68364913434B60FFF7CCF9F8600AE0AD
:10140000FFF7C8F90246FB68D31A41F288329342CB
:1014100001D9032353E02D4B5B6803F00C027B687A
:101420005B689B009A42EBD1274B1B6803F00703D4
:101430003A689A4210D2244B1B6823F007022249D3
:101440003B6813430B60204B1B6803F007033A68AB
:101450009A4201D0012332E07B681B6803F0040349
:10146000002B08D0194B5B6823F4E0627B68DB68D3
:10147000164913434B607B681B6803F00803002B7D
:1014800009D0124B5B6823F460527B681B69DB0058
:101490000E4913434B6000F021F802460B4B5B688A
:1014A0001B0903F00F030A49CB5C22FA03F3094A34
:1014B0001360094B1B681846FFF76CF800231846A9
:1014C0001037BD4680BD00BF002002400010024022
:1014D000D0480008040000200800002080B487B035
:1014E00000AF0023FB600023BB6000237B6100236F
:1014F0007B6000233B611E4B5B68FB60FB6803F075
:101500000C03042B02D0082B03D027E0194B3B61BE
:1015100027E0FB689B0C03F00F03174AD35C7B604A
:10152000FB6803F48033002B10D0114B5B685B0C1D
:1015300003F00103114AD35CBB607B680D4A03FBD7
:1015400002F2BB68B2FBF3F37B6104E07B680C4AF8
:1015500002FB03F37B617B693B6102E0054B3B616E
:1015600000BF3B6918461C37BD4680BC704700BFB2
:101570000010024000127A00E8480008F84800080D
:1015800000093D0080B400AF024B1B681846BD4601
:1015900080BC70470400002080B500AFFFF7F2FF69
:1015A0000246054B5B681B0A03F007030349CB5C4B
:1015B00022FA03F3184680BD00100240E0480008FC
:1015C00080B500AFFFF7DEFF0246054B5B68DB0A24
:1015D00003F007030349CB5C22FA03F3184680BDEE
:1015E00000100240E048000880B483B000AF78608B
:1015F00039607B680F221A60114B5B6803F00302AD
:101600007B685A600E4B5B6803F0F0027B689A605F
:101610000B4B5B6803F4E0627B68DA60084B5B6845
:10162000DB0803F4E0627B681A61064B1B6803F079
:1016300007023B681A6000BF0C37BD4680BC70478C
:10164000001002400020024080B485B000AF7860F6
:101650000A4B1B680A4AA2FB03235B0A7A6802FB57
:1016600003F3FB6000BFFB685A1EFA60002BF9D140
:1016700000BF00BF1437BD4680BC70470400002087
:10168000D34D621080B582B000AF78607B68002BCC
:1016900001D1012341E07B6893F83D30DBB2002BA0
:1016A00006D17B68002283F83C20786800F039F886
:1016B0007B68022283F83D207B681A687B680433CC
:1016C0001946104600F09CF97B68012283F84620F9
:1016D0007B68012283F83E207B68012283F83F204B
:1016E0007B68012283F840207B68012283F8412037
:1016F0007B68012283F842207B68012283F8432023
:101700007B68012283F844207B68012283F845200E
:101710007B68012283F83D20002318460837BD4628
:1017200080BD80B483B000AF786000BF0C37BD4689
:1017300080BC704780B485B000AF78607B6893F858
:101740003D30DBB2012B01D001233AE07B6802225D
:1017500083F83D207B681B68DA687B681B6842F071
:101760000102DA607B681B68184A93420ED07B68DE
:101770001B68B3F1804F09D07B681B68144A934201
:1017800004D07B681B68134A934211D17B681B68A5
:101790009B6803F00703FB60FB68062B10D07B6897
:1017A0001B681A687B681B6842F001021A6007E038
:1017B0007B681B681A687B681B6842F001021A602C
:1017C000002318461437BD4680BC7047002C0140EA
:1017D000000400400008004080B584B000AF78608D
:1017E0007B681B68DB68FB607B681B681B69BB60F0
:1017F000BB6803F00203002B20D0FB6803F0020358
:10180000002B1BD07B681B686FF002021A617B689B
:1018100001221A777B681B689B6903F00303002B86
:1018200003D0786800F0D1F805E0786800F0C4F8DB
:10183000786800F0D3F87B6800221A77BB6803F061
:101840000403002B20D0FB6803F00403002B1BD003
:101850007B681B686FF004021A617B6802221A77AA
:101860007B681B689B6903F44073002B03D0786886
:1018700000F0ABF805E0786800F09EF8786800F0BA
:10188000ADF87B6800221A77BB6803F00803002BD1
:1018900020D0FB6803F00803002B1BD07B681B687B
:1018A0006FF008021A617B6804221A777B681B6854
:1018B000DB6903F00303002B03D0786800F085F8A0
:1018C00005E0786800F078F8786800F087F87B68C1
:1018D00000221A77BB6803F01003002B20D0FB68AE
:1018E00003F01003002B1BD07B681B686FF0100205
:1018F0001A617B6808221A777B681B68DB6903F42E
:101900004073002B03D0786800F05FF805E078683A
:1019100000F052F8786800F061F87B6800221A77CE
:10192000BB6803F00103002B0CD0FB6803F001033C
:10193000002B07D07B681B686FF001021A61786882
:10194000FEF78AFDBB6803F08003002B0CD0FB6818
:1019500003F08003002B07D07B681B686FF08002C8
:101960001A61786800F0C3F8BB6803F04003002BED
:101970000CD0FB6803F04003002B07D07B681B688A
:101980006FF040021A61786800F031F8BB6803F02C
:101990002003002B0CD0FB6803F02003002B07D0A2
:1019A0007B681B686FF020021A61786800F096F877
:1019B00000BF1037BD4680BD80B483B000AF7860F3
:1019C00000BF0C37BD4680BC704780B483B000AF09
:1019D000786000BF0C37BD4680BC704780B483B0D0
:1019E00000AF786000BF0C37BD4680BC704780B444
:1019F00083B000AF786000BF0C37BD4680BC704735
:101A000080B485B000AF786039607B681B68FB608C
:101A10007B682F4A93420BD07B68B3F1804F07D08D
:101A20007B682C4A934203D07B682B4A934208D1AF
:101A3000FB6823F07003FB603B685B68FA68134344
:101A4000FB607B68224A93420BD07B68B3F1804FE6
:101A500007D07B681F4A934203D07B681E4A93429B
:101A600008D1FB6823F44073FB603B68DB68FA68CD
:101A70001343FB60FB6823F080023B685B69134300
:101A8000FB607B68FA681A603B689A687B68DA6278
:101A90003B681A687B689A627B680D4A934203D15F
:101AA0003B681A697B681A637B6801225A617B680C
:101AB0001B6903F00103002B05D07B681B6923F031
:101AC00001027B681A6100BF1437BD4680BC7047B5
:101AD000002C0140000400400008004080B483B0A6
:101AE00000AF786000BF0C37BD4680BC704780B443
:101AF00083B000AF786000BF0C37BD4680BC704734
:101B000080B582B000AF78607B68002B01D10123E3
:101B100042E07B6893F84130DBB2002B06D17B6852
:101B2000002283F840207868FEF7E0FC7B682422DE
:101B300083F841207B681B68DA687B681B6822F4A5
:101B40000052DA60786800F063FD7B681B681A69F0
:101B50007B681B6822F490421A617B681B685A6993
:101B60007B681B6822F02A025A617B681B68DA686E
:101B70007B681B6842F40052DA607B6800225A647A
:101B80007B68202283F841207B68202283F8422052
:101B90007B6800225A63002318460837BD4680BD83
:101BA00080B58AB002AFF860B9603B601346FB8035
:101BB00000237B61FB6893F84130DBB2202B75D1A9
:101BC000BB68002B02D0FB88002B01D101236EE003
:101BD000FB6800225A64FB68212283F84120FEF74B
:101BE000D9FD7861FB68FA889A84FB68FA88DA8400
:101BF000FB689B68B3F5805F08D1FB681B69002B0D
:101C000004D10023FB61BB68BB6103E0BB68FB61DF
:101C10000023BB612EE03B6800937B69002280219A
:101C2000F86800F001FB0346002B05D0FB6820227A
:101C300083F8412003233AE0FB69002B0BD1BB69F9
:101C40001B881A46FB681B68C2F308025A60BB690E
:101C50000233BB6107E0FB691A78FB681B685A60B6
:101C6000FB690133FB61FB68DB8C9BB2013B9AB2E1
:101C7000FB68DA84FB68DB8C9BB2002BCBD13B6822
:101C800000937B6900224021F86800F0CDFA0346FA
:101C9000002B05D0FB68202283F84120032306E0B7
:101CA000FB68202283F84120002300E0022318462D
:101CB0002037BD4680BD000080B5BAB000AF786067
:101CC0007B681B681B68C7F8E4307B681B68DB68AF
:101CD000C7F8E0307B681B685B69C7F8DC3000231D
:101CE000C7F8D8300023C7F8D430D7F8E43003F071
:101CF0000F03C7F8D830D7F8D830002B0FD1D7F85A
:101D0000E43003F02003002B09D0D7F8E03003F0D3
:101D10002003002B03D0786800F0BCFB5BE2D7F80F
:101D2000D830002B00F0DE80D7F8DC3003F0010360
:101D3000002B06D1D7F8E03003F49073002B00F0AD
:101D4000D180D7F8E43003F00103002B0BD0D7F893
:101D5000E03003F48073002B05D07B685B6C43F0AC
:101D600001027B685A64D7F8E43003F00403002BC7
:101D70000BD0D7F8DC3003F00103002B05D07B68D3
:101D80005B6C43F002027B685A64D7F8E43003F0DE
:101D90000203002B0BD0D7F8DC3003F00103002B3B
:101DA00005D07B685B6C43F004027B685A64D7F80B
:101DB000E43003F00803002B11D0D7F8E03003F033
:101DC0002003002B05D1D7F8DC3003F00103002BF2
:101DD00005D07B685B6C43F008027B685A647B68C3
:101DE0005B6C002B00F0F281D7F8E43003F02003A5
:101DF000002B08D0D7F8E03003F02003002B02D0EE
:101E0000786800F047FB7B681B685B6903F0400360
:101E1000002B14BF01230023DBB2C7F8D4307B684A
:101E20005B6C03F00803002B03D1D7F8D430002BF0
:101E30004FD0786800F051FA7B681B685B6903F04B
:101E40004003002B41D07B681B681433C7F89C30DB
:101E5000D7F89C3053E8003FC7F89830D7F898304F
:101E600023F04003C7F8D0307B681B681433D7F8E1
:101E7000D020C7F8A820C7F8A430D7F8A410D7F806
:101E8000A82041E80023C7F8A030D7F8A030002BE5
:101E9000D9D17B68DB6B002B13D07B68DB6B7E4A70
:101EA0005A637B68DB6B1846FEF798FD0346002BF0
:101EB00016D07B68DB6B5B6B7A68D26B10469847F9
:101EC0000EE0786800F09CF90AE0786800F098F974
:101ED00006E0786800F094F97B6800225A6475E1A6
:101EE00000BF73E17B681B6B012B40F04F81D7F87B
:101EF000E43003F01003002B00F04881D7F8E03005
:101F000003F01003002B00F041810023BB607B68CD
:101F10001B681B68BB607B681B685B68BB60BB6839
:101F20007B681B685B6903F04003002B00F0B68000
:101F30007B68DB6B1B685B68A7F8BE30B7F8BE3008
:101F4000002B00F045817B689B8DB7F8BE209A423C
:101F500080F03E817B68B7F8BE20DA857B68DB6B5A
:101F60009B69202B00F088807B681B680C33C7F8C6
:101F70008830D7F8883053E8003FC7F88430D7F866
:101F8000843023F48073C7F8B8307B681B680C3347
:101F9000D7F8B820C7F89420C7F89030D7F8901039
:101FA000D7F8942041E80023C7F88C30D7F88C305C
:101FB000002BD9D17B681B6814337B677B6F53E898
:101FC000003F3B673B6F23F00103C7F8B4307B68E9
:101FD0001B681433D7F8B420C7F88020FB67F96F6B
:101FE000D7F8802041E80023BB67BB6F002BE1D10D
:101FF0007B681B6814333B663B6E53E8003FFB6510
:10200000FB6D23F04003C7F8B0307B681B681433C6
:10201000D7F8B020FA66BB66B96EFA6E41E80023C5
:102020007B667B6E002BE3D17B68202283F8422005
:102030007B6800221A637B681B680C33FB64FB6CB3
:1020400053E8003FBB64BB6C23F01003C7F8AC300F
:102050007B681B680C33D7F8AC20BA657B65796D5B
:10206000BA6D41E800233B653B6D002BE3D17B68F3
:10207000DB6B1846FEF777FC7B6802225A637B68AD
:102080009A8D7B68DB8D9BB2D31A9BB21946786818
:1020900000F0BFF89CE000BF9F2300087B689A8D8A
:1020A0007B68DB8D9BB2D31AA7F8CE307B68DB8DC3
:1020B0009BB2002B00F08E80B7F8CE30002B00F0E2
:1020C00089807B681B680C33BB63BB6B53E8003FA4
:1020D0007B637B6B23F49073C7F8C8307B681B6805
:1020E0000C33D7F8C8207A643B64396C7A6C41E8C9
:1020F0000023FB63FB6B002BE3D17B681B6814336D
:102100007B627B6A53E8003F3B623B6A23F001033A
:10211000C7F8C4307B681B681433D7F8C4203A630F
:10212000FB62F96A3A6B41E80023BB62BB6A002B91
:10213000E3D17B68202283F842207B6800221A6367
:102140007B681B680C333B613B6953E8003FFB60D5
:10215000FB6823F01003C7F8C0307B681B680C33A2
:10216000D7F8C020FA61BB61B969FA6941E8002378
:102170007B617B69002BE3D17B6802225A63B7F84D
:10218000CE301946786800F044F823E0D7F8E43000
:1021900003F08003002B09D0D7F8E03003F0800370
:1021A000002B03D0786800F00EF914E0D7F8E43083
:1021B00003F04003002B0ED0D7F8E03003F04003CB
:1021C000002B08D0786800F04DF904E000BF02E071
:1021D00000BF00E000BFE837BD4680BD80B483B0DB
:1021E00000AF786000BF0C37BD4680BC704780B43C
:1021F00083B000AF786000BF0C37BD4680BC70472D
:1022000080B483B000AF786000BF0C37BD4680BC9F
:10221000704780B483B000AF78600B467B8000BF0E
:102220000C37BD4680BC704780B586B000AFF86003
:10223000B9603B601346FB713BE03B6AB3F1FF3F83
:1022400037D0FEF7A7FA02463B68D31A3A6A9A4299
:1022500002D33B6A002B01D103233AE0FB681B68E1
:10226000DB6803F00403002B23D0BB68802B20D055
:10227000BB68402B1DD0FB681B681B6803F008037C
:10228000082B16D100237B61FB681B681B687B61F0
:10229000FB681B685B687B617B69F86800F01DF870
:1022A000FB6808225A64FB68002283F8402001235F
:1022B0000FE0FB681B681A68BB681340BA689A4253
:1022C0000CBF01230023DBB21A46FB799A42B4D03B
:1022D000002318461837BD4680BD80B495B000AFC6
:1022E00078607B681B680C337B637B6B53E8003F33
:1022F0003B633B6B23F49073FB647B681B680C337C
:10230000FA6C3A64FB63F96B3A6C41E80023BB63F7
:10231000BB6B002BE5D17B681B6814333B623B6AC7
:1023200053E8003FFB61FB6923F00103BB647B685A
:102330001B681433BA6CFA62BB62B96AFA6A41E884
:1023400000237B627B6A002BE5D17B681B6B012B32
:1023500019D17B681B680C33FB60FB6853E8003FB6
:10236000BB60BB6823F010037B647B681B680C3385
:102370007A6CBA617B617969BA6941E800233B6193
:102380003B69002BE5D17B68202283F842207B68E3
:1023900000221A6300BF5437BD4680BC704780B529
:1023A00084B000AF78607B685B6AFB60FB680022EA
:1023B000DA85FB680022DA84F868FFF721FF00BFA6
:1023C0001037BD4680BD80B485B000AF78607B68B3
:1023D00093F84130DBB2212B3ED17B689B68B3F58B
:1023E000805F14D17B681B69002B10D17B681B6A4E
:1023F000FB60FB681B881A467B681B68C2F30802F7
:102400005A607B681B6A9A1C7B681A6208E07B68CA
:102410001B6A591C7A6811621A787B681B685A60BB
:102420007B68DB8C9BB2013B9BB27A681946D184F6
:10243000002B0FD17B681B68DA687B681B6822F071
:102440008002DA607B681B68DA687B681B6842F090
:102450004002DA60002300E0022318461437BD462C
:1024600080BC704780B582B000AF78607B681B6825
:10247000DA687B681B6822F04002DA607B68202201
:1024800083F841207868FFF7A9FE00231846083733
:10249000BD4680BD80B58CB000AF78607B6893F896
:1024A0004230DBB2222B40F0AE807B689B68B3F5F4
:1024B000805F17D17B681B69002B13D10023FB625F
:1024C0007B689B6ABB627B681B685B689BB2C3F3DB
:1024D00008039AB2BB6A1A807B689B6A9A1C7B6865
:1024E0009A6226E07B689B6AFB620023BB627B6882
:1024F0009B68B3F5805F07D07B689B68002B0AD18F
:102500007B681B69002B06D17B681B685B68DAB2AD
:10251000FB6A1A7008E07B681B685B68DBB203F03B
:102520007F03DAB2FB6A1A707B689B6A5A1C7B686D
:102530009A627B68DB8D9BB2013B9BB27A6819463D
:10254000D185002B5DD17B681B68DA687B681B68CE
:1025500022F02002DA607B681B68DA687B681B68FF
:1025600022F48072DA607B681B685A697B681B689A
:1025700022F001025A617B68202283F842207B68A6
:1025800000225A637B681B6B012B35D17B680022CC
:102590001A637B681B680C337B617B6953E8003FDF
:1025A0003B613B6923F010037B627B681B680C3343
:1025B0007A6A3A62FB61F9693A6A41E80023BB61D1
:1025C000BB69002BE5D17B681B681B6803F0100317
:1025D000102B0AD10023FB607B681B681B68FB6023
:1025E0007B681B685B68FB60FB687B689B8D19469A
:1025F0007868FFF70EFE02E07868FFF7F8FD002329
:1026000002E0002300E0022318463037BD4680BDBB
:1026100080B584B000AF78607B681B681B6923F4C9
:1026200040517B68DA687B681B680A431A617B68E3
:102630009A687B681B691A437B685B691343BB60BC
:102640007B681B68DB6823F4B05323F00C037A68C3
:102650001268B9680B43D3607B681B685B6923F41D
:1026600040717B689A697B681B680A435A617B6882
:102670001B682C4A934203D1FEF7A2FFF86002E0E8
:10268000FEF78AFFF860FA6813469B0013449A002D
:102690001A447B685B689B00B2FBF3F3224AA2FBFF
:1026A00003235B091901FA6813469B0013449A003F
:1026B0001A447B685B689B00B2FBF3F21A4BA3FBE6
:1026C00002035B09642000FB03F3D31A1B013233BE
:1026D000154AA2FB03235B0903F0F0031944FA68CF
:1026E00013469B0013449A001A447B685B689B0066
:1026F000B2FBF3F20C4BA3FB02035B09642000FB6B
:1027000003F3D31A1B013233074AA2FB03235B09ED
:1027100003F00F027B681B680A449A6000BF103701
:10272000BD4680BD003801401F85EB5180B483B0A9
:1027300000AF78607B6803F108027B685A607B68B1
:102740004FF0FF329A607B6803F108027B68DA6021
:102750007B6803F108027B681A617B6800221A60BB
:1027600000BF0C37BD4680BC704780B483B000AF5B
:1027700078607B6800221A6100BF0C37BD4680BCC0
:10278000704780B485B000AF786039607B685B6863
:10279000FB603B68FA685A60FB689A683B689A601D
:1027A000FB689B683A685A60FB683A689A603B68C5
:1027B0007A681A617B681B685A1C7B681A6000BFC4
:1027C0001437BD4680BC704780B485B000AF7860D8
:1027D00039603B681B68BB60BB68B3F1FF3F03D146
:1027E0007B681B69FB600CE07B680833FB6002E0E0
:1027F000FB685B68FB60FB685B681B68BA689A42B1
:10280000F6D2FB685A683B685A603B685B683A6876
:102810009A603B68FA689A60FB683A685A603B685D
:102820007A681A617B681B685A1C7B681A6000BF53
:102830001437BD4680BC704780B485B000AF786067
:102840007B681B69FB607B685B687A6892689A604A
:102850007B689B687A6852685A60FB685B687A6834
:102860009A4203D17B689A68FB685A607B680022B1
:102870001A61FB681B685A1EFB681A60FB681B68BC
:1028800018461437BD4680BC7047000080B584B040
:1028900000AF786039607B68FB60FB68002B0BD170
:1028A0004FF0500383F31188BFF36F8FBFF34F8F47
:1028B000BB6000BF00BFFDE701F040FCFB681A6889
:1028C000FB68DB6BF968096C01FB03F31A44FB68D6
:1028D0009A60FB6800229A63FB681A68FB685A607A
:1028E000FB681A68FB68DB6B013BF968096C01FB4C
:1028F00003F31A44FB68DA60FB68FF2283F8442084
:10290000FB68FF2283F845203B68002B14D1FB684D
:102910001B69002B1AD0FB681033184600F062FFC9
:102920000346002B12D00D4B4FF080521A60BFF3BC
:102930004F8FBFF36F8F09E0FB6810331846FFF726
:10294000F5FEFB6824331846FFF7F0FE01F026FC85
:10295000012318461037BD4680BD00BF04ED00E0DE
:1029600080B58CB002AFF860B9601346FB71FB68AC
:10297000002B0BD14FF0500383F31188BFF36F8FFF
:10298000BFF34F8FBB6100BF00BFFDE7FB68BA68B4
:1029900002FB03F37B62BB68002B06D07A6ABB683C
:1029A000B2FBF3F3FA689A4201D1012300E000235D
:1029B000002B0BD14FF0500383F31188BFF36F8FBF
:1029C000BFF34F8F7B6100BF00BFFDE77B6A13F150
:1029D000490F0BD94FF0500383F31188BFF36F8F6A
:1029E000BFF34F8F3B6100BF00BFFDE77B6A4833F9
:1029F000184601F065FC38623B6A002B0DD03B6A3B
:102A0000FB61FB694833FB61FA793B6A009313462B
:102A1000FA69B968F86800F005F83B6A1846283783
:102A2000BD4680BD80B584B000AFF860B9607A6003
:102A3000FB70BB68002B03D1BB69BA691A6002E066
:102A4000BB697A681A60BB69FA68DA63BB69BA68FD
:102A50001A640121B869FFF719FF00BF1037BD469E
:102A600080BD000080B58EB000AFF860B9607A60BC
:102A70003B6000237B63FB683B633B6B002B0BD10C
:102A80004FF0500383F31188BFF36F8FBFF34F8F65
:102A9000BB6200BF00BFFDE7BB68002B03D13B6BEF
:102AA0001B6C002B01D1012300E00023002B0BD174
:102AB0004FF0500383F31188BFF36F8FBFF34F8F35
:102AC0007B6200BF00BFFDE73B68022B03D13B6B7D
:102AD000DB6B012B01D1012300E00023002B0BD184
:102AE0004FF0500383F31188BFF36F8FBFF34F8F05
:102AF0003B6200BF00BFFDE701F018F80346002B62
:102B000002D17B68002B01D1012300E00023002BC0
:102B10000BD14FF0500383F31188BFF36F8FBFF3D6
:102B20004F8FFB6100BF00BFFDE701F007FB3B6B70
:102B30009A6B3B6BDB6B9A4202D33B68022B29D129
:102B40003A68B968386B00F071F9F8623B6B5B6A00
:102B5000002B10D03B6B2433184600F043FE034695
:102B6000002B13D03F4B4FF080521A60BFF34F8FB2
:102B7000BFF36F8F0AE0FB6A002B07D0394B4FF091
:102B800080521A60BFF34F8FBFF36F8F01F006FBC7
:102B9000012363E07B68002B03D101F0FFFA0023DF
:102BA0005CE07B6B002B06D107F11403184600F0A4
:102BB0007DFE01237B6301F0F1FA00F025FC01F0BA
:102BC000BDFA3B6B93F844305BB2B3F1FF3F03D1E6
:102BD0003B6B002283F844203B6B93F845305BB29B
:102BE000B3F1FF3F03D13B6B002283F8452001F096
:102BF000D5FA3A1D07F114031146184600F06CFE91
:102C00000346002B24D1386B00F008FA0346002B52
:102C100018D03B6B10337A681146184600F0BCFDA3
:102C2000386B00F093F900F0FDFB0346002B7FF4B6
:102C30007CAF0C4B4FF080521A60BFF34F8FBFF345
:102C40006F8F72E7386B00F081F900F0EBFB6CE7F7
:102C5000386B00F07BF900F0E5FB002318463837AD
:102C6000BD4680BD04ED00E080B58CB000AFF860DB
:102C7000B9607A600023FB62FB68BB62BB6A002B11
:102C80000BD14FF0500383F31188BFF36F8FBFF365
:102C90004F8F3B6200BF00BFFDE7BB68002B03D135
:102CA000BB6A1B6C002B01D1012300E00023002B29
:102CB0000BD14FF0500383F31188BFF36F8FBFF335
:102CC0004F8FFB6100BF00BFFDE700F02FFF034601
:102CD000002B02D17B68002B01D1012300E00023EF
:102CE000002B0BD14FF0500383F31188BFF36F8F8C
:102CF000BFF34F8FBB6100BF00BFFDE701F01EFABD
:102D0000BB6A9B6B7B627B6A002B1FD0B968B86A79
:102D100000F0F6F87B6A5A1EBB6A9A63BB6A1B69AD
:102D2000002B0FD0BB6A1033184600F05BFD034642
:102D3000002B07D03C4B4FF080521A60BFF34F8FEF
:102D4000BFF36F8F01F02AFA012369E07B68002B43
:102D500003D101F023FA002362E0FB6A002B06D1C5
:102D600007F11003184600F0A1FD0123FB6201F0FA
:102D700015FA00F049FB01F0E1F9BB6A93F8443021
:102D80005BB2B3F1FF3F03D1BB6A002283F844205A
:102D9000BB6A93F845305BB2B3F1FF3F03D1BB6A26
:102DA000002283F8452001F0F9F93A1D07F11003DC
:102DB0001146184600F090FD0346002B23D1B86A57
:102DC00000F016F90346002B17D0BB6A24337A684B
:102DD0001146184600F0E0FCB86A00F0B7F800F0C1
:102DE00021FB0346002B89D10F4B4FF080521A6014
:102DF000BFF34F8FBFF36F8F80E7B86A00F0A6F87C
:102E000000F010FB7AE7B86A00F0A0F800F00AFBC7
:102E1000B86A00F0EDF80346002B3FF46FAF0023D3
:102E200018463037BD4680BD04ED00E080B586B061
:102E300000AFF860B9607A6000237B61FB689B6B30
:102E40003B61FB681B6C002B0DD1FB681B68002BE2
:102E50004DD1FB689B68184600F086FE7861FB68E0
:102E600000229A6043E07B68002B19D1FB68586808
:102E7000FB681B6C1A46B96801F0AEFCFB685A6827
:102E8000FB681B6C1A44FB685A60FB685A68FB6855
:102E90009B689A422BD3FB681A68FB685A6026E04D
:102EA000FB68D868FB681B6C1A46B96801F094FC93
:102EB000FB68DA68FB681B6C5B421A44FB68DA60EB
:102EC000FB68DA68FB681B689A4207D2FB689A685D
:102ED000FB681B6C5B421A44FB68DA607B68022B60
:102EE00005D13B69002B02D03B69013B3B613B694B
:102EF0005A1CFB689A637B6918461837BD4680BD2B
:102F000080B582B000AF786039607B681B6C002BA5
:102F100018D07B68DA687B681B6C1A447B68DA60BF
:102F20007B68DA687B689B689A4203D37B681A687F
:102F30007B68DA607B68D9687B681B6C1A463868E6
:102F400001F04AFC00BF0837BD4680BD80B584B0A3
:102F500000AF786001F0F2F87B6893F84530FB73BE
:102F600011E07B685B6A002B12D07B682433184623
:102F700000F038FC0346002B01D000F015FDFB7B70
:102F8000013BDBB2FB7397F90F30002BE9DC00E06B
:102F900000BF7B68FF2283F8452001F0FFF801F0B5
:102FA000CDF87B6893F84430BB7311E07B681B69F4
:102FB000002B12D07B681033184600F013FC034638
:102FC000002B01D000F0F0FCBB7B013BDBB2BB73FC
:102FD00097F90E30002BE9DC00E000BF7B68FF2290
:102FE00083F8442001F0DAF800BF1037BD4680BDF9
:102FF00080B584B000AF786001F0A0F87B689B6B6F
:10300000002B02D10123FB6001E00023FB6001F0F3
:10301000C5F8FB6818461037BD4680BD80B584B042
:1030200000AF786001F08AF87B689A6B7B68DB6B95
:103030009A4202D10123FB6001E00023FB6001F012
:10304000ADF8FB6818461037BD4680BD80B58CB022
:1030500004AFF860B9603B601346FB80FB889B00BF
:10306000184601F02DF978617B69002B0ED0A02065
:1030700001F026F9F861FB69002B03D0FB697A693E
:103080001A6305E0786901F0FDF901E00023FB61B6
:10309000FB69002B13D0FA8800230393FB6902938A
:1030A000FB6A0193BB6A00933B68B968F86800F05B
:1030B0000FF8F86900F0B2F80123BB6102E04FF0AD
:1030C000FF33BB61BB6918462037BD4680BD000099
:1030D00080B588B000AFF860B9607A603B603B6B48
:1030E0001A6B7B6803F18043013B9B001344BB6177
:1030F000BB6923F00703BB61BB6903F00703002B27
:103100000BD04FF0500383F31188BFF36F8FBFF3E1
:103110004F8F7B6100BF00BFFDE7BB68002B1FD056
:103120000023FB6112E0BA68FB69134419783A6B1B
:10313000FB69134434330A461A70BA68FB691344B6
:103140001B78002B06D0FB690133FB61FB690F2B59
:10315000E9D900E000BF3B6B002283F8432003E085
:103160003B6B002283F83420BB6A062B01D906236F
:10317000BB623B6BBA6ADA623B6BBA6A5A643B6BFE
:1031800000229A643B6B04331846FFF7EEFA3B6B60
:1031900018331846FFF7E9FA3B6B3A6B1A61BB6AC2
:1031A000C3F107023B6B9A613B6B3A6B5A623B6B14
:1031B000983304220021184601F082FA3B6B9C33BD
:1031C00001220021184601F07BFA3B6B4C334C2264
:1031D0000021184601F074FA3B6B0D4A1A653B6BEF
:1031E0000C4A5A653B6B0C4A9A653A68F968B869AB
:1031F00000F000FF02463B6B1A60FB6A002B02D016
:10320000FB6A3A6B1A6000BF2037BD4680BD00BF25
:103210006C0E0020D40E00203C0F002080B582B040
:1032200000AF786000F08AFF2A4B1B680133294AFF
:103230001360294B1B68002B09D1274A7B68136058
:10324000244B1B68012B10D100F0D2FB0DE0234B67
:103250001B68002B09D1204B1B68DA6A7B68DB6A8C
:103260009A4202D81C4A7B6813601D4B1B680133CD
:103270001B4A13607B68DB6A01229A40194B1B686A
:103280001343184A13607B68DA6A13469B001344A1
:103290009B00154A1A447B68043319461046FFF711
:1032A00070FA00F07BFF0D4B1B68002B0ED00A4B11
:1032B0001B68DA6A7B68DB6A9A4207D20B4B4FF0D5
:1032C00080521A60BFF34F8FBFF36F8F00BF083774
:1032D000BD4680BD20020020200100202C020020DD
:1032E0003C020020280200202401002004ED00E020
:1032F00080B584B000AF78600023FB607B68002B52
:1033000018D0144B1B68002B0BD04FF0500383F3E5
:103310001188BFF36F8FBFF34F8FBB6000BF00BF3B
:10332000FDE700F071F80021786800F0FDFD00F085
:1033300079F8F860FB68002B07D1074B4FF08052FB
:103340001A60BFF34F8FBFF36F8F00BF1037BD46BA
:1033500080BD00BF4802002004ED00E080B586B0CB
:1033600002AF204B019300230093002380221E49CB
:103370001E48FFF76BFEF860FB68012B1BD14FF076
:10338000500383F31188BFF36F8FBFF34F8FBB6080
:1033900000BF174B1B684C33164A1360164B4FF097
:1033A000FF321A60154B01221A60154B00221A6079
:1033B00000F0A4FE0FE0FB68B3F1FF3F0BD14FF02C
:1033C000500383F31188BFF36F8FBFF34F8F7B6080
:1033D00000BF00BFFDE70B4B1B6800BF1037BD46A9
:1033E00080BD00BF44020020C8480008C139000861
:1033F0002001002014000020400200202C020020A8
:1034000024020020FC48000880B400AF044B1B6875
:103410000133034A136000BFBD4680BC704700BF44
:103420004802002080B584B000AF0023FB60002379
:10343000BB60424B1B68002B0BD14FF0500383F352
:103440001188BFF36F8FBFF34F8F3B6000BF00BF8A
:10345000FDE700F073FE394B1B68013B374A1360F0
:10346000364B1B68002B61D1354B1B68002B5DD0A0
:103470002EE0344BDB68DB68FB60FB6818331846D2
:10348000FFF7DAF9FB6804331846FFF7D5F9FB6854
:10349000DB6A01229A402C4B1B6813432A4A1360B3
:1034A000FB68DA6A13469B0013449B00274A1A44C0
:1034B000FB68043319461046FFF763F9FB68DA6AC4
:1034C000234B1B68DB6A9A4202D3224B01221A600B
:1034D0001C4B1B68002BCCD1FB68002B01D000F0EB
:1034E0000BFB1D4B1B687B607B68002B10D000F032
:1034F00037F80346002B02D0164B01221A607B6876
:10350000013B7B607B68002BF1D1134B00221A60DA
:10351000104B1B68002B09D00123BB600F4B4FF0F1
:1035200080521A60BFF34F8FBFF36F8F00F036FEEB
:10353000BB6818461037BD4680BD00BF480200205A
:1035400020020020E00100202802002024010020A9
:1035500020010020340200203002002004ED00E0B1
:1035600080B586B000AF00237B614F4B1B68002BFA
:1035700040F08F804D4B1B6801333B614B4A3B69E8
:1035800013603B69002B21D1494B1B681B68002B42
:103590000BD04FF0500383F31188BFF36F8FBFF34D
:1035A0004F8F3B6000BF00BFFDE7414B1B68FB60D6
:1035B000404B1B683E4A13603E4AFB6813603E4B1B
:1035C0001B6801333C4A136000F096FA3B4B1B68C2
:1035D0003A699A4248D3364B1B681B68002B04D1CA
:1035E000364B4FF0FF321A603EE0314B1B68DB6810
:1035F000DB68BB60BB685B687B603A697B689A424A
:1036000003D22E4A7B6813602EE0BB680433184651
:10361000FFF712F9BB689B6A002B04D0BB68183314
:103620001846FFF709F9BB68DB6A01229A40244B70
:103630001B681343224A1360BB68DA6A13469B0077
:1036400013449B001F4A1A44BB68043319461046B2
:10365000FFF797F8BB68DA6A1B4B1B68DB6A9A4274
:10366000B9D301237B61B6E7174B1B68DA6A1549AA
:1036700013469B0013449B000B441B68012B01D98C
:1036800001237B61114B1B68002B07D001237B6159
:1036900004E00F4B1B6801330D4A13607B69184629
:1036A0001837BD4680BD00BF48020020240200201C
:1036B000D8010020DC010020380200204002002058
:1036C00028020020240100202001002034020020D4
:1036D0003002002080B487B000AF294B1B68002B5C
:1036E00003D0284B01221A6045E0264B00221A60C5
:1036F000254B1B68FB60FB68B3FA83F3FB72FB7A14
:10370000C3F11F037B6121497A6913469B0013446F
:103710009B000B441B68002B0BD14FF0500383F32D
:103720001188BFF36F8FBFF34F8F7B6000BF00BF67
:10373000FDE77A6913469B0013449B00134A134428
:103740003B613B695B685A683B695A603B695A68F0
:103750003B6908339A4204D13B695B685A683B690C
:103760005A603B695B68DB68094A1360084B1B6859
:103770004C33084A136000BF1C37BD4680BC7047FD
:1037800048020020340200202802002024010020EA
:10379000200100201400002080B584B000AF7860C4
:1037A00039607B68002B0BD14FF0500383F31188F5
:1037B000BFF36F8FBFF34F8FFB6000BF00BFFDE70C
:1037C000074B1B68183319467868FEF7FDFF012187
:1037D000386800F0A9FB00BF1037BD4680BD00BFB0
:1037E0002001002080B586B000AF78607B68DB6880
:1037F000DB683B613B69002B0BD14FF0500383F337
:103800001188BFF36F8FBFF34F8FFB6000BF00BF06
:10381000FDE73B6918331846FFF70EF81D4B1B6890
:10382000002B1CD13B6904331846FFF705F83B69B0
:10383000DB6A01229A40184B1B681343164A136037
:103840003B69DA6A13469B0013449B00134A1A44EF
:103850003B69043319461046FEF793FF05E03B69C8
:10386000183319460E48FEF78CFF3B69DA6A0D4B98
:103870001B68DB6A9A4205D901237B610A4B01224E
:103880001A6001E000237B617B6918461837BD464A
:1038900080BD00BF48020020280200202401002033
:1038A000E0010020200100203402002080B483B019
:1038B00000AF7860064B1A687B681A60054B1A687F
:1038C0007B685A6000BF0C37BD4680BC704700BFA4
:1038D000380200202402002080B588B000AF786054
:1038E00039607B68002B0BD14FF0500383F31188B4
:1038F000BFF36F8FBFF34F8F3B6100BF00BFFDE78A
:103900003B68002B0BD14FF0500383F31188BFF3BA
:103910006F8FBFF34F8FFB6000BF00BFFDE700F06C
:103920000DFC1F4B1B68BB617B685B68BA69D31ACF
:103930007B613B681B68B3F1FF3F02D10023FB6151
:1039400026E07B681A68174B1B689A420AD07B688E
:103950005B68BA699A4205D30123FB613B68002288
:103960001A6015E03B681B687A699A420BD23B6883
:103970001A687B69D21A3B681A607868FFF796FF6D
:103980000023FB6104E03B6800221A600123FB6115
:1039900000F004FCFB6918462037BD4680BD00BF1F
:1039A000240200203802002080B400AF034B012223
:1039B0001A6000BFBD4680BC704700BF34020020C3
:1039C00080B582B000AF786000F052F8064B1B68FB
:1039D000012BF9D9054B4FF080521A60BFF34F8F7E
:1039E000BFF36F8FF0E700BF2401002004ED00E07B
:1039F00080B582B000AF00237B600CE07A6813468C
:103A00009B0013449B00124A13441846FEF78EFE97
:103A10007B6801337B607B68062BEFD90D48FEF78E
:103A200085FE0D48FEF782FE0C48FEF77FFE0C482F
:103A3000FEF77CFE0B48FEF779FE0B4B054A1A6039
:103A40000A4B054A1A6000BF0837BD4680BD00BF5B
:103A500024010020B0010020C4010020E00100206A
:103A6000F40100200C020020D8010020DC0100201D
:103A700080B582B000AF19E000F060FB104BDB684E
:103A8000DB687B607B6804331846FEF7D5FE0D4B80
:103A90001B68013B0B4A13600B4B1B68013B0A4A36
:103AA000136000F07BFB786800F010F8064B1B6891
:103AB000002BE1D100BF00BF0837BD4680BD00BF6D
:103AC000F4010020200200200802002080B582B00E
:103AD00000AF78607B684C33184600F0F9FD7B68D6
:103AE0001B6B184600F0CEFC786800F0CBFC00BFE2
:103AF0000837BD4680BD000080B400AF094B1B688D
:103B00001B68002B04D1084B4FF0FF321A6005E010
:103B1000044B1B68DB681B68034A136000BFBD468B
:103B200080BC7047D80100204002002080B483B0E0
:103B300000AF0B4B1B68002B02D101237B6008E018
:103B4000084B1B68002B02D102237B6001E000239D
:103B50007B607B6818460C37BD4680BC704700BF51
:103B60002C0200204802002080B586B000AF7860AB
:103B70007B683B6100237B617B68002B65D0354B04
:103B80001B683A699A420BD04FF0500383F31188B7
:103B9000BFF36F8FBFF34F8FFB6000BF00BFFDE728
:103BA0003B699B6C002B0BD14FF0500383F31188C2
:103BB000BFF36F8FBFF34F8FBB6000BF00BFFDE748
:103BC0003B699B6C5A1E3B699A643B69DA6A3B69A4
:103BD0005B6C9A4239D03B699B6C002B35D13B69B9
:103BE00004331846FEF728FE0346002B0AD13B6932
:103BF000DB6A012202FA03F3DA43174B1B68134016
:103C0000154A13603B695A6C3B69DA623B69DB6AAF
:103C1000C3F107023B699A613B69DB6A01229A4062
:103C20000D4B1B6813430C4A13603B69DA6A134659
:103C30009B0013449B00094A1A443B69043319460C
:103C40001046FEF79EFD01237B617B6918461837FD
:103C5000BD4680BD20010020280200202401002054
:103C600080B586B000AFF860B9607A603B60FB68F1
:103C7000002B0BD04FF0500383F31188BFF36F8FED
:103C8000BFF34F8F3B6100BF00BFFDE700F056FA66
:103C9000314B1A68FB6813449C331B78DBB2022B50
:103CA00022D02D4B1B68FA68263253F82210BA68CE
:103CB000D2431140FA68263243F82210264B1A6884
:103CC000FB6813449C3301221A703B6A002B0BD013
:103CD0000121386A00F028F9204B4FF080521A6019
:103CE000BFF34F8FBFF36F8F00F058FA00F026FA42
:103CF0003B68002B07D0184B1B68FA68263253F834
:103D000022203B681A60144B1A68FB6813449C33EA
:103D10001B78DBB2022B02D000237B610EE00E4B3E
:103D20001B68FA68263253F822107A68D243114091
:103D3000FA68263243F8221001237B61064B1A6889
:103D4000FB6813449C3300221A7000F027FA7B6949
:103D500018461837BD4680BD2001002004ED00E064
:103D600080B58CB000AFF860B9607A60FB70012359
:103D7000FB62BB68002B0BD04FF0500383F311881C
:103D8000BFF36F8FBFF34F8F3B6200BF00BFFDE7F4
:103D9000FB68002B0BD14FF0500383F31188BFF366
:103DA0006F8FBFF34F8FFB6100BF00BFFDE7FB6864
:103DB000BB6200F0C3F9BB6B002B06D0BB6ABA68CC
:103DC000263253F82220BB6B1A60BA6ABB681344D0
:103DD0009C331B7887F82730BA6ABB6813449C333E
:103DE00002221A70FB78042B3BD801A252F823F070
:103DF000833E0008053E0008213E0008393E0008C9
:103E0000473E0008BB6ABA68263253F822207B6816
:103E100042EA0301BB6ABA68263243F8221033E053
:103E2000BB6ABA68263253F82230591CBB6ABA689A
:103E3000263243F8221027E0BB6ABA682632796836
:103E400043F8221020E097F82730022B06D0BB6AF7
:103E5000BA682632796843F8221015E00023FB6225
:103E600012E02C4B1B68002B0DD04FF0500383F356
:103E70001188BFF36F8FBFF34F8FBB6100BF00BFCF
:103E8000FDE700BF00E000BF97F82730012B3AD1D3
:103E9000BB6A04331846FEF7CFFCBB6ADB6A01221B
:103EA0009A401D4B1B6813431B4A1360BB6ADA6AB6
:103EB00013469B0013449B00184A1A44BB6A043300
:103EC00019461046FEF75DFCBB6A9B6A002B0BD0BF
:103ED0004FF0500383F31188BFF36F8FBFF34F8F01
:103EE0007B6100BF00BFFDE7BB6ADA6A0C4B1B6851
:103EF000DB6A9A4207D90B4B4FF080521A60BFF32E
:103F00004F8FBFF36F8F00F049F9FB6A18463037C7
:103F1000BD4680BD2402002028020020240100208C
:103F20002001002004ED00E080B584B000AF78608F
:103F30003960294B1B68FB60284B1B68043318460B
:103F4000FEF77AFC0346002B0BD1244B1B68DB6A7F
:103F5000012202FA03F3DA43214B1B681340204A83
:103F600013607B68B3F1FF3F0AD13B68002B07D099
:103F70001A4B1B68043319461A48FEF702FC26E068
:103F8000FA687B681344BB60144B1B68BA685A60BC
:103F9000BA68FB689A4209D2134B1A680F4B1B6828
:103FA000043319461046FEF70FFC10E00F4B1A6859
:103FB0000A4B1B68043319461046FEF705FC0C4BF0
:103FC0001B68BA689A4202D2094ABB68136000BFF4
:103FD0001037BD4680BD00BF240200202001002014
:103FE000280200200C020020DC010020D801002063
:103FF0004002002080B485B000AFF860B9607A60FC
:10400000FB68043BFB60FB684FF080721A60FB6842
:10401000043BFB60BB6823F00102FB681A60FB688D
:10402000043BFB60084AFB681A60FB68143BFB60BA
:104030007A68FB681A60FB68203BFB60FB681846E7
:104040001437BD4680BC70474D40000880B485B031
:1040500000AF00237B60124B1B68B3F1FF3F0BD016
:104060004FF0500383F31188BFF36F8FBFF34F8F6F
:10407000FB6000BF00BFFDE74FF0500383F31188E2
:10408000BFF36F8FBFF34F8FBB6000BF00BF7B6874
:10409000002BFCD000BF00BF1437BD4680BC70476A
:1040A00010000020000000000000000000000000E0
:1040B000074B19680868B0E8F00F80F30988BFF370
:1040C0006F8F4FF0000080F311884EF00D0E704797
:1040D0002001002000BF00BF06480068006880F390
:1040E000088862B661B6BFF34F8FBFF36F8F00DFF2
:1040F00000BF000008ED00E000BF00BF80B500AFCA
:104100000C4B1B680B4A43F470031360094B1B688C
:10411000084A43F07043136000F0B0F8064B0022E9
:104120001A60FFF7D9FFFFF7D5FAFFF78FFF0023DB
:10413000184680BD20ED00E01000002080B483B060
:1041400000AF4FF0500383F31188BFF36F8FBFF3BD
:104150004F8F7B6000BF0F4B1B6801330D4A13600C
:104160000C4B1B68012B10D10B4B1B68DBB2002BD7
:104170000BD04FF0500383F31188BFF36F8FBFF361
:104180004F8F3B6000BF00BFFDE700BF0C37BD464F
:1041900080BC70471000002004ED00E080B483B0C4
:1041A00000AF124B1B68002B0BD14FF0500383F371
:1041B0001188BFF36F8FBFF34F8F7B6000BF00BFCD
:1041C000FDE70A4B1B68013B084A1360074B1B685D
:1041D000002B05D100233B603B6883F3118800BFAF
:1041E00000BF0C37BD4680BC704700BF10000020E8
:1041F000EFF30980BFF36F8F0D4B1A6820E9F00FC2
:1042000010602DE908404FF0500080F31188FFF74F
:1042100061FA4FF0000080F31188BDE8084019688A
:104220000868B0E8F00F80F30988BFF36F8F70471C
:104230002001002000BF00BF80B582B000AF4FF06A
:10424000500383F31188BFF36F8FBFF34F8F7B60F1
:1042500000BFFFF785F90346002B03D0064B4FF054
:1042600080521A6000233B603B6883F3118800BFD3
:1042700000BF0837BD4680BD04ED00E080B400AF4C
:104280000A4B00221A600A4B00221A60094B1B6875
:10429000094AA2FB03239B09084A013B1360034B15
:1042A00007221A6000BFBD4680BC704710E000E0E6
:1042B00018E000E004000020D34D621014E000E09C
:1042C00080B58AB000AF78600023FB61FFF79CF8EF
:1042D000664B1B68002B01D100F038F9644B1A685B
:1042E0007B681340002B40F0A9807B68002B2ED008
:1042F00008227B6813447A689A4228D208227B6895
:1043000013447B607B6803F00703002B22D07B689B
:1043100023F0070308337A689A4215D27B6823F0AA
:10432000070308337B607B6803F00703002B11D081
:104330004FF0500383F31188BFF36F8FBFF34F8F9C
:104340007B6100BF00BFFDE700237B6002E000232C
:104350007B6000E000BF7B68002B6FD0454B1B6883
:104360007A689A426AD8444B3B62434B1B687B6233
:1043700004E07B6A3B627B6A1B687B627B6A5B68EA
:104380007A689A4203D97B6A1B68002BF1D1374BBC
:104390001B687A6A9A4251D03B6A1B680822134410
:1043A000FB617B6A1A683B6A1A607B6A5A687B68A1
:1043B000D21A08235B009A4220D97A6A7B68134498
:1043C000BB61BB6903F00703002B0BD04FF0500318
:1043D00083F31188BFF36F8FBFF34F8F3B6100BF33
:1043E00000BFFDE77B6A5A687B68D21ABB695A60D6
:1043F0007B6A7A685A60B86900F00AF91D4B1A683E
:104400007B6A5B68D31A1B4A13601A4B1A681B4BF2
:104410001B689A4203D2174B1B68184A13607B6AC9
:104420005A68134B1B681A437B6A5A607B6A0022E6
:104430001A60134B1B680133114A1360FEF7F2FF39
:10444000FB6903F00703002B0BD04FF0500383F3FD
:104450001188BFF36F8FBFF34F8FFB6000BF00BFAA
:10446000FDE7FB6918462837BD4680BD540E002085
:10447000680E0020580E00204C0E00205C0E00201C
:10448000600E002080B586B000AF78607B687B61ED
:104490007B68002B4FD008235B427A6913447B6111
:1044A0007B693B613B695A68254B1B681340002BB5
:1044B0000BD14FF0500383F31188BFF36F8FBFF31D
:1044C0004F8FFB6000BF00BFFDE73B691B68002BFF
:1044D0000BD04FF0500383F31188BFF36F8FBFF3FE
:1044E0004F8FBB6000BF00BFFDE73B695A68144BAC
:1044F0001B681340002B1ED03B691B68002B1AD190
:104500003B695A680E4B1B68DB431A403B695A6093
:10451000FEF77AFF3B695A680A4B1B681344094A45
:104520001360386900F074F8074B1B680133064AC2
:104530001360FEF777FF00BF1837BD4680BD00BF90
:10454000680E0020580E0020640E002080B485B054
:1045500000AF4FF44063BB60274BFB60FB6803F088
:104560000703002B0CD0FB680733FB60FB6823F0CC
:104570000703FB60BA68FB68D31A1F4A1344BB6089
:10458000FB687B601D4A7B6813601C4B00225A60ED
:104590007B68BA681344FB600822FB689B1AFB60C7
:1045A000FB6823F00703FB60FB68154A1360144B9C
:1045B0001B6800225A60124B1B6800221A607B683D
:1045C0003B603B68FA68D21A3B685A600C4B1A6829
:1045D0003B681A603B685B680A4A13603B685B682B
:1045E000094A1360094B4FF000421A6000BF1437AC
:1045F000BD4680BC704700BF4C0200204C0E00201E
:10460000540E00205C0E0020580E0020680E002082
:1046100080B485B000AF7860274BFB6002E0FB6898
:104620001B68FB60FB681B687A689A42F7D8FB68D6
:10463000BB60FB685B68BA6813447A689A4208D129
:10464000FB685A687B685B681A44FB685A60FB68C1
:104650007B607B68BB607B685B68BA681A44FB68F8
:104660001B689A4218D1FB681A68144B1B689A425F
:104670000DD07B685A68FB681B685B681A447B68CE
:104680005A60FB681B681A687B681A6008E00B4B6D
:104690001A687B681A6003E0FB681A687B681A6016
:1046A000FA687B689A4202D0FB687A681A6000BF99
:1046B0001437BD4680BC70474C0E0020540E0020BD
:1046C00003460244934200D1704703F8011BF9E707
:1046D0002D4B70B51B680446834253D0C3691BB38E
:1046E000DB6863B10025E369DB685959B1B904356A
:1046F000802DF8D1E3692046D96800F07BF8E369A2
:10470000196811B1204600F075F8E3699D685DB144
:10471000294620462D6800F06DF8F8E70E6820461F
:1047200000F068F83146E1E7616911B1204600F018
:1047300061F8E16911B1204600F05CF8216B11B11C
:10474000204600F057F8616B11B1204600F052F896
:10475000A16B11B1204600F04DF8A16C11B12046BB
:1047600000F048F8616C11B1204600F043F8E16AAE
:1047700011B1204600F03EF8236A1BB12046BDE887
:104780007040184770BD00BF1400002070B50026AF
:104790000C4D0D4C641BA410A64209D100F07EF80C
:1047A00000260A4D0A4C641BA410A64205D170BD18
:1047B00055F8043B98470136EEE755F8043B984717
:1047C0000136F2E7004900080049000800490008E6
:1047D00004490008704770470A44914200F1FF33D2
:1047E00000D1704710B511F8014B914203F8014F09
:1047F000F9D110BD38B50546002940D051F8043C28
:104800000C1F002BB8BFE41800F03CF81C4A1368DA
:1048100033B9636014602846BDE8384000F038B80A
:10482000A34208D9206821188B4201BF19685B6830
:1048300009182160EDE71A465B680BB1A342FAD96B
:1048400011685018A0420BD12068014450188342CF
:104850001160E0D118685B68084410605360DAE7C3
:1048600002D90C232B60D6E7206821188B4201BFA8
:1048700019685B680918216063605460CBE738BD34
:10488000A80F00200148FFF7A5BF00BFA40F00201C
:104890000148FFF7A0BF00BFA40F0020F8B500BF7C
:1048A000F8BC08BC9E467047F8B500BFF8BC08BC11
:0448B0009E46704769
:1048B4005561727453656E64000000005072696E35
:1048C4007400000049444C45000000000000000052
:1048D40000000000010203040607080900000000AC
:1048E4000102030402030405060708090A0B0C0D60
:0C48F4000E0F1010010200000600000072
:044900003501000875
:044904001101000895
:1049080048690A0000127A00100000000100000047
:10491800AAAAAAAA18000020000000006C0E002015
:10492800D40E00203C0F0020000000000000000012
:10493800000000000000000000000000000000006F
:10494800000000000000000000000000000000005F
:10495800000000000000000000000000000000004F
:04496800000000004B
:04000005080006F9F0
:00000001FF
