:020000040800F2
:100000000050002049060008F5050008FD0500081D
:10001000050600080D06000815060008000000008F
:100020000000000000000000000000002127000880
:100030001D0600080000000061280008A92800082B
:100040009106000891060008910600089106000834
:100050009106000891060008910600089106000824
:100060009106000891060008910600089106000814
:100070009106000891060008910600089106000804
:1000800091060008910600089106000891060008F4
:1000900091060008910600089106000891060008E4
:1000A00091060008910600089106000891060008D4
:1000B000910600089106000829060008910600082C
:1000C00091060008910600089106000891060008B4
:1000D00091060008910600089106000891060008A4
:1000E0009106000891060008910600080000000033
:1000F0000000000000000000000000000000000000
:0C01000000000000000000005FF808F1A3
:1001100010B5054C237833B9044B13B10448AFF341
:1001200000800123237010BD60000020000000004B
:10013000F02E000808B5034B1BB103490348AFF389
:10014000008008BD0000000064000020F02E0008C0
:1001500080B588B002AF00F09DFA00F049F800F0D9
:10016000ADF800F081F807F1080301930223009332
:10017000194B642219491A4801F053FE78617B69D2
:10018000012B0BD04FF0500383F31188BFF36F8F17
:10019000BFF34F8F3B6100BF00BFFDE73B1D0193E5
:1001A000022300930F4B64220F49104801F039FEDF
:1001B00078617B69012B0BD04FF0500383F31188DA
:1001C000BFF36F8FBFF34F8FFB6000BF00BFFDE732
:1001D00001F078FF00BFFDE7082F0008102F00088E
:1001E00065030008182F0008202F00089903000855
:1001F00080B590B000AF07F11803282200211846FF
:1002000002F096FD3B1D00221A605A609A60DA6087
:100210001A610223BB610123BB621023FB6200232E
:100220007B6307F11803184600F0E2FC0346002B3D
:1002300001D000F0DDF80F237B600023BB600023BA
:10024000FB6000233B6100237B613B1D00211846BE
:1002500000F050FF0346002B01D000F0C9F800BFAA
:100260004037BD4680BD000080B500AF114B124A3B
:100270001A60104B4FF4E1325A600E4B00229A6024
:100280000C4B0022DA600B4B00221A61094B0C2246
:100290005A61084B00229A61064B0022DA61054838
:1002A00001F024FB0346002B01D000F0A1F800BFB1
:1002B00080BD00BF7C0000200038014080B586B0C2
:1002C00000AF07F1080300221A605A609A60DA60F2
:1002D000214B9B69204A43F0100393611E4B9B699D
:1002E00003F010037B607B681B4B9B691A4A43F049
:1002F00004039361184B9B6903F004033B603B6864
:1003000000224FF40051154800F05AFC0022012150
:10031000134800F055FC4FF40053BB600123FB6011
:1003200000233B6102237B6107F1080319460B4858
:1003300000F0C2FA0123BB600123FB6000233B6194
:1003400002237B6107F108031946054800F0B4FA5F
:1003500000BF1837BD4680BD0010024000100140AC
:100360000008014080B582B000AF78604FF47A7326
:1003700006227968064801F009FB064B4FF08052CF
:100380001A60BFF34F8FBFF36F8F00BFEEE700BF60
:100390007C00002004ED00E080B582B000AF786002
:1003A0004FF47A7306227968064801F0EFFA064B9B
:1003B0004FF080521A60BFF34F8FBFF36F8F00BFB3
:1003C000EEE700BF7C00002004ED00E080B582B0C5
:1003D00000AF78607B681B68044A934201D100F04B
:1003E0006FF900BF0837BD4680BD00BF0008004060
:1003F00080B400AF72B600BF00BFFDE780B485B027
:1004000000AF154B9B69144A43F001039361124BF3
:100410009B6903F00103BB60BB680F4BDB690E4AAD
:1004200043F08053D3610C4BDB6903F080537B6056
:100430007B680A4B5B68FB60FB6823F0E063FB6052
:10044000FB6843F08063FB60044AFB68536000BFB5
:100450001437BD4680BC70470010024000000140C8
:1004600080B588B000AF786007F1100300221A60F1
:100470005A609A60DA607B681B681C4A934231D1EB
:100480001B4B9B691A4A43F480439361184B9B6949
:1004900003F48043FB60FB68154B9B69144A43F0EF
:1004A00004039361124B9B6903F00403BB60BB68B8
:1004B0004FF400733B6102237B610323FB6107F16F
:1004C000100319460B4800F0F7F94FF480633B61C5
:1004D00000237B610023BB6107F110031946054827
:1004E00000F0EAF900BF2037BD4680BD003801406A
:1004F000001002400008014080B58EB000AF786067
:100500000023FB620023BB62002387F83330344BA7
:10051000DB69334A43F00403D361314BDB6903F0F9
:100520000403FB60FB6807F1100207F11403114696
:10053000184600F04FFF3B6AFB62FB6A002B03D1B9
:1005400000F020FF786304E000F01CFF03465B002E
:100550007B637B6B234AA2FB03239B0C013BBB62A7
:10056000214B224A1A60204B40F2E732DA601E4AE1
:10057000BB6A53601C4B00221A611B4B00229A601D
:10058000194B00229A61184800F072FF034687F861
:10059000333097F83330002B1BD1134800F0C0FFE5
:1005A000034687F8333097F83330002B11D11E20E3
:1005B00000F073F97B680F2B08D8002279681E20A1
:1005C00000F04FF90A4A7B68136002E0012387F8C4
:1005D000333097F8333018463837BD4680BD00BFFA
:1005E0000010024083DE1B43C400002000080040CE
:1005F0000400002080B400AF00BFFDE780B400AF6E
:1006000000BFFDE780B400AF00BFFDE780B400AFDE
:1006100000BFFDE780B400AF00BFFDE780B400AFCE
:1006200000BFBD4680BC704780B500AF024800F0F7
:10063000C9FF00BF80BD00BFC400002080B400AF70
:1006400000BFBD4680BC7047FFF7F8FF0B480C4960
:100650000C4A002302E0D458C4500433C4188C421E
:10066000F9D3094A094C002301E013600432A24285
:10067000FBD302F0C3FBFFF76BFD704700000020C7
:1006800060000020682F0008600000209C0F002000
:10069000FEE7000080B500AF084B1B68074A43F037
:1006A00010031360032000F0D1F80F20FFF724FFA0
:1006B000FFF7A4FE0023184680BD00BF00200240C3
:1006C00080B400AF054B1B781A46054B1B681344DA
:1006D000034A136000BFBD4680BC7047080000207D
:1006E0000C01002080B400AF024B1B681846BD46C9
:1006F00080BC70470C01002080B485B000AF7860EA
:100700007B6803F00703FB600C4BDB68BB60BA68D7
:100710004FF6FF031340BB60FB681A02BB6813432C
:1007200043F0BF6343F40033BB60044ABB68D3604B
:1007300000BF1437BD4680BC704700BF00ED00E02D
:1007400080B400AF044BDB681B0A03F007031846B4
:10075000BD4680BC704700BF00ED00E080B483B0B0
:1007600000AF0346FB7197F90730002B0BDBFB79D9
:1007700003F01F02064997F907305B09012000FAD0
:1007800002F241F8232000BF0C37BD4680BC704701
:1007900000E100E080B483B000AF03463960FB7134
:1007A00097F90730002B0ADB3B68DAB20C4997F95E
:1007B00007301201D2B20B4483F800230AE03B68F1
:1007C000DAB20849FB7903F00F03043B1201D2B2FD
:1007D0000B441A7600BF0C37BD4680BC704700BF83
:1007E00000E100E000ED00E080B489B000AFF86007
:1007F000B9607A60FB6803F00703FB61FB69C3F132
:100800000703042B28BF0423BB61FB690433062BB9
:1008100002D9FB69033B00E000237B614FF0FF320C
:10082000BB6902FA03F3DA43BB681A407B699A405A
:100830004FF0FF317B6901FA03F3D9437B680B402A
:10084000134318462437BD4680BC704780B582B03C
:1008500000AF78607868FFF74FFF00BF0837BD46EC
:1008600080BD80B586B000AF0346B9607A60FB7387
:1008700000237B61FFF764FF78617A68B968786963
:10088000FFF7B2FF024697F90F3011461846FFF7FF
:1008900081FF00BF1837BD4680BD80B582B000AF74
:1008A0000346FB7197F907301846FFF757FF00BF63
:1008B0000837BD4680BD000080B48BB000AF7860C3
:1008C000396000237B6200233B6269E101227B6A7D
:1008D00002FA03F3FB613B681B68FA691340BB61D2
:1008E000BA69FB699A4240F058813B685B689A4A52
:1008F00093425ED0984A934275D8984A934258D012
:10090000964A93426FD8964A934252D0944A934261
:1009100069D8944A93424CD0924A934263D8924AFF
:10092000934246D0904A93425DD8122B2AD8122B7C
:1009300059D801A252F823F0B30900088D09000824
:100940009F090008E1090008E7090008E709000815
:10095000E7090008E7090008E7090008E7090008B7
:10096000E7090008E7090008E7090008E7090008A7
:10097000E7090008E7090008E709000895090008E9
:10098000A9090008794A934213D02CE03B68DB6840
:100990003B6229E03B68DB6804333B6224E03B6850
:1009A000DB6808333B621FE03B68DB680C333B626B
:1009B0001AE03B689B68002B02D104233B6213E0E2
:1009C0003B689B68012B05D108233B627B68FA6971
:1009D0001A6109E008233B627B68FA695A6103E007
:1009E00000233B6200E000BFBB69FF2B01D87B689E
:1009F00001E07B6804337B61BB69FF2B02D87B6A13
:100A00009B0002E07B6A083B9B003B617B691A68A4
:100A10000F213B6901FA03F3DB431A40396A3B6952
:100A200001FA03F31A437B691A603B685B6803F0C1
:100A30008053002B00F0B1804D4B9B694C4A43F032
:100A4000010393614A4B9B6903F00103BB60BB68E0
:100A5000484A7B6A9B08023352F82330FB607B6A6A
:100A600003F003039B000F2202FA03F3DB43FA684F
:100A70001340FB607B68404A934213D07B683F4A37
:100A800093420DD07B683E4A934207D07B683D4A33
:100A9000934201D1032306E0042304E0022302E091
:100AA000012300E000237A6A02F0030292009340DF
:100AB000FA681343FB602F497B6A9B080233FA688C
:100AC00041F823203B685B6803F48013002B06D0B9
:100AD0002D4B9A682C49BB6913438B6006E02A4B67
:100AE0009A68BB69DB43284913408B603B685B68AD
:100AF00003F40013002B06D0234BDA682249BB69AC
:100B00001343CB6006E0204BDA68BB69DB431E4928
:100B10001340CB603B685B6803F40033002B06D0C6
:100B2000194B5A681849BB6913434B6006E0164BD2
:100B30005A68BB69DB43144913404B603B685B68F0
:100B400003F48033002B21D00F4B1A680E49BB6988
:100B500013430B6021E000BF000032100000311091
:100B600000002210000021100000121000001110DF
:100B7000001002400000014000080140000C01404C
:100B80000010014000140140000401400B4B1A68A2
:100B9000BB69DB43094913400B607B6A01337B620D
:100BA0003B681A687B6A22FA03F3002B7FF48EAE4F
:100BB00000BF00BF2C37BD4680BC70470004014019
:100BC00080B483B000AF78600B467B8013467B70A7
:100BD0007B78002B03D07A887B681A6103E07B88DE
:100BE0001A047B681A6100BF0C37BD4680BC704791
:100BF00080B586B000AF78607B68002B01D10123FF
:100C000072E27B681B6803F00103002B00F0878011
:100C1000924B5B6803F00C03042B0CD08F4B5B688A
:100C200003F00C03082B12D18C4B5B6803F4803368
:100C3000B3F5803F0BD1894B1B6803F40033002BC5
:100C40006CD07B685B68002B68D101234CE27B6829
:100C50005B68B3F5803F06D1804B1B687F4A43F445
:100C6000803313602EE07B685B68002B0CD17B4BDC
:100C70001B687A4A23F480331360784B1B68774AE9
:100C800023F4802313601DE07B685B68B3F5A02F1D
:100C90000CD1724B1B68714A43F4802313606F4B75
:100CA0001B686E4A43F4803313600BE06B4B1B6888
:100CB0006A4A23F480331360684B1B68674A23F445
:100CC000802313607B685B68002B13D0FFF70AFD5D
:100CD000386108E0FFF706FD02463B69D31A642B32
:100CE00001D9032300E25D4B1B6803F40033002BA2
:100CF000F0D014E0FFF7F6FC386108E0FFF7F2FCF3
:100D000002463B69D31A642B01D90323ECE1534B10
:100D10001B6803F40033002BF0D100E000BF7B68B8
:100D20001B6803F00203002B63D04C4B5B6803F09D
:100D30000C03002B0BD0494B5B6803F00C03082B12
:100D40001CD1464B5B6803F48033002B16D1434B18
:100D50001B6803F00203002B05D07B681B69012B85
:100D600001D00123C0E13D4B1B6823F0F8027B68F2
:100D70005B69DB00394913430B603AE07B681B6910
:100D8000002B20D0364B01221A60FFF7ABFC3861F4
:100D900008E0FFF7A7FC02463B69D31A022B01D9F2
:100DA0000323A1E12D4B1B6803F00203002BF0D0BD
:100DB0002A4B1B6823F0F8027B685B69DB0027493C
:100DC00013430B6015E0264B00221A60FFF78AFCE4
:100DD000386108E0FFF786FC02463B69D31A022B14
:100DE00001D9032380E11D4B1B6803F00203002B94
:100DF000F0D17B681B6803F00803002B3AD07B68B6
:100E00009B69002B19D0174B01221A60FFF76AFC6F
:100E1000386108E0FFF766FC02463B69D31A022BF3
:100E200001D9032360E10D4B5B6A03F00203002B41
:100E3000F0D0012000F0FEFA1CE00A4B00221A60FC
:100E4000FFF750FC38610FE0FFF74CFC02463B69AE
:100E5000D31A022B08D9032346E100BF0010024039
:100E60000000424280044242924B5B6A03F002035C
:100E7000002BE9D17B681B6803F00403002B00F012
:100E8000A6800023FB758B4BDB6903F08053002B9E
:100E90000DD1884BDB69874A43F08053D361854B82
:100EA000DB6903F08053BB60BB680123FB75824B99
:100EB0001B6803F48073002B18D17F4B1B687E4A9C
:100EC00043F480731360FFF70DFC386108E0FFF70F
:100ED00009FC02463B69D31A642B01D9032303E1C1
:100EE000754B1B6803F48073002BF0D07B68DB68C4
:100EF000012B06D16F4B1B6A6E4A43F0010313624C
:100F00002DE07B68DB68002B0CD16A4B1B6A694AB9
:100F100023F001031362674B1B6A664A23F0040344
:100F200013621CE07B68DB68052B0CD1614B1B6AEC
:100F3000604A43F0040313625E4B1B6A5D4A43F050
:100F4000010313620BE05B4B1B6A5A4A23F0010357
:100F50001362584B1B6A574A23F0040313627B68E1
:100F6000DB68002B15D0FFF7BDFB38610AE0FFF707
:100F7000B9FB02463B69D31A41F28832934201D948
:100F80000323B1E04B4B1B6A03F00203002BEED0AE
:100F900014E0FFF7A7FB38610AE0FFF7A3FB024666
:100FA0003B69D31A41F28832934201D903239BE073
:100FB000404B1B6A03F00203002BEED1FB7D012B9B
:100FC00005D13C4BDB693B4A23F08053D3617B68FE
:100FD000DB69002B00F08780364B5B6803F00C0365
:100FE000082B61D07B68DB69022B46D1334B002292
:100FF0001A60FFF777FB386108E0FFF773FB0246E2
:101000003B69D31A022B01D903236DE0294B1B68DE
:1010100003F00073002BF0D17B681B6AB3F5803FAF
:1010200008D1244B5B6823F400327B689B6821491C
:1010300013434B601F4B5B6823F474127B68196A7F
:101040007B685B6A0B431B4913434B601B4B0122BC
:101050001A60FFF747FB386108E0FFF743FB0246E1
:101060003B69D31A022B01D903233DE0114B1B68C6
:1010700003F00073002BF0D035E0104B00221A6013
:10108000FFF730FB386108E0FFF72CFB02463B69B5
:10109000D31A022B01D9032326E0064B1B6803F069
:1010A0000073002BF0D11EE07B68DB69012B07D1B8
:1010B000012319E00010024000700040600042422D
:1010C0000B4B5B68FB60FB6803F480327B681B6A38
:1010D0009A4206D1FB6803F470127B685B6A9A42FD
:1010E00001D0012300E0002318461837BD4680BD1B
:1010F0000010024080B584B000AF786039607B6832
:10110000002B01D10123D0E06A4B1B6803F00703D9
:101110003A689A4210D9674B1B6823F00702654969
:101120003B6813430B60634B1B6803F007033A688B
:101130009A4201D00123B8E07B681B6803F00203E8
:10114000002B20D07B681B6803F00403002B05D024
:10115000594B5B68584A43F4E06353607B681B68F3
:1011600003F00803002B05D0534B5B68524A43F44D
:1011700060535360504B5B6823F0F0027B689B68C0
:101180004D4913434B607B681B6803F00103002B40
:1011900040D07B685B68012B07D1474B1B6803F489
:1011A0000033002B15D101237FE07B685B68022BA5
:1011B00007D1414B1B6803F00073002B09D10123B9
:1011C00073E03D4B1B6803F00203002B01D10123A8
:1011D0006BE0394B5B6823F003027B685B68364940
:1011E00013434B60FFF77EFAF8600AE0FFF77AFAE4
:1011F0000246FB68D31A41F28832934201D9032395
:1012000053E02D4B5B6803F00C027B685B689B002E
:101210009A42EBD1274B1B6803F007033A689A42C6
:1012200010D2244B1B6823F0070222493B6813436A
:101230000B60204B1B6803F007033A689A4201D009
:10124000012332E07B681B6803F00403002B08D005
:10125000194B5B6823F4E0627B68DB681649134333
:101260004B607B681B6803F00803002B09D0124B0E
:101270005B6823F460527B681B69DB000E491343F3
:101280004B6000F021F802460B4B5B681B0903F032
:101290000F030A49CB5C22FA03F3094A1360094B96
:1012A0001B681846FFF728F9002318461037BD467B
:1012B00080BD00BF0020024000100240302F000817
:1012C000000000200400002080B487B000AF00239D
:1012D000FB600023BB6000237B6100237B60002355
:1012E0003B611E4B5B68FB60FB6803F00C03042B47
:1012F00002D0082B03D027E0194B3B6127E0FB68A5
:101300009B0C03F00F03174AD35C7B60FB6803F46C
:101310008033002B10D0114B5B685B0C03F0010392
:10132000114AD35CBB607B680D4A03FB02F2BB68C9
:10133000B2FBF3F37B6104E07B680C4A02FB03F32E
:101340007B617B693B6102E0054B3B6100BF3B6910
:1013500018461C37BD4680BC704700BF00100240D5
:1013600000127A00482F0008582F000800093D009D
:1013700080B400AF024B1B681846BD4680BC704766
:101380000000002080B500AFFFF7F2FF0246054BDA
:101390005B681B0A03F007030349CB5C22FA03F3E3
:1013A000184680BD00100240402F000880B500AFF5
:1013B000FFF7DEFF0246054B5B68DB0A03F007031D
:1013C0000349CB5C22FA03F3184680BD00100240AB
:1013D000402F000880B483B000AF786039607B682C
:1013E0000F221A60114B5B6803F003027B685A609E
:1013F0000E4B5B6803F0F0027B689A600B4B5B68F6
:1014000003F4E0627B68DA60084B5B68DB0803F496
:10141000E0627B681A61064B1B6803F007023B68B9
:101420001A6000BF0C37BD4680BC704700100240F8
:101430000020024080B485B000AF78600A4B1B6882
:101440000A4AA2FB03235B0A7A6802FB03F3FB60F0
:1014500000BFFB685A1EFA60002BF9D100BF00BF25
:101460001437BD4680BC704700000020D34D621089
:1014700080B582B000AF78607B68002B01D101237A
:1014800041E07B6893F83D30DBB2002B06D17B68EE
:10149000002283F83C20786800F039F87B6802224B
:1014A00083F83D207B681A687B6804331946104630
:1014B00000F09CF97B68012283F846207B680122BA
:1014C00083F83E207B68012283F83F207B6801225D
:1014D00083F840207B68012283F841207B68012249
:1014E00083F842207B68012283F843207B68012235
:1014F00083F844207B68012283F845207B68012221
:1015000083F83D20002318460837BD4680BD80B4CF
:1015100083B000AF786000BF0C37BD4680BC704719
:1015200080B485B000AF78607B6893F83D30DBB263
:10153000012B01D001233AE07B68022283F83D2091
:101540007B681B68DA687B681B6842F00102DA601E
:101550007B681B68184A93420ED07B681B68B3F106
:10156000804F09D07B681B68144A934204D07B6883
:101570001B68134A934211D17B681B689B6803F078
:101580000703FB60FB68062B10D07B681B681A689A
:101590007B681B6842F001021A6007E07B681B68E9
:1015A0001A687B681B6842F001021A600023184623
:1015B0001437BD4680BC7047002C01400004004039
:1015C0000008004080B584B000AF78607B681B687D
:1015D000DB68FB607B681B681B69BB60BB6803F052
:1015E0000203002B20D0FB6803F00203002B1BD06A
:1015F0007B681B686FF002021A617B6801221A7710
:101600007B681B689B6903F00303002B03D0786899
:1016100000F0D1F805E0786800F0C4F8786800F0D0
:10162000D3F87B6800221A77BB6803F00403002B11
:1016300020D0FB6803F00403002B1BD07B681B68E1
:101640006FF004021A617B6802221A777B681B68BC
:101650009B6903F44073002B03D0786800F0ABF86B
:1016600005E0786800F09EF8786800F0ADF87B68D7
:1016700000221A77BB6803F00803002B20D0FB6818
:1016800003F00803002B1BD07B681B686FF0080277
:101690001A617B6804221A777B681B68DB6903F098
:1016A0000303002B03D0786800F085F805E0786824
:1016B00000F078F8786800F087F87B6800221A77E5
:1016C000BB6803F01003002B20D0FB6803F010036D
:1016D000002B1BD07B681B686FF010021A617B68BF
:1016E00008221A777B681B68DB6903F44073002BC0
:1016F00003D0786800F05FF805E0786800F052F8F1
:10170000786800F061F87B6800221A77BB6803F004
:101710000103002B0CD0FB6803F00103002B07D062
:101720007B681B686FF001021A617868FEF74EFE55
:10173000BB6803F08003002B0CD0FB6803F0800330
:10174000002B07D07B681B686FF080021A617868F5
:1017500000F0C3F8BB6803F04003002B0CD0FB681B
:1017600003F04003002B07D07B681B686FF040023A
:101770001A61786800F031F8BB6803F02003002B91
:101780000CD0FB6803F02003002B07D07B681B689C
:101790006FF020021A61786800F096F800BF1037E9
:1017A000BD4680BD80B483B000AF786000BF0C3709
:1017B000BD4680BC704780B483B000AF786000BF86
:1017C0000C37BD4680BC704780B483B000AF7860F2
:1017D00000BF0C37BD4680BC704780B483B000AFFB
:1017E000786000BF0C37BD4680BC704780B485B0C0
:1017F00000AF786039607B681B68FB607B682F4AAC
:1018000093420BD07B68B3F1804F07D07B682C4AA2
:10181000934203D07B682B4A934208D1FB6823F0A4
:101820007003FB603B685B68FA681343FB607B688E
:10183000224A93420BD07B68B3F1804F07D07B687C
:101840001F4A934203D07B681E4A934208D1FB682B
:1018500023F44073FB603B68DB68FA681343FB606A
:10186000FB6823F080023B685B691343FB607B6885
:10187000FA681A603B689A687B68DA623B681A68A3
:101880007B689A627B680D4A934203D13B681A6970
:101890007B681A637B6801225A617B681B6903F0CD
:1018A0000103002B05D07B681B6923F001027B68D4
:1018B0001A6100BF1437BD4680BC7047002C014040
:1018C000000400400008004080B483B000AF78609E
:1018D00000BF0C37BD4680BC704780B483B000AFFA
:1018E000786000BF0C37BD4680BC704780B582B0C1
:1018F00000AF78607B68002B01D1012342E07B6858
:1019000093F84130DBB2002B06D17B68002283F8CC
:1019100040207868FEF7A4FD7B68242283F84120EC
:101920007B681B68DA687B681B6822F40052DA6007
:10193000786800F071F97B681B681A697B681B681E
:1019400022F490421A617B681B685A697B681B68A5
:1019500022F02A025A617B681B68DA687B681B6880
:1019600042F40052DA607B6800225A647B682022CD
:1019700083F841207B68202283F842207B68002284
:101980005A63002318460837BD4680BD80B58AB02B
:1019900002AFF860B9603B601346FB8000237B61B7
:1019A000FB6893F84130DBB2202B75D1BB68002B6C
:1019B00002D0FB88002B01D101236EE0FB680022DE
:1019C0005A64FB68212283F84120FEF78BFE786180
:1019D000FB68FA889A84FB68FA88DA84FB689B685B
:1019E000B3F5805F08D1FB681B69002B04D100238D
:1019F000FB61BB68BB6103E0BB68FB610023BB61AB
:101A00002EE03B6800937B6900228021F86800F09B
:101A100048F80346002B05D0FB68202283F84120BC
:101A200003233AE0FB69002B0BD1BB691B881A46E4
:101A3000FB681B68C2F308025A60BB690233BB61D2
:101A400007E0FB691A78FB681B685A60FB69013381
:101A5000FB61FB68DB8C9BB2013B9AB2FB68DA84CA
:101A6000FB68DB8C9BB2002BCBD13B6800937B697E
:101A700000224021F86800F014F80346002B05D03E
:101A8000FB68202283F84120032306E0FB68202224
:101A900083F84120002300E0022318462037BD468A
:101AA00080BD80B586B000AFF860B9603B6013467A
:101AB000FB713BE03B6AB3F1FF3F37D0FEF712FE0C
:101AC00002463B68D31A3A6A9A4202D33B6A002B19
:101AD00001D103233AE0FB681B68DB6803F00403D1
:101AE000002B23D0BB68802B20D0BB68402B1DD09F
:101AF000FB681B681B6803F00803082B16D1002342
:101B00007B61FB681B681B687B61FB681B685B680B
:101B10007B617B69F86800F01DF8FB6808225A6455
:101B2000FB68002283F8402001230FE0FB681B685C
:101B30001A68BB681340BA689A420CBF012300239D
:101B4000DBB21A46FB799A42B4D000231846183704
:101B5000BD4680BD80B495B000AF78607B681B68DF
:101B60000C337B637B6B53E8003F3B633B6B23F49D
:101B70009073FB647B681B680C33FA6C3A64FB63FC
:101B8000F96B3A6C41E80023BB63BB6B002BE5D1DA
:101B90007B681B6814333B623B6A53E8003FFB6180
:101BA000FB6923F00103BB647B681B681433BA6CC8
:101BB000FA62BB62B96AFA6A41E800237B627B6A17
:101BC000002BE5D17B681B6B012B19D17B681B684F
:101BD0000C33FB60FB6853E8003FBB60BB6823F03D
:101BE00010037B647B681B680C337A6CBA617B6181
:101BF0007969BA6941E800233B613B69002BE5D173
:101C00007B68202283F842207B6800221A6300BF91
:101C10005437BD4680BC704780B584B000AF786053
:101C20007B681B681B6923F440517B68DA687B681A
:101C30001B680A431A617B689A687B681B691A43B0
:101C40007B685B691343BB607B681B68DB6823F4BC
:101C5000B05323F00C037A681268B9680B43D36061
:101C60007B681B685B6923F440717B689A697B68B9
:101C70001B680A435A617B681B682C4A934203D154
:101C8000FFF794FBF86002E0FFF77CFBF860FA686E
:101C900013469B0013449A001A447B685B689B00C0
:101CA000B2FBF3F3224AA2FB03235B091901FA6892
:101CB00013469B0013449A001A447B685B689B00A0
:101CC000B2FBF3F21A4BA3FB02035B09642000FB97
:101CD00003F3D31A1B013233154AA2FB03235B091A
:101CE00003F0F0031944FA6813469B0013449A006A
:101CF0001A447B685B689B00B2FBF3F20C4BA3FBBE
:101D000002035B09642000FB03F3D31A1B01323387
:101D1000074AA2FB03235B0903F00F027B681B68E1
:101D20000A449A6000BF1037BD4680BD00380140AC
:101D30001F85EB5180B483B000AF78607B6803F1FE
:101D400008027B685A607B684FF0FF329A607B68BC
:101D500003F108027B68DA607B6803F108027B68A4
:101D60001A617B6800221A6000BF0C37BD4680BC38
:101D7000704780B483B000AF78607B6800221A613E
:101D800000BF0C37BD4680BC704780B485B000AF43
:101D9000786039607B685B68FB603B68FA685A6012
:101DA000FB689A683B689A60FB689B683A685A606F
:101DB000FB683A689A603B687A681A617B681B68BE
:101DC0005A1C7B681A6000BF1437BD4680BC704740
:101DD00080B485B000AF78607B681B69FB607B686E
:101DE0005B687A6892689A607B689B687A685268D8
:101DF0005A60FB685B687A689A4203D17B689A688C
:101E0000FB685A607B6800221A61FB681B685A1ED7
:101E1000FB681A60FB681B6818461437BD4680BC17
:101E2000704780B58CB004AFF860B9603B60134672
:101E3000FB80FB889B00184600F07AFD78617B6987
:101E4000002B0ED0A02000F073FDF861FB69002B81
:101E500003D0FB697A691A6305E0786900F04AFEED
:101E600001E00023FB61FB69002B13D0FA880023FB
:101E70000393FB690293FB6A0193BB6A00933B687F
:101E8000B968F86800F00EF8F86900F0B1F80123BD
:101E9000BB6102E04FF0FF33BB61BB6918462037DE
:101EA000BD4680BD80B588B000AFF860B9607A608B
:101EB0003B603B6B1A6B7B6803F18043013B9B00EB
:101EC0001344BB61BB6923F00703BB61BB6903F02B
:101ED0000703002B0BD04FF0500383F31188BFF39F
:101EE0006F8FBFF34F8F7B6100BF00BFFDE7BB6803
:101EF000002B1FD00023FB6112E0BA68FB6913447A
:101F000019783A6BFB69134434330A461A70BA687D
:101F1000FB6913441B78002B06D0FB690133FB617E
:101F2000FB690F2BE9D900E000BF3B6B002283F86F
:101F3000432003E03B6B002283F83420BB6A062B6E
:101F400001D90623BB623B6BBA6ADA623B6BBA6AA1
:101F50005A643B6B00229A643B6B04331846FFF7CC
:101F600008FF3B6B18331846FFF703FF3B6B3A6BD8
:101F70001A61BB6AC3F107023B6B9A613B6B3A6B18
:101F80005A623B6B983304220021184600F0D0FEC1
:101F90003B6B9C3301220021184600F0C9FE3B6BCD
:101FA0004C334C220021184600F0C2FE3B6B0D4A18
:101FB0001A653B6B0C4A5A653B6B0C4A9A653A684A
:101FC000F968B86900F052FB02463B6B1A60FB6A85
:101FD000002B02D0FB6A3A6B1A6000BF2037BD4667
:101FE00080BD00BF5C0E0020C40E00202C0F00201E
:101FF00080B582B000AF786000F0D8FB2A4B1B6838
:102000000133294A1360294B1B68002B09D1274A49
:102010007B681360244B1B68012B10D100F088FAF9
:102020000DE0234B1B68002B09D1204B1B68DA6A9B
:102030007B68DB6A9A4202D81C4A7B6813601D4B9E
:102040001B6801331B4A13607B68DB6A01229A40DC
:10205000194B1B681343184A13607B68DA6A1346EE
:102060009B0013449B00154A1A447B6804331946AD
:102070001046FFF78AFE00F0C9FB0D4B1B68002BD2
:102080000ED00A4B1B68DA6A7B68DB6A9A4207D279
:102090000B4B4FF080521A60BFF34F8FBFF36F8F1F
:1020A00000BF0837BD4680BD10020020100100208F
:1020B0001C0200202C020020180200201401002025
:1020C00004ED00E080B586B002AF204B0193002301
:1020D0000093002380221E491E48FFF7A2FEF860ED
:1020E000FB68012B1BD14FF0500383F31188BFF322
:1020F0006F8FBFF34F8FBB6000BF174B1B684C3314
:10210000164A1360164B4FF0FF321A60154B01222E
:102110001A60154B00221A6000F028FB0FE0FB68E4
:10212000B3F1FF3F0BD14FF0500383F31188BFF39E
:102130006F8FBFF34F8F7B6000BF00BFFDE70B4B7E
:102140001B6800BF1037BD4680BD00BF34020020B1
:10215000282F000801250008100100201000002091
:10216000300200201C020020140200205C2F000816
:1021700080B400AF044B1B680133034A136000BFF7
:10218000BD4680BC704700BF3802002080B584B0D7
:1021900000AF0023FB600023BB60424B1B68002B99
:1021A0000BD14FF0500383F31188BFF36F8FBFF350
:1021B0004F8F3B6000BF00BFFDE700F0F7FA394BDF
:1021C0001B68013B374A1360364B1B68002B61D1FB
:1021D000354B1B68002B5DD02EE0344BDB68DB6891
:1021E000FB60FB6818331846FFF7F2FDFB68043309
:1021F0001846FFF7EDFDFB68DB6A01229A402C4B85
:102200001B6813432A4A1360FB68DA6A13469B0073
:1022100013449B00274A1A44FB68043319461046AE
:10222000FFF7B3FDFB68DA6A234B1B68DB6A9A424F
:1022300002D3224B01221A601C4B1B68002BCCD10D
:10224000FB68002B01D000F0F7F91D4B1B687B6089
:102250007B68002B10D000F037F80346002B02D02B
:10226000164B01221A607B68013B7B607B68002B68
:10227000F1D1134B00221A60104B1B68002B09D0C0
:102280000123BB600F4B4FF080521A60BFF34F8F9A
:10229000BFF36F8F00F0BAFABB6818461037BD461F
:1022A00080BD00BF3802002010020020D0010020B5
:1022B0001802002014010020100100202402002038
:1022C0002002002004ED00E080B586B000AF0023BE
:1022D0007B614F4B1B68002B40F08F804D4B1B6880
:1022E00001333B614B4A3B6913603B69002B21D1B1
:1022F000494B1B681B68002B0BD04FF0500383F336
:102300001188BFF36F8FBFF34F8F3B6000BF00BFDB
:10231000FDE7414B1B68FB60404B1B683E4A136066
:102320003E4AFB6813603E4B1B6801333C4A136016
:1023300000F082F93B4B1B683A699A4248D3364B0E
:102340001B681B68002B04D1364B4FF0FF321A601C
:102350003EE0314B1B68DB68DB68BB60BB685B68D9
:102360007B603A697B689A4203D22E4A7B6813608D
:102370002EE0BB6804331846FFF72AFDBB689B6A52
:10238000002B04D0BB6818331846FFF721FDBB684B
:10239000DB6A01229A40244B1B681343224A1360D4
:1023A000BB68DA6A13469B0013449B001F4A1A4419
:1023B000BB68043319461046FFF7E7FCBB68DA6ACE
:1023C0001B4B1B68DB6A9A42B9D301237B61B6E7DA
:1023D000174B1B68DA6A154913469B0013449B0090
:1023E0000B441B68012B01D901237B61114B1B6836
:1023F000002B07D001237B6104E00F4B1B680133E6
:102400000D4A13607B6918461837BD4680BD00BF72
:102410003802002014020020C8010020CC01002056
:1024200028020020300200201802002014010020A1
:1024300010010020240200202002002080B487B078
:1024400000AF294B1B68002B03D0284B01221A60D8
:1024500045E0264B00221A60254B1B68FB60FB6899
:10246000B3FA83F3FB72FB7AC3F11F037B6121494B
:102470007A6913469B0013449B000B441B68002B96
:102480000BD14FF0500383F31188BFF36F8FBFF36D
:102490004F8F7B6000BF00BFFDE77A6913469B004A
:1024A00013449B00134A13443B613B695B685A68C1
:1024B0003B695A603B695A683B6908339A4204D1C8
:1024C0003B695B685A683B695A603B695B68DB68DB
:1024D000094A1360084B1B684C33084A136000BF5D
:1024E0001C37BD4680BC7047380200202402002003
:1024F000180200201401002010010020100000200C
:1025000080B582B000AF786000F052F8064B1B68CF
:10251000012BF9D9054B4FF080521A60BFF34F8F52
:10252000BFF36F8FF0E700BF1401002004ED00E05F
:1025300080B582B000AF00237B600CE07A68134660
:102540009B0013449B00124A13441846FFF7F2FB0A
:102550007B6801337B607B68062BEFD90D48FFF762
:10256000E9FB0D48FFF7E6FB0C48FFF7E3FB0C48DF
:10257000FFF7E0FB0B48FFF7DDFB0B4B054A1A604A
:102580000A4B054A1A6000BF0837BD4680BD00BF30
:1025900014010020A0010020B4010020D00100207F
:1025A000E4010020FC010020C8010020CC01002033
:1025B00080B582B000AF19E000F0F8F8104BDB688E
:1025C000DB687B607B6804331846FFF701FC0D4B2A
:1025D0001B68013B0B4A13600B4B1B68013B0A4A0B
:1025E000136000F013F9786800F010F8064B1B68D0
:1025F000002BE1D100BF00BF0837BD4680BD00BF42
:10260000E401002010020020F801002080B582B013
:1026100000AF78607B684C33184600F091FB7B6814
:102620001B6B184600F066FA786800F063FA00BF8A
:102630000837BD4680BD000080B400AF094B1B6861
:102640001B68002B04D1084B4FF0FF321A6005E0E5
:10265000044B1B68DB681B68034A136000BFBD4660
:1026600080BC7047C80100203002002080B485B0D3
:1026700000AFF860B9607A60FB68043BFB60FB6800
:102680004FF080721A60FB68043BFB60BB6823F06C
:102690000102FB681A60FB68043BFB60084AFB68A8
:1026A0001A60FB68143BFB607A68FB681A60FB6881
:1026B000203BFB60FB6818461437BD4680BC704762
:1026C000C526000880B485B000AF00237B60124BA4
:1026D0001B68B3F1FF3F0BD04FF0500383F3118819
:1026E000BFF36F8FBFF34F8FFB6000BF00BFFDE7ED
:1026F0004FF0500383F31188BFF36F8FBFF34F8FF9
:10270000BB6000BF00BF7B68002BFCD000BF00BFD8
:102710001437BD4680BC70470C000020000000004C
:10272000074B19680868B0E8F00F80F30988BFF319
:102730006F8F4FF0000080F311884EF00D0E704740
:102740001001002000BF00BF06480068006880F349
:10275000088862B661B6BFF34F8FBFF36F8F00DF9B
:1027600000BF000008ED00E000BF00BF80B500AF73
:102770000C4B1B680B4A43F470031360094B1B6836
:10278000084A43F07043136000F0B0F8064B002293
:102790001A60FFF7D9FFFFF751FEFFF793FF002301
:1027A000184680BD20ED00E00C00002080B483B00E
:1027B00000AF4FF0500383F31188BFF36F8FBFF367
:1027C0004F8F7B6000BF0F4B1B6801330D4A1360B6
:1027D0000C4B1B68012B10D10B4B1B68DBB2002B81
:1027E0000BD04FF0500383F31188BFF36F8FBFF30B
:1027F0004F8F3B6000BF00BFFDE700BF0C37BD46F9
:1028000080BC70470C00002004ED00E080B483B071
:1028100000AF124B1B68002B0BD14FF0500383F31A
:102820001188BFF36F8FBFF34F8F7B6000BF00BF76
:10283000FDE70A4B1B68013B084A1360074B1B6806
:10284000002B05D100233B603B6883F3118800BF58
:1028500000BF0C37BD4680BC704700BF0C00002095
:10286000EFF30980BFF36F8F0D4B1A6820E9F00F6B
:1028700010602DE908404FF0500080F31188FFF7F9
:10288000DDFD4FF0000080F31188BDE808401968B5
:102890000868B0E8F00F80F30988BFF36F8F7047C6
:1028A0001001002000BF00BF80B582B000AF4FF024
:1028B000500383F31188BFF36F8FBFF34F8F7B609B
:1028C00000BFFFF701FD0346002B03D0064B4FF07E
:1028D00080521A6000233B603B6883F3118800BF7D
:1028E00000BF0837BD4680BD04ED00E080B400AFF6
:1028F0000A4B00221A600A4B00221A60094B1B681F
:10290000094AA2FB03239B09084A013B1360034BBE
:1029100007221A6000BFBD4680BC704710E000E08F
:1029200018E000E000000020D34D621014E000E049
:1029300080B58AB000AF78600023FB61FFF718FC18
:10294000664B1B68002B01D100F038F9644B1A6804
:102950007B681340002B40F0A9807B68002B2ED0B1
:1029600008227B6813447A689A4228D208227B683E
:1029700013447B607B6803F00703002B22D07B6845
:1029800023F0070308337A689A4215D27B6823F054
:10299000070308337B607B6803F00703002B11D02B
:1029A0004FF0500383F31188BFF36F8FBFF34F8F46
:1029B0007B6100BF00BFFDE700237B6002E00023D6
:1029C0007B6000E000BF7B68002B6FD0454B1B682D
:1029D0007A689A426AD8444B3B62434B1B687B62DD
:1029E00004E07B6A3B627B6A1B687B627B6A5B6894
:1029F0007A689A4203D97B6A1B68002BF1D1374B66
:102A00001B687A6A9A4251D03B6A1B6808221344B9
:102A1000FB617B6A1A683B6A1A607B6A5A687B684A
:102A2000D21A08235B009A4220D97A6A7B68134441
:102A3000BB61BB6903F00703002B0BD04FF05003C1
:102A400083F31188BFF36F8FBFF34F8F3B6100BFDC
:102A500000BFFDE77B6A5A687B68D21ABB695A607F
:102A60007B6A7A685A60B86900F00AF91D4B1A68E7
:102A70007B6A5B68D31A1B4A13601A4B1A681B4B9C
:102A80001B689A4203D2174B1B68184A13607B6A73
:102A90005A68134B1B681A437B6A5A607B6A002290
:102AA0001A60134B1B680133114A1360FFF76EFB6A
:102AB000FB6903F00703002B0BD04FF0500383F3A7
:102AC0001188BFF36F8FBFF34F8FFB6000BF00BF54
:102AD000FDE7FB6918462837BD4680BD440E00203F
:102AE000580E0020480E00203C0E00204C0E002006
:102AF000500E002080B586B000AF78607B687B61A7
:102B00007B68002B4FD008235B427A6913447B61BA
:102B10007B693B613B695A68254B1B681340002B5E
:102B20000BD14FF0500383F31188BFF36F8FBFF3C6
:102B30004F8FFB6000BF00BFFDE73B691B68002BA8
:102B40000BD04FF0500383F31188BFF36F8FBFF3A7
:102B50004F8FBB6000BF00BFFDE73B695A68144B55
:102B60001B681340002B1ED03B691B68002B1AD139
:102B70003B695A680E4B1B68DB431A403B695A603D
:102B8000FFF7F6FA3B695A680A4B1B681344094A77
:102B90001360386900F074F8074B1B680133064A6C
:102BA0001360FFF7F3FA00BF1837BD4680BD00BFC2
:102BB000580E0020480E0020540E002080B485B02E
:102BC00000AF4FF44063BB60274BFB60FB6803F032
:102BD0000703002B0CD0FB680733FB60FB6823F076
:102BE0000703FB60BA68FB68D31A1F4A1344BB6033
:102BF000FB687B601D4A7B6813601C4B00225A6097
:102C00007B68BA681344FB600822FB689B1AFB6070
:102C1000FB6823F00703FB60FB68154A1360144B45
:102C20001B6800225A60124B1B6800221A607B68E6
:102C30003B603B68FA68D21A3B685A600C4B1A68D2
:102C40003B681A603B685B680A4A13603B685B68D4
:102C5000094A1360094B4FF000421A6000BF143755
:102C6000BD4680BC704700BF3C0200203C0E0020E7
:102C7000440E00204C0E0020480E0020580E00206C
:102C800080B485B000AF7860274BFB6002E0FB6842
:102C90001B68FB60FB681B687A689A42F7D8FB6880
:102CA000BB60FB685B68BA6813447A689A4208D1D3
:102CB000FB685A687B685B681A44FB685A60FB686B
:102CC0007B607B68BB607B685B68BA681A44FB68A2
:102CD0001B689A4218D1FB681A68144B1B689A4209
:102CE0000DD07B685A68FB681B685B681A447B6878
:102CF0005A60FB681B681A687B681A6008E00B4B17
:102D00001A687B681A6003E0FB681A687B681A60BF
:102D1000FA687B689A4202D0FB687A681A6000BF42
:102D20001437BD4680BC70473C0E0020440E002086
:102D300003460244934200D1704703F8011BF9E7B0
:102D40002D4B70B51B680446834253D0C3691BB337
:102D5000DB6863B10025E369DB685959B1B9043513
:102D6000802DF8D1E3692046D96800F06DF8E36959
:102D7000196811B1204600F067F8E3699D685DB1FC
:102D8000294620462D6800F05FF8F8E70E682046D7
:102D900000F05AF83146E1E7616911B1204600F0D0
:102DA00053F8E16911B1204600F04EF8216B11B1E2
:102DB000204600F049F8616B11B1204600F044F85C
:102DC000A16B11B1204600F03FF8A16C11B1204673
:102DD00000F03AF8616C11B1204600F035F8E16A74
:102DE00011B1204600F030F8236A1BB12046BDE83F
:102DF0007040184770BD00BF1000002070B500265D
:102E00000C4D0D4C641BA410A64209D100F070F8C3
:102E100000260A4D0A4C641BA410A64205D170BDC1
:102E200055F8043B98470136EEE755F8043B9847C0
:102E30000136F2E7602F0008602F0008602F0008BD
:102E4000642F00087047704738B50546002940D008
:102E500051F8043C0C1F002BB8BFE41800F03CF8FC
:102E60001C4A136833B9636014602846BDE83840D3
:102E700000F038B8A34208D9206821188B4201BF5E
:102E800019685B6809182160EDE71A465B680BB1A9
:102E9000A342FAD911685018A0420BD1206801440E
:102EA000501883421160E0D118685B6808441060D4
:102EB0005360DAE702D90C232B60D6E7206821188B
:102EC0008B4201BF19685B68091821606360546018
:102ED000CBE738BD980F00200148FFF7B3BF00BF14
:102EE000940F00200148FFF7AEBF00BF940F0020F1
:102EF000F8B500BFF8BC08BC9E467047F8B500BFE7
:082F0000F8BC08BC9E467047B6
:102F08007461736B310A00007461736B31000000E7
:102F18005441534B320A00007461736B3200000055
:102F280049444C450000000000000000000000007B
:102F38000102030406070809000000000102030457
:102F480002030405060708090A0B0C0D0E0F1010E2
:082F5800010200000600000068
:042F6000350100082F
:042F6400110100084F
:102F680000127A001000000001000000AAAAAAAA14
:102F780014000020000000005C0E0020C40E002099
:102F88002C0F0020000000000000000000000000DE
:102F98000000000000000000000000000000000029
:102FA8000000000000000000000000000000000019
:102FB8000000000000000000000000000000000009
:0400000508000649A0
:00000001FF
