:020000040800F2
:10000000005000208D050008290500083105000872
:1000100039050008410500084905000800000000F6
:10002000000000000000000000000000E11F0008C8
:1000300051050008000000001120000859200008A8
:10004000D5050008D5050008D5050008D505000828
:10005000D5050008D50500085D050008D505000890
:10006000D5050008D5050008D5050008D505000808
:10007000D5050008D5050008D5050008D5050008F8
:10008000D5050008D5050008D5050008D5050008E8
:10009000D5050008D5050008D5050008D5050008D8
:1000A000D50500086D050008D5050008D505000830
:1000B000D5050008D5050008D5050008D5050008B8
:1000C000D5050008D5050008D5050008D5050008A8
:1000D000D5050008D5050008D5050008D505000898
:1000E000D5050008D5050008D5050008000000006A
:1000F0000000000000000000000000000000000000
:0C01000000000000000000005FF808F1A3
:1001100010B5054C237833B9044B13B10448AFF341
:1001200000800123237010BD5C000020000000004F
:10013000F420000808B5034B1BB103490348AFF393
:10014000008008BD0000000060000020F4200008CE
:1001500080B500AF00F040FA00F010F800F074F83D
:1001600000F048F84FF47A7302220249024801F085
:10017000E1FBF7E70C2100087800002080B590B083
:1001800000AF07F1180328220021184601F086FF6E
:100190003B1D00221A605A609A60DA601A610223DD
:1001A000BB610123BB621023FB6200237B6307F169
:1001B0001803184600F0F0FC0346002B01D000F0B5
:1001C000BDF80F237B600023BB600023FB6000238E
:1001D0003B6100237B613B1D0021184600F05EFF60
:1001E0000346002B01D000F0A9F800BF4037BD4600
:1001F00080BD000080B500AF114B124A1A60104B51
:100200004FF4E1325A600E4B00229A600C4B0022F0
:10021000DA600B4B00221A61094B0C225A61084B21
:1002200000229A61064B0022DA61054801F032FB98
:100230000346002B01D000F081F800BF80BD00BF55
:10024000780000200038014080B586B000AF07F18B
:10025000080300221A605A609A60DA60224B9B6998
:10026000214A43F0100393611F4B9B6903F0100375
:100270007B607B681C4B9B691B4A43F004039361C2
:10028000194B9B6903F004033B603B6800224FF469
:100290000051164800F036FC4FF40053BB600123B8
:1002A000FB6000233B6102237B6107F108031946D1
:1002B0000E4800F0A3FA0123BB600D4BFB60002346
:1002C0003B6107F1080319460A4800F097FA00223B
:1002D0000021062000F067FA062000F080FA00BF37
:1002E0001837BD4680BD00BF00100240001001401D
:1002F000000021100008014080B582B000AF034625
:10030000FB804FF40051034800F014FC00BF083795
:10031000BD4680BD0010014080B582B000AF78605E
:100320007B681B68044A934201D100F06BF900BF5F
:100330000837BD4680BD00BF002C014080B400AF2F
:1003400072B600BF00BFFDE780B485B000AF154BAB
:100350009B69144A43F001039361124B9B6903F0BC
:100360000103BB60BB680F4BDB690E4A43F080534F
:10037000D3610C4BDB6903F080537B607B680A4BD5
:100380005B68FB60FB6823F0E063FB60FB6843F0A5
:100390008063FB60044AFB68536000BF1437BD46AE
:1003A00080BC7047001002400000014080B588B05A
:1003B00000AF786007F1100300221A605A609A605B
:1003C000DA607B681B681C4A934231D11B4B9B69E6
:1003D0001A4A43F480439361184B9B6903F48043AA
:1003E000FB60FB68154B9B69144A43F0040393615F
:1003F000124B9B6903F00403BB60BB684FF40073AE
:100400003B6102237B610323FB6107F11003194663
:100410000B4800F0F3F94FF480633B6100237B61EC
:100420000023BB6107F110031946054800F0E6F907
:1004300000BF2037BD4680BD00380140001002409B
:100440000008014080B58CB000AF78600023BB622B
:1004500000237B62002387F82F302E4B9B692D4AA7
:1004600043F4006393612B4B9B6903F40063BB600F
:10047000BB6807F10C0207F110031146184600F0A3
:100480007DFF00F067FFB862BB6A234AA2FB03232B
:100490009B0C013B7B62214B214A1A601F4B40F2AF
:1004A000E732DA601D4A7B6A53601C4B00221A61F6
:1004B0001A4B00229A60194B00229A61174800F0EB
:1004C000ABFF034687F82F3097F82F30002B1BD156
:1004D000124800F0F9FF034687F82F3097F82F30C5
:1004E000002B11D1192000F07AF97B680F2B08D866
:1004F00000227968192000F056F90A4A7B681360D7
:1005000002E0012387F82F3097F82F301846303754
:10051000BD4680BD0010024083DE1B43C0000020AA
:10052000002C01400400002080B400AF00BFFDE7B4
:1005300080B400AF00BFFDE780B400AF00BFFDE7AF
:1005400080B400AF00BFFDE780B400AF00BFFDE79F
:1005500080B400AF00BFBD4680BC704780B500AF1F
:10056000012000F001FB00BF80BD000080B500AF9E
:10057000024800F0FBFF00BF80BD00BFC0000020AC
:1005800080B400AF00BFBD4680BC7047FFF7F8FFE6
:100590000B480C490C4A002302E0D458C4500433E1
:1005A000C4188C42F9D3094A094C002301E01360B6
:1005B0000432A242FBD301F079FDFFF7C9FD704779
:1005C000000000205C000020442100085C000020A6
:1005D000F8020020FEE7000080B500AF084B1B6862
:1005E000074A43F010031360032000F0D1F80F20F6
:1005F000FFF728FFFFF7A8FE0023184680BD00BFC5
:100600000020024080B400AF054B1B781A46054B12
:100610001B681344034A136000BFBD4680BC70478B
:10062000080000200801002080B400AF024B1B68C6
:100630001846BD4680BC70470801002080B485B0D4
:1006400000AF78607B6803F00703FB600C4BDB684E
:10065000BB60BA684FF6FF031340BB60FB681A0229
:10066000BB68134343F0BF6343F40033BB60044AE9
:10067000BB68D36000BF1437BD4680BC704700BF65
:1006800000ED00E080B400AF044BDB681B0A03F010
:1006900007031846BD4680BC704700BF00ED00E070
:1006A00080B483B000AF0346FB7197F90730002B8D
:1006B0000BDBFB7903F01F02064997F907305B0952
:1006C000012000FA02F241F8232000BF0C37BD469A
:1006D00080BC704700E100E080B483B000AF034607
:1006E0003960FB7197F90730002B0ADB3B68DAB2FF
:1006F0000C4997F907301201D2B20B4483F800235A
:100700000AE03B68DAB20849FB7903F00F03043BC7
:100710001201D2B20B441A7600BF0C37BD4680BC22
:10072000704700BF00E100E000ED00E080B489B058
:1007300000AFF860B9607A60FB6803F00703FB6103
:10074000FB69C3F10703042B28BF0423BB61FB69CA
:100750000433062B02D9FB69033B00E000237B61D5
:100760004FF0FF32BB6902FA03F3DA43BB681A4069
:100770007B699A404FF0FF317B6901FA03F3D9435B
:100780007B680B40134318462437BD4680BC704736
:1007900080B582B000AF78607868FFF74FFF00BF88
:1007A0000837BD4680BD80B586B000AF0346B9604E
:1007B0007A60FB7300237B61FFF764FF78617A68DE
:1007C000B9687869FFF7B2FF024697F90F30114612
:1007D0001846FFF781FF00BF1837BD4680BD80B5C2
:1007E00082B000AF0346FB7197F907301846FFF758
:1007F00057FF00BF0837BD4680BD000080B48BB0F6
:1008000000AF7860396000237B6200233B6269E1BE
:1008100001227B6A02FA03F3FB613B681B68FA69F9
:100820001340BB61BA69FB699A4240F058813B684A
:100830005B689A4A93425ED0984A934275D8984A28
:10084000934258D0964A93426FD8964A934252D0D8
:10085000944A934269D8944A93424CD0924A934224
:1008600063D8924A934246D0904A93425DD8122B65
:100870002AD8122B59D801A252F823F0F708000801
:10088000D1080008E3080008250900082B09000822
:100890002B0900082B0900082B0900082B09000868
:1008A0002B0900082B0900082B0900082B09000858
:1008B0002B0900082B0900082B0900082B09000848
:1008C000D9080008ED080008794A934213D02CE0BB
:1008D0003B68DB683B6229E03B68DB6804333B62D2
:1008E00024E03B68DB6808333B621FE03B68DB6861
:1008F0000C333B621AE03B689B68002B02D1042357
:100900003B6213E03B689B68012B05D108233B62E7
:100910007B68FA691A6109E008233B627B68FA691F
:100920005A6103E000233B6200E000BFBB69FF2B7C
:1009300001D87B6801E07B6804337B61BB69FF2BD6
:1009400002D87B6A9B0002E07B6A083B9B003B610C
:100950007B691A680F213B6901FA03F3DB431A40F4
:10096000396A3B6901FA03F31A437B691A603B68F1
:100970005B6803F08053002B00F0B1804D4B9B6906
:100980004C4A43F0010393614A4B9B6903F0010316
:10099000BB60BB68484A7B6A9B08023352F823302D
:1009A000FB607B6A03F003039B000F2202FA03F350
:1009B000DB43FA681340FB607B68404A934213D0E4
:1009C0007B683F4A93420DD07B683E4A934207D0F2
:1009D0007B683D4A934201D1032306E0042304E0EF
:1009E000022302E0012300E000237A6A02F00302FE
:1009F00092009340FA681343FB602F497B6A9B087F
:100A00000233FA6841F823203B685B6803F48013E3
:100A1000002B06D02D4B9A682C49BB6913438B6081
:100A200006E02A4B9A68BB69DB43284913408B6078
:100A30003B685B6803F40013002B06D0234BDA6895
:100A40002249BB691343CB6006E0204BDA68BB69DF
:100A5000DB431E491340CB603B685B6803F4003303
:100A6000002B06D0194B5A681849BB6913434B60D9
:100A700006E0164B5A68BB69DB43144913404B60D0
:100A80003B685B6803F48033002B21D00F4B1A685E
:100A90000E49BB6913430B6021E000BF0000321018
:100AA0000000311000002210000021100000121080
:100AB0000000111000100240000001400008014039
:100AC000000C0140001001400014014000040140EE
:100AD0000B4B1A68BB69DB43094913400B607B6A07
:100AE00001337B623B681A687B6A22FA03F3002BAE
:100AF0007FF48EAE00BF00BF2C37BD4680BC704770
:100B00000004014080B483B000AF78600B467B8066
:100B100013467B707B78002B03D07A887B681A6140
:100B200003E07B881A047B681A6100BF0C37BD465E
:100B300080BC704780B485B000AF78600B467B8086
:100B40007B68DB68FB607A88FB6813401A04FB68EB
:100B5000D9437B880B401A437B681A6100BF143766
:100B6000BD4680BC7047000080B582B000AF034630
:100B7000FB80084B5A69FB881340002B06D0054ABE
:100B8000FB885361FB881846FFF7B6FB00BF0837A8
:100B9000BD4680BD0004014080B586B000AF7860DE
:100BA0007B68002B01D1012372E27B681B6803F094
:100BB0000103002B00F08780924B5B6803F00C036D
:100BC000042B0CD08F4B5B6803F00C03082B12D165
:100BD0008C4B5B6803F48033B3F5803F0BD1894BBA
:100BE0001B6803F40033002B6CD07B685B68002B20
:100BF00068D101234CE27B685B68B3F5803F06D186
:100C0000804B1B687F4A43F4803313602EE07B687F
:100C10005B68002B0CD17B4B1B687A4A23F4803332
:100C20001360784B1B68774A23F4802313601DE020
:100C30007B685B68B3F5A02F0CD1724B1B68714ABF
:100C400043F4802313606F4B1B686E4A43F4803378
:100C500013600BE06B4B1B686A4A23F4803313600C
:100C6000684B1B68674A23F4802313607B685B68CA
:100C7000002B13D0FFF7D8FC386108E0FFF7D4FC55
:100C800002463B69D31A642B01D9032300E25D4B72
:100C90001B6803F40033002BF0D014E0FFF7C4FC12
:100CA000386108E0FFF7C0FC02463B69D31A642BA9
:100CB00001D90323ECE1534B1B6803F40033002BF1
:100CC000F0D100E000BF7B681B6803F00203002B3B
:100CD00063D04C4B5B6803F00C03002B0BD0494BEB
:100CE0005B6803F00C03082B1CD1464B5B6803F4D4
:100CF0008033002B16D1434B1B6803F00203002BFB
:100D000005D07B681B69012B01D00123C0E13D4B5D
:100D10001B6823F0F8027B685B69DB0039491343E9
:100D20000B603AE07B681B69002B20D0364B012218
:100D30001A60FFF779FC386108E0FFF775FC02469E
:100D40003B69D31A022B01D90323A1E12D4B1B6868
:100D500003F00203002BF0D02A4B1B6823F0F802AB
:100D60007B685B69DB00274913430B6015E0264B6A
:100D700000221A60FFF758FC386108E0FFF754FCC6
:100D800002463B69D31A022B01D9032380E11D4B94
:100D90001B6803F00203002BF0D17B681B6803F093
:100DA0000803002B3AD07B689B69002B19D0174BA6
:100DB00001221A60FFF738FC386108E0FFF734FCC5
:100DC00002463B69D31A022B01D9032360E10D4B84
:100DD0005B6A03F00203002BF0D0012000F0FEFA62
:100DE0001CE00A4B00221A60FFF71EFC38610FE07E
:100DF000FFF71AFC02463B69D31A022B08D90323DA
:100E000046E100BF0010024000004242800442421E
:100E1000924B5B6A03F00203002BE9D17B681B68ED
:100E200003F00403002B00F0A6800023FB758B4B1E
:100E3000DB6903F08053002B0DD1884BDB69874AB7
:100E400043F08053D361854BDB6903F08053BB6073
:100E5000BB680123FB75824B1B6803F48073002B76
:100E600018D17F4B1B687E4A43F480731360FFF7F1
:100E7000DBFB386108E0FFF7D7FB02463B69D31A7A
:100E8000642B01D9032303E1754B1B6803F48073C2
:100E9000002BF0D07B68DB68012B06D16F4B1B6AFF
:100EA0006E4A43F0010313622DE07B68DB68002B80
:100EB0000CD16A4B1B6A694A23F001031362674B2A
:100EC0001B6A664A23F0040313621CE07B68DB683C
:100ED000052B0CD1614B1B6A604A43F0040313627B
:100EE0005E4B1B6A5D4A43F0010313620BE05B4BF0
:100EF0001B6A5A4A23F001031362584B1B6A574A74
:100F000023F0040313627B68DB68002B15D0FFF726
:100F10008BFB38610AE0FFF787FB02463B69D31A77
:100F200041F28832934201D90323B1E04B4B1B6A53
:100F300003F00203002BEED014E0FFF775FB3861DD
:100F40000AE0FFF771FB02463B69D31A41F288328F
:100F5000934201D903239BE0404B1B6A03F0020339
:100F6000002BEED1FB7D012B05D13C4BDB693B4ACD
:100F700023F08053D3617B68DB69002B00F087800E
:100F8000364B5B6803F00C03082B61D07B68DB6990
:100F9000022B46D1334B00221A60FFF745FB386124
:100FA00008E0FFF741FB02463B69D31A022B01D947
:100FB00003236DE0294B1B6803F00073002BF0D175
:100FC0007B681B6AB3F5803F08D1244B5B6823F430
:100FD00000327B689B68214913434B601F4B5B6861
:100FE00023F474127B68196A7B685B6A0B431B49A4
:100FF00013434B601B4B01221A60FFF715FB38614E
:1010000008E0FFF711FB02463B69D31A022B01D916
:1010100003233DE0114B1B6803F00073002BF0D05D
:1010200035E0104B00221A60FFF7FEFA386108E045
:10103000FFF7FAFA02463B69D31A022B01D90323C0
:1010400026E0064B1B6803F00073002BF0D11EE076
:101050007B68DB69012B07D1012319E000100240F6
:1010600000700040600042420B4B5B68FB60FB6815
:1010700003F480327B681B6A9A4206D1FB6803F452
:1010800070127B685B6A9A4201D0012300E0002362
:1010900018461837BD4680BD0010024080B584B0A8
:1010A00000AF786039607B68002B01D10123D0E06C
:1010B0006A4B1B6803F007033A689A4210D9674BE2
:1010C0001B6823F0070265493B6813430B60634BC1
:1010D0001B6803F007033A689A4201D00123B8E085
:1010E0007B681B6803F00203002B20D07B681B6821
:1010F00003F00403002B05D0594B5B68584A43F4B6
:10110000E06353607B681B6803F00803002B05D085
:10111000534B5B68524A43F460535360504B5B68D7
:1011200023F0F0027B689B684D4913434B607B685A
:101130001B6803F00103002B40D07B685B68012B28
:1011400007D1474B1B6803F40033002B15D1012353
:101150007FE07B685B68022B07D1414B1B6803F083
:101160000073002B09D1012373E03D4B1B6803F092
:101170000203002B01D101236BE0394B5B6823F0A4
:1011800003027B685B68364913434B60FFF74CFAF8
:10119000F8600AE0FFF748FA0246FB68D31A41F20A
:1011A0008832934201D9032353E02D4B5B6803F04F
:1011B0000C027B685B689B009A42EBD1274B1B6853
:1011C00003F007033A689A4210D2244B1B6823F0BD
:1011D000070222493B6813430B60204B1B6803F056
:1011E00007033A689A4201D0012332E07B681B680A
:1011F00003F00403002B08D0194B5B6823F4E06272
:101200007B68DB68164913434B607B681B6803F0FF
:101210000803002B09D0124B5B6823F460527B68F3
:101220001B69DB000E4913434B6000F021F80246B6
:101230000B4B5B681B0903F00F030A49CB5C22FAD6
:1012400003F3094A1360094B1B681846FFF7FAF8C5
:10125000002318461037BD4680BD00BF0020024065
:1012600000100240102100080000002004000020AF
:1012700080B487B000AF0023FB600023BB60002375
:101280007B6100237B6000233B611E4B5B68FB603E
:10129000FB6803F00C03042B02D0082B03D027E0DB
:1012A000194B3B6127E0FB689B0C03F00F03174AC7
:1012B000D35C7B60FB6803F48033002B10D0114BB0
:1012C0005B685B0C03F00103114AD35CBB607B6875
:1012D0000D4A03FB02F2BB68B2FBF3F37B6104E04F
:1012E0007B680C4A02FB03F37B617B693B6102E094
:1012F000054B3B6100BF3B6918461C37BD4680BCAF
:10130000704700BF0010024000127A002821000838
:101310003821000800093D0080B400AF024B1B6873
:101320001846BD4680BC70470000002080B500AF65
:10133000FFF7F2FF0246054B5B681B0A03F0070349
:101340000349CB5C22FA03F3184680BD001002402B
:101350002021000880B500AFFFF7DEFF0246054BF5
:101360005B68DB0A03F007030349CB5C22FA03F353
:10137000184680BD001002402021000880B483B0D0
:1013800000AF786039607B680F221A60114B5B6890
:1013900003F003027B685A600E4B5B6803F0F002B7
:1013A0007B689A600B4B5B6803F4E0627B68DA60F1
:1013B000084B5B68DB0803F4E0627B681A61064B4C
:1013C0001B6803F007023B681A6000BF0C37BD467C
:1013D00080BC7047001002400020024080B485B0FD
:1013E00000AF78600A4B1B680A4AA2FB03235B0A22
:1013F0007A6802FB03F3FB6000BFFB685A1EFA60C9
:10140000002BF9D100BF00BF1437BD4680BC704728
:1014100000000020D34D621080B582B000AF78602C
:101420007B68002B01D1012341E07B6893F83D30BC
:10143000DBB2002B06D17B68002283F83C20786861
:1014400000F039F87B68022283F83D207B681A6837
:101450007B6804331946104600F09CF97B68012232
:1014600083F846207B68012283F83E207B680122B6
:1014700083F83F207B68012283F840207B680122AB
:1014800083F841207B68012283F842207B68012297
:1014900083F843207B68012283F844207B68012283
:1014A00083F845207B68012283F83D2000231846FD
:1014B0000837BD4680BD80B483B000AF786000BF00
:1014C0000C37BD4680BC704780B485B000AF7860F3
:1014D0007B6893F83D30DBB2012B01D001233AE069
:1014E0007B68022283F83D207B681B68DA687B6892
:1014F0001B6842F00102DA607B681B68184A93425D
:101500000ED07B681B68B3F1804F09D07B681B68E5
:10151000144A934204D07B681B68134A934211D14A
:101520007B681B689B6803F00703FB60FB68062B66
:1015300010D07B681B681A687B681B6842F0010248
:101540001A6007E07B681B681A687B681B6842F0BA
:1015500001021A60002318461437BD4680BC70474C
:10156000002C0140000400400008004080B584B019
:1015700000AF78607B681B68DB68FB607B681B687A
:101580001B69BB60BB6803F00203002B20D0FB6823
:1015900003F00203002B1BD07B681B686FF0020274
:1015A0001A617B6801221A777B681B689B6903F0CC
:1015B0000303002B03D0786800F0D1F805E07868C9
:1015C00000F0C4F8786800F0D3F87B6800221A773E
:1015D000BB6803F00403002B20D0FB6803F0040376
:1015E000002B1BD07B681B686FF004021A617B68BC
:1015F00002221A777B681B689B6903F44073002BF7
:1016000003D0786800F0ABF805E0786800F09EF849
:10161000786800F0ADF87B6800221A77BB6803F0A9
:101620000803002B20D0FB6803F00803002B1BD01D
:101630007B681B686FF008021A617B6804221A77C6
:101640007B681B68DB6903F00303002B03D0786819
:1016500000F085F805E0786800F078F8786800F028
:1016600087F87B6800221A77BB6803F01003002B11
:1016700020D0FB6803F01003002B1BD07B681B6895
:101680006FF010021A617B6808221A777B681B686A
:10169000DB6903F44073002B03D0786800F05FF837
:1016A00005E0786800F052F8786800F061F87B682F
:1016B00000221A77BB6803F00103002B0CD0FB68F3
:1016C00003F00103002B07D07B681B686FF0010259
:1016D0001A617868FEF720FEBB6803F08003002BD8
:1016E0000CD0FB6803F08003002B07D07B681B68DD
:1016F0006FF080021A61786800F0C3F8BB6803F0ED
:101700004003002B0CD0FB6803F04003002B07D0F4
:101710007B681B686FF040021A61786800F031F84E
:10172000BB6803F02003002B0CD0FB6803F0200300
:10173000002B07D07B681B686FF020021A61786865
:1017400000F096F800BF1037BD4680BD80B483B06E
:1017500000AF786000BF0C37BD4680BC704780B4D6
:1017600083B000AF786000BF0C37BD4680BC7047C7
:1017700080B483B000AF786000BF0C37BD4680BC3A
:10178000704780B483B000AF786000BF0C37BD46AF
:1017900080BC704780B485B000AF786039607B68EA
:1017A0001B68FB607B682F4A93420BD07B68B3F1C8
:1017B000804F07D07B682C4A934203D07B682B4A2A
:1017C000934208D1FB6823F07003FB603B685B68C1
:1017D000FA681343FB607B68224A93420BD07B6814
:1017E000B3F1804F07D07B681F4A934203D07B68D8
:1017F0001E4A934208D1FB6823F44073FB603B68A8
:10180000DB68FA681343FB60FB6823F080023B68E7
:101810005B691343FB607B68FA681A603B689A68EF
:101820007B68DA623B681A687B689A627B680D4A5B
:10183000934203D13B681A697B681A637B68012273
:101840005A617B681B6903F00103002B05D07B689C
:101850001B6923F001027B681A6100BF1437BD4683
:1018600080BC7047002C014000040040000800408C
:1018700080B483B000AF786000BF0C37BD4680BC39
:10188000704780B483B000AF786000BF0C37BD46AE
:1018900080BC704780B582B000AF78607B68002B59
:1018A00001D1012342E07B6893F84130DBB2002B89
:1018B00006D17B68002283F840207868FEF776FD29
:1018C0007B68242283F841207B681B68DA687B6888
:1018D0001B6822F40052DA60786800F071F97B68C6
:1018E0001B681A697B681B6822F490421A617B6846
:1018F0001B685A697B681B6822F02A025A617B6860
:101900001B68DA687B681B6842F40052DA607B6807
:1019100000225A647B68202283F841207B682022C1
:1019200083F842207B6800225A6300231846083758
:10193000BD4680BD80B58AB002AFF860B9603B603B
:101940001346FB8000237B61FB6893F84130DBB2D8
:10195000202B75D1BB68002B02D0FB88002B01D156
:1019600001236EE0FB6800225A64FB68212283F8A1
:101970004120FEF759FE7861FB68FA889A84FB687B
:10198000FA88DA84FB689B68B3F5805F08D1FB684E
:101990001B69002B04D10023FB61BB68BB6103E022
:1019A000BB68FB610023BB612EE03B6800937B6951
:1019B00000228021F86800F048F80346002B05D08B
:1019C000FB68202283F8412003233AE0FB69002BC7
:1019D0000BD1BB691B881A46FB681B68C2F308025F
:1019E0005A60BB690233BB6107E0FB691A78FB6888
:1019F0001B685A60FB690133FB61FB68DB8C9BB29F
:101A0000013B9AB2FB68DA84FB68DB8C9BB2002B4B
:101A1000CBD13B6800937B6900224021F86800F03D
:101A200014F80346002B05D0FB68202283F84120E0
:101A3000032306E0FB68202283F84120002300E016
:101A4000022318462037BD4680BD80B586B000AF62
:101A5000F860B9603B601346FB713BE03B6AB3F151
:101A6000FF3F37D0FEF7E0FD02463B68D31A3A6AE3
:101A70009A4202D33B6A002B01D103233AE0FB6870
:101A80001B68DB6803F00403002B23D0BB68802BAA
:101A900020D0BB68402B1DD0FB681B681B6803F07F
:101AA0000803082B16D100237B61FB681B681B68A9
:101AB0007B61FB681B685B687B617B69F86800F091
:101AC0001DF8FB6808225A64FB68002283F8402056
:101AD00001230FE0FB681B681A68BB681340BA68F3
:101AE0009A420CBF01230023DBB21A46FB799A42CB
:101AF000B4D0002318461837BD4680BD80B495B0D9
:101B000000AF78607B681B680C337B637B6B53E8AA
:101B1000003F3B633B6B23F49073FB647B681B6863
:101B20000C33FA6C3A64FB63F96B3A6C41E80023BE
:101B3000BB63BB6B002BE5D17B681B6814333B6236
:101B40003B6A53E8003FFB61FB6923F00103BB6480
:101B50007B681B681433BA6CFA62BB62B96AFA6AB2
:101B600041E800237B627B6A002BE5D17B681B6B1D
:101B7000012B19D17B681B680C33FB60FB6853E8B1
:101B8000003FBB60BB6823F010037B647B681B686D
:101B90000C337A6CBA617B617969BA6941E80023D8
:101BA0003B613B69002BE5D17B68202283F8422012
:101BB0007B6800221A6300BF5437BD4680BC704763
:101BC00080B584B000AF78607B681B681B6923F424
:101BD00040517B68DA687B681B680A431A617B683E
:101BE0009A687B681B691A437B685B691343BB6017
:101BF0007B681B68DB6823F4B05323F00C037A681E
:101C00001268B9680B43D3607B681B685B6923F477
:101C100040717B689A697B681B680A435A617B68DC
:101C20001B682C4A934203D1FFF794FBF86002E053
:101C3000FFF77CFBF860FA6813469B0013449A0098
:101C40001A447B685B689B00B2FBF3F3224AA2FB59
:101C500003235B091901FA6813469B0013449A0099
:101C60001A447B685B689B00B2FBF3F21A4BA3FB40
:101C700002035B09642000FB03F3D31A1B01323318
:101C8000154AA2FB03235B0903F0F0031944FA6829
:101C900013469B0013449A001A447B685B689B00C0
:101CA000B2FBF3F20C4BA3FB02035B09642000FBC5
:101CB00003F3D31A1B013233074AA2FB03235B0948
:101CC00003F00F027B681B680A449A6000BF10375C
:101CD000BD4680BD003801401F85EB5180B485B002
:101CE00000AF786039607B685B68FB603B68FA68CE
:101CF0005A60FB689A683B689A60FB689B683A6820
:101D00005A60FB683A689A603B687A681A617B6837
:101D10001B685A1C7B681A6000BF1437BD4680BC24
:101D2000704780B485B000AF78607B681B69FB604A
:101D30007B685B687A6892689A607B689B687A685F
:101D400052685A60FB685B687A689A4203D17B6884
:101D50009A68FB685A607B6800221A61FB681B68FE
:101D60005A1EFB681A60FB681B6818461437BD468C
:101D700080BC704780B586B000AF00237B614F4BBD
:101D80001B68002B40F08F804D4B1B6801333B617B
:101D90004B4A3B6913603B69002B21D1494B1B68BF
:101DA0001B68002B0BD04FF0500383F31188BFF357
:101DB0006F8FBFF34F8F3B6000BF00BFFDE7414B0C
:101DC0001B68FB60404B1B683E4A13603E4AFB6841
:101DD00013603E4B1B6801333C4A136000F0E6F889
:101DE0003B4B1B683A699A4248D3364B1B681B68C9
:101DF000002B04D1364B4FF0FF321A603EE0314BDE
:101E00001B68DB68DB68BB60BB685B687B603A694A
:101E10007B689A4203D22E4A7B6813602EE0BB682F
:101E200004331846FFF77DFFBB689B6A002B04D084
:101E3000BB6818331846FFF774FFBB68DB6A0122E2
:101E40009A40244B1B681343224A1360BB68DA6A2A
:101E500013469B0013449B001F4A1A44BB6804337B
:101E600019461046FFF73AFFBB68DA6A1B4B1B683E
:101E7000DB6A9A42B9D301237B61B6E7174B1B6833
:101E8000DA6A154913469B0013449B000B441B68F8
:101E9000012B01D901237B61114B1B68002B07D05B
:101EA00001237B6104E00F4B1B6801330D4A136073
:101EB0007B6918461837BD4680BD00BFBC010020B5
:101EC000A40100209C010020A0010020B4010020FA
:101ED000B8010020A8010020100100200C01002002
:101EE000B0010020AC01002080B487B000AF294BC6
:101EF0001B68002B03D0284B01221A6045E0264BBB
:101F000000221A60254B1B68FB60FB68B3FA83F361
:101F1000FB72FB7AC3F11F037B6121497A69134687
:101F20009B0013449B000B441B68002B0BD14FF00C
:101F3000500383F31188BFF36F8FBFF34F8F7B6024
:101F400000BF00BFFDE77A6913469B0013449B0066
:101F5000134A13443B613B695B685A683B695A60AA
:101F60003B695A683B6908339A4204D13B695B6814
:101F70005A683B695A603B695B68DB68094A1360D1
:101F8000084B1B684C33084A136000BF1C37BD4622
:101F900080BC7047BC010020B0010020A8010020D7
:101FA000100100200C0100200C00002080B400AFC4
:101FB000094B1B681B68002B04D1084B4FF0FF3204
:101FC0001A6005E0044B1B68DB681B68034A13605A
:101FD00000BFBD4680BC70479C010020B8010020B6
:101FE000074B19680868B0E8F00F80F30988BFF361
:101FF0006F8F4FF0000080F311884EF00D0E704788
:102000000C01002000BF00BF000000000000000025
:10201000EFF30980BFF36F8F0D4B1A6820E9F00FC3
:1020200010602DE908404FF0500080F31188FFF751
:102030005BFF4FF0000080F31188BDE8084019688D
:102040000868B0E8F00F80F30988BFF36F8F70471E
:102050000C01002000BF00BF80B582B000AF4FF080
:10206000500383F31188BFF36F8FBFF34F8F7B60F3
:1020700000BFFFF77FFE0346002B03D0064B4FF057
:1020800080521A6000233B603B6883F3118800BFD5
:1020900000BF0837BD4680BD04ED00E003460244A2
:1020A000934200D1704703F8011BF9E770B5002691
:1020B0000C4D0D4C641BA410A64209D100F01AF877
:1020C00000260A4D0A4C641BA410A64205D170BD1F
:1020D00055F8043B98470136EEE755F8043B98471E
:1020E0000136F2E73C2100083C2100083C210008B1
:1020F00040210008F8B500BFF8BC08BC9E467047F8
:0C210000F8B500BFF8BC08BC9E46704754
:10210C0068690000000000000000000001020304E8
:10211C00060708090000000001020304020304057D
:10212C00060708090A0B0C0D0E0F10100102000017
:04213C003501000861
:042140001101000881
:1021440000127A00100000000100000010000020BE
:1021540000000000C001002028020020900200209E
:10216400000000000000000000000000000000006B
:10217400000000000000000000000000000000005B
:10218400000000000000000000000000000000004B
:0C2194000000000000000000000000003F
:040000050800058D5D
:00000001FF
